{
  "_format": "hh-sol-artifact-1",
  "contractName": "ERC1155GeneratedSmartContract",
  "sourceName": "contracts/ERC1155GeneratedSmartContract.sol",
  "abi": [
    {
      "inputs": [
        {
          "internalType": "string",
          "name": "_name",
          "type": "string"
        },
        {
          "internalType": "string",
          "name": "_symbol",
          "type": "string"
        },
        {
          "internalType": "uint256",
          "name": "_maxSupply",
          "type": "uint256"
        },
        {
          "internalType": "string",
          "name": "_uri",
          "type": "string"
        },
        {
          "internalType": "bool",
          "name": "_isRevealed",
          "type": "bool"
        },
        {
          "internalType": "string",
          "name": "_unRevealedUri",
          "type": "string"
        }
      ],
      "stateMutability": "nonpayable",
      "type": "constructor"
    },
    {
      "anonymous": false,
      "inputs": [
        {
          "indexed": true,
          "internalType": "address",
          "name": "account",
          "type": "address"
        },
        {
          "indexed": true,
          "internalType": "address",
          "name": "operator",
          "type": "address"
        },
        {
          "indexed": false,
          "internalType": "bool",
          "name": "approved",
          "type": "bool"
        }
      ],
      "name": "ApprovalForAll",
      "type": "event"
    },
    {
      "anonymous": false,
      "inputs": [
        {
          "indexed": true,
          "internalType": "address",
          "name": "previousOwner",
          "type": "address"
        },
        {
          "indexed": true,
          "internalType": "address",
          "name": "newOwner",
          "type": "address"
        }
      ],
      "name": "OwnershipTransferred",
      "type": "event"
    },
    {
      "anonymous": false,
      "inputs": [
        {
          "indexed": true,
          "internalType": "address",
          "name": "operator",
          "type": "address"
        },
        {
          "indexed": true,
          "internalType": "address",
          "name": "from",
          "type": "address"
        },
        {
          "indexed": true,
          "internalType": "address",
          "name": "to",
          "type": "address"
        },
        {
          "indexed": false,
          "internalType": "uint256[]",
          "name": "ids",
          "type": "uint256[]"
        },
        {
          "indexed": false,
          "internalType": "uint256[]",
          "name": "values",
          "type": "uint256[]"
        }
      ],
      "name": "TransferBatch",
      "type": "event"
    },
    {
      "anonymous": false,
      "inputs": [
        {
          "indexed": true,
          "internalType": "address",
          "name": "operator",
          "type": "address"
        },
        {
          "indexed": true,
          "internalType": "address",
          "name": "from",
          "type": "address"
        },
        {
          "indexed": true,
          "internalType": "address",
          "name": "to",
          "type": "address"
        },
        {
          "indexed": false,
          "internalType": "uint256",
          "name": "id",
          "type": "uint256"
        },
        {
          "indexed": false,
          "internalType": "uint256",
          "name": "value",
          "type": "uint256"
        }
      ],
      "name": "TransferSingle",
      "type": "event"
    },
    {
      "anonymous": false,
      "inputs": [
        {
          "indexed": false,
          "internalType": "string",
          "name": "value",
          "type": "string"
        },
        {
          "indexed": true,
          "internalType": "uint256",
          "name": "id",
          "type": "uint256"
        }
      ],
      "name": "URI",
      "type": "event"
    },
    {
      "inputs": [
        {
          "internalType": "address",
          "name": "_account",
          "type": "address"
        }
      ],
      "name": "addMinter",
      "outputs": [],
      "stateMutability": "nonpayable",
      "type": "function"
    },
    {
      "inputs": [
        {
          "internalType": "address",
          "name": "account",
          "type": "address"
        },
        {
          "internalType": "uint256",
          "name": "id",
          "type": "uint256"
        }
      ],
      "name": "balanceOf",
      "outputs": [
        {
          "internalType": "uint256",
          "name": "",
          "type": "uint256"
        }
      ],
      "stateMutability": "view",
      "type": "function"
    },
    {
      "inputs": [
        {
          "internalType": "address[]",
          "name": "accounts",
          "type": "address[]"
        },
        {
          "internalType": "uint256[]",
          "name": "ids",
          "type": "uint256[]"
        }
      ],
      "name": "balanceOfBatch",
      "outputs": [
        {
          "internalType": "uint256[]",
          "name": "",
          "type": "uint256[]"
        }
      ],
      "stateMutability": "view",
      "type": "function"
    },
    {
      "inputs": [
        {
          "internalType": "address",
          "name": "account",
          "type": "address"
        },
        {
          "internalType": "address",
          "name": "operator",
          "type": "address"
        }
      ],
      "name": "isApprovedForAll",
      "outputs": [
        {
          "internalType": "bool",
          "name": "",
          "type": "bool"
        }
      ],
      "stateMutability": "view",
      "type": "function"
    },
    {
      "inputs": [],
      "name": "isRevealed",
      "outputs": [
        {
          "internalType": "bool",
          "name": "",
          "type": "bool"
        }
      ],
      "stateMutability": "view",
      "type": "function"
    },
    {
      "inputs": [],
      "name": "maxSupply",
      "outputs": [
        {
          "internalType": "uint256",
          "name": "",
          "type": "uint256"
        }
      ],
      "stateMutability": "view",
      "type": "function"
    },
    {
      "inputs": [
        {
          "internalType": "address",
          "name": "tokenOwner",
          "type": "address"
        }
      ],
      "name": "mint",
      "outputs": [
        {
          "internalType": "uint256",
          "name": "",
          "type": "uint256"
        }
      ],
      "stateMutability": "nonpayable",
      "type": "function"
    },
    {
      "inputs": [
        {
          "internalType": "address",
          "name": "tokenOwner",
          "type": "address"
        },
        {
          "internalType": "uint256",
          "name": "count",
          "type": "uint256"
        }
      ],
      "name": "mintWithClones",
      "outputs": [
        {
          "internalType": "uint256",
          "name": "",
          "type": "uint256"
        }
      ],
      "stateMutability": "nonpayable",
      "type": "function"
    },
    {
      "inputs": [],
      "name": "name",
      "outputs": [
        {
          "internalType": "string",
          "name": "",
          "type": "string"
        }
      ],
      "stateMutability": "view",
      "type": "function"
    },
    {
      "inputs": [],
      "name": "owner",
      "outputs": [
        {
          "internalType": "address",
          "name": "",
          "type": "address"
        }
      ],
      "stateMutability": "view",
      "type": "function"
    },
    {
      "inputs": [
        {
          "internalType": "address",
          "name": "_account",
          "type": "address"
        }
      ],
      "name": "removeMinter",
      "outputs": [],
      "stateMutability": "nonpayable",
      "type": "function"
    },
    {
      "inputs": [],
      "name": "renounceOwnership",
      "outputs": [],
      "stateMutability": "nonpayable",
      "type": "function"
    },
    {
      "inputs": [
        {
          "internalType": "address",
          "name": "from",
          "type": "address"
        },
        {
          "internalType": "address",
          "name": "to",
          "type": "address"
        },
        {
          "internalType": "uint256[]",
          "name": "ids",
          "type": "uint256[]"
        },
        {
          "internalType": "uint256[]",
          "name": "amounts",
          "type": "uint256[]"
        },
        {
          "internalType": "bytes",
          "name": "data",
          "type": "bytes"
        }
      ],
      "name": "safeBatchTransferFrom",
      "outputs": [],
      "stateMutability": "nonpayable",
      "type": "function"
    },
    {
      "inputs": [
        {
          "internalType": "address",
          "name": "from",
          "type": "address"
        },
        {
          "internalType": "address",
          "name": "to",
          "type": "address"
        },
        {
          "internalType": "uint256",
          "name": "id",
          "type": "uint256"
        },
        {
          "internalType": "uint256",
          "name": "amount",
          "type": "uint256"
        },
        {
          "internalType": "bytes",
          "name": "data",
          "type": "bytes"
        }
      ],
      "name": "safeTransferFrom",
      "outputs": [],
      "stateMutability": "nonpayable",
      "type": "function"
    },
    {
      "inputs": [
        {
          "internalType": "address",
          "name": "operator",
          "type": "address"
        },
        {
          "internalType": "bool",
          "name": "approved",
          "type": "bool"
        }
      ],
      "name": "setApprovalForAll",
      "outputs": [],
      "stateMutability": "nonpayable",
      "type": "function"
    },
    {
      "inputs": [],
      "name": "setRevealed",
      "outputs": [],
      "stateMutability": "nonpayable",
      "type": "function"
    },
    {
      "inputs": [
        {
          "internalType": "string",
          "name": "newuri",
          "type": "string"
        }
      ],
      "name": "setURI",
      "outputs": [],
      "stateMutability": "nonpayable",
      "type": "function"
    },
    {
      "inputs": [
        {
          "internalType": "bytes4",
          "name": "interfaceId",
          "type": "bytes4"
        }
      ],
      "name": "supportsInterface",
      "outputs": [
        {
          "internalType": "bool",
          "name": "",
          "type": "bool"
        }
      ],
      "stateMutability": "view",
      "type": "function"
    },
    {
      "inputs": [],
      "name": "symbol",
      "outputs": [
        {
          "internalType": "string",
          "name": "",
          "type": "string"
        }
      ],
      "stateMutability": "view",
      "type": "function"
    },
    {
      "inputs": [],
      "name": "totalSupply",
      "outputs": [
        {
          "internalType": "uint256",
          "name": "",
          "type": "uint256"
        }
      ],
      "stateMutability": "view",
      "type": "function"
    },
    {
      "inputs": [
        {
          "internalType": "address",
          "name": "newOwner",
          "type": "address"
        }
      ],
      "name": "transferOwnership",
      "outputs": [],
      "stateMutability": "nonpayable",
      "type": "function"
    },
    {
      "inputs": [],
      "name": "unRevealedUri",
      "outputs": [
        {
          "internalType": "string",
          "name": "",
          "type": "string"
        }
      ],
      "stateMutability": "view",
      "type": "function"
    },
    {
      "inputs": [
        {
          "internalType": "uint256",
          "name": "tokenId",
          "type": "uint256"
        }
      ],
      "name": "uri",
      "outputs": [
        {
          "internalType": "string",
          "name": "",
          "type": "string"
        }
      ],
      "stateMutability": "view",
      "type": "function"
    }
  ],
  "bytecode": "0x60e06040526022608081815290620023dc60a03980516200002991600a91602090910190620001e7565b503480156200003757600080fd5b50604051620023fe380380620023fe8339810160408190526200005a9162000370565b826200006681620000f9565b50620000723362000112565b600160045585516200008c906005906020890190620001e7565b508451620000a2906006906020880190620001e7565b5060088490558251620000bd90600a906020860190620001e7565b50600b805460ff19168315151790558051620000e190600c906020840190620001e7565b50620000ed3362000164565b50505050505062000481565b80516200010e906002906020840190620001e7565b5050565b600380546001600160a01b038381166001600160a01b0319831681179093556040519116919082907f8be0079c531659141344cd1fd0a4f28419497f9722a3daafe3b4186f6b6457e090600090a35050565b6003546001600160a01b03163314620001c35760405162461bcd60e51b815260206004820181905260248201527f4f776e61626c653a2063616c6c6572206973206e6f7420746865206f776e6572604482015260640160405180910390fd5b6001600160a01b03166000908152600960205260409020805460ff19166001179055565b828054620001f59062000444565b90600052602060002090601f01602090048101928262000219576000855562000264565b82601f106200023457805160ff191683800117855562000264565b8280016001018555821562000264579182015b828111156200026457825182559160200191906001019062000247565b506200027292915062000276565b5090565b5b8082111562000272576000815560010162000277565b634e487b7160e01b600052604160045260246000fd5b600082601f830112620002b557600080fd5b81516001600160401b0380821115620002d257620002d26200028d565b604051601f8301601f19908116603f01168101908282118183101715620002fd57620002fd6200028d565b816040528381526020925086838588010111156200031a57600080fd5b600091505b838210156200033e57858201830151818301840152908201906200031f565b83821115620003505760008385830101525b9695505050505050565b805180151581146200036b57600080fd5b919050565b60008060008060008060c087890312156200038a57600080fd5b86516001600160401b0380821115620003a257600080fd5b620003b08a838b01620002a3565b97506020890151915080821115620003c757600080fd5b620003d58a838b01620002a3565b9650604089015195506060890151915080821115620003f357600080fd5b620004018a838b01620002a3565b94506200041160808a016200035a565b935060a08901519150808211156200042857600080fd5b506200043789828a01620002a3565b9150509295509295509295565b600181811c908216806200045957607f821691505b602082108114156200047b57634e487b7160e01b600052602260045260246000fd5b50919050565b611f4b80620004916000396000f3fe608060405234801561001057600080fd5b506004361061014c5760003560e01c80636a627842116100c3578063a22cb4651161007c578063a22cb46514610293578063d5abeb01146102a6578063e985e9c5146102af578063ec0ea45f146102eb578063f242432a146102fe578063f2fde38b1461031157600080fd5b80636a6278421461023a578063715018a61461024d5780638da5cb5b1461025557806395d89b4114610270578063983b2d56146102785780639c107c1d1461028b57600080fd5b806318160ddd1161011557806318160ddd146101d75780632eb2c2d6146101df5780633092afd5146101f25780633bd64968146102055780634e1273f41461020d57806354214f691461022d57600080fd5b8062fdd58e1461015157806301ffc9a71461017757806302fe53051461019a57806306fdde03146101af5780630e89341c146101c4575b600080fd5b61016461015f366004611557565b610324565b6040519081526020015b60405180910390f35b61018a610185366004611597565b6103bb565b604051901515815260200161016e565b6101ad6101a836600461165c565b61040d565b005b6101b7610457565b60405161016e9190611701565b6101b76101d2366004611714565b6104e5565b6101646105d6565b6101ad6101ed3660046117e2565b6105e6565b6101ad61020036600461188c565b61067d565b6101ad6106c8565b61022061021b3660046118a7565b610701565b60405161016e91906119ad565b600b5461018a9060ff1681565b61016461024836600461188c565b61082b565b6101ad61091b565b6003546040516001600160a01b03909116815260200161016e565b6101b7610951565b6101ad61028636600461188c565b61095e565b6101b76109ac565b6101ad6102a13660046119c0565b6109b9565b61016460085481565b61018a6102bd3660046119fc565b6001600160a01b03918216600090815260016020908152604080832093909416825291909152205460ff1690565b6101646102f9366004611557565b6109c8565b6101ad61030c366004611a2f565b610ab8565b6101ad61031f36600461188c565b610b3f565b60006001600160a01b0383166103955760405162461bcd60e51b815260206004820152602b60248201527f455243313135353a2062616c616e636520717565727920666f7220746865207a60448201526a65726f206164647265737360a81b60648201526084015b60405180910390fd5b506000908152602081815260408083206001600160a01b03949094168352929052205490565b60006001600160e01b03198216636cdb3d1360e11b14806103ec57506001600160e01b031982166303a24d0760e21b145b8061040757506301ffc9a760e01b6001600160e01b03198316145b92915050565b6003546001600160a01b031633146104375760405162461bcd60e51b815260040161038c90611a94565b805161044a90600a9060208401906114a7565b5061045481610bd7565b50565b6005805461046490611ac9565b80601f016020809104026020016040519081016040528092919081815260200182805461049090611ac9565b80156104dd5780601f106104b2576101008083540402835291602001916104dd565b820191906000526020600020905b8154815290600101906020018083116104c057829003601f168201915b505050505081565b600b5460609060ff1661058457600c80546104ff90611ac9565b80601f016020809104026020016040519081016040528092919081815260200182805461052b90611ac9565b80156105785780601f1061054d57610100808354040283529160200191610578565b820191906000526020600020905b81548152906001019060200180831161055b57829003601f168201915b50505050509050919050565b60075482116105bf57600a61059883610bea565b6040516020016105a9929190611b9e565b6040516020818303038152906040529050919050565b600a6040516020016105a99190611bd3565b919050565b60006105e160075490565b905090565b6001600160a01b038516331480610602575061060285336102bd565b6106695760405162461bcd60e51b815260206004820152603260248201527f455243313135353a207472616e736665722063616c6c6572206973206e6f74206044820152711bdddb995c881b9bdc88185c1c1c9bdd995960721b606482015260840161038c565b6106768585858585610cf0565b5050505050565b6003546001600160a01b031633146106a75760405162461bcd60e51b815260040161038c90611a94565b6001600160a01b03166000908152600960205260409020805460ff19169055565b6003546001600160a01b031633146106f25760405162461bcd60e51b815260040161038c90611a94565b600b805460ff19166001179055565b606081518351146107665760405162461bcd60e51b815260206004820152602960248201527f455243313135353a206163636f756e747320616e6420696473206c656e677468604482015268040dad2e6dac2e8c6d60bb1b606482015260840161038c565b6000835167ffffffffffffffff811115610782576107826115bb565b6040519080825280602002602001820160405280156107ab578160200160208202803683370190505b50905060005b8451811015610823576107f68582815181106107cf576107cf611bf6565b60200260200101518583815181106107e9576107e9611bf6565b6020026020010151610324565b82828151811061080857610808611bf6565b602090810291909101015261081c81611c22565b90506107b1565b509392505050565b6000600260045414156108805760405162461bcd60e51b815260206004820152601f60248201527f5265656e7472616e637947756172643a207265656e7472616e742063616c6c00604482015260640161038c565b6002600455610893600780546001019055565b60085460075411156108e75760405162461bcd60e51b815260206004820152601f60248201527f43616e2774206d696e74206d6f7265207468616e206d617820737570706c7900604482015260640161038c565b60006108f260075490565b90506109108382600160405180602001604052806000815250610ecd565b600160045592915050565b6003546001600160a01b031633146109455760405162461bcd60e51b815260040161038c90611a94565b61094f6000610fd7565b565b6006805461046490611ac9565b6003546001600160a01b031633146109885760405162461bcd60e51b815260040161038c90611a94565b6001600160a01b03166000908152600960205260409020805460ff19166001179055565b600c805461046490611ac9565b6109c4338383611029565b5050565b600060026004541415610a1d5760405162461bcd60e51b815260206004820152601f60248201527f5265656e7472616e637947756172643a207265656e7472616e742063616c6c00604482015260640161038c565b6002600455610a30600780546001019055565b6008546007541115610a845760405162461bcd60e51b815260206004820152601f60248201527f43616e2774206d696e74206d6f7265207468616e206d617820737570706c7900604482015260640161038c565b6000610a8f60075490565b9050610aac84828560405180602001604052806000815250610ecd565b60016004559392505050565b6001600160a01b038516331480610ad45750610ad485336102bd565b610b325760405162461bcd60e51b815260206004820152602960248201527f455243313135353a2063616c6c6572206973206e6f74206f776e6572206e6f7260448201526808185c1c1c9bdd995960ba1b606482015260840161038c565b610676858585858561110a565b6003546001600160a01b03163314610b695760405162461bcd60e51b815260040161038c90611a94565b6001600160a01b038116610bce5760405162461bcd60e51b815260206004820152602660248201527f4f776e61626c653a206e6577206f776e657220697320746865207a65726f206160448201526564647265737360d01b606482015260840161038c565b61045481610fd7565b80516109c49060029060208401906114a7565b606081610c0e5750506040805180820190915260018152600360fc1b602082015290565b8160005b8115610c385780610c2281611c22565b9150610c319050600a83611c53565b9150610c12565b60008167ffffffffffffffff811115610c5357610c536115bb565b6040519080825280601f01601f191660200182016040528015610c7d576020820181803683370190505b5090505b8415610ce857610c92600183611c67565b9150610c9f600a86611c7e565b610caa906030611c92565b60f81b818381518110610cbf57610cbf611bf6565b60200101906001600160f81b031916908160001a905350610ce1600a86611c53565b9450610c81565b949350505050565b8151835114610d525760405162461bcd60e51b815260206004820152602860248201527f455243313135353a2069647320616e6420616d6f756e7473206c656e677468206044820152670dad2e6dac2e8c6d60c31b606482015260840161038c565b6001600160a01b038416610d785760405162461bcd60e51b815260040161038c90611caa565b3360005b8451811015610e5f576000858281518110610d9957610d99611bf6565b602002602001015190506000858381518110610db757610db7611bf6565b602090810291909101810151600084815280835260408082206001600160a01b038e168352909352919091205490915081811015610e075760405162461bcd60e51b815260040161038c90611cef565b6000838152602081815260408083206001600160a01b038e8116855292528083208585039055908b16825281208054849290610e44908490611c92565b9250508190555050505080610e5890611c22565b9050610d7c565b50846001600160a01b0316866001600160a01b0316826001600160a01b03167f4a39dc06d4c0dbc64b70af90fd698a233a518aa5d07e595d983b8c0526c8f7fb8787604051610eaf929190611d39565b60405180910390a4610ec5818787878787611227565b505050505050565b6001600160a01b038416610f2d5760405162461bcd60e51b815260206004820152602160248201527f455243313135353a206d696e7420746f20746865207a65726f206164647265736044820152607360f81b606482015260840161038c565b33610f4781600087610f3e88611392565b61067688611392565b6000848152602081815260408083206001600160a01b038916845290915281208054859290610f77908490611c92565b909155505060408051858152602081018590526001600160a01b0380881692600092918516917fc3d58168c5ae7397731d063d5bbf3d657854427343f4c083240f7aacaa2d0f62910160405180910390a4610676816000878787876113dd565b600380546001600160a01b038381166001600160a01b0319831681179093556040519116919082907f8be0079c531659141344cd1fd0a4f28419497f9722a3daafe3b4186f6b6457e090600090a35050565b816001600160a01b0316836001600160a01b0316141561109d5760405162461bcd60e51b815260206004820152602960248201527f455243313135353a2073657474696e6720617070726f76616c20737461747573604482015268103337b91039b2b63360b91b606482015260840161038c565b6001600160a01b03838116600081815260016020908152604080832094871680845294825291829020805460ff191686151590811790915591519182527f17307eab39ab6107e8899845ad3d59bd9653f200f220920489ca2b5937696c31910160405180910390a3505050565b6001600160a01b0384166111305760405162461bcd60e51b815260040161038c90611caa565b33611140818787610f3e88611392565b6000848152602081815260408083206001600160a01b038a168452909152902054838110156111815760405162461bcd60e51b815260040161038c90611cef565b6000858152602081815260408083206001600160a01b038b81168552925280832087850390559088168252812080548692906111be908490611c92565b909155505060408051868152602081018690526001600160a01b03808916928a821692918616917fc3d58168c5ae7397731d063d5bbf3d657854427343f4c083240f7aacaa2d0f62910160405180910390a461121e8288888888886113dd565b50505050505050565b6001600160a01b0384163b15610ec55760405163bc197c8160e01b81526001600160a01b0385169063bc197c819061126b9089908990889088908890600401611d67565b602060405180830381600087803b15801561128557600080fd5b505af19250505080156112b5575060408051601f3d908101601f191682019092526112b291810190611dc5565b60015b611362576112c1611de2565b806308c379a014156112fb57506112d6611dfe565b806112e157506112fd565b8060405162461bcd60e51b815260040161038c9190611701565b505b60405162461bcd60e51b815260206004820152603460248201527f455243313135353a207472616e7366657220746f206e6f6e20455243313135356044820152732932b1b2b4bb32b91034b6b83632b6b2b73a32b960611b606482015260840161038c565b6001600160e01b0319811663bc197c8160e01b1461121e5760405162461bcd60e51b815260040161038c90611e88565b604080516001808252818301909252606091600091906020808301908036833701905050905082816000815181106113cc576113cc611bf6565b602090810291909101015292915050565b6001600160a01b0384163b15610ec55760405163f23a6e6160e01b81526001600160a01b0385169063f23a6e61906114219089908990889088908890600401611ed0565b602060405180830381600087803b15801561143b57600080fd5b505af192505050801561146b575060408051601f3d908101601f1916820190925261146891810190611dc5565b60015b611477576112c1611de2565b6001600160e01b0319811663f23a6e6160e01b1461121e5760405162461bcd60e51b815260040161038c90611e88565b8280546114b390611ac9565b90600052602060002090601f0160209004810192826114d5576000855561151b565b82601f106114ee57805160ff191683800117855561151b565b8280016001018555821561151b579182015b8281111561151b578251825591602001919060010190611500565b5061152792915061152b565b5090565b5b80821115611527576000815560010161152c565b80356001600160a01b03811681146105d157600080fd5b6000806040838503121561156a57600080fd5b61157383611540565b946020939093013593505050565b6001600160e01b03198116811461045457600080fd5b6000602082840312156115a957600080fd5b81356115b481611581565b9392505050565b634e487b7160e01b600052604160045260246000fd5b601f8201601f1916810167ffffffffffffffff811182821017156115f7576115f76115bb565b6040525050565b600067ffffffffffffffff831115611618576116186115bb565b60405161162f601f8501601f1916602001826115d1565b80915083815284848401111561164457600080fd5b83836020830137600060208583010152509392505050565b60006020828403121561166e57600080fd5b813567ffffffffffffffff81111561168557600080fd5b8201601f8101841361169657600080fd5b610ce8848235602084016115fe565b60005b838110156116c05781810151838201526020016116a8565b838111156116cf576000848401525b50505050565b600081518084526116ed8160208601602086016116a5565b601f01601f19169290920160200192915050565b6020815260006115b460208301846116d5565b60006020828403121561172657600080fd5b5035919050565b600067ffffffffffffffff821115611747576117476115bb565b5060051b60200190565b600082601f83011261176257600080fd5b8135602061176f8261172d565b60405161177c82826115d1565b83815260059390931b850182019282810191508684111561179c57600080fd5b8286015b848110156117b757803583529183019183016117a0565b509695505050505050565b600082601f8301126117d357600080fd5b6115b4838335602085016115fe565b600080600080600060a086880312156117fa57600080fd5b61180386611540565b945061181160208701611540565b9350604086013567ffffffffffffffff8082111561182e57600080fd5b61183a89838a01611751565b9450606088013591508082111561185057600080fd5b61185c89838a01611751565b9350608088013591508082111561187257600080fd5b5061187f888289016117c2565b9150509295509295909350565b60006020828403121561189e57600080fd5b6115b482611540565b600080604083850312156118ba57600080fd5b823567ffffffffffffffff808211156118d257600080fd5b818501915085601f8301126118e657600080fd5b813560206118f38261172d565b60405161190082826115d1565b83815260059390931b850182019282810191508984111561192057600080fd5b948201945b838610156119455761193686611540565b82529482019490820190611925565b9650508601359250508082111561195b57600080fd5b5061196885828601611751565b9150509250929050565b600081518084526020808501945080840160005b838110156119a257815187529582019590820190600101611986565b509495945050505050565b6020815260006115b46020830184611972565b600080604083850312156119d357600080fd5b6119dc83611540565b9150602083013580151581146119f157600080fd5b809150509250929050565b60008060408385031215611a0f57600080fd5b611a1883611540565b9150611a2660208401611540565b90509250929050565b600080600080600060a08688031215611a4757600080fd5b611a5086611540565b9450611a5e60208701611540565b93506040860135925060608601359150608086013567ffffffffffffffff811115611a8857600080fd5b61187f888289016117c2565b6020808252818101527f4f776e61626c653a2063616c6c6572206973206e6f7420746865206f776e6572604082015260600190565b600181811c90821680611add57607f821691505b60208210811415611afe57634e487b7160e01b600052602260045260246000fd5b50919050565b8054600090600181811c9080831680611b1e57607f831692505b6020808410821415611b4057634e487b7160e01b600052602260045260246000fd5b818015611b545760018114611b6557611b92565b60ff19861689528489019650611b92565b60008881526020902060005b86811015611b8a5781548b820152908501908301611b71565b505084890196505b50505050505092915050565b6000611baa8285611b04565b8351611bba8183602088016116a5565b64173539b7b760d91b9101908152600501949350505050565b6000611bdf8284611b04565b663737973539b7b760c91b81526007019392505050565b634e487b7160e01b600052603260045260246000fd5b634e487b7160e01b600052601160045260246000fd5b6000600019821415611c3657611c36611c0c565b5060010190565b634e487b7160e01b600052601260045260246000fd5b600082611c6257611c62611c3d565b500490565b600082821015611c7957611c79611c0c565b500390565b600082611c8d57611c8d611c3d565b500690565b60008219821115611ca557611ca5611c0c565b500190565b60208082526025908201527f455243313135353a207472616e7366657220746f20746865207a65726f206164604082015264647265737360d81b606082015260800190565b6020808252602a908201527f455243313135353a20696e73756666696369656e742062616c616e636520666f60408201526939103a3930b739b332b960b11b606082015260800190565b604081526000611d4c6040830185611972565b8281036020840152611d5e8185611972565b95945050505050565b6001600160a01b0386811682528516602082015260a060408201819052600090611d9390830186611972565b8281036060840152611da58186611972565b90508281036080840152611db981856116d5565b98975050505050505050565b600060208284031215611dd757600080fd5b81516115b481611581565b600060033d1115611dfb5760046000803e5060005160e01c5b90565b600060443d1015611e0c5790565b6040516003193d81016004833e81513d67ffffffffffffffff8160248401118184111715611e3c57505050505090565b8285019150815181811115611e545750505050505090565b843d8701016020828501011115611e6e5750505050505090565b611e7d602082860101876115d1565b509095945050505050565b60208082526028908201527f455243313135353a204552433131353552656365697665722072656a656374656040820152676420746f6b656e7360c01b606082015260800190565b6001600160a01b03868116825285166020820152604081018490526060810183905260a060808201819052600090611f0a908301846116d5565b97965050505050505056fea2646970667358221220858364ecd01ca0424c943565818644cde56d898e18a94445f19e460fd9b9641064736f6c6343000809003368747470733a2f2f676174657761792e70696e6174612e636c6f75642f697066732f",
  "linkReferences": {},
  "deployedLinkReferences": {}
}