{
  "_format": "hh-sol-artifact-1",
  "contractName": "ERC1155SmartContract",
  "sourceName": "contracts/ERC1155SmartContract.sol",
  "abi": [
    {
      "inputs": [
        {
          "internalType": "string",
          "name": "_name",
          "type": "string"
        },
        {
          "internalType": "string",
          "name": "_symbol",
          "type": "string"
        },
        {
          "internalType": "uint256",
          "name": "_maxSupply",
          "type": "uint256"
        },
        {
          "internalType": "string",
          "name": "_uri",
          "type": "string"
        },
        {
          "internalType": "uint256",
          "name": "_price",
          "type": "uint256"
        },
        {
          "internalType": "address",
          "name": "_collectionOwner",
          "type": "address"
        }
      ],
      "stateMutability": "nonpayable",
      "type": "constructor"
    },
    {
      "anonymous": false,
      "inputs": [
        {
          "indexed": true,
          "internalType": "address",
          "name": "account",
          "type": "address"
        },
        {
          "indexed": true,
          "internalType": "address",
          "name": "operator",
          "type": "address"
        },
        {
          "indexed": false,
          "internalType": "bool",
          "name": "approved",
          "type": "bool"
        }
      ],
      "name": "ApprovalForAll",
      "type": "event"
    },
    {
      "anonymous": false,
      "inputs": [
        {
          "indexed": true,
          "internalType": "address",
          "name": "previousOwner",
          "type": "address"
        },
        {
          "indexed": true,
          "internalType": "address",
          "name": "newOwner",
          "type": "address"
        }
      ],
      "name": "OwnershipTransferred",
      "type": "event"
    },
    {
      "anonymous": false,
      "inputs": [
        {
          "indexed": true,
          "internalType": "address",
          "name": "operator",
          "type": "address"
        },
        {
          "indexed": true,
          "internalType": "address",
          "name": "from",
          "type": "address"
        },
        {
          "indexed": true,
          "internalType": "address",
          "name": "to",
          "type": "address"
        },
        {
          "indexed": false,
          "internalType": "uint256[]",
          "name": "ids",
          "type": "uint256[]"
        },
        {
          "indexed": false,
          "internalType": "uint256[]",
          "name": "values",
          "type": "uint256[]"
        }
      ],
      "name": "TransferBatch",
      "type": "event"
    },
    {
      "anonymous": false,
      "inputs": [
        {
          "indexed": true,
          "internalType": "address",
          "name": "operator",
          "type": "address"
        },
        {
          "indexed": true,
          "internalType": "address",
          "name": "from",
          "type": "address"
        },
        {
          "indexed": true,
          "internalType": "address",
          "name": "to",
          "type": "address"
        },
        {
          "indexed": false,
          "internalType": "uint256",
          "name": "id",
          "type": "uint256"
        },
        {
          "indexed": false,
          "internalType": "uint256",
          "name": "value",
          "type": "uint256"
        }
      ],
      "name": "TransferSingle",
      "type": "event"
    },
    {
      "anonymous": false,
      "inputs": [
        {
          "indexed": false,
          "internalType": "string",
          "name": "value",
          "type": "string"
        },
        {
          "indexed": true,
          "internalType": "uint256",
          "name": "id",
          "type": "uint256"
        }
      ],
      "name": "URI",
      "type": "event"
    },
    {
      "inputs": [
        {
          "internalType": "address",
          "name": "_account",
          "type": "address"
        }
      ],
      "name": "addMinter",
      "outputs": [],
      "stateMutability": "nonpayable",
      "type": "function"
    },
    {
      "inputs": [
        {
          "internalType": "address",
          "name": "account",
          "type": "address"
        },
        {
          "internalType": "uint256",
          "name": "id",
          "type": "uint256"
        }
      ],
      "name": "balanceOf",
      "outputs": [
        {
          "internalType": "uint256",
          "name": "",
          "type": "uint256"
        }
      ],
      "stateMutability": "view",
      "type": "function"
    },
    {
      "inputs": [
        {
          "internalType": "address[]",
          "name": "accounts",
          "type": "address[]"
        },
        {
          "internalType": "uint256[]",
          "name": "ids",
          "type": "uint256[]"
        }
      ],
      "name": "balanceOfBatch",
      "outputs": [
        {
          "internalType": "uint256[]",
          "name": "",
          "type": "uint256[]"
        }
      ],
      "stateMutability": "view",
      "type": "function"
    },
    {
      "inputs": [],
      "name": "collectionOwner",
      "outputs": [
        {
          "internalType": "address",
          "name": "",
          "type": "address"
        }
      ],
      "stateMutability": "view",
      "type": "function"
    },
    {
      "inputs": [
        {
          "internalType": "address",
          "name": "account",
          "type": "address"
        },
        {
          "internalType": "address",
          "name": "operator",
          "type": "address"
        }
      ],
      "name": "isApprovedForAll",
      "outputs": [
        {
          "internalType": "bool",
          "name": "",
          "type": "bool"
        }
      ],
      "stateMutability": "view",
      "type": "function"
    },
    {
      "inputs": [],
      "name": "maxSupply",
      "outputs": [
        {
          "internalType": "uint256",
          "name": "",
          "type": "uint256"
        }
      ],
      "stateMutability": "view",
      "type": "function"
    },
    {
      "inputs": [
        {
          "internalType": "address",
          "name": "tokenOwner",
          "type": "address"
        }
      ],
      "name": "mint",
      "outputs": [
        {
          "internalType": "uint256",
          "name": "",
          "type": "uint256"
        }
      ],
      "stateMutability": "payable",
      "type": "function"
    },
    {
      "inputs": [
        {
          "internalType": "address",
          "name": "tokenOwner",
          "type": "address"
        },
        {
          "internalType": "uint256",
          "name": "count",
          "type": "uint256"
        }
      ],
      "name": "mintWithClones",
      "outputs": [
        {
          "internalType": "uint256",
          "name": "",
          "type": "uint256"
        }
      ],
      "stateMutability": "payable",
      "type": "function"
    },
    {
      "inputs": [],
      "name": "name",
      "outputs": [
        {
          "internalType": "string",
          "name": "",
          "type": "string"
        }
      ],
      "stateMutability": "view",
      "type": "function"
    },
    {
      "inputs": [],
      "name": "owner",
      "outputs": [
        {
          "internalType": "address",
          "name": "",
          "type": "address"
        }
      ],
      "stateMutability": "view",
      "type": "function"
    },
    {
      "inputs": [
        {
          "internalType": "address",
          "name": "_account",
          "type": "address"
        }
      ],
      "name": "removeMinter",
      "outputs": [],
      "stateMutability": "nonpayable",
      "type": "function"
    },
    {
      "inputs": [],
      "name": "renounceOwnership",
      "outputs": [],
      "stateMutability": "nonpayable",
      "type": "function"
    },
    {
      "inputs": [
        {
          "internalType": "address",
          "name": "from",
          "type": "address"
        },
        {
          "internalType": "address",
          "name": "to",
          "type": "address"
        },
        {
          "internalType": "uint256[]",
          "name": "ids",
          "type": "uint256[]"
        },
        {
          "internalType": "uint256[]",
          "name": "amounts",
          "type": "uint256[]"
        },
        {
          "internalType": "bytes",
          "name": "data",
          "type": "bytes"
        }
      ],
      "name": "safeBatchTransferFrom",
      "outputs": [],
      "stateMutability": "nonpayable",
      "type": "function"
    },
    {
      "inputs": [
        {
          "internalType": "address",
          "name": "from",
          "type": "address"
        },
        {
          "internalType": "address",
          "name": "to",
          "type": "address"
        },
        {
          "internalType": "uint256",
          "name": "id",
          "type": "uint256"
        },
        {
          "internalType": "uint256",
          "name": "amount",
          "type": "uint256"
        },
        {
          "internalType": "bytes",
          "name": "data",
          "type": "bytes"
        }
      ],
      "name": "safeTransferFrom",
      "outputs": [],
      "stateMutability": "nonpayable",
      "type": "function"
    },
    {
      "inputs": [
        {
          "internalType": "address",
          "name": "operator",
          "type": "address"
        },
        {
          "internalType": "bool",
          "name": "approved",
          "type": "bool"
        }
      ],
      "name": "setApprovalForAll",
      "outputs": [],
      "stateMutability": "nonpayable",
      "type": "function"
    },
    {
      "inputs": [
        {
          "internalType": "address",
          "name": "_collectionOwner",
          "type": "address"
        }
      ],
      "name": "setCollectionOwner",
      "outputs": [],
      "stateMutability": "nonpayable",
      "type": "function"
    },
    {
      "inputs": [
        {
          "internalType": "uint256",
          "name": "_price",
          "type": "uint256"
        }
      ],
      "name": "setPrice",
      "outputs": [],
      "stateMutability": "nonpayable",
      "type": "function"
    },
    {
      "inputs": [
        {
          "internalType": "string",
          "name": "newuri",
          "type": "string"
        }
      ],
      "name": "setURI",
      "outputs": [],
      "stateMutability": "nonpayable",
      "type": "function"
    },
    {
      "inputs": [
        {
          "internalType": "bytes4",
          "name": "interfaceId",
          "type": "bytes4"
        }
      ],
      "name": "supportsInterface",
      "outputs": [
        {
          "internalType": "bool",
          "name": "",
          "type": "bool"
        }
      ],
      "stateMutability": "view",
      "type": "function"
    },
    {
      "inputs": [],
      "name": "symbol",
      "outputs": [
        {
          "internalType": "string",
          "name": "",
          "type": "string"
        }
      ],
      "stateMutability": "view",
      "type": "function"
    },
    {
      "inputs": [],
      "name": "totalSupply",
      "outputs": [
        {
          "internalType": "uint256",
          "name": "",
          "type": "uint256"
        }
      ],
      "stateMutability": "view",
      "type": "function"
    },
    {
      "inputs": [
        {
          "internalType": "address",
          "name": "newOwner",
          "type": "address"
        }
      ],
      "name": "transferOwnership",
      "outputs": [],
      "stateMutability": "nonpayable",
      "type": "function"
    },
    {
      "inputs": [
        {
          "internalType": "uint256",
          "name": "tokenId",
          "type": "uint256"
        }
      ],
      "name": "uri",
      "outputs": [
        {
          "internalType": "string",
          "name": "",
          "type": "string"
        }
      ],
      "stateMutability": "view",
      "type": "function"
    },
    {
      "inputs": [],
      "name": "withdrawFunds",
      "outputs": [],
      "stateMutability": "nonpayable",
      "type": "function"
    }
  ],
  "bytecode": "0x60e060405260226080818152906200266760a03980516200002991600b91602090910190620001e3565b503480156200003757600080fd5b5060405162002689380380620026898339810160408190526200005a9162000356565b826200006681620000f5565b5062000072336200010e565b600160045585516200008c906005906020890190620001e3565b508451620000a2906006906020880190620001e3565b5060098490558251620000bd90600b906020860190620001e3565b506008829055600c80546001600160a01b0319166001600160a01b038316179055620000e93362000160565b5050505050506200045a565b80516200010a906002906020840190620001e3565b5050565b600380546001600160a01b038381166001600160a01b0319831681179093556040519116919082907f8be0079c531659141344cd1fd0a4f28419497f9722a3daafe3b4186f6b6457e090600090a35050565b6003546001600160a01b03163314620001bf5760405162461bcd60e51b815260206004820181905260248201527f4f776e61626c653a2063616c6c6572206973206e6f7420746865206f776e6572604482015260640160405180910390fd5b6001600160a01b03166000908152600a60205260409020805460ff19166001179055565b828054620001f1906200041d565b90600052602060002090601f01602090048101928262000215576000855562000260565b82601f106200023057805160ff191683800117855562000260565b8280016001018555821562000260579182015b828111156200026057825182559160200191906001019062000243565b506200026e92915062000272565b5090565b5b808211156200026e576000815560010162000273565b634e487b7160e01b600052604160045260246000fd5b600082601f830112620002b157600080fd5b81516001600160401b0380821115620002ce57620002ce62000289565b604051601f8301601f19908116603f01168101908282118183101715620002f957620002f962000289565b816040528381526020925086838588010111156200031657600080fd5b600091505b838210156200033a57858201830151818301840152908201906200031b565b838211156200034c5760008385830101525b9695505050505050565b60008060008060008060c087890312156200037057600080fd5b86516001600160401b03808211156200038857600080fd5b620003968a838b016200029f565b97506020890151915080821115620003ad57600080fd5b620003bb8a838b016200029f565b9650604089015195506060890151915080821115620003d957600080fd5b50620003e889828a016200029f565b608089015160a08a0151919550935090506001600160a01b03811681146200040f57600080fd5b809150509295509295509295565b600181811c908216806200043257607f821691505b602082108114156200045457634e487b7160e01b600052602260045260246000fd5b50919050565b6121fd806200046a6000396000f3fe60806040526004361061014a5760003560e01c8063715018a6116100b6578063d5abeb011161006f578063d5abeb011461039c578063df727d3b146103b2578063e985e9c5146103d2578063ec0ea45f1461041b578063f242432a1461042e578063f2fde38b1461044e57600080fd5b8063715018a6146102e05780638da5cb5b146102f557806391b7f5ed1461032757806395d89b4114610347578063983b2d561461035c578063a22cb4651461037c57600080fd5b806318160ddd1161010857806318160ddd1461023657806324600fc31461024b5780632eb2c2d6146102605780633092afd5146102805780634e1273f4146102a05780636a627842146102cd57600080fd5b8062fdd58e1461014f57806301ffc9a71461018257806302fe5305146101b257806306fdde03146101d4578063098f9cf3146101f65780630e89341c14610216575b600080fd5b34801561015b57600080fd5b5061016f61016a366004611790565b61046e565b6040519081526020015b60405180910390f35b34801561018e57600080fd5b506101a261019d3660046117d0565b610505565b6040519015158152602001610179565b3480156101be57600080fd5b506101d26101cd366004611895565b610557565b005b3480156101e057600080fd5b506101e96105a1565b604051610179919061193a565b34801561020257600080fd5b506101d261021136600461194d565b61062f565b34801561022257600080fd5b506101e9610231366004611968565b61067b565b34801561024257600080fd5b5061016f6106f2565b34801561025757600080fd5b506101d2610702565b34801561026c57600080fd5b506101d261027b366004611a36565b6107e7565b34801561028c57600080fd5b506101d261029b36600461194d565b61087e565b3480156102ac57600080fd5b506102c06102bb366004611ae0565b6108c9565b6040516101799190611be6565b61016f6102db36600461194d565b6109f3565b3480156102ec57600080fd5b506101d2610b05565b34801561030157600080fd5b506003546001600160a01b03165b6040516001600160a01b039091168152602001610179565b34801561033357600080fd5b506101d2610342366004611968565b610b3b565b34801561035357600080fd5b506101e9610b6a565b34801561036857600080fd5b506101d261037736600461194d565b610b77565b34801561038857600080fd5b506101d2610397366004611bf9565b610bc5565b3480156103a857600080fd5b5061016f60095481565b3480156103be57600080fd5b50600c5461030f906001600160a01b031681565b3480156103de57600080fd5b506101a26103ed366004611c35565b6001600160a01b03918216600090815260016020908152604080832093909416825291909152205460ff1690565b61016f610429366004611790565b610bd4565b34801561043a57600080fd5b506101d2610449366004611c68565b610cf1565b34801561045a57600080fd5b506101d261046936600461194d565b610d78565b60006001600160a01b0383166104df5760405162461bcd60e51b815260206004820152602b60248201527f455243313135353a2062616c616e636520717565727920666f7220746865207a60448201526a65726f206164647265737360a81b60648201526084015b60405180910390fd5b506000908152602081815260408083206001600160a01b03949094168352929052205490565b60006001600160e01b03198216636cdb3d1360e11b148061053657506001600160e01b031982166303a24d0760e21b145b8061055157506301ffc9a760e01b6001600160e01b03198316145b92915050565b6003546001600160a01b031633146105815760405162461bcd60e51b81526004016104d690611ccd565b805161059490600b9060208401906116e0565b5061059e81610e10565b50565b600580546105ae90611d02565b80601f01602080910402602001604051908101604052809291908181526020018280546105da90611d02565b80156106275780601f106105fc57610100808354040283529160200191610627565b820191906000526020600020905b81548152906001019060200180831161060a57829003601f168201915b505050505081565b600c546001600160a01b031633146106595760405162461bcd60e51b81526004016104d690611d3d565b600c80546001600160a01b0319166001600160a01b0392909216919091179055565b606061068660075490565b82116106be57600b61069783610e23565b6040516020016106a8929190611da0565b6040516020818303038152906040529050919050565b505060408051808201909152601381527211548e88125b9d985b1a59081d1bdad95b9259606a1b602082015290565b919050565b60006106fd60075490565b905090565b600260045414156107255760405162461bcd60e51b81526004016104d690611e5b565b6002600455600c546001600160a01b031633146107545760405162461bcd60e51b81526004016104d690611d3d565b604051600090339047908381818185875af1925050503d8060008114610796576040519150601f19603f3d011682016040523d82523d6000602084013e61079b565b606091505b50509050806107df5760405162461bcd60e51b815260206004820152601060248201526f2a3930b739b332b9103330b4b632b21760811b60448201526064016104d6565b506001600455565b6001600160a01b038516331480610803575061080385336103ed565b61086a5760405162461bcd60e51b815260206004820152603260248201527f455243313135353a207472616e736665722063616c6c6572206973206e6f74206044820152711bdddb995c881b9bdc88185c1c1c9bdd995960721b60648201526084016104d6565b6108778585858585610f29565b5050505050565b6003546001600160a01b031633146108a85760405162461bcd60e51b81526004016104d690611ccd565b6001600160a01b03166000908152600a60205260409020805460ff19169055565b6060815183511461092e5760405162461bcd60e51b815260206004820152602960248201527f455243313135353a206163636f756e747320616e6420696473206c656e677468604482015268040dad2e6dac2e8c6d60bb1b60648201526084016104d6565b6000835167ffffffffffffffff81111561094a5761094a6117f4565b604051908082528060200260200182016040528015610973578160200160208202803683370190505b50905060005b84518110156109eb576109be85828151811061099757610997611e92565b60200260200101518583815181106109b1576109b1611e92565b602002602001015161046e565b8282815181106109d0576109d0611e92565b60209081029190910101526109e481611ebe565b9050610979565b509392505050565b600060026004541415610a185760405162461bcd60e51b81526004016104d690611e5b565b6002600455610a2b600780546001019055565b600854341015610a7d5760405162461bcd60e51b815260206004820152601a60248201527f496e636f7272656374204e465420707269636520616d6f756e7400000000000060448201526064016104d6565b6009546007541115610ad15760405162461bcd60e51b815260206004820152601f60248201527f43616e2774206d696e74206d6f7265207468616e206d617820737570706c790060448201526064016104d6565b6000610adc60075490565b9050610afa8382600160405180602001604052806000815250611106565b600160045592915050565b6003546001600160a01b03163314610b2f5760405162461bcd60e51b81526004016104d690611ccd565b610b396000611210565b565b6003546001600160a01b03163314610b655760405162461bcd60e51b81526004016104d690611ccd565b600855565b600680546105ae90611d02565b6003546001600160a01b03163314610ba15760405162461bcd60e51b81526004016104d690611ccd565b6001600160a01b03166000908152600a60205260409020805460ff19166001179055565b610bd0338383611262565b5050565b600060026004541415610bf95760405162461bcd60e51b81526004016104d690611e5b565b6002600455610c0c600780546001019055565b81600854610c1a9190611ed9565b341015610c695760405162461bcd60e51b815260206004820152601a60248201527f496e636f7272656374204e465420707269636520616d6f756e7400000000000060448201526064016104d6565b6009546007541115610cbd5760405162461bcd60e51b815260206004820152601f60248201527f43616e2774206d696e74206d6f7265207468616e206d617820737570706c790060448201526064016104d6565b6000610cc860075490565b9050610ce584828560405180602001604052806000815250611106565b60016004559392505050565b6001600160a01b038516331480610d0d5750610d0d85336103ed565b610d6b5760405162461bcd60e51b815260206004820152602960248201527f455243313135353a2063616c6c6572206973206e6f74206f776e6572206e6f7260448201526808185c1c1c9bdd995960ba1b60648201526084016104d6565b6108778585858585611343565b6003546001600160a01b03163314610da25760405162461bcd60e51b81526004016104d690611ccd565b6001600160a01b038116610e075760405162461bcd60e51b815260206004820152602660248201527f4f776e61626c653a206e6577206f776e657220697320746865207a65726f206160448201526564647265737360d01b60648201526084016104d6565b61059e81611210565b8051610bd09060029060208401906116e0565b606081610e475750506040805180820190915260018152600360fc1b602082015290565b8160005b8115610e715780610e5b81611ebe565b9150610e6a9050600a83611f0e565b9150610e4b565b60008167ffffffffffffffff811115610e8c57610e8c6117f4565b6040519080825280601f01601f191660200182016040528015610eb6576020820181803683370190505b5090505b8415610f2157610ecb600183611f22565b9150610ed8600a86611f39565b610ee3906030611f4d565b60f81b818381518110610ef857610ef8611e92565b60200101906001600160f81b031916908160001a905350610f1a600a86611f0e565b9450610eba565b949350505050565b8151835114610f8b5760405162461bcd60e51b815260206004820152602860248201527f455243313135353a2069647320616e6420616d6f756e7473206c656e677468206044820152670dad2e6dac2e8c6d60c31b60648201526084016104d6565b6001600160a01b038416610fb15760405162461bcd60e51b81526004016104d690611f65565b3360005b8451811015611098576000858281518110610fd257610fd2611e92565b602002602001015190506000858381518110610ff057610ff0611e92565b602090810291909101810151600084815280835260408082206001600160a01b038e1683529093529190912054909150818110156110405760405162461bcd60e51b81526004016104d690611faa565b6000838152602081815260408083206001600160a01b038e8116855292528083208585039055908b1682528120805484929061107d908490611f4d565b925050819055505050508061109190611ebe565b9050610fb5565b50846001600160a01b0316866001600160a01b0316826001600160a01b03167f4a39dc06d4c0dbc64b70af90fd698a233a518aa5d07e595d983b8c0526c8f7fb87876040516110e8929190611ff4565b60405180910390a46110fe818787878787611460565b505050505050565b6001600160a01b0384166111665760405162461bcd60e51b815260206004820152602160248201527f455243313135353a206d696e7420746f20746865207a65726f206164647265736044820152607360f81b60648201526084016104d6565b3361118081600087611177886115cb565b610877886115cb565b6000848152602081815260408083206001600160a01b0389168452909152812080548592906111b0908490611f4d565b909155505060408051858152602081018590526001600160a01b0380881692600092918516917fc3d58168c5ae7397731d063d5bbf3d657854427343f4c083240f7aacaa2d0f62910160405180910390a461087781600087878787611616565b600380546001600160a01b038381166001600160a01b0319831681179093556040519116919082907f8be0079c531659141344cd1fd0a4f28419497f9722a3daafe3b4186f6b6457e090600090a35050565b816001600160a01b0316836001600160a01b031614156112d65760405162461bcd60e51b815260206004820152602960248201527f455243313135353a2073657474696e6720617070726f76616c20737461747573604482015268103337b91039b2b63360b91b60648201526084016104d6565b6001600160a01b03838116600081815260016020908152604080832094871680845294825291829020805460ff191686151590811790915591519182527f17307eab39ab6107e8899845ad3d59bd9653f200f220920489ca2b5937696c31910160405180910390a3505050565b6001600160a01b0384166113695760405162461bcd60e51b81526004016104d690611f65565b33611379818787611177886115cb565b6000848152602081815260408083206001600160a01b038a168452909152902054838110156113ba5760405162461bcd60e51b81526004016104d690611faa565b6000858152602081815260408083206001600160a01b038b81168552925280832087850390559088168252812080548692906113f7908490611f4d565b909155505060408051868152602081018690526001600160a01b03808916928a821692918616917fc3d58168c5ae7397731d063d5bbf3d657854427343f4c083240f7aacaa2d0f62910160405180910390a4611457828888888888611616565b50505050505050565b6001600160a01b0384163b156110fe5760405163bc197c8160e01b81526001600160a01b0385169063bc197c81906114a49089908990889088908890600401612019565b602060405180830381600087803b1580156114be57600080fd5b505af19250505080156114ee575060408051601f3d908101601f191682019092526114eb91810190612077565b60015b61159b576114fa612094565b806308c379a01415611534575061150f6120b0565b8061151a5750611536565b8060405162461bcd60e51b81526004016104d6919061193a565b505b60405162461bcd60e51b815260206004820152603460248201527f455243313135353a207472616e7366657220746f206e6f6e20455243313135356044820152732932b1b2b4bb32b91034b6b83632b6b2b73a32b960611b60648201526084016104d6565b6001600160e01b0319811663bc197c8160e01b146114575760405162461bcd60e51b81526004016104d69061213a565b6040805160018082528183019092526060916000919060208083019080368337019050509050828160008151811061160557611605611e92565b602090810291909101015292915050565b6001600160a01b0384163b156110fe5760405163f23a6e6160e01b81526001600160a01b0385169063f23a6e619061165a9089908990889088908890600401612182565b602060405180830381600087803b15801561167457600080fd5b505af19250505080156116a4575060408051601f3d908101601f191682019092526116a191810190612077565b60015b6116b0576114fa612094565b6001600160e01b0319811663f23a6e6160e01b146114575760405162461bcd60e51b81526004016104d69061213a565b8280546116ec90611d02565b90600052602060002090601f01602090048101928261170e5760008555611754565b82601f1061172757805160ff1916838001178555611754565b82800160010185558215611754579182015b82811115611754578251825591602001919060010190611739565b50611760929150611764565b5090565b5b808211156117605760008155600101611765565b80356001600160a01b03811681146106ed57600080fd5b600080604083850312156117a357600080fd5b6117ac83611779565b946020939093013593505050565b6001600160e01b03198116811461059e57600080fd5b6000602082840312156117e257600080fd5b81356117ed816117ba565b9392505050565b634e487b7160e01b600052604160045260246000fd5b601f8201601f1916810167ffffffffffffffff81118282101715611830576118306117f4565b6040525050565b600067ffffffffffffffff831115611851576118516117f4565b604051611868601f8501601f19166020018261180a565b80915083815284848401111561187d57600080fd5b83836020830137600060208583010152509392505050565b6000602082840312156118a757600080fd5b813567ffffffffffffffff8111156118be57600080fd5b8201601f810184136118cf57600080fd5b610f2184823560208401611837565b60005b838110156118f95781810151838201526020016118e1565b83811115611908576000848401525b50505050565b600081518084526119268160208601602086016118de565b601f01601f19169290920160200192915050565b6020815260006117ed602083018461190e565b60006020828403121561195f57600080fd5b6117ed82611779565b60006020828403121561197a57600080fd5b5035919050565b600067ffffffffffffffff82111561199b5761199b6117f4565b5060051b60200190565b600082601f8301126119b657600080fd5b813560206119c382611981565b6040516119d0828261180a565b83815260059390931b85018201928281019150868411156119f057600080fd5b8286015b84811015611a0b57803583529183019183016119f4565b509695505050505050565b600082601f830112611a2757600080fd5b6117ed83833560208501611837565b600080600080600060a08688031215611a4e57600080fd5b611a5786611779565b9450611a6560208701611779565b9350604086013567ffffffffffffffff80821115611a8257600080fd5b611a8e89838a016119a5565b94506060880135915080821115611aa457600080fd5b611ab089838a016119a5565b93506080880135915080821115611ac657600080fd5b50611ad388828901611a16565b9150509295509295909350565b60008060408385031215611af357600080fd5b823567ffffffffffffffff80821115611b0b57600080fd5b818501915085601f830112611b1f57600080fd5b81356020611b2c82611981565b604051611b39828261180a565b83815260059390931b8501820192828101915089841115611b5957600080fd5b948201945b83861015611b7e57611b6f86611779565b82529482019490820190611b5e565b96505086013592505080821115611b9457600080fd5b50611ba1858286016119a5565b9150509250929050565b600081518084526020808501945080840160005b83811015611bdb57815187529582019590820190600101611bbf565b509495945050505050565b6020815260006117ed6020830184611bab565b60008060408385031215611c0c57600080fd5b611c1583611779565b915060208301358015158114611c2a57600080fd5b809150509250929050565b60008060408385031215611c4857600080fd5b611c5183611779565b9150611c5f60208401611779565b90509250929050565b600080600080600060a08688031215611c8057600080fd5b611c8986611779565b9450611c9760208701611779565b93506040860135925060608601359150608086013567ffffffffffffffff811115611cc157600080fd5b611ad388828901611a16565b6020808252818101527f4f776e61626c653a2063616c6c6572206973206e6f7420746865206f776e6572604082015260600190565b600181811c90821680611d1657607f821691505b60208210811415611d3757634e487b7160e01b600052602260045260246000fd5b50919050565b60208082526027908201527f4f776e657220636f6c6c656374696f6e206f776e65722063616e206368616e67604082015266329037bbb732b960c91b606082015260800190565b60008151611d968185602086016118de565b9290920192915050565b600080845481600182811c915080831680611dbc57607f831692505b6020808410821415611ddc57634e487b7160e01b86526022600452602486fd5b818015611df05760018114611e0157611e2e565b60ff19861689528489019650611e2e565b60008b81526020902060005b86811015611e265781548b820152908501908301611e0d565b505084890196505b505050505050611e52611e418286611d84565b64173539b7b760d91b815260050190565b95945050505050565b6020808252601f908201527f5265656e7472616e637947756172643a207265656e7472616e742063616c6c00604082015260600190565b634e487b7160e01b600052603260045260246000fd5b634e487b7160e01b600052601160045260246000fd5b6000600019821415611ed257611ed2611ea8565b5060010190565b6000816000190483118215151615611ef357611ef3611ea8565b500290565b634e487b7160e01b600052601260045260246000fd5b600082611f1d57611f1d611ef8565b500490565b600082821015611f3457611f34611ea8565b500390565b600082611f4857611f48611ef8565b500690565b60008219821115611f6057611f60611ea8565b500190565b60208082526025908201527f455243313135353a207472616e7366657220746f20746865207a65726f206164604082015264647265737360d81b606082015260800190565b6020808252602a908201527f455243313135353a20696e73756666696369656e742062616c616e636520666f60408201526939103a3930b739b332b960b11b606082015260800190565b6040815260006120076040830185611bab565b8281036020840152611e528185611bab565b6001600160a01b0386811682528516602082015260a06040820181905260009061204590830186611bab565b82810360608401526120578186611bab565b9050828103608084015261206b818561190e565b98975050505050505050565b60006020828403121561208957600080fd5b81516117ed816117ba565b600060033d11156120ad5760046000803e5060005160e01c5b90565b600060443d10156120be5790565b6040516003193d81016004833e81513d67ffffffffffffffff81602484011181841117156120ee57505050505090565b82850191508151818111156121065750505050505090565b843d87010160208285010111156121205750505050505090565b61212f6020828601018761180a565b509095945050505050565b60208082526028908201527f455243313135353a204552433131353552656365697665722072656a656374656040820152676420746f6b656e7360c01b606082015260800190565b6001600160a01b03868116825285166020820152604081018490526060810183905260a0608082018190526000906121bc9083018461190e565b97965050505050505056fea2646970667358221220a2293fc0f5d908159c7b5c8e9889329829abe9459117fab579fae8a024a3a75d64736f6c6343000809003368747470733a2f2f676174657761792e70696e6174612e636c6f75642f697066732f",
  "linkReferences": {},
  "deployedLinkReferences": {}
}