{
  "_format": "hh-sol-artifact-1",
  "contractName": "ERC1155TieredSmartContract",
  "sourceName": "contracts/ERC1155TieredSmartContract.sol",
  "abi": [
    {
      "inputs": [
        {
          "internalType": "string",
          "name": "_name",
          "type": "string"
        },
        {
          "internalType": "string",
          "name": "_symbol",
          "type": "string"
        },
        {
          "internalType": "uint256",
          "name": "_maxSupply",
          "type": "uint256"
        },
        {
          "internalType": "string",
          "name": "_uri",
          "type": "string"
        },
        {
          "internalType": "uint256[]",
          "name": "_maxTokensSupply",
          "type": "uint256[]"
        }
      ],
      "stateMutability": "nonpayable",
      "type": "constructor"
    },
    {
      "anonymous": false,
      "inputs": [
        {
          "indexed": true,
          "internalType": "address",
          "name": "account",
          "type": "address"
        },
        {
          "indexed": true,
          "internalType": "address",
          "name": "operator",
          "type": "address"
        },
        {
          "indexed": false,
          "internalType": "bool",
          "name": "approved",
          "type": "bool"
        }
      ],
      "name": "ApprovalForAll",
      "type": "event"
    },
    {
      "anonymous": false,
      "inputs": [
        {
          "indexed": true,
          "internalType": "address",
          "name": "previousOwner",
          "type": "address"
        },
        {
          "indexed": true,
          "internalType": "address",
          "name": "newOwner",
          "type": "address"
        }
      ],
      "name": "OwnershipTransferred",
      "type": "event"
    },
    {
      "anonymous": false,
      "inputs": [
        {
          "indexed": true,
          "internalType": "address",
          "name": "operator",
          "type": "address"
        },
        {
          "indexed": true,
          "internalType": "address",
          "name": "from",
          "type": "address"
        },
        {
          "indexed": true,
          "internalType": "address",
          "name": "to",
          "type": "address"
        },
        {
          "indexed": false,
          "internalType": "uint256[]",
          "name": "ids",
          "type": "uint256[]"
        },
        {
          "indexed": false,
          "internalType": "uint256[]",
          "name": "values",
          "type": "uint256[]"
        }
      ],
      "name": "TransferBatch",
      "type": "event"
    },
    {
      "anonymous": false,
      "inputs": [
        {
          "indexed": true,
          "internalType": "address",
          "name": "operator",
          "type": "address"
        },
        {
          "indexed": true,
          "internalType": "address",
          "name": "from",
          "type": "address"
        },
        {
          "indexed": true,
          "internalType": "address",
          "name": "to",
          "type": "address"
        },
        {
          "indexed": false,
          "internalType": "uint256",
          "name": "id",
          "type": "uint256"
        },
        {
          "indexed": false,
          "internalType": "uint256",
          "name": "value",
          "type": "uint256"
        }
      ],
      "name": "TransferSingle",
      "type": "event"
    },
    {
      "anonymous": false,
      "inputs": [
        {
          "indexed": false,
          "internalType": "string",
          "name": "value",
          "type": "string"
        },
        {
          "indexed": true,
          "internalType": "uint256",
          "name": "id",
          "type": "uint256"
        }
      ],
      "name": "URI",
      "type": "event"
    },
    {
      "inputs": [
        {
          "internalType": "address",
          "name": "_account",
          "type": "address"
        }
      ],
      "name": "addMinter",
      "outputs": [],
      "stateMutability": "nonpayable",
      "type": "function"
    },
    {
      "inputs": [
        {
          "internalType": "address",
          "name": "account",
          "type": "address"
        },
        {
          "internalType": "uint256",
          "name": "id",
          "type": "uint256"
        }
      ],
      "name": "balanceOf",
      "outputs": [
        {
          "internalType": "uint256",
          "name": "",
          "type": "uint256"
        }
      ],
      "stateMutability": "view",
      "type": "function"
    },
    {
      "inputs": [
        {
          "internalType": "address[]",
          "name": "accounts",
          "type": "address[]"
        },
        {
          "internalType": "uint256[]",
          "name": "ids",
          "type": "uint256[]"
        }
      ],
      "name": "balanceOfBatch",
      "outputs": [
        {
          "internalType": "uint256[]",
          "name": "",
          "type": "uint256[]"
        }
      ],
      "stateMutability": "view",
      "type": "function"
    },
    {
      "inputs": [
        {
          "internalType": "uint256",
          "name": "id",
          "type": "uint256"
        }
      ],
      "name": "exists",
      "outputs": [
        {
          "internalType": "bool",
          "name": "",
          "type": "bool"
        }
      ],
      "stateMutability": "view",
      "type": "function"
    },
    {
      "inputs": [],
      "name": "getBaseURI",
      "outputs": [
        {
          "internalType": "string",
          "name": "",
          "type": "string"
        }
      ],
      "stateMutability": "view",
      "type": "function"
    },
    {
      "inputs": [
        {
          "internalType": "address",
          "name": "account",
          "type": "address"
        },
        {
          "internalType": "address",
          "name": "operator",
          "type": "address"
        }
      ],
      "name": "isApprovedForAll",
      "outputs": [
        {
          "internalType": "bool",
          "name": "",
          "type": "bool"
        }
      ],
      "stateMutability": "view",
      "type": "function"
    },
    {
      "inputs": [],
      "name": "maxSupply",
      "outputs": [
        {
          "internalType": "uint256",
          "name": "",
          "type": "uint256"
        }
      ],
      "stateMutability": "view",
      "type": "function"
    },
    {
      "inputs": [],
      "name": "maxTokenId",
      "outputs": [
        {
          "internalType": "uint256",
          "name": "",
          "type": "uint256"
        }
      ],
      "stateMutability": "view",
      "type": "function"
    },
    {
      "inputs": [
        {
          "internalType": "address",
          "name": "tokenOwner",
          "type": "address"
        },
        {
          "internalType": "uint256",
          "name": "tierId",
          "type": "uint256"
        },
        {
          "internalType": "uint256",
          "name": "nftCount",
          "type": "uint256"
        }
      ],
      "name": "mintTierTokens",
      "outputs": [
        {
          "internalType": "uint256",
          "name": "",
          "type": "uint256"
        }
      ],
      "stateMutability": "nonpayable",
      "type": "function"
    },
    {
      "inputs": [],
      "name": "name",
      "outputs": [
        {
          "internalType": "string",
          "name": "",
          "type": "string"
        }
      ],
      "stateMutability": "view",
      "type": "function"
    },
    {
      "inputs": [],
      "name": "owner",
      "outputs": [
        {
          "internalType": "address",
          "name": "",
          "type": "address"
        }
      ],
      "stateMutability": "view",
      "type": "function"
    },
    {
      "inputs": [
        {
          "internalType": "address",
          "name": "_account",
          "type": "address"
        }
      ],
      "name": "removeMinter",
      "outputs": [],
      "stateMutability": "nonpayable",
      "type": "function"
    },
    {
      "inputs": [],
      "name": "renounceOwnership",
      "outputs": [],
      "stateMutability": "nonpayable",
      "type": "function"
    },
    {
      "inputs": [
        {
          "internalType": "address",
          "name": "from",
          "type": "address"
        },
        {
          "internalType": "address",
          "name": "to",
          "type": "address"
        },
        {
          "internalType": "uint256[]",
          "name": "ids",
          "type": "uint256[]"
        },
        {
          "internalType": "uint256[]",
          "name": "amounts",
          "type": "uint256[]"
        },
        {
          "internalType": "bytes",
          "name": "data",
          "type": "bytes"
        }
      ],
      "name": "safeBatchTransferFrom",
      "outputs": [],
      "stateMutability": "nonpayable",
      "type": "function"
    },
    {
      "inputs": [
        {
          "internalType": "address",
          "name": "from",
          "type": "address"
        },
        {
          "internalType": "address",
          "name": "to",
          "type": "address"
        },
        {
          "internalType": "uint256",
          "name": "id",
          "type": "uint256"
        },
        {
          "internalType": "uint256",
          "name": "amount",
          "type": "uint256"
        },
        {
          "internalType": "bytes",
          "name": "data",
          "type": "bytes"
        }
      ],
      "name": "safeTransferFrom",
      "outputs": [],
      "stateMutability": "nonpayable",
      "type": "function"
    },
    {
      "inputs": [
        {
          "internalType": "address",
          "name": "operator",
          "type": "address"
        },
        {
          "internalType": "bool",
          "name": "approved",
          "type": "bool"
        }
      ],
      "name": "setApprovalForAll",
      "outputs": [],
      "stateMutability": "nonpayable",
      "type": "function"
    },
    {
      "inputs": [
        {
          "internalType": "string",
          "name": "newuri",
          "type": "string"
        }
      ],
      "name": "setURI",
      "outputs": [],
      "stateMutability": "nonpayable",
      "type": "function"
    },
    {
      "inputs": [
        {
          "internalType": "bytes4",
          "name": "interfaceId",
          "type": "bytes4"
        }
      ],
      "name": "supportsInterface",
      "outputs": [
        {
          "internalType": "bool",
          "name": "",
          "type": "bool"
        }
      ],
      "stateMutability": "view",
      "type": "function"
    },
    {
      "inputs": [],
      "name": "symbol",
      "outputs": [
        {
          "internalType": "string",
          "name": "",
          "type": "string"
        }
      ],
      "stateMutability": "view",
      "type": "function"
    },
    {
      "inputs": [
        {
          "internalType": "uint256",
          "name": "",
          "type": "uint256"
        }
      ],
      "name": "tokensMaxSupply",
      "outputs": [
        {
          "internalType": "uint256",
          "name": "",
          "type": "uint256"
        }
      ],
      "stateMutability": "view",
      "type": "function"
    },
    {
      "inputs": [
        {
          "internalType": "uint256",
          "name": "id",
          "type": "uint256"
        }
      ],
      "name": "totalSupply",
      "outputs": [
        {
          "internalType": "uint256",
          "name": "",
          "type": "uint256"
        }
      ],
      "stateMutability": "view",
      "type": "function"
    },
    {
      "inputs": [
        {
          "internalType": "address",
          "name": "newOwner",
          "type": "address"
        }
      ],
      "name": "transferOwnership",
      "outputs": [],
      "stateMutability": "nonpayable",
      "type": "function"
    },
    {
      "inputs": [
        {
          "internalType": "uint256",
          "name": "tokenId",
          "type": "uint256"
        }
      ],
      "name": "uri",
      "outputs": [
        {
          "internalType": "string",
          "name": "",
          "type": "string"
        }
      ],
      "stateMutability": "view",
      "type": "function"
    }
  ],
  "bytecode": "0x60e06040526022608081815290620026b560a03980516200002991600c9160209091019062000343565b503480156200003757600080fd5b50604051620026d7380380620026d78339810160408190526200005a91620004c7565b81620000668162000258565b50620000723362000271565b600160055584516200008c90600690602088019062000343565b508351620000a290600790602087019062000343565b5060098390558151620000bd90600c90602085019062000343565b506000815111620001245760405162461bcd60e51b815260206004820152602660248201527f4552524f523a205f6d6178546f6b656e73537570706c7920697320656d70747960448201526520617272617960d01b60648201526084015b60405180910390fd5b6000805b8251811015620001a457828181518110620001475762000147620005f5565b6020026020010151826200015c919062000621565b9150828181518110620001735762000173620005f5565b6020908102919091018101516000838152600b909252604090912055806200019b816200063c565b91505062000128565b508084146200022e5760405162461bcd60e51b815260206004820152604960248201527f4552524f523a2073756d6f66206d617820737570706c79206f6620616c6c207460448201527f6f6b656e732073686f756c6420626520657175616c20746f206d617820737570606482015268706c79206f6620534360b81b608482015260a4016200011b565b600182516200023e91906200065a565b6008556200024c33620002c3565b505050505050620006b1565b80516200026d90600290602084019062000343565b5050565b600480546001600160a01b038381166001600160a01b0319831681179093556040519116919082907f8be0079c531659141344cd1fd0a4f28419497f9722a3daafe3b4186f6b6457e090600090a35050565b6004546001600160a01b031633146200031f5760405162461bcd60e51b815260206004820181905260248201527f4f776e61626c653a2063616c6c6572206973206e6f7420746865206f776e657260448201526064016200011b565b6001600160a01b03166000908152600a60205260409020805460ff19166001179055565b828054620003519062000674565b90600052602060002090601f016020900481019282620003755760008555620003c0565b82601f106200039057805160ff1916838001178555620003c0565b82800160010185558215620003c0579182015b82811115620003c0578251825591602001919060010190620003a3565b50620003ce929150620003d2565b5090565b5b80821115620003ce5760008155600101620003d3565b634e487b7160e01b600052604160045260246000fd5b604051601f8201601f191681016001600160401b03811182821017156200042a576200042a620003e9565b604052919050565b600082601f8301126200044457600080fd5b81516001600160401b03811115620004605762000460620003e9565b602062000476601f8301601f19168201620003ff565b82815285828487010111156200048b57600080fd5b60005b83811015620004ab5785810183015182820184015282016200048e565b83811115620004bd5760008385840101525b5095945050505050565b600080600080600060a08688031215620004e057600080fd5b85516001600160401b0380821115620004f857600080fd5b6200050689838a0162000432565b96506020915081880151818111156200051e57600080fd5b6200052c8a828b0162000432565b965050604088015194506060880151818111156200054957600080fd5b620005578a828b0162000432565b9450506080880151818111156200056d57600080fd5b8801601f81018a136200057f57600080fd5b805182811115620005945762000594620003e9565b8060051b9250620005a7848401620003ff565b818152928201840192848101908c851115620005c257600080fd5b928501925b84841015620005e257835182529285019290850190620005c7565b8096505050505050509295509295909350565b634e487b7160e01b600052603260045260246000fd5b634e487b7160e01b600052601160045260246000fd5b600082198211156200063757620006376200060b565b500190565b60006000198214156200065357620006536200060b565b5060010190565b6000828210156200066f576200066f6200060b565b500390565b600181811c908216806200068957607f821691505b60208210811415620006ab57634e487b7160e01b600052602260045260246000fd5b50919050565b611ff480620006c16000396000f3fe608060405234801561001057600080fd5b506004361061014c5760003560e01c8063715018a6116100c3578063a22cb4651161007c578063a22cb465146102c1578063bd85b039146102d4578063d5abeb01146102f4578063e985e9c5146102fd578063f242432a14610339578063f2fde38b1461034c57600080fd5b8063715018a6146102675780638da5cb5b1461026f57806391ba317a1461028a57806395d89b4114610293578063983b2d561461029b578063a0dfe9d6146102ae57600080fd5b80631008d269116101155780631008d269146101d75780632eb2c2d6146101f75780633092afd51461020a5780634e1273f41461021d5780634f558e791461023d578063714c53981461025f57600080fd5b8062fdd58e1461015157806301ffc9a71461017757806302fe53051461019a57806306fdde03146101af5780630e89341c146101c4575b600080fd5b61016461015f3660046115f1565b61035f565b6040519081526020015b60405180910390f35b61018a610185366004611631565b6103f6565b604051901515815260200161016e565b6101ad6101a83660046116f6565b610448565b005b6101b7610492565b60405161016e919061179b565b6101b76101d23660046117ae565b610520565b6101646101e53660046117ae565b600b6020526000908152604090205481565b6101ad61020536600461187c565b610591565b6101ad610218366004611926565b610628565b61023061022b366004611941565b610673565b60405161016e9190611a47565b61018a61024b3660046117ae565b600090815260036020526040902054151590565b6101b761079d565b6101ad61082f565b6004546040516001600160a01b03909116815260200161016e565b61016460085481565b6101b7610865565b6101ad6102a9366004611926565b610872565b6101646102bc366004611a5a565b6108c0565b6101ad6102cf366004611a8d565b610a23565b6101646102e23660046117ae565b60009081526003602052604090205490565b61016460095481565b61018a61030b366004611ac9565b6001600160a01b03918216600090815260016020908152604080832093909416825291909152205460ff1690565b6101ad610347366004611afc565b610a32565b6101ad61035a366004611926565b610ab9565b60006001600160a01b0383166103d05760405162461bcd60e51b815260206004820152602b60248201527f455243313135353a2062616c616e636520717565727920666f7220746865207a60448201526a65726f206164647265737360a81b60648201526084015b60405180910390fd5b506000908152602081815260408083206001600160a01b03949094168352929052205490565b60006001600160e01b03198216636cdb3d1360e11b148061042757506001600160e01b031982166303a24d0760e21b145b8061044257506301ffc9a760e01b6001600160e01b03198316145b92915050565b6004546001600160a01b031633146104725760405162461bcd60e51b81526004016103c790611b61565b805161048590600c906020840190611541565b5061048f81610b51565b50565b6006805461049f90611b96565b80601f01602080910402602001604051908101604052809291908181526020018280546104cb90611b96565b80156105185780601f106104ed57610100808354040283529160200191610518565b820191906000526020600020905b8154815290600101906020018083116104fb57829003601f168201915b505050505081565b6060600854821161055d57600c61053683610b64565b604051602001610547929190611bed565b6040516020818303038152906040529050919050565b505060408051808201909152601381527211548e88125b9d985b1a59081d1bdad95b9259606a1b602082015290565b919050565b6001600160a01b0385163314806105ad57506105ad853361030b565b6106145760405162461bcd60e51b815260206004820152603260248201527f455243313135353a207472616e736665722063616c6c6572206973206e6f74206044820152711bdddb995c881b9bdc88185c1c1c9bdd995960721b60648201526084016103c7565b6106218585858585610c6a565b5050505050565b6004546001600160a01b031633146106525760405162461bcd60e51b81526004016103c790611b61565b6001600160a01b03166000908152600a60205260409020805460ff19169055565b606081518351146106d85760405162461bcd60e51b815260206004820152602960248201527f455243313135353a206163636f756e747320616e6420696473206c656e677468604482015268040dad2e6dac2e8c6d60bb1b60648201526084016103c7565b6000835167ffffffffffffffff8111156106f4576106f4611655565b60405190808252806020026020018201604052801561071d578160200160208202803683370190505b50905060005b84518110156107955761076885828151811061074157610741611ca8565b602002602001015185838151811061075b5761075b611ca8565b602002602001015161035f565b82828151811061077a5761077a611ca8565b602090810291909101015261078e81611cd4565b9050610723565b509392505050565b6060600c80546107ac90611b96565b80601f01602080910402602001604051908101604052809291908181526020018280546107d890611b96565b80156108255780601f106107fa57610100808354040283529160200191610825565b820191906000526020600020905b81548152906001019060200180831161080857829003601f168201915b5050505050905090565b6004546001600160a01b031633146108595760405162461bcd60e51b81526004016103c790611b61565b6108636000610e55565b565b6007805461049f90611b96565b6004546001600160a01b0316331461089c5760405162461bcd60e51b81526004016103c790611b61565b6001600160a01b03166000908152600a60205260409020805460ff19166001179055565b6000600260055414156109155760405162461bcd60e51b815260206004820152601f60248201527f5265656e7472616e637947756172643a207265656e7472616e742063616c6c0060448201526064016103c7565b60026005556000838152600b602090815260408083205460039092529091205461093f9084611cef565b11156109a25760405162461bcd60e51b815260206004820152602c60248201527f43616e2774206d696e74206d6f7265207468616e206d617820737570706c792060448201526b37b3103a3432903a37b5b2b760a11b60648201526084016103c7565b600082116109fc5760405162461bcd60e51b815260206004820152602160248201527f6e6674636f756e742073686f756c642062652067726561746572207468616e206044820152600360fc1b60648201526084016103c7565b610a1784848460405180602001604052806000815250610ea7565b50506001600555919050565b610a2e338383610fb7565b5050565b6001600160a01b038516331480610a4e5750610a4e853361030b565b610aac5760405162461bcd60e51b815260206004820152602960248201527f455243313135353a2063616c6c6572206973206e6f74206f776e6572206e6f7260448201526808185c1c1c9bdd995960ba1b60648201526084016103c7565b6106218585858585611098565b6004546001600160a01b03163314610ae35760405162461bcd60e51b81526004016103c790611b61565b6001600160a01b038116610b485760405162461bcd60e51b815260206004820152602660248201527f4f776e61626c653a206e6577206f776e657220697320746865207a65726f206160448201526564647265737360d01b60648201526084016103c7565b61048f81610e55565b8051610a2e906002906020840190611541565b606081610b885750506040805180820190915260018152600360fc1b602082015290565b8160005b8115610bb25780610b9c81611cd4565b9150610bab9050600a83611d1d565b9150610b8c565b60008167ffffffffffffffff811115610bcd57610bcd611655565b6040519080825280601f01601f191660200182016040528015610bf7576020820181803683370190505b5090505b8415610c6257610c0c600183611d31565b9150610c19600a86611d48565b610c24906030611cef565b60f81b818381518110610c3957610c39611ca8565b60200101906001600160f81b031916908160001a905350610c5b600a86611d1d565b9450610bfb565b949350505050565b8151835114610ccc5760405162461bcd60e51b815260206004820152602860248201527f455243313135353a2069647320616e6420616d6f756e7473206c656e677468206044820152670dad2e6dac2e8c6d60c31b60648201526084016103c7565b6001600160a01b038416610cf25760405162461bcd60e51b81526004016103c790611d5c565b33610d018187878787876111b5565b60005b8451811015610de7576000858281518110610d2157610d21611ca8565b602002602001015190506000858381518110610d3f57610d3f611ca8565b602090810291909101810151600084815280835260408082206001600160a01b038e168352909352919091205490915081811015610d8f5760405162461bcd60e51b81526004016103c790611da1565b6000838152602081815260408083206001600160a01b038e8116855292528083208585039055908b16825281208054849290610dcc908490611cef565b9250508190555050505080610de090611cd4565b9050610d04565b50846001600160a01b0316866001600160a01b0316826001600160a01b03167f4a39dc06d4c0dbc64b70af90fd698a233a518aa5d07e595d983b8c0526c8f7fb8787604051610e37929190611deb565b60405180910390a4610e4d8187878787876112c1565b505050505050565b600480546001600160a01b038381166001600160a01b0319831681179093556040519116919082907f8be0079c531659141344cd1fd0a4f28419497f9722a3daafe3b4186f6b6457e090600090a35050565b6001600160a01b038416610f075760405162461bcd60e51b815260206004820152602160248201527f455243313135353a206d696e7420746f20746865207a65726f206164647265736044820152607360f81b60648201526084016103c7565b33610f2781600087610f188861142c565b610f218861142c565b876111b5565b6000848152602081815260408083206001600160a01b038916845290915281208054859290610f57908490611cef565b909155505060408051858152602081018590526001600160a01b0380881692600092918516917fc3d58168c5ae7397731d063d5bbf3d657854427343f4c083240f7aacaa2d0f62910160405180910390a461062181600087878787611477565b816001600160a01b0316836001600160a01b0316141561102b5760405162461bcd60e51b815260206004820152602960248201527f455243313135353a2073657474696e6720617070726f76616c20737461747573604482015268103337b91039b2b63360b91b60648201526084016103c7565b6001600160a01b03838116600081815260016020908152604080832094871680845294825291829020805460ff191686151590811790915591519182527f17307eab39ab6107e8899845ad3d59bd9653f200f220920489ca2b5937696c31910160405180910390a3505050565b6001600160a01b0384166110be5760405162461bcd60e51b81526004016103c790611d5c565b336110ce818787610f188861142c565b6000848152602081815260408083206001600160a01b038a1684529091529020548381101561110f5760405162461bcd60e51b81526004016103c790611da1565b6000858152602081815260408083206001600160a01b038b811685529252808320878503905590881682528120805486929061114c908490611cef565b909155505060408051868152602081018690526001600160a01b03808916928a821692918616917fc3d58168c5ae7397731d063d5bbf3d657854427343f4c083240f7aacaa2d0f62910160405180910390a46111ac828888888888611477565b50505050505050565b6001600160a01b03851661123c5760005b835181101561123a578281815181106111e1576111e1611ca8565b6020026020010151600360008684815181106111ff576111ff611ca8565b6020026020010151815260200190815260200160002060008282546112249190611cef565b90915550611233905081611cd4565b90506111c6565b505b6001600160a01b038416610e4d5760005b83518110156111ac5782818151811061126857611268611ca8565b60200260200101516003600086848151811061128657611286611ca8565b6020026020010151815260200190815260200160002060008282546112ab9190611d31565b909155506112ba905081611cd4565b905061124d565b6001600160a01b0384163b15610e4d5760405163bc197c8160e01b81526001600160a01b0385169063bc197c81906113059089908990889088908890600401611e10565b602060405180830381600087803b15801561131f57600080fd5b505af192505050801561134f575060408051601f3d908101601f1916820190925261134c91810190611e6e565b60015b6113fc5761135b611e8b565b806308c379a014156113955750611370611ea7565b8061137b5750611397565b8060405162461bcd60e51b81526004016103c7919061179b565b505b60405162461bcd60e51b815260206004820152603460248201527f455243313135353a207472616e7366657220746f206e6f6e20455243313135356044820152732932b1b2b4bb32b91034b6b83632b6b2b73a32b960611b60648201526084016103c7565b6001600160e01b0319811663bc197c8160e01b146111ac5760405162461bcd60e51b81526004016103c790611f31565b6040805160018082528183019092526060916000919060208083019080368337019050509050828160008151811061146657611466611ca8565b602090810291909101015292915050565b6001600160a01b0384163b15610e4d5760405163f23a6e6160e01b81526001600160a01b0385169063f23a6e61906114bb9089908990889088908890600401611f79565b602060405180830381600087803b1580156114d557600080fd5b505af1925050508015611505575060408051601f3d908101601f1916820190925261150291810190611e6e565b60015b6115115761135b611e8b565b6001600160e01b0319811663f23a6e6160e01b146111ac5760405162461bcd60e51b81526004016103c790611f31565b82805461154d90611b96565b90600052602060002090601f01602090048101928261156f57600085556115b5565b82601f1061158857805160ff19168380011785556115b5565b828001600101855582156115b5579182015b828111156115b557825182559160200191906001019061159a565b506115c19291506115c5565b5090565b5b808211156115c157600081556001016115c6565b80356001600160a01b038116811461058c57600080fd5b6000806040838503121561160457600080fd5b61160d836115da565b946020939093013593505050565b6001600160e01b03198116811461048f57600080fd5b60006020828403121561164357600080fd5b813561164e8161161b565b9392505050565b634e487b7160e01b600052604160045260246000fd5b601f8201601f1916810167ffffffffffffffff8111828210171561169157611691611655565b6040525050565b600067ffffffffffffffff8311156116b2576116b2611655565b6040516116c9601f8501601f19166020018261166b565b8091508381528484840111156116de57600080fd5b83836020830137600060208583010152509392505050565b60006020828403121561170857600080fd5b813567ffffffffffffffff81111561171f57600080fd5b8201601f8101841361173057600080fd5b610c6284823560208401611698565b60005b8381101561175a578181015183820152602001611742565b83811115611769576000848401525b50505050565b6000815180845261178781602086016020860161173f565b601f01601f19169290920160200192915050565b60208152600061164e602083018461176f565b6000602082840312156117c057600080fd5b5035919050565b600067ffffffffffffffff8211156117e1576117e1611655565b5060051b60200190565b600082601f8301126117fc57600080fd5b81356020611809826117c7565b604051611816828261166b565b83815260059390931b850182019282810191508684111561183657600080fd5b8286015b84811015611851578035835291830191830161183a565b509695505050505050565b600082601f83011261186d57600080fd5b61164e83833560208501611698565b600080600080600060a0868803121561189457600080fd5b61189d866115da565b94506118ab602087016115da565b9350604086013567ffffffffffffffff808211156118c857600080fd5b6118d489838a016117eb565b945060608801359150808211156118ea57600080fd5b6118f689838a016117eb565b9350608088013591508082111561190c57600080fd5b506119198882890161185c565b9150509295509295909350565b60006020828403121561193857600080fd5b61164e826115da565b6000806040838503121561195457600080fd5b823567ffffffffffffffff8082111561196c57600080fd5b818501915085601f83011261198057600080fd5b8135602061198d826117c7565b60405161199a828261166b565b83815260059390931b85018201928281019150898411156119ba57600080fd5b948201945b838610156119df576119d0866115da565b825294820194908201906119bf565b965050860135925050808211156119f557600080fd5b50611a02858286016117eb565b9150509250929050565b600081518084526020808501945080840160005b83811015611a3c57815187529582019590820190600101611a20565b509495945050505050565b60208152600061164e6020830184611a0c565b600080600060608486031215611a6f57600080fd5b611a78846115da565b95602085013595506040909401359392505050565b60008060408385031215611aa057600080fd5b611aa9836115da565b915060208301358015158114611abe57600080fd5b809150509250929050565b60008060408385031215611adc57600080fd5b611ae5836115da565b9150611af3602084016115da565b90509250929050565b600080600080600060a08688031215611b1457600080fd5b611b1d866115da565b9450611b2b602087016115da565b93506040860135925060608601359150608086013567ffffffffffffffff811115611b5557600080fd5b6119198882890161185c565b6020808252818101527f4f776e61626c653a2063616c6c6572206973206e6f7420746865206f776e6572604082015260600190565b600181811c90821680611baa57607f821691505b60208210811415611bcb57634e487b7160e01b600052602260045260246000fd5b50919050565b60008151611be381856020860161173f565b9290920192915050565b600080845481600182811c915080831680611c0957607f831692505b6020808410821415611c2957634e487b7160e01b86526022600452602486fd5b818015611c3d5760018114611c4e57611c7b565b60ff19861689528489019650611c7b565b60008b81526020902060005b86811015611c735781548b820152908501908301611c5a565b505084890196505b505050505050611c9f611c8e8286611bd1565b64173539b7b760d91b815260050190565b95945050505050565b634e487b7160e01b600052603260045260246000fd5b634e487b7160e01b600052601160045260246000fd5b6000600019821415611ce857611ce8611cbe565b5060010190565b60008219821115611d0257611d02611cbe565b500190565b634e487b7160e01b600052601260045260246000fd5b600082611d2c57611d2c611d07565b500490565b600082821015611d4357611d43611cbe565b500390565b600082611d5757611d57611d07565b500690565b60208082526025908201527f455243313135353a207472616e7366657220746f20746865207a65726f206164604082015264647265737360d81b606082015260800190565b6020808252602a908201527f455243313135353a20696e73756666696369656e742062616c616e636520666f60408201526939103a3930b739b332b960b11b606082015260800190565b604081526000611dfe6040830185611a0c565b8281036020840152611c9f8185611a0c565b6001600160a01b0386811682528516602082015260a060408201819052600090611e3c90830186611a0c565b8281036060840152611e4e8186611a0c565b90508281036080840152611e62818561176f565b98975050505050505050565b600060208284031215611e8057600080fd5b815161164e8161161b565b600060033d1115611ea45760046000803e5060005160e01c5b90565b600060443d1015611eb55790565b6040516003193d81016004833e81513d67ffffffffffffffff8160248401118184111715611ee557505050505090565b8285019150815181811115611efd5750505050505090565b843d8701016020828501011115611f175750505050505090565b611f266020828601018761166b565b509095945050505050565b60208082526028908201527f455243313135353a204552433131353552656365697665722072656a656374656040820152676420746f6b656e7360c01b606082015260800190565b6001600160a01b03868116825285166020820152604081018490526060810183905260a060808201819052600090611fb39083018461176f565b97965050505050505056fea2646970667358221220ebc026cc5ac882a1ed408c700a11bdcbab6e031c1119a713e7baddbffdff4e2864736f6c6343000809003368747470733a2f2f676174657761792e70696e6174612e636c6f75642f697066732f",
  "linkReferences": {},
  "deployedLinkReferences": {}
}