{
  "_format": "hh-sol-artifact-1",
  "contractName": "ERC1155SmartContract",
  "sourceName": "contracts/ERC1155SmartContract.sol",
  "abi": [
    {
      "inputs": [
        {
          "internalType": "string",
          "name": "_name",
          "type": "string"
        },
        {
          "internalType": "string",
          "name": "_symbol",
          "type": "string"
        },
        {
          "internalType": "uint256",
          "name": "_maxSupply",
          "type": "uint256"
        },
        {
          "internalType": "string",
          "name": "_uri",
          "type": "string"
        }
      ],
      "stateMutability": "nonpayable",
      "type": "constructor"
    },
    {
      "anonymous": false,
      "inputs": [
        {
          "indexed": true,
          "internalType": "address",
          "name": "account",
          "type": "address"
        },
        {
          "indexed": true,
          "internalType": "address",
          "name": "operator",
          "type": "address"
        },
        {
          "indexed": false,
          "internalType": "bool",
          "name": "approved",
          "type": "bool"
        }
      ],
      "name": "ApprovalForAll",
      "type": "event"
    },
    {
      "anonymous": false,
      "inputs": [
        {
          "indexed": true,
          "internalType": "address",
          "name": "previousOwner",
          "type": "address"
        },
        {
          "indexed": true,
          "internalType": "address",
          "name": "newOwner",
          "type": "address"
        }
      ],
      "name": "OwnershipTransferred",
      "type": "event"
    },
    {
      "anonymous": false,
      "inputs": [
        {
          "indexed": true,
          "internalType": "address",
          "name": "operator",
          "type": "address"
        },
        {
          "indexed": true,
          "internalType": "address",
          "name": "from",
          "type": "address"
        },
        {
          "indexed": true,
          "internalType": "address",
          "name": "to",
          "type": "address"
        },
        {
          "indexed": false,
          "internalType": "uint256[]",
          "name": "ids",
          "type": "uint256[]"
        },
        {
          "indexed": false,
          "internalType": "uint256[]",
          "name": "values",
          "type": "uint256[]"
        }
      ],
      "name": "TransferBatch",
      "type": "event"
    },
    {
      "anonymous": false,
      "inputs": [
        {
          "indexed": true,
          "internalType": "address",
          "name": "operator",
          "type": "address"
        },
        {
          "indexed": true,
          "internalType": "address",
          "name": "from",
          "type": "address"
        },
        {
          "indexed": true,
          "internalType": "address",
          "name": "to",
          "type": "address"
        },
        {
          "indexed": false,
          "internalType": "uint256",
          "name": "id",
          "type": "uint256"
        },
        {
          "indexed": false,
          "internalType": "uint256",
          "name": "value",
          "type": "uint256"
        }
      ],
      "name": "TransferSingle",
      "type": "event"
    },
    {
      "anonymous": false,
      "inputs": [
        {
          "indexed": false,
          "internalType": "string",
          "name": "value",
          "type": "string"
        },
        {
          "indexed": true,
          "internalType": "uint256",
          "name": "id",
          "type": "uint256"
        }
      ],
      "name": "URI",
      "type": "event"
    },
    {
      "inputs": [
        {
          "internalType": "address",
          "name": "_account",
          "type": "address"
        }
      ],
      "name": "addMinter",
      "outputs": [],
      "stateMutability": "nonpayable",
      "type": "function"
    },
    {
      "inputs": [
        {
          "internalType": "address",
          "name": "account",
          "type": "address"
        },
        {
          "internalType": "uint256",
          "name": "id",
          "type": "uint256"
        }
      ],
      "name": "balanceOf",
      "outputs": [
        {
          "internalType": "uint256",
          "name": "",
          "type": "uint256"
        }
      ],
      "stateMutability": "view",
      "type": "function"
    },
    {
      "inputs": [
        {
          "internalType": "address[]",
          "name": "accounts",
          "type": "address[]"
        },
        {
          "internalType": "uint256[]",
          "name": "ids",
          "type": "uint256[]"
        }
      ],
      "name": "balanceOfBatch",
      "outputs": [
        {
          "internalType": "uint256[]",
          "name": "",
          "type": "uint256[]"
        }
      ],
      "stateMutability": "view",
      "type": "function"
    },
    {
      "inputs": [
        {
          "internalType": "address",
          "name": "account",
          "type": "address"
        },
        {
          "internalType": "address",
          "name": "operator",
          "type": "address"
        }
      ],
      "name": "isApprovedForAll",
      "outputs": [
        {
          "internalType": "bool",
          "name": "",
          "type": "bool"
        }
      ],
      "stateMutability": "view",
      "type": "function"
    },
    {
      "inputs": [],
      "name": "maxSupply",
      "outputs": [
        {
          "internalType": "uint256",
          "name": "",
          "type": "uint256"
        }
      ],
      "stateMutability": "view",
      "type": "function"
    },
    {
      "inputs": [
        {
          "internalType": "address",
          "name": "tokenOwner",
          "type": "address"
        }
      ],
      "name": "mint",
      "outputs": [
        {
          "internalType": "uint256",
          "name": "",
          "type": "uint256"
        }
      ],
      "stateMutability": "nonpayable",
      "type": "function"
    },
    {
      "inputs": [
        {
          "internalType": "address",
          "name": "tokenOwner",
          "type": "address"
        },
        {
          "internalType": "uint256",
          "name": "count",
          "type": "uint256"
        }
      ],
      "name": "mintWithClones",
      "outputs": [
        {
          "internalType": "uint256",
          "name": "",
          "type": "uint256"
        }
      ],
      "stateMutability": "nonpayable",
      "type": "function"
    },
    {
      "inputs": [],
      "name": "name",
      "outputs": [
        {
          "internalType": "string",
          "name": "",
          "type": "string"
        }
      ],
      "stateMutability": "view",
      "type": "function"
    },
    {
      "inputs": [],
      "name": "owner",
      "outputs": [
        {
          "internalType": "address",
          "name": "",
          "type": "address"
        }
      ],
      "stateMutability": "view",
      "type": "function"
    },
    {
      "inputs": [
        {
          "internalType": "address",
          "name": "_account",
          "type": "address"
        }
      ],
      "name": "removeMinter",
      "outputs": [],
      "stateMutability": "nonpayable",
      "type": "function"
    },
    {
      "inputs": [],
      "name": "renounceOwnership",
      "outputs": [],
      "stateMutability": "nonpayable",
      "type": "function"
    },
    {
      "inputs": [
        {
          "internalType": "address",
          "name": "from",
          "type": "address"
        },
        {
          "internalType": "address",
          "name": "to",
          "type": "address"
        },
        {
          "internalType": "uint256[]",
          "name": "ids",
          "type": "uint256[]"
        },
        {
          "internalType": "uint256[]",
          "name": "amounts",
          "type": "uint256[]"
        },
        {
          "internalType": "bytes",
          "name": "data",
          "type": "bytes"
        }
      ],
      "name": "safeBatchTransferFrom",
      "outputs": [],
      "stateMutability": "nonpayable",
      "type": "function"
    },
    {
      "inputs": [
        {
          "internalType": "address",
          "name": "from",
          "type": "address"
        },
        {
          "internalType": "address",
          "name": "to",
          "type": "address"
        },
        {
          "internalType": "uint256",
          "name": "id",
          "type": "uint256"
        },
        {
          "internalType": "uint256",
          "name": "amount",
          "type": "uint256"
        },
        {
          "internalType": "bytes",
          "name": "data",
          "type": "bytes"
        }
      ],
      "name": "safeTransferFrom",
      "outputs": [],
      "stateMutability": "nonpayable",
      "type": "function"
    },
    {
      "inputs": [
        {
          "internalType": "address",
          "name": "operator",
          "type": "address"
        },
        {
          "internalType": "bool",
          "name": "approved",
          "type": "bool"
        }
      ],
      "name": "setApprovalForAll",
      "outputs": [],
      "stateMutability": "nonpayable",
      "type": "function"
    },
    {
      "inputs": [
        {
          "internalType": "string",
          "name": "newuri",
          "type": "string"
        }
      ],
      "name": "setURI",
      "outputs": [],
      "stateMutability": "nonpayable",
      "type": "function"
    },
    {
      "inputs": [
        {
          "internalType": "bytes4",
          "name": "interfaceId",
          "type": "bytes4"
        }
      ],
      "name": "supportsInterface",
      "outputs": [
        {
          "internalType": "bool",
          "name": "",
          "type": "bool"
        }
      ],
      "stateMutability": "view",
      "type": "function"
    },
    {
      "inputs": [],
      "name": "symbol",
      "outputs": [
        {
          "internalType": "string",
          "name": "",
          "type": "string"
        }
      ],
      "stateMutability": "view",
      "type": "function"
    },
    {
      "inputs": [],
      "name": "totalSupply",
      "outputs": [
        {
          "internalType": "uint256",
          "name": "",
          "type": "uint256"
        }
      ],
      "stateMutability": "view",
      "type": "function"
    },
    {
      "inputs": [
        {
          "internalType": "address",
          "name": "newOwner",
          "type": "address"
        }
      ],
      "name": "transferOwnership",
      "outputs": [],
      "stateMutability": "nonpayable",
      "type": "function"
    },
    {
      "inputs": [
        {
          "internalType": "uint256",
          "name": "tokenId",
          "type": "uint256"
        }
      ],
      "name": "uri",
      "outputs": [
        {
          "internalType": "string",
          "name": "",
          "type": "string"
        }
      ],
      "stateMutability": "view",
      "type": "function"
    }
  ],
  "bytecode": "0x60e060405260226080818152906200224560a03980516200002991600a91602090910190620001c1565b503480156200003757600080fd5b5060405162002267380380620022678339810160408190526200005a9162000334565b806200006681620000d3565b506200007233620000ec565b600160045583516200008c906005906020870190620001c1565b508251620000a2906006906020860190620001c1565b5060088290558051620000bd90600a906020840190620001c1565b50620000c9336200013e565b505050506200040c565b8051620000e8906002906020840190620001c1565b5050565b600380546001600160a01b038381166001600160a01b0319831681179093556040519116919082907f8be0079c531659141344cd1fd0a4f28419497f9722a3daafe3b4186f6b6457e090600090a35050565b6003546001600160a01b031633146200019d5760405162461bcd60e51b815260206004820181905260248201527f4f776e61626c653a2063616c6c6572206973206e6f7420746865206f776e6572604482015260640160405180910390fd5b6001600160a01b03166000908152600960205260409020805460ff19166001179055565b828054620001cf90620003cf565b90600052602060002090601f016020900481019282620001f357600085556200023e565b82601f106200020e57805160ff19168380011785556200023e565b828001600101855582156200023e579182015b828111156200023e57825182559160200191906001019062000221565b506200024c92915062000250565b5090565b5b808211156200024c576000815560010162000251565b634e487b7160e01b600052604160045260246000fd5b600082601f8301126200028f57600080fd5b81516001600160401b0380821115620002ac57620002ac62000267565b604051601f8301601f19908116603f01168101908282118183101715620002d757620002d762000267565b81604052838152602092508683858801011115620002f457600080fd5b600091505b83821015620003185785820183015181830184015290820190620002f9565b838211156200032a5760008385830101525b9695505050505050565b600080600080608085870312156200034b57600080fd5b84516001600160401b03808211156200036357600080fd5b62000371888389016200027d565b955060208701519150808211156200038857600080fd5b62000396888389016200027d565b9450604087015193506060870151915080821115620003b457600080fd5b50620003c3878288016200027d565b91505092959194509250565b600181811c90821680620003e457607f821691505b602082108114156200040657634e487b7160e01b600052602260045260246000fd5b50919050565b611e29806200041c6000396000f3fe608060405234801561001057600080fd5b506004361061012b5760003560e01c8063715018a6116100ad578063d5abeb0111610071578063d5abeb0114610268578063e985e9c514610271578063ec0ea45f146102ad578063f242432a146102c0578063f2fde38b146102d357600080fd5b8063715018a6146102175780638da5cb5b1461021f57806395d89b411461023a578063983b2d5614610242578063a22cb4651461025557600080fd5b806318160ddd116100f457806318160ddd146101b65780632eb2c2d6146101be5780633092afd5146101d15780634e1273f4146101e45780636a6278421461020457600080fd5b8062fdd58e1461013057806301ffc9a71461015657806302fe53051461017957806306fdde031461018e5780630e89341c146101a3575b600080fd5b61014361013e366004611459565b6102e6565b6040519081526020015b60405180910390f35b610169610164366004611499565b61037d565b604051901515815260200161014d565b61018c61018736600461155e565b6103cf565b005b610196610419565b60405161014d9190611603565b6101966101b1366004611616565b6104a7565b61014361051e565b61018c6101cc3660046116e4565b61052e565b61018c6101df36600461178e565b6105c5565b6101f76101f23660046117a9565b610610565b60405161014d91906118af565b61014361021236600461178e565b61073a565b61018c61082a565b6003546040516001600160a01b03909116815260200161014d565b610196610860565b61018c61025036600461178e565b61086d565b61018c6102633660046118c2565b6108bb565b61014360085481565b61016961027f3660046118fe565b6001600160a01b03918216600090815260016020908152604080832093909416825291909152205460ff1690565b6101436102bb366004611459565b6108ca565b61018c6102ce366004611931565b6109ba565b61018c6102e136600461178e565b610a41565b60006001600160a01b0383166103575760405162461bcd60e51b815260206004820152602b60248201527f455243313135353a2062616c616e636520717565727920666f7220746865207a60448201526a65726f206164647265737360a81b60648201526084015b60405180910390fd5b506000908152602081815260408083206001600160a01b03949094168352929052205490565b60006001600160e01b03198216636cdb3d1360e11b14806103ae57506001600160e01b031982166303a24d0760e21b145b806103c957506301ffc9a760e01b6001600160e01b03198316145b92915050565b6003546001600160a01b031633146103f95760405162461bcd60e51b815260040161034e90611996565b805161040c90600a9060208401906113a9565b5061041681610ad9565b50565b60058054610426906119cb565b80601f0160208091040260200160405190810160405280929190818152602001828054610452906119cb565b801561049f5780601f106104745761010080835404028352916020019161049f565b820191906000526020600020905b81548152906001019060200180831161048257829003601f168201915b505050505081565b60606104b260075490565b82116104ea57600a6104c383610aec565b6040516020016104d4929190611a22565b6040516020818303038152906040529050919050565b505060408051808201909152601381527211548e88125b9d985b1a59081d1bdad95b9259606a1b602082015290565b919050565b600061052960075490565b905090565b6001600160a01b03851633148061054a575061054a853361027f565b6105b15760405162461bcd60e51b815260206004820152603260248201527f455243313135353a207472616e736665722063616c6c6572206973206e6f74206044820152711bdddb995c881b9bdc88185c1c1c9bdd995960721b606482015260840161034e565b6105be8585858585610bf2565b5050505050565b6003546001600160a01b031633146105ef5760405162461bcd60e51b815260040161034e90611996565b6001600160a01b03166000908152600960205260409020805460ff19169055565b606081518351146106755760405162461bcd60e51b815260206004820152602960248201527f455243313135353a206163636f756e747320616e6420696473206c656e677468604482015268040dad2e6dac2e8c6d60bb1b606482015260840161034e565b6000835167ffffffffffffffff811115610691576106916114bd565b6040519080825280602002602001820160405280156106ba578160200160208202803683370190505b50905060005b8451811015610732576107058582815181106106de576106de611add565b60200260200101518583815181106106f8576106f8611add565b60200260200101516102e6565b82828151811061071757610717611add565b602090810291909101015261072b81611b09565b90506106c0565b509392505050565b60006002600454141561078f5760405162461bcd60e51b815260206004820152601f60248201527f5265656e7472616e637947756172643a207265656e7472616e742063616c6c00604482015260640161034e565b60026004556107a2600780546001019055565b60085460075411156107f65760405162461bcd60e51b815260206004820152601f60248201527f43616e2774206d696e74206d6f7265207468616e206d617820737570706c7900604482015260640161034e565b600061080160075490565b905061081f8382600160405180602001604052806000815250610dcf565b600160045592915050565b6003546001600160a01b031633146108545760405162461bcd60e51b815260040161034e90611996565b61085e6000610ed9565b565b60068054610426906119cb565b6003546001600160a01b031633146108975760405162461bcd60e51b815260040161034e90611996565b6001600160a01b03166000908152600960205260409020805460ff19166001179055565b6108c6338383610f2b565b5050565b60006002600454141561091f5760405162461bcd60e51b815260206004820152601f60248201527f5265656e7472616e637947756172643a207265656e7472616e742063616c6c00604482015260640161034e565b6002600455610932600780546001019055565b60085460075411156109865760405162461bcd60e51b815260206004820152601f60248201527f43616e2774206d696e74206d6f7265207468616e206d617820737570706c7900604482015260640161034e565b600061099160075490565b90506109ae84828560405180602001604052806000815250610dcf565b60016004559392505050565b6001600160a01b0385163314806109d657506109d6853361027f565b610a345760405162461bcd60e51b815260206004820152602960248201527f455243313135353a2063616c6c6572206973206e6f74206f776e6572206e6f7260448201526808185c1c1c9bdd995960ba1b606482015260840161034e565b6105be858585858561100c565b6003546001600160a01b03163314610a6b5760405162461bcd60e51b815260040161034e90611996565b6001600160a01b038116610ad05760405162461bcd60e51b815260206004820152602660248201527f4f776e61626c653a206e6577206f776e657220697320746865207a65726f206160448201526564647265737360d01b606482015260840161034e565b61041681610ed9565b80516108c69060029060208401906113a9565b606081610b105750506040805180820190915260018152600360fc1b602082015290565b8160005b8115610b3a5780610b2481611b09565b9150610b339050600a83611b3a565b9150610b14565b60008167ffffffffffffffff811115610b5557610b556114bd565b6040519080825280601f01601f191660200182016040528015610b7f576020820181803683370190505b5090505b8415610bea57610b94600183611b4e565b9150610ba1600a86611b65565b610bac906030611b79565b60f81b818381518110610bc157610bc1611add565b60200101906001600160f81b031916908160001a905350610be3600a86611b3a565b9450610b83565b949350505050565b8151835114610c545760405162461bcd60e51b815260206004820152602860248201527f455243313135353a2069647320616e6420616d6f756e7473206c656e677468206044820152670dad2e6dac2e8c6d60c31b606482015260840161034e565b6001600160a01b038416610c7a5760405162461bcd60e51b815260040161034e90611b91565b3360005b8451811015610d61576000858281518110610c9b57610c9b611add565b602002602001015190506000858381518110610cb957610cb9611add565b602090810291909101810151600084815280835260408082206001600160a01b038e168352909352919091205490915081811015610d095760405162461bcd60e51b815260040161034e90611bd6565b6000838152602081815260408083206001600160a01b038e8116855292528083208585039055908b16825281208054849290610d46908490611b79565b9250508190555050505080610d5a90611b09565b9050610c7e565b50846001600160a01b0316866001600160a01b0316826001600160a01b03167f4a39dc06d4c0dbc64b70af90fd698a233a518aa5d07e595d983b8c0526c8f7fb8787604051610db1929190611c20565b60405180910390a4610dc7818787878787611129565b505050505050565b6001600160a01b038416610e2f5760405162461bcd60e51b815260206004820152602160248201527f455243313135353a206d696e7420746f20746865207a65726f206164647265736044820152607360f81b606482015260840161034e565b33610e4981600087610e4088611294565b6105be88611294565b6000848152602081815260408083206001600160a01b038916845290915281208054859290610e79908490611b79565b909155505060408051858152602081018590526001600160a01b0380881692600092918516917fc3d58168c5ae7397731d063d5bbf3d657854427343f4c083240f7aacaa2d0f62910160405180910390a46105be816000878787876112df565b600380546001600160a01b038381166001600160a01b0319831681179093556040519116919082907f8be0079c531659141344cd1fd0a4f28419497f9722a3daafe3b4186f6b6457e090600090a35050565b816001600160a01b0316836001600160a01b03161415610f9f5760405162461bcd60e51b815260206004820152602960248201527f455243313135353a2073657474696e6720617070726f76616c20737461747573604482015268103337b91039b2b63360b91b606482015260840161034e565b6001600160a01b03838116600081815260016020908152604080832094871680845294825291829020805460ff191686151590811790915591519182527f17307eab39ab6107e8899845ad3d59bd9653f200f220920489ca2b5937696c31910160405180910390a3505050565b6001600160a01b0384166110325760405162461bcd60e51b815260040161034e90611b91565b33611042818787610e4088611294565b6000848152602081815260408083206001600160a01b038a168452909152902054838110156110835760405162461bcd60e51b815260040161034e90611bd6565b6000858152602081815260408083206001600160a01b038b81168552925280832087850390559088168252812080548692906110c0908490611b79565b909155505060408051868152602081018690526001600160a01b03808916928a821692918616917fc3d58168c5ae7397731d063d5bbf3d657854427343f4c083240f7aacaa2d0f62910160405180910390a46111208288888888886112df565b50505050505050565b6001600160a01b0384163b15610dc75760405163bc197c8160e01b81526001600160a01b0385169063bc197c819061116d9089908990889088908890600401611c45565b602060405180830381600087803b15801561118757600080fd5b505af19250505080156111b7575060408051601f3d908101601f191682019092526111b491810190611ca3565b60015b611264576111c3611cc0565b806308c379a014156111fd57506111d8611cdc565b806111e357506111ff565b8060405162461bcd60e51b815260040161034e9190611603565b505b60405162461bcd60e51b815260206004820152603460248201527f455243313135353a207472616e7366657220746f206e6f6e20455243313135356044820152732932b1b2b4bb32b91034b6b83632b6b2b73a32b960611b606482015260840161034e565b6001600160e01b0319811663bc197c8160e01b146111205760405162461bcd60e51b815260040161034e90611d66565b604080516001808252818301909252606091600091906020808301908036833701905050905082816000815181106112ce576112ce611add565b602090810291909101015292915050565b6001600160a01b0384163b15610dc75760405163f23a6e6160e01b81526001600160a01b0385169063f23a6e61906113239089908990889088908890600401611dae565b602060405180830381600087803b15801561133d57600080fd5b505af192505050801561136d575060408051601f3d908101601f1916820190925261136a91810190611ca3565b60015b611379576111c3611cc0565b6001600160e01b0319811663f23a6e6160e01b146111205760405162461bcd60e51b815260040161034e90611d66565b8280546113b5906119cb565b90600052602060002090601f0160209004810192826113d7576000855561141d565b82601f106113f057805160ff191683800117855561141d565b8280016001018555821561141d579182015b8281111561141d578251825591602001919060010190611402565b5061142992915061142d565b5090565b5b80821115611429576000815560010161142e565b80356001600160a01b038116811461051957600080fd5b6000806040838503121561146c57600080fd5b61147583611442565b946020939093013593505050565b6001600160e01b03198116811461041657600080fd5b6000602082840312156114ab57600080fd5b81356114b681611483565b9392505050565b634e487b7160e01b600052604160045260246000fd5b601f8201601f1916810167ffffffffffffffff811182821017156114f9576114f96114bd565b6040525050565b600067ffffffffffffffff83111561151a5761151a6114bd565b604051611531601f8501601f1916602001826114d3565b80915083815284848401111561154657600080fd5b83836020830137600060208583010152509392505050565b60006020828403121561157057600080fd5b813567ffffffffffffffff81111561158757600080fd5b8201601f8101841361159857600080fd5b610bea84823560208401611500565b60005b838110156115c25781810151838201526020016115aa565b838111156115d1576000848401525b50505050565b600081518084526115ef8160208601602086016115a7565b601f01601f19169290920160200192915050565b6020815260006114b660208301846115d7565b60006020828403121561162857600080fd5b5035919050565b600067ffffffffffffffff821115611649576116496114bd565b5060051b60200190565b600082601f83011261166457600080fd5b813560206116718261162f565b60405161167e82826114d3565b83815260059390931b850182019282810191508684111561169e57600080fd5b8286015b848110156116b957803583529183019183016116a2565b509695505050505050565b600082601f8301126116d557600080fd5b6114b683833560208501611500565b600080600080600060a086880312156116fc57600080fd5b61170586611442565b945061171360208701611442565b9350604086013567ffffffffffffffff8082111561173057600080fd5b61173c89838a01611653565b9450606088013591508082111561175257600080fd5b61175e89838a01611653565b9350608088013591508082111561177457600080fd5b50611781888289016116c4565b9150509295509295909350565b6000602082840312156117a057600080fd5b6114b682611442565b600080604083850312156117bc57600080fd5b823567ffffffffffffffff808211156117d457600080fd5b818501915085601f8301126117e857600080fd5b813560206117f58261162f565b60405161180282826114d3565b83815260059390931b850182019282810191508984111561182257600080fd5b948201945b838610156118475761183886611442565b82529482019490820190611827565b9650508601359250508082111561185d57600080fd5b5061186a85828601611653565b9150509250929050565b600081518084526020808501945080840160005b838110156118a457815187529582019590820190600101611888565b509495945050505050565b6020815260006114b66020830184611874565b600080604083850312156118d557600080fd5b6118de83611442565b9150602083013580151581146118f357600080fd5b809150509250929050565b6000806040838503121561191157600080fd5b61191a83611442565b915061192860208401611442565b90509250929050565b600080600080600060a0868803121561194957600080fd5b61195286611442565b945061196060208701611442565b93506040860135925060608601359150608086013567ffffffffffffffff81111561198a57600080fd5b611781888289016116c4565b6020808252818101527f4f776e61626c653a2063616c6c6572206973206e6f7420746865206f776e6572604082015260600190565b600181811c908216806119df57607f821691505b60208210811415611a0057634e487b7160e01b600052602260045260246000fd5b50919050565b60008151611a188185602086016115a7565b9290920192915050565b600080845481600182811c915080831680611a3e57607f831692505b6020808410821415611a5e57634e487b7160e01b86526022600452602486fd5b818015611a725760018114611a8357611ab0565b60ff19861689528489019650611ab0565b60008b81526020902060005b86811015611aa85781548b820152908501908301611a8f565b505084890196505b505050505050611ad4611ac38286611a06565b64173539b7b760d91b815260050190565b95945050505050565b634e487b7160e01b600052603260045260246000fd5b634e487b7160e01b600052601160045260246000fd5b6000600019821415611b1d57611b1d611af3565b5060010190565b634e487b7160e01b600052601260045260246000fd5b600082611b4957611b49611b24565b500490565b600082821015611b6057611b60611af3565b500390565b600082611b7457611b74611b24565b500690565b60008219821115611b8c57611b8c611af3565b500190565b60208082526025908201527f455243313135353a207472616e7366657220746f20746865207a65726f206164604082015264647265737360d81b606082015260800190565b6020808252602a908201527f455243313135353a20696e73756666696369656e742062616c616e636520666f60408201526939103a3930b739b332b960b11b606082015260800190565b604081526000611c336040830185611874565b8281036020840152611ad48185611874565b6001600160a01b0386811682528516602082015260a060408201819052600090611c7190830186611874565b8281036060840152611c838186611874565b90508281036080840152611c9781856115d7565b98975050505050505050565b600060208284031215611cb557600080fd5b81516114b681611483565b600060033d1115611cd95760046000803e5060005160e01c5b90565b600060443d1015611cea5790565b6040516003193d81016004833e81513d67ffffffffffffffff8160248401118184111715611d1a57505050505090565b8285019150815181811115611d325750505050505090565b843d8701016020828501011115611d4c5750505050505090565b611d5b602082860101876114d3565b509095945050505050565b60208082526028908201527f455243313135353a204552433131353552656365697665722072656a656374656040820152676420746f6b656e7360c01b606082015260800190565b6001600160a01b03868116825285166020820152604081018490526060810183905260a060808201819052600090611de8908301846115d7565b97965050505050505056fea2646970667358221220b40c6956d536a698472ee74d21961719ec001ba60f8417cc41b6f6f6b2c0a43664736f6c6343000809003368747470733a2f2f676174657761792e70696e6174612e636c6f75642f697066732f",
  "linkReferences": {},
  "deployedLinkReferences": {}
}