{
  "_format": "hh-sol-artifact-1",
  "contractName": "ERC1155GeneratedSmartContract",
  "sourceName": "contracts/ERC1155GeneratedSmartContract.sol",
  "abi": [
    {
      "inputs": [
        {
          "internalType": "string",
          "name": "_name",
          "type": "string"
        },
        {
          "internalType": "string",
          "name": "_symbol",
          "type": "string"
        },
        {
          "internalType": "uint256",
          "name": "_maxSupply",
          "type": "uint256"
        },
        {
          "internalType": "string",
          "name": "_uri",
          "type": "string"
        },
        {
          "internalType": "bool",
          "name": "_isRevealed",
          "type": "bool"
        },
        {
          "internalType": "string",
          "name": "_unRevealedUri",
          "type": "string"
        },
        {
          "internalType": "uint256",
          "name": "_price",
          "type": "uint256"
        }
      ],
      "stateMutability": "nonpayable",
      "type": "constructor"
    },
    {
      "anonymous": false,
      "inputs": [
        {
          "indexed": true,
          "internalType": "address",
          "name": "account",
          "type": "address"
        },
        {
          "indexed": true,
          "internalType": "address",
          "name": "operator",
          "type": "address"
        },
        {
          "indexed": false,
          "internalType": "bool",
          "name": "approved",
          "type": "bool"
        }
      ],
      "name": "ApprovalForAll",
      "type": "event"
    },
    {
      "anonymous": false,
      "inputs": [
        {
          "indexed": true,
          "internalType": "address",
          "name": "previousOwner",
          "type": "address"
        },
        {
          "indexed": true,
          "internalType": "address",
          "name": "newOwner",
          "type": "address"
        }
      ],
      "name": "OwnershipTransferred",
      "type": "event"
    },
    {
      "anonymous": false,
      "inputs": [
        {
          "indexed": true,
          "internalType": "address",
          "name": "operator",
          "type": "address"
        },
        {
          "indexed": true,
          "internalType": "address",
          "name": "from",
          "type": "address"
        },
        {
          "indexed": true,
          "internalType": "address",
          "name": "to",
          "type": "address"
        },
        {
          "indexed": false,
          "internalType": "uint256[]",
          "name": "ids",
          "type": "uint256[]"
        },
        {
          "indexed": false,
          "internalType": "uint256[]",
          "name": "values",
          "type": "uint256[]"
        }
      ],
      "name": "TransferBatch",
      "type": "event"
    },
    {
      "anonymous": false,
      "inputs": [
        {
          "indexed": true,
          "internalType": "address",
          "name": "operator",
          "type": "address"
        },
        {
          "indexed": true,
          "internalType": "address",
          "name": "from",
          "type": "address"
        },
        {
          "indexed": true,
          "internalType": "address",
          "name": "to",
          "type": "address"
        },
        {
          "indexed": false,
          "internalType": "uint256",
          "name": "id",
          "type": "uint256"
        },
        {
          "indexed": false,
          "internalType": "uint256",
          "name": "value",
          "type": "uint256"
        }
      ],
      "name": "TransferSingle",
      "type": "event"
    },
    {
      "anonymous": false,
      "inputs": [
        {
          "indexed": false,
          "internalType": "string",
          "name": "value",
          "type": "string"
        },
        {
          "indexed": true,
          "internalType": "uint256",
          "name": "id",
          "type": "uint256"
        }
      ],
      "name": "URI",
      "type": "event"
    },
    {
      "inputs": [
        {
          "internalType": "address",
          "name": "_account",
          "type": "address"
        }
      ],
      "name": "addMinter",
      "outputs": [],
      "stateMutability": "nonpayable",
      "type": "function"
    },
    {
      "inputs": [
        {
          "internalType": "address",
          "name": "account",
          "type": "address"
        },
        {
          "internalType": "uint256",
          "name": "id",
          "type": "uint256"
        }
      ],
      "name": "balanceOf",
      "outputs": [
        {
          "internalType": "uint256",
          "name": "",
          "type": "uint256"
        }
      ],
      "stateMutability": "view",
      "type": "function"
    },
    {
      "inputs": [
        {
          "internalType": "address[]",
          "name": "accounts",
          "type": "address[]"
        },
        {
          "internalType": "uint256[]",
          "name": "ids",
          "type": "uint256[]"
        }
      ],
      "name": "balanceOfBatch",
      "outputs": [
        {
          "internalType": "uint256[]",
          "name": "",
          "type": "uint256[]"
        }
      ],
      "stateMutability": "view",
      "type": "function"
    },
    {
      "inputs": [
        {
          "internalType": "address",
          "name": "account",
          "type": "address"
        },
        {
          "internalType": "address",
          "name": "operator",
          "type": "address"
        }
      ],
      "name": "isApprovedForAll",
      "outputs": [
        {
          "internalType": "bool",
          "name": "",
          "type": "bool"
        }
      ],
      "stateMutability": "view",
      "type": "function"
    },
    {
      "inputs": [],
      "name": "isRevealed",
      "outputs": [
        {
          "internalType": "bool",
          "name": "",
          "type": "bool"
        }
      ],
      "stateMutability": "view",
      "type": "function"
    },
    {
      "inputs": [],
      "name": "maxSupply",
      "outputs": [
        {
          "internalType": "uint256",
          "name": "",
          "type": "uint256"
        }
      ],
      "stateMutability": "view",
      "type": "function"
    },
    {
      "inputs": [
        {
          "internalType": "address",
          "name": "tokenOwner",
          "type": "address"
        }
      ],
      "name": "mint",
      "outputs": [
        {
          "internalType": "uint256",
          "name": "",
          "type": "uint256"
        }
      ],
      "stateMutability": "payable",
      "type": "function"
    },
    {
      "inputs": [
        {
          "internalType": "address",
          "name": "tokenOwner",
          "type": "address"
        },
        {
          "internalType": "uint256",
          "name": "count",
          "type": "uint256"
        }
      ],
      "name": "mintWithClones",
      "outputs": [
        {
          "internalType": "uint256",
          "name": "",
          "type": "uint256"
        }
      ],
      "stateMutability": "payable",
      "type": "function"
    },
    {
      "inputs": [],
      "name": "name",
      "outputs": [
        {
          "internalType": "string",
          "name": "",
          "type": "string"
        }
      ],
      "stateMutability": "view",
      "type": "function"
    },
    {
      "inputs": [],
      "name": "owner",
      "outputs": [
        {
          "internalType": "address",
          "name": "",
          "type": "address"
        }
      ],
      "stateMutability": "view",
      "type": "function"
    },
    {
      "inputs": [
        {
          "internalType": "address",
          "name": "_account",
          "type": "address"
        }
      ],
      "name": "removeMinter",
      "outputs": [],
      "stateMutability": "nonpayable",
      "type": "function"
    },
    {
      "inputs": [],
      "name": "renounceOwnership",
      "outputs": [],
      "stateMutability": "nonpayable",
      "type": "function"
    },
    {
      "inputs": [
        {
          "internalType": "address",
          "name": "from",
          "type": "address"
        },
        {
          "internalType": "address",
          "name": "to",
          "type": "address"
        },
        {
          "internalType": "uint256[]",
          "name": "ids",
          "type": "uint256[]"
        },
        {
          "internalType": "uint256[]",
          "name": "amounts",
          "type": "uint256[]"
        },
        {
          "internalType": "bytes",
          "name": "data",
          "type": "bytes"
        }
      ],
      "name": "safeBatchTransferFrom",
      "outputs": [],
      "stateMutability": "nonpayable",
      "type": "function"
    },
    {
      "inputs": [
        {
          "internalType": "address",
          "name": "from",
          "type": "address"
        },
        {
          "internalType": "address",
          "name": "to",
          "type": "address"
        },
        {
          "internalType": "uint256",
          "name": "id",
          "type": "uint256"
        },
        {
          "internalType": "uint256",
          "name": "amount",
          "type": "uint256"
        },
        {
          "internalType": "bytes",
          "name": "data",
          "type": "bytes"
        }
      ],
      "name": "safeTransferFrom",
      "outputs": [],
      "stateMutability": "nonpayable",
      "type": "function"
    },
    {
      "inputs": [
        {
          "internalType": "address",
          "name": "operator",
          "type": "address"
        },
        {
          "internalType": "bool",
          "name": "approved",
          "type": "bool"
        }
      ],
      "name": "setApprovalForAll",
      "outputs": [],
      "stateMutability": "nonpayable",
      "type": "function"
    },
    {
      "inputs": [
        {
          "internalType": "uint256",
          "name": "_price",
          "type": "uint256"
        }
      ],
      "name": "setPrice",
      "outputs": [],
      "stateMutability": "nonpayable",
      "type": "function"
    },
    {
      "inputs": [],
      "name": "setRevealed",
      "outputs": [],
      "stateMutability": "nonpayable",
      "type": "function"
    },
    {
      "inputs": [
        {
          "internalType": "string",
          "name": "newuri",
          "type": "string"
        }
      ],
      "name": "setURI",
      "outputs": [],
      "stateMutability": "nonpayable",
      "type": "function"
    },
    {
      "inputs": [
        {
          "internalType": "bytes4",
          "name": "interfaceId",
          "type": "bytes4"
        }
      ],
      "name": "supportsInterface",
      "outputs": [
        {
          "internalType": "bool",
          "name": "",
          "type": "bool"
        }
      ],
      "stateMutability": "view",
      "type": "function"
    },
    {
      "inputs": [],
      "name": "symbol",
      "outputs": [
        {
          "internalType": "string",
          "name": "",
          "type": "string"
        }
      ],
      "stateMutability": "view",
      "type": "function"
    },
    {
      "inputs": [],
      "name": "totalSupply",
      "outputs": [
        {
          "internalType": "uint256",
          "name": "",
          "type": "uint256"
        }
      ],
      "stateMutability": "view",
      "type": "function"
    },
    {
      "inputs": [
        {
          "internalType": "address",
          "name": "newOwner",
          "type": "address"
        }
      ],
      "name": "transferOwnership",
      "outputs": [],
      "stateMutability": "nonpayable",
      "type": "function"
    },
    {
      "inputs": [],
      "name": "unRevealedUri",
      "outputs": [
        {
          "internalType": "string",
          "name": "",
          "type": "string"
        }
      ],
      "stateMutability": "view",
      "type": "function"
    },
    {
      "inputs": [
        {
          "internalType": "uint256",
          "name": "tokenId",
          "type": "uint256"
        }
      ],
      "name": "uri",
      "outputs": [
        {
          "internalType": "string",
          "name": "",
          "type": "string"
        }
      ],
      "stateMutability": "view",
      "type": "function"
    }
  ],
  "bytecode": "0x60e060405260226080818152906200261960a03980516200002991600b91602090910190620001ed565b503480156200003757600080fd5b506040516200263b3803806200263b8339810160408190526200005a9162000376565b836200006681620000ff565b50620000723362000118565b600160045586516200008c9060059060208a0190620001ed565b508551620000a2906006906020890190620001ed565b5060098590558351620000bd90600b906020870190620001ed565b50600c805460ff19168415151790558151620000e190600d906020850190620001ed565b506008819055620000f2336200016a565b5050505050505062000492565b805162000114906002906020840190620001ed565b5050565b600380546001600160a01b038381166001600160a01b0319831681179093556040519116919082907f8be0079c531659141344cd1fd0a4f28419497f9722a3daafe3b4186f6b6457e090600090a35050565b6003546001600160a01b03163314620001c95760405162461bcd60e51b815260206004820181905260248201527f4f776e61626c653a2063616c6c6572206973206e6f7420746865206f776e6572604482015260640160405180910390fd5b6001600160a01b03166000908152600a60205260409020805460ff19166001179055565b828054620001fb9062000455565b90600052602060002090601f0160209004810192826200021f57600085556200026a565b82601f106200023a57805160ff19168380011785556200026a565b828001600101855582156200026a579182015b828111156200026a5782518255916020019190600101906200024d565b50620002789291506200027c565b5090565b5b808211156200027857600081556001016200027d565b634e487b7160e01b600052604160045260246000fd5b600082601f830112620002bb57600080fd5b81516001600160401b0380821115620002d857620002d862000293565b604051601f8301601f19908116603f0116810190828211818310171562000303576200030362000293565b816040528381526020925086838588010111156200032057600080fd5b600091505b8382101562000344578582018301518183018401529082019062000325565b83821115620003565760008385830101525b9695505050505050565b805180151581146200037157600080fd5b919050565b600080600080600080600060e0888a0312156200039257600080fd5b87516001600160401b0380821115620003aa57600080fd5b620003b88b838c01620002a9565b985060208a0151915080821115620003cf57600080fd5b620003dd8b838c01620002a9565b975060408a0151965060608a0151915080821115620003fb57600080fd5b620004098b838c01620002a9565b95506200041960808b0162000360565b945060a08a01519150808211156200043057600080fd5b506200043f8a828b01620002a9565b92505060c0880151905092959891949750929550565b600181811c908216806200046a57607f821691505b602082108114156200048c57634e487b7160e01b600052602260045260246000fd5b50919050565b61217780620004a26000396000f3fe60806040526004361061014a5760003560e01c8063715018a6116100b6578063a22cb4651161006f578063a22cb46514610381578063d5abeb01146103a1578063e985e9c5146103b7578063ec0ea45f14610400578063f242432a14610413578063f2fde38b1461043357600080fd5b8063715018a6146102da5780638da5cb5b146102ef57806391b7f5ed1461031757806395d89b4114610337578063983b2d561461034c5780639c107c1d1461036c57600080fd5b80632eb2c2d6116101085780632eb2c2d61461022b5780633092afd51461024b5780633bd649681461026b5780634e1273f41461028057806354214f69146102ad5780636a627842146102c757600080fd5b8062fdd58e1461014f57806301ffc9a71461018257806302fe5305146101b257806306fdde03146101d45780630e89341c146101f657806318160ddd14610216575b600080fd5b34801561015b57600080fd5b5061016f61016a366004611764565b610453565b6040519081526020015b60405180910390f35b34801561018e57600080fd5b506101a261019d3660046117a4565b6104ea565b6040519015158152602001610179565b3480156101be57600080fd5b506101d26101cd366004611869565b61053c565b005b3480156101e057600080fd5b506101e9610586565b604051610179919061190e565b34801561020257600080fd5b506101e9610211366004611921565b610614565b34801561022257600080fd5b5061016f610705565b34801561023757600080fd5b506101d26102463660046119ef565b610715565b34801561025757600080fd5b506101d2610266366004611a99565b6107ac565b34801561027757600080fd5b506101d26107f7565b34801561028c57600080fd5b506102a061029b366004611ab4565b610830565b6040516101799190611bba565b3480156102b957600080fd5b50600c546101a29060ff1681565b61016f6102d5366004611a99565b61095a565b3480156102e657600080fd5b506101d2610a9c565b3480156102fb57600080fd5b506003546040516001600160a01b039091168152602001610179565b34801561032357600080fd5b506101d2610332366004611921565b610ad2565b34801561034357600080fd5b506101e9610b01565b34801561035857600080fd5b506101d2610367366004611a99565b610b0e565b34801561037857600080fd5b506101e9610b5c565b34801561038d57600080fd5b506101d261039c366004611bcd565b610b69565b3480156103ad57600080fd5b5061016f60095481565b3480156103c357600080fd5b506101a26103d2366004611c09565b6001600160a01b03918216600090815260016020908152604080832093909416825291909152205460ff1690565b61016f61040e366004611764565b610b78565b34801561041f57600080fd5b506101d261042e366004611c3c565b610cc5565b34801561043f57600080fd5b506101d261044e366004611a99565b610d4c565b60006001600160a01b0383166104c45760405162461bcd60e51b815260206004820152602b60248201527f455243313135353a2062616c616e636520717565727920666f7220746865207a60448201526a65726f206164647265737360a81b60648201526084015b60405180910390fd5b506000908152602081815260408083206001600160a01b03949094168352929052205490565b60006001600160e01b03198216636cdb3d1360e11b148061051b57506001600160e01b031982166303a24d0760e21b145b8061053657506301ffc9a760e01b6001600160e01b03198316145b92915050565b6003546001600160a01b031633146105665760405162461bcd60e51b81526004016104bb90611ca1565b805161057990600b9060208401906116b4565b5061058381610de4565b50565b6005805461059390611cd6565b80601f01602080910402602001604051908101604052809291908181526020018280546105bf90611cd6565b801561060c5780601f106105e15761010080835404028352916020019161060c565b820191906000526020600020905b8154815290600101906020018083116105ef57829003601f168201915b505050505081565b600c5460609060ff166106b357600d805461062e90611cd6565b80601f016020809104026020016040519081016040528092919081815260200182805461065a90611cd6565b80156106a75780601f1061067c576101008083540402835291602001916106a7565b820191906000526020600020905b81548152906001019060200180831161068a57829003601f168201915b50505050509050919050565b60075482116106ee57600b6106c783610df7565b6040516020016106d8929190611dab565b6040516020818303038152906040529050919050565b600b6040516020016106d89190611de0565b919050565b600061071060075490565b905090565b6001600160a01b038516331480610731575061073185336103d2565b6107985760405162461bcd60e51b815260206004820152603260248201527f455243313135353a207472616e736665722063616c6c6572206973206e6f74206044820152711bdddb995c881b9bdc88185c1c1c9bdd995960721b60648201526084016104bb565b6107a58585858585610efd565b5050505050565b6003546001600160a01b031633146107d65760405162461bcd60e51b81526004016104bb90611ca1565b6001600160a01b03166000908152600a60205260409020805460ff19169055565b6003546001600160a01b031633146108215760405162461bcd60e51b81526004016104bb90611ca1565b600c805460ff19166001179055565b606081518351146108955760405162461bcd60e51b815260206004820152602960248201527f455243313135353a206163636f756e747320616e6420696473206c656e677468604482015268040dad2e6dac2e8c6d60bb1b60648201526084016104bb565b6000835167ffffffffffffffff8111156108b1576108b16117c8565b6040519080825280602002602001820160405280156108da578160200160208202803683370190505b50905060005b8451811015610952576109258582815181106108fe576108fe611e03565b602002602001015185838151811061091857610918611e03565b6020026020010151610453565b82828151811061093757610937611e03565b602090810291909101015261094b81611e2f565b90506108e0565b509392505050565b6000600260045414156109af5760405162461bcd60e51b815260206004820152601f60248201527f5265656e7472616e637947756172643a207265656e7472616e742063616c6c0060448201526064016104bb565b60026004556109c2600780546001019055565b600854341015610a145760405162461bcd60e51b815260206004820152601a60248201527f496e636f7272656374204e465420707269636520616d6f756e7400000000000060448201526064016104bb565b6009546007541115610a685760405162461bcd60e51b815260206004820152601f60248201527f43616e2774206d696e74206d6f7265207468616e206d617820737570706c790060448201526064016104bb565b6000610a7360075490565b9050610a9183826001604051806020016040528060008152506110da565b600160045592915050565b6003546001600160a01b03163314610ac65760405162461bcd60e51b81526004016104bb90611ca1565b610ad060006111e4565b565b6003546001600160a01b03163314610afc5760405162461bcd60e51b81526004016104bb90611ca1565b600855565b6006805461059390611cd6565b6003546001600160a01b03163314610b385760405162461bcd60e51b81526004016104bb90611ca1565b6001600160a01b03166000908152600a60205260409020805460ff19166001179055565b600d805461059390611cd6565b610b74338383611236565b5050565b600060026004541415610bcd5760405162461bcd60e51b815260206004820152601f60248201527f5265656e7472616e637947756172643a207265656e7472616e742063616c6c0060448201526064016104bb565b6002600455610be0600780546001019055565b81600854610bee9190611e4a565b341015610c3d5760405162461bcd60e51b815260206004820152601a60248201527f496e636f7272656374204e465420707269636520616d6f756e7400000000000060448201526064016104bb565b6009546007541115610c915760405162461bcd60e51b815260206004820152601f60248201527f43616e2774206d696e74206d6f7265207468616e206d617820737570706c790060448201526064016104bb565b6000610c9c60075490565b9050610cb9848285604051806020016040528060008152506110da565b60016004559392505050565b6001600160a01b038516331480610ce15750610ce185336103d2565b610d3f5760405162461bcd60e51b815260206004820152602960248201527f455243313135353a2063616c6c6572206973206e6f74206f776e6572206e6f7260448201526808185c1c1c9bdd995960ba1b60648201526084016104bb565b6107a58585858585611317565b6003546001600160a01b03163314610d765760405162461bcd60e51b81526004016104bb90611ca1565b6001600160a01b038116610ddb5760405162461bcd60e51b815260206004820152602660248201527f4f776e61626c653a206e6577206f776e657220697320746865207a65726f206160448201526564647265737360d01b60648201526084016104bb565b610583816111e4565b8051610b749060029060208401906116b4565b606081610e1b5750506040805180820190915260018152600360fc1b602082015290565b8160005b8115610e455780610e2f81611e2f565b9150610e3e9050600a83611e7f565b9150610e1f565b60008167ffffffffffffffff811115610e6057610e606117c8565b6040519080825280601f01601f191660200182016040528015610e8a576020820181803683370190505b5090505b8415610ef557610e9f600183611e93565b9150610eac600a86611eaa565b610eb7906030611ebe565b60f81b818381518110610ecc57610ecc611e03565b60200101906001600160f81b031916908160001a905350610eee600a86611e7f565b9450610e8e565b949350505050565b8151835114610f5f5760405162461bcd60e51b815260206004820152602860248201527f455243313135353a2069647320616e6420616d6f756e7473206c656e677468206044820152670dad2e6dac2e8c6d60c31b60648201526084016104bb565b6001600160a01b038416610f855760405162461bcd60e51b81526004016104bb90611ed6565b3360005b845181101561106c576000858281518110610fa657610fa6611e03565b602002602001015190506000858381518110610fc457610fc4611e03565b602090810291909101810151600084815280835260408082206001600160a01b038e1683529093529190912054909150818110156110145760405162461bcd60e51b81526004016104bb90611f1b565b6000838152602081815260408083206001600160a01b038e8116855292528083208585039055908b16825281208054849290611051908490611ebe565b925050819055505050508061106590611e2f565b9050610f89565b50846001600160a01b0316866001600160a01b0316826001600160a01b03167f4a39dc06d4c0dbc64b70af90fd698a233a518aa5d07e595d983b8c0526c8f7fb87876040516110bc929190611f65565b60405180910390a46110d2818787878787611434565b505050505050565b6001600160a01b03841661113a5760405162461bcd60e51b815260206004820152602160248201527f455243313135353a206d696e7420746f20746865207a65726f206164647265736044820152607360f81b60648201526084016104bb565b336111548160008761114b8861159f565b6107a58861159f565b6000848152602081815260408083206001600160a01b038916845290915281208054859290611184908490611ebe565b909155505060408051858152602081018590526001600160a01b0380881692600092918516917fc3d58168c5ae7397731d063d5bbf3d657854427343f4c083240f7aacaa2d0f62910160405180910390a46107a5816000878787876115ea565b600380546001600160a01b038381166001600160a01b0319831681179093556040519116919082907f8be0079c531659141344cd1fd0a4f28419497f9722a3daafe3b4186f6b6457e090600090a35050565b816001600160a01b0316836001600160a01b031614156112aa5760405162461bcd60e51b815260206004820152602960248201527f455243313135353a2073657474696e6720617070726f76616c20737461747573604482015268103337b91039b2b63360b91b60648201526084016104bb565b6001600160a01b03838116600081815260016020908152604080832094871680845294825291829020805460ff191686151590811790915591519182527f17307eab39ab6107e8899845ad3d59bd9653f200f220920489ca2b5937696c31910160405180910390a3505050565b6001600160a01b03841661133d5760405162461bcd60e51b81526004016104bb90611ed6565b3361134d81878761114b8861159f565b6000848152602081815260408083206001600160a01b038a1684529091529020548381101561138e5760405162461bcd60e51b81526004016104bb90611f1b565b6000858152602081815260408083206001600160a01b038b81168552925280832087850390559088168252812080548692906113cb908490611ebe565b909155505060408051868152602081018690526001600160a01b03808916928a821692918616917fc3d58168c5ae7397731d063d5bbf3d657854427343f4c083240f7aacaa2d0f62910160405180910390a461142b8288888888886115ea565b50505050505050565b6001600160a01b0384163b156110d25760405163bc197c8160e01b81526001600160a01b0385169063bc197c81906114789089908990889088908890600401611f93565b602060405180830381600087803b15801561149257600080fd5b505af19250505080156114c2575060408051601f3d908101601f191682019092526114bf91810190611ff1565b60015b61156f576114ce61200e565b806308c379a0141561150857506114e361202a565b806114ee575061150a565b8060405162461bcd60e51b81526004016104bb919061190e565b505b60405162461bcd60e51b815260206004820152603460248201527f455243313135353a207472616e7366657220746f206e6f6e20455243313135356044820152732932b1b2b4bb32b91034b6b83632b6b2b73a32b960611b60648201526084016104bb565b6001600160e01b0319811663bc197c8160e01b1461142b5760405162461bcd60e51b81526004016104bb906120b4565b604080516001808252818301909252606091600091906020808301908036833701905050905082816000815181106115d9576115d9611e03565b602090810291909101015292915050565b6001600160a01b0384163b156110d25760405163f23a6e6160e01b81526001600160a01b0385169063f23a6e619061162e90899089908890889088906004016120fc565b602060405180830381600087803b15801561164857600080fd5b505af1925050508015611678575060408051601f3d908101601f1916820190925261167591810190611ff1565b60015b611684576114ce61200e565b6001600160e01b0319811663f23a6e6160e01b1461142b5760405162461bcd60e51b81526004016104bb906120b4565b8280546116c090611cd6565b90600052602060002090601f0160209004810192826116e25760008555611728565b82601f106116fb57805160ff1916838001178555611728565b82800160010185558215611728579182015b8281111561172857825182559160200191906001019061170d565b50611734929150611738565b5090565b5b808211156117345760008155600101611739565b80356001600160a01b038116811461070057600080fd5b6000806040838503121561177757600080fd5b6117808361174d565b946020939093013593505050565b6001600160e01b03198116811461058357600080fd5b6000602082840312156117b657600080fd5b81356117c18161178e565b9392505050565b634e487b7160e01b600052604160045260246000fd5b601f8201601f1916810167ffffffffffffffff81118282101715611804576118046117c8565b6040525050565b600067ffffffffffffffff831115611825576118256117c8565b60405161183c601f8501601f1916602001826117de565b80915083815284848401111561185157600080fd5b83836020830137600060208583010152509392505050565b60006020828403121561187b57600080fd5b813567ffffffffffffffff81111561189257600080fd5b8201601f810184136118a357600080fd5b610ef58482356020840161180b565b60005b838110156118cd5781810151838201526020016118b5565b838111156118dc576000848401525b50505050565b600081518084526118fa8160208601602086016118b2565b601f01601f19169290920160200192915050565b6020815260006117c160208301846118e2565b60006020828403121561193357600080fd5b5035919050565b600067ffffffffffffffff821115611954576119546117c8565b5060051b60200190565b600082601f83011261196f57600080fd5b8135602061197c8261193a565b60405161198982826117de565b83815260059390931b85018201928281019150868411156119a957600080fd5b8286015b848110156119c457803583529183019183016119ad565b509695505050505050565b600082601f8301126119e057600080fd5b6117c18383356020850161180b565b600080600080600060a08688031215611a0757600080fd5b611a108661174d565b9450611a1e6020870161174d565b9350604086013567ffffffffffffffff80821115611a3b57600080fd5b611a4789838a0161195e565b94506060880135915080821115611a5d57600080fd5b611a6989838a0161195e565b93506080880135915080821115611a7f57600080fd5b50611a8c888289016119cf565b9150509295509295909350565b600060208284031215611aab57600080fd5b6117c18261174d565b60008060408385031215611ac757600080fd5b823567ffffffffffffffff80821115611adf57600080fd5b818501915085601f830112611af357600080fd5b81356020611b008261193a565b604051611b0d82826117de565b83815260059390931b8501820192828101915089841115611b2d57600080fd5b948201945b83861015611b5257611b438661174d565b82529482019490820190611b32565b96505086013592505080821115611b6857600080fd5b50611b758582860161195e565b9150509250929050565b600081518084526020808501945080840160005b83811015611baf57815187529582019590820190600101611b93565b509495945050505050565b6020815260006117c16020830184611b7f565b60008060408385031215611be057600080fd5b611be98361174d565b915060208301358015158114611bfe57600080fd5b809150509250929050565b60008060408385031215611c1c57600080fd5b611c258361174d565b9150611c336020840161174d565b90509250929050565b600080600080600060a08688031215611c5457600080fd5b611c5d8661174d565b9450611c6b6020870161174d565b93506040860135925060608601359150608086013567ffffffffffffffff811115611c9557600080fd5b611a8c888289016119cf565b6020808252818101527f4f776e61626c653a2063616c6c6572206973206e6f7420746865206f776e6572604082015260600190565b600181811c90821680611cea57607f821691505b60208210811415611d0b57634e487b7160e01b600052602260045260246000fd5b50919050565b8054600090600181811c9080831680611d2b57607f831692505b6020808410821415611d4d57634e487b7160e01b600052602260045260246000fd5b818015611d615760018114611d7257611d9f565b60ff19861689528489019650611d9f565b60008881526020902060005b86811015611d975781548b820152908501908301611d7e565b505084890196505b50505050505092915050565b6000611db78285611d11565b8351611dc78183602088016118b2565b64173539b7b760d91b9101908152600501949350505050565b6000611dec8284611d11565b663737973539b7b760c91b81526007019392505050565b634e487b7160e01b600052603260045260246000fd5b634e487b7160e01b600052601160045260246000fd5b6000600019821415611e4357611e43611e19565b5060010190565b6000816000190483118215151615611e6457611e64611e19565b500290565b634e487b7160e01b600052601260045260246000fd5b600082611e8e57611e8e611e69565b500490565b600082821015611ea557611ea5611e19565b500390565b600082611eb957611eb9611e69565b500690565b60008219821115611ed157611ed1611e19565b500190565b60208082526025908201527f455243313135353a207472616e7366657220746f20746865207a65726f206164604082015264647265737360d81b606082015260800190565b6020808252602a908201527f455243313135353a20696e73756666696369656e742062616c616e636520666f60408201526939103a3930b739b332b960b11b606082015260800190565b604081526000611f786040830185611b7f565b8281036020840152611f8a8185611b7f565b95945050505050565b6001600160a01b0386811682528516602082015260a060408201819052600090611fbf90830186611b7f565b8281036060840152611fd18186611b7f565b90508281036080840152611fe581856118e2565b98975050505050505050565b60006020828403121561200357600080fd5b81516117c18161178e565b600060033d11156120275760046000803e5060005160e01c5b90565b600060443d10156120385790565b6040516003193d81016004833e81513d67ffffffffffffffff816024840111818411171561206857505050505090565b82850191508151818111156120805750505050505090565b843d870101602082850101111561209a5750505050505090565b6120a9602082860101876117de565b509095945050505050565b60208082526028908201527f455243313135353a204552433131353552656365697665722072656a656374656040820152676420746f6b656e7360c01b606082015260800190565b6001600160a01b03868116825285166020820152604081018490526060810183905260a060808201819052600090612136908301846118e2565b97965050505050505056fea2646970667358221220e43314b2fa074b5ba65a12d3ad4bd2cec000c356a30fd0e96dd839e8dc0e9def64736f6c6343000809003368747470733a2f2f676174657761792e70696e6174612e636c6f75642f697066732f",
  "linkReferences": {},
  "deployedLinkReferences": {}
}