{
  "_format": "hh-sol-artifact-1",
  "contractName": "ERC1155TieredSmartContract",
  "sourceName": "contracts/ERC1155TieredSmartContract.sol",
  "abi": [
    {
      "inputs": [
        {
          "internalType": "string",
          "name": "_name",
          "type": "string"
        },
        {
          "internalType": "string",
          "name": "_symbol",
          "type": "string"
        },
        {
          "internalType": "uint256",
          "name": "_maxSupply",
          "type": "uint256"
        },
        {
          "internalType": "string",
          "name": "_uri",
          "type": "string"
        },
        {
          "internalType": "uint256[]",
          "name": "_maxTokensSupply",
          "type": "uint256[]"
        },
        {
          "internalType": "uint256",
          "name": "_price",
          "type": "uint256"
        }
      ],
      "stateMutability": "nonpayable",
      "type": "constructor"
    },
    {
      "anonymous": false,
      "inputs": [
        {
          "indexed": true,
          "internalType": "address",
          "name": "account",
          "type": "address"
        },
        {
          "indexed": true,
          "internalType": "address",
          "name": "operator",
          "type": "address"
        },
        {
          "indexed": false,
          "internalType": "bool",
          "name": "approved",
          "type": "bool"
        }
      ],
      "name": "ApprovalForAll",
      "type": "event"
    },
    {
      "anonymous": false,
      "inputs": [
        {
          "indexed": true,
          "internalType": "address",
          "name": "previousOwner",
          "type": "address"
        },
        {
          "indexed": true,
          "internalType": "address",
          "name": "newOwner",
          "type": "address"
        }
      ],
      "name": "OwnershipTransferred",
      "type": "event"
    },
    {
      "anonymous": false,
      "inputs": [
        {
          "indexed": true,
          "internalType": "address",
          "name": "operator",
          "type": "address"
        },
        {
          "indexed": true,
          "internalType": "address",
          "name": "from",
          "type": "address"
        },
        {
          "indexed": true,
          "internalType": "address",
          "name": "to",
          "type": "address"
        },
        {
          "indexed": false,
          "internalType": "uint256[]",
          "name": "ids",
          "type": "uint256[]"
        },
        {
          "indexed": false,
          "internalType": "uint256[]",
          "name": "values",
          "type": "uint256[]"
        }
      ],
      "name": "TransferBatch",
      "type": "event"
    },
    {
      "anonymous": false,
      "inputs": [
        {
          "indexed": true,
          "internalType": "address",
          "name": "operator",
          "type": "address"
        },
        {
          "indexed": true,
          "internalType": "address",
          "name": "from",
          "type": "address"
        },
        {
          "indexed": true,
          "internalType": "address",
          "name": "to",
          "type": "address"
        },
        {
          "indexed": false,
          "internalType": "uint256",
          "name": "id",
          "type": "uint256"
        },
        {
          "indexed": false,
          "internalType": "uint256",
          "name": "value",
          "type": "uint256"
        }
      ],
      "name": "TransferSingle",
      "type": "event"
    },
    {
      "anonymous": false,
      "inputs": [
        {
          "indexed": false,
          "internalType": "string",
          "name": "value",
          "type": "string"
        },
        {
          "indexed": true,
          "internalType": "uint256",
          "name": "id",
          "type": "uint256"
        }
      ],
      "name": "URI",
      "type": "event"
    },
    {
      "inputs": [
        {
          "internalType": "address",
          "name": "_account",
          "type": "address"
        }
      ],
      "name": "addMinter",
      "outputs": [],
      "stateMutability": "nonpayable",
      "type": "function"
    },
    {
      "inputs": [
        {
          "internalType": "address",
          "name": "account",
          "type": "address"
        },
        {
          "internalType": "uint256",
          "name": "id",
          "type": "uint256"
        }
      ],
      "name": "balanceOf",
      "outputs": [
        {
          "internalType": "uint256",
          "name": "",
          "type": "uint256"
        }
      ],
      "stateMutability": "view",
      "type": "function"
    },
    {
      "inputs": [
        {
          "internalType": "address[]",
          "name": "accounts",
          "type": "address[]"
        },
        {
          "internalType": "uint256[]",
          "name": "ids",
          "type": "uint256[]"
        }
      ],
      "name": "balanceOfBatch",
      "outputs": [
        {
          "internalType": "uint256[]",
          "name": "",
          "type": "uint256[]"
        }
      ],
      "stateMutability": "view",
      "type": "function"
    },
    {
      "inputs": [
        {
          "internalType": "uint256",
          "name": "id",
          "type": "uint256"
        }
      ],
      "name": "exists",
      "outputs": [
        {
          "internalType": "bool",
          "name": "",
          "type": "bool"
        }
      ],
      "stateMutability": "view",
      "type": "function"
    },
    {
      "inputs": [],
      "name": "getBaseURI",
      "outputs": [
        {
          "internalType": "string",
          "name": "",
          "type": "string"
        }
      ],
      "stateMutability": "view",
      "type": "function"
    },
    {
      "inputs": [
        {
          "internalType": "address",
          "name": "account",
          "type": "address"
        },
        {
          "internalType": "address",
          "name": "operator",
          "type": "address"
        }
      ],
      "name": "isApprovedForAll",
      "outputs": [
        {
          "internalType": "bool",
          "name": "",
          "type": "bool"
        }
      ],
      "stateMutability": "view",
      "type": "function"
    },
    {
      "inputs": [],
      "name": "maxSupply",
      "outputs": [
        {
          "internalType": "uint256",
          "name": "",
          "type": "uint256"
        }
      ],
      "stateMutability": "view",
      "type": "function"
    },
    {
      "inputs": [],
      "name": "maxTokenId",
      "outputs": [
        {
          "internalType": "uint256",
          "name": "",
          "type": "uint256"
        }
      ],
      "stateMutability": "view",
      "type": "function"
    },
    {
      "inputs": [
        {
          "internalType": "address",
          "name": "tokenOwner",
          "type": "address"
        },
        {
          "internalType": "uint256",
          "name": "tierId",
          "type": "uint256"
        },
        {
          "internalType": "uint256",
          "name": "nftCount",
          "type": "uint256"
        }
      ],
      "name": "mintTierTokens",
      "outputs": [
        {
          "internalType": "uint256",
          "name": "",
          "type": "uint256"
        }
      ],
      "stateMutability": "payable",
      "type": "function"
    },
    {
      "inputs": [],
      "name": "name",
      "outputs": [
        {
          "internalType": "string",
          "name": "",
          "type": "string"
        }
      ],
      "stateMutability": "view",
      "type": "function"
    },
    {
      "inputs": [],
      "name": "owner",
      "outputs": [
        {
          "internalType": "address",
          "name": "",
          "type": "address"
        }
      ],
      "stateMutability": "view",
      "type": "function"
    },
    {
      "inputs": [
        {
          "internalType": "address",
          "name": "_account",
          "type": "address"
        }
      ],
      "name": "removeMinter",
      "outputs": [],
      "stateMutability": "nonpayable",
      "type": "function"
    },
    {
      "inputs": [],
      "name": "renounceOwnership",
      "outputs": [],
      "stateMutability": "nonpayable",
      "type": "function"
    },
    {
      "inputs": [
        {
          "internalType": "address",
          "name": "from",
          "type": "address"
        },
        {
          "internalType": "address",
          "name": "to",
          "type": "address"
        },
        {
          "internalType": "uint256[]",
          "name": "ids",
          "type": "uint256[]"
        },
        {
          "internalType": "uint256[]",
          "name": "amounts",
          "type": "uint256[]"
        },
        {
          "internalType": "bytes",
          "name": "data",
          "type": "bytes"
        }
      ],
      "name": "safeBatchTransferFrom",
      "outputs": [],
      "stateMutability": "nonpayable",
      "type": "function"
    },
    {
      "inputs": [
        {
          "internalType": "address",
          "name": "from",
          "type": "address"
        },
        {
          "internalType": "address",
          "name": "to",
          "type": "address"
        },
        {
          "internalType": "uint256",
          "name": "id",
          "type": "uint256"
        },
        {
          "internalType": "uint256",
          "name": "amount",
          "type": "uint256"
        },
        {
          "internalType": "bytes",
          "name": "data",
          "type": "bytes"
        }
      ],
      "name": "safeTransferFrom",
      "outputs": [],
      "stateMutability": "nonpayable",
      "type": "function"
    },
    {
      "inputs": [
        {
          "internalType": "address",
          "name": "operator",
          "type": "address"
        },
        {
          "internalType": "bool",
          "name": "approved",
          "type": "bool"
        }
      ],
      "name": "setApprovalForAll",
      "outputs": [],
      "stateMutability": "nonpayable",
      "type": "function"
    },
    {
      "inputs": [
        {
          "internalType": "uint256",
          "name": "_price",
          "type": "uint256"
        }
      ],
      "name": "setPrice",
      "outputs": [],
      "stateMutability": "nonpayable",
      "type": "function"
    },
    {
      "inputs": [
        {
          "internalType": "string",
          "name": "newuri",
          "type": "string"
        }
      ],
      "name": "setURI",
      "outputs": [],
      "stateMutability": "nonpayable",
      "type": "function"
    },
    {
      "inputs": [
        {
          "internalType": "bytes4",
          "name": "interfaceId",
          "type": "bytes4"
        }
      ],
      "name": "supportsInterface",
      "outputs": [
        {
          "internalType": "bool",
          "name": "",
          "type": "bool"
        }
      ],
      "stateMutability": "view",
      "type": "function"
    },
    {
      "inputs": [],
      "name": "symbol",
      "outputs": [
        {
          "internalType": "string",
          "name": "",
          "type": "string"
        }
      ],
      "stateMutability": "view",
      "type": "function"
    },
    {
      "inputs": [
        {
          "internalType": "uint256",
          "name": "",
          "type": "uint256"
        }
      ],
      "name": "tokensMaxSupply",
      "outputs": [
        {
          "internalType": "uint256",
          "name": "",
          "type": "uint256"
        }
      ],
      "stateMutability": "view",
      "type": "function"
    },
    {
      "inputs": [
        {
          "internalType": "uint256",
          "name": "id",
          "type": "uint256"
        }
      ],
      "name": "totalSupply",
      "outputs": [
        {
          "internalType": "uint256",
          "name": "",
          "type": "uint256"
        }
      ],
      "stateMutability": "view",
      "type": "function"
    },
    {
      "inputs": [
        {
          "internalType": "address",
          "name": "newOwner",
          "type": "address"
        }
      ],
      "name": "transferOwnership",
      "outputs": [],
      "stateMutability": "nonpayable",
      "type": "function"
    },
    {
      "inputs": [
        {
          "internalType": "uint256",
          "name": "tokenId",
          "type": "uint256"
        }
      ],
      "name": "uri",
      "outputs": [
        {
          "internalType": "string",
          "name": "",
          "type": "string"
        }
      ],
      "stateMutability": "view",
      "type": "function"
    }
  ],
  "bytecode": "0x60e06040526022608081815290620028c460a03980516200002991600d9160209091019062000346565b503480156200003757600080fd5b50604051620028e6380380620028e68339810160408190526200005a9162000552565b8262000066816200025b565b50620000723362000274565b600160055585516200008c90600690602089019062000346565b508451620000a290600790602088019062000346565b50600a8490558251620000bd90600d90602086019062000346565b5060098190558151620001265760405162461bcd60e51b815260206004820152602660248201527f4552524f523a205f6d6178546f6b656e73537570706c7920697320656d70747960448201526520617272617960d01b60648201526084015b60405180910390fd5b6000805b8351811015620001a6578381815181106200014957620001496200061d565b6020026020010151826200015e919062000649565b91508381815181106200017557620001756200061d565b6020908102919091018101516000838152600c909252604090912055806200019d8162000664565b9150506200012a565b50808514620002305760405162461bcd60e51b815260206004820152604960248201527f4552524f523a2073756d6f66206d617820737570706c79206f6620616c6c207460448201527f6f6b656e732073686f756c6420626520657175616c20746f206d617820737570606482015268706c79206f6620534360b81b608482015260a4016200011d565b6001835162000240919062000682565b6008556200024e33620002c6565b50505050505050620006d9565b80516200027090600290602084019062000346565b5050565b600480546001600160a01b038381166001600160a01b0319831681179093556040519116919082907f8be0079c531659141344cd1fd0a4f28419497f9722a3daafe3b4186f6b6457e090600090a35050565b6004546001600160a01b03163314620003225760405162461bcd60e51b815260206004820181905260248201527f4f776e61626c653a2063616c6c6572206973206e6f7420746865206f776e657260448201526064016200011d565b6001600160a01b03166000908152600b60205260409020805460ff19166001179055565b82805462000354906200069c565b90600052602060002090601f016020900481019282620003785760008555620003c3565b82601f106200039357805160ff1916838001178555620003c3565b82800160010185558215620003c3579182015b82811115620003c3578251825591602001919060010190620003a6565b50620003d1929150620003d5565b5090565b5b80821115620003d15760008155600101620003d6565b634e487b7160e01b600052604160045260246000fd5b604051601f8201601f191681016001600160401b03811182821017156200042d576200042d620003ec565b604052919050565b600082601f8301126200044757600080fd5b81516001600160401b03811115620004635762000463620003ec565b602062000479601f8301601f1916820162000402565b82815285828487010111156200048e57600080fd5b60005b83811015620004ae57858101830151828201840152820162000491565b83811115620004c05760008385840101525b5095945050505050565b600082601f830112620004dc57600080fd5b815160206001600160401b03821115620004fa57620004fa620003ec565b8160051b6200050b82820162000402565b92835284810182019282810190878511156200052657600080fd5b83870192505b8483101562000547578251825291830191908301906200052c565b979650505050505050565b60008060008060008060c087890312156200056c57600080fd5b86516001600160401b03808211156200058457600080fd5b620005928a838b0162000435565b97506020890151915080821115620005a957600080fd5b620005b78a838b0162000435565b9650604089015195506060890151915080821115620005d557600080fd5b620005e38a838b0162000435565b94506080890151915080821115620005fa57600080fd5b506200060989828a01620004ca565b92505060a087015190509295509295509295565b634e487b7160e01b600052603260045260246000fd5b634e487b7160e01b600052601160045260246000fd5b600082198211156200065f576200065f62000633565b500190565b60006000198214156200067b576200067b62000633565b5060010190565b60008282101562000697576200069762000633565b500390565b600181811c90821680620006b157607f821691505b60208210811415620006d357634e487b7160e01b600052602260045260246000fd5b50919050565b6121db80620006e96000396000f3fe60806040526004361061014a5760003560e01c80638da5cb5b116100b6578063a22cb4651161006f578063a22cb465146103af578063bd85b039146103cf578063d5abeb01146103fc578063e985e9c514610412578063f242432a1461045b578063f2fde38b1461047b57600080fd5b80638da5cb5b1461030957806391b7f5ed1461033157806391ba317a1461035157806395d89b4114610367578063983b2d561461037c578063a0dfe9d61461039c57600080fd5b80632eb2c2d6116101085780632eb2c2d6146102435780633092afd5146102635780634e1273f4146102835780634f558e79146102b0578063714c5398146102df578063715018a6146102f457600080fd5b8062fdd58e1461014f57806301ffc9a71461018257806302fe5305146101b257806306fdde03146101d45780630e89341c146101f65780631008d26914610216575b600080fd5b34801561015b57600080fd5b5061016f61016a3660046117b9565b61049b565b6040519081526020015b60405180910390f35b34801561018e57600080fd5b506101a261019d3660046117f9565b610532565b6040519015158152602001610179565b3480156101be57600080fd5b506101d26101cd3660046118be565b610584565b005b3480156101e057600080fd5b506101e96105ce565b6040516101799190611963565b34801561020257600080fd5b506101e9610211366004611976565b61065c565b34801561022257600080fd5b5061016f610231366004611976565b600c6020526000908152604090205481565b34801561024f57600080fd5b506101d261025e366004611a44565b6106cd565b34801561026f57600080fd5b506101d261027e366004611aee565b610764565b34801561028f57600080fd5b506102a361029e366004611b09565b6107af565b6040516101799190611c0f565b3480156102bc57600080fd5b506101a26102cb366004611976565b600090815260036020526040902054151590565b3480156102eb57600080fd5b506101e96108d9565b34801561030057600080fd5b506101d261096b565b34801561031557600080fd5b506004546040516001600160a01b039091168152602001610179565b34801561033d57600080fd5b506101d261034c366004611976565b6109a1565b34801561035d57600080fd5b5061016f60085481565b34801561037357600080fd5b506101e96109d0565b34801561038857600080fd5b506101d2610397366004611aee565b6109dd565b61016f6103aa366004611c22565b610a2b565b3480156103bb57600080fd5b506101d26103ca366004611c55565b610beb565b3480156103db57600080fd5b5061016f6103ea366004611976565b60009081526003602052604090205490565b34801561040857600080fd5b5061016f600a5481565b34801561041e57600080fd5b506101a261042d366004611c91565b6001600160a01b03918216600090815260016020908152604080832093909416825291909152205460ff1690565b34801561046757600080fd5b506101d2610476366004611cc4565b610bfa565b34801561048757600080fd5b506101d2610496366004611aee565b610c81565b60006001600160a01b03831661050c5760405162461bcd60e51b815260206004820152602b60248201527f455243313135353a2062616c616e636520717565727920666f7220746865207a60448201526a65726f206164647265737360a81b60648201526084015b60405180910390fd5b506000908152602081815260408083206001600160a01b03949094168352929052205490565b60006001600160e01b03198216636cdb3d1360e11b148061056357506001600160e01b031982166303a24d0760e21b145b8061057e57506301ffc9a760e01b6001600160e01b03198316145b92915050565b6004546001600160a01b031633146105ae5760405162461bcd60e51b815260040161050390611d29565b80516105c190600d906020840190611709565b506105cb81610d19565b50565b600680546105db90611d5e565b80601f016020809104026020016040519081016040528092919081815260200182805461060790611d5e565b80156106545780601f1061062957610100808354040283529160200191610654565b820191906000526020600020905b81548152906001019060200180831161063757829003601f168201915b505050505081565b6060600854821161069957600d61067283610d2c565b604051602001610683929190611db5565b6040516020818303038152906040529050919050565b505060408051808201909152601381527211548e88125b9d985b1a59081d1bdad95b9259606a1b602082015290565b919050565b6001600160a01b0385163314806106e957506106e9853361042d565b6107505760405162461bcd60e51b815260206004820152603260248201527f455243313135353a207472616e736665722063616c6c6572206973206e6f74206044820152711bdddb995c881b9bdc88185c1c1c9bdd995960721b6064820152608401610503565b61075d8585858585610e32565b5050505050565b6004546001600160a01b0316331461078e5760405162461bcd60e51b815260040161050390611d29565b6001600160a01b03166000908152600b60205260409020805460ff19169055565b606081518351146108145760405162461bcd60e51b815260206004820152602960248201527f455243313135353a206163636f756e747320616e6420696473206c656e677468604482015268040dad2e6dac2e8c6d60bb1b6064820152608401610503565b6000835167ffffffffffffffff8111156108305761083061181d565b604051908082528060200260200182016040528015610859578160200160208202803683370190505b50905060005b84518110156108d1576108a485828151811061087d5761087d611e70565b602002602001015185838151811061089757610897611e70565b602002602001015161049b565b8282815181106108b6576108b6611e70565b60209081029190910101526108ca81611e9c565b905061085f565b509392505050565b6060600d80546108e890611d5e565b80601f016020809104026020016040519081016040528092919081815260200182805461091490611d5e565b80156109615780601f1061093657610100808354040283529160200191610961565b820191906000526020600020905b81548152906001019060200180831161094457829003601f168201915b5050505050905090565b6004546001600160a01b031633146109955760405162461bcd60e51b815260040161050390611d29565b61099f600061101d565b565b6004546001600160a01b031633146109cb5760405162461bcd60e51b815260040161050390611d29565b600955565b600780546105db90611d5e565b6004546001600160a01b03163314610a075760405162461bcd60e51b815260040161050390611d29565b6001600160a01b03166000908152600b60205260409020805460ff19166001179055565b600060026005541415610a805760405162461bcd60e51b815260206004820152601f60248201527f5265656e7472616e637947756172643a207265656e7472616e742063616c6c006044820152606401610503565b6002600555600954610a93908390611eb7565b341015610ae25760405162461bcd60e51b815260206004820152601f60248201527f496e636f7272656374204e465420707269636520616d6f756e742073656e74006044820152606401610503565b6000838152600c6020908152604080832054600390925290912054610b079084611ed6565b1115610b6a5760405162461bcd60e51b815260206004820152602c60248201527f43616e2774206d696e74206d6f7265207468616e206d617820737570706c792060448201526b37b3103a3432903a37b5b2b760a11b6064820152608401610503565b60008211610bc45760405162461bcd60e51b815260206004820152602160248201527f6e6674636f756e742073686f756c642062652067726561746572207468616e206044820152600360fc1b6064820152608401610503565b610bdf8484846040518060200160405280600081525061106f565b50506001600555919050565b610bf633838361117f565b5050565b6001600160a01b038516331480610c165750610c16853361042d565b610c745760405162461bcd60e51b815260206004820152602960248201527f455243313135353a2063616c6c6572206973206e6f74206f776e6572206e6f7260448201526808185c1c1c9bdd995960ba1b6064820152608401610503565b61075d8585858585611260565b6004546001600160a01b03163314610cab5760405162461bcd60e51b815260040161050390611d29565b6001600160a01b038116610d105760405162461bcd60e51b815260206004820152602660248201527f4f776e61626c653a206e6577206f776e657220697320746865207a65726f206160448201526564647265737360d01b6064820152608401610503565b6105cb8161101d565b8051610bf6906002906020840190611709565b606081610d505750506040805180820190915260018152600360fc1b602082015290565b8160005b8115610d7a5780610d6481611e9c565b9150610d739050600a83611f04565b9150610d54565b60008167ffffffffffffffff811115610d9557610d9561181d565b6040519080825280601f01601f191660200182016040528015610dbf576020820181803683370190505b5090505b8415610e2a57610dd4600183611f18565b9150610de1600a86611f2f565b610dec906030611ed6565b60f81b818381518110610e0157610e01611e70565b60200101906001600160f81b031916908160001a905350610e23600a86611f04565b9450610dc3565b949350505050565b8151835114610e945760405162461bcd60e51b815260206004820152602860248201527f455243313135353a2069647320616e6420616d6f756e7473206c656e677468206044820152670dad2e6dac2e8c6d60c31b6064820152608401610503565b6001600160a01b038416610eba5760405162461bcd60e51b815260040161050390611f43565b33610ec981878787878761137d565b60005b8451811015610faf576000858281518110610ee957610ee9611e70565b602002602001015190506000858381518110610f0757610f07611e70565b602090810291909101810151600084815280835260408082206001600160a01b038e168352909352919091205490915081811015610f575760405162461bcd60e51b815260040161050390611f88565b6000838152602081815260408083206001600160a01b038e8116855292528083208585039055908b16825281208054849290610f94908490611ed6565b9250508190555050505080610fa890611e9c565b9050610ecc565b50846001600160a01b0316866001600160a01b0316826001600160a01b03167f4a39dc06d4c0dbc64b70af90fd698a233a518aa5d07e595d983b8c0526c8f7fb8787604051610fff929190611fd2565b60405180910390a4611015818787878787611489565b505050505050565b600480546001600160a01b038381166001600160a01b0319831681179093556040519116919082907f8be0079c531659141344cd1fd0a4f28419497f9722a3daafe3b4186f6b6457e090600090a35050565b6001600160a01b0384166110cf5760405162461bcd60e51b815260206004820152602160248201527f455243313135353a206d696e7420746f20746865207a65726f206164647265736044820152607360f81b6064820152608401610503565b336110ef816000876110e0886115f4565b6110e9886115f4565b8761137d565b6000848152602081815260408083206001600160a01b03891684529091528120805485929061111f908490611ed6565b909155505060408051858152602081018590526001600160a01b0380881692600092918516917fc3d58168c5ae7397731d063d5bbf3d657854427343f4c083240f7aacaa2d0f62910160405180910390a461075d8160008787878761163f565b816001600160a01b0316836001600160a01b031614156111f35760405162461bcd60e51b815260206004820152602960248201527f455243313135353a2073657474696e6720617070726f76616c20737461747573604482015268103337b91039b2b63360b91b6064820152608401610503565b6001600160a01b03838116600081815260016020908152604080832094871680845294825291829020805460ff191686151590811790915591519182527f17307eab39ab6107e8899845ad3d59bd9653f200f220920489ca2b5937696c31910160405180910390a3505050565b6001600160a01b0384166112865760405162461bcd60e51b815260040161050390611f43565b336112968187876110e0886115f4565b6000848152602081815260408083206001600160a01b038a168452909152902054838110156112d75760405162461bcd60e51b815260040161050390611f88565b6000858152602081815260408083206001600160a01b038b8116855292528083208785039055908816825281208054869290611314908490611ed6565b909155505060408051868152602081018690526001600160a01b03808916928a821692918616917fc3d58168c5ae7397731d063d5bbf3d657854427343f4c083240f7aacaa2d0f62910160405180910390a461137482888888888861163f565b50505050505050565b6001600160a01b0385166114045760005b8351811015611402578281815181106113a9576113a9611e70565b6020026020010151600360008684815181106113c7576113c7611e70565b6020026020010151815260200190815260200160002060008282546113ec9190611ed6565b909155506113fb905081611e9c565b905061138e565b505b6001600160a01b0384166110155760005b83518110156113745782818151811061143057611430611e70565b60200260200101516003600086848151811061144e5761144e611e70565b6020026020010151815260200190815260200160002060008282546114739190611f18565b90915550611482905081611e9c565b9050611415565b6001600160a01b0384163b156110155760405163bc197c8160e01b81526001600160a01b0385169063bc197c81906114cd9089908990889088908890600401611ff7565b602060405180830381600087803b1580156114e757600080fd5b505af1925050508015611517575060408051601f3d908101601f1916820190925261151491810190612055565b60015b6115c457611523612072565b806308c379a0141561155d575061153861208e565b80611543575061155f565b8060405162461bcd60e51b81526004016105039190611963565b505b60405162461bcd60e51b815260206004820152603460248201527f455243313135353a207472616e7366657220746f206e6f6e20455243313135356044820152732932b1b2b4bb32b91034b6b83632b6b2b73a32b960611b6064820152608401610503565b6001600160e01b0319811663bc197c8160e01b146113745760405162461bcd60e51b815260040161050390612118565b6040805160018082528183019092526060916000919060208083019080368337019050509050828160008151811061162e5761162e611e70565b602090810291909101015292915050565b6001600160a01b0384163b156110155760405163f23a6e6160e01b81526001600160a01b0385169063f23a6e61906116839089908990889088908890600401612160565b602060405180830381600087803b15801561169d57600080fd5b505af19250505080156116cd575060408051601f3d908101601f191682019092526116ca91810190612055565b60015b6116d957611523612072565b6001600160e01b0319811663f23a6e6160e01b146113745760405162461bcd60e51b815260040161050390612118565b82805461171590611d5e565b90600052602060002090601f016020900481019282611737576000855561177d565b82601f1061175057805160ff191683800117855561177d565b8280016001018555821561177d579182015b8281111561177d578251825591602001919060010190611762565b5061178992915061178d565b5090565b5b80821115611789576000815560010161178e565b80356001600160a01b03811681146106c857600080fd5b600080604083850312156117cc57600080fd5b6117d5836117a2565b946020939093013593505050565b6001600160e01b0319811681146105cb57600080fd5b60006020828403121561180b57600080fd5b8135611816816117e3565b9392505050565b634e487b7160e01b600052604160045260246000fd5b601f8201601f1916810167ffffffffffffffff811182821017156118595761185961181d565b6040525050565b600067ffffffffffffffff83111561187a5761187a61181d565b604051611891601f8501601f191660200182611833565b8091508381528484840111156118a657600080fd5b83836020830137600060208583010152509392505050565b6000602082840312156118d057600080fd5b813567ffffffffffffffff8111156118e757600080fd5b8201601f810184136118f857600080fd5b610e2a84823560208401611860565b60005b8381101561192257818101518382015260200161190a565b83811115611931576000848401525b50505050565b6000815180845261194f816020860160208601611907565b601f01601f19169290920160200192915050565b6020815260006118166020830184611937565b60006020828403121561198857600080fd5b5035919050565b600067ffffffffffffffff8211156119a9576119a961181d565b5060051b60200190565b600082601f8301126119c457600080fd5b813560206119d18261198f565b6040516119de8282611833565b83815260059390931b85018201928281019150868411156119fe57600080fd5b8286015b84811015611a195780358352918301918301611a02565b509695505050505050565b600082601f830112611a3557600080fd5b61181683833560208501611860565b600080600080600060a08688031215611a5c57600080fd5b611a65866117a2565b9450611a73602087016117a2565b9350604086013567ffffffffffffffff80821115611a9057600080fd5b611a9c89838a016119b3565b94506060880135915080821115611ab257600080fd5b611abe89838a016119b3565b93506080880135915080821115611ad457600080fd5b50611ae188828901611a24565b9150509295509295909350565b600060208284031215611b0057600080fd5b611816826117a2565b60008060408385031215611b1c57600080fd5b823567ffffffffffffffff80821115611b3457600080fd5b818501915085601f830112611b4857600080fd5b81356020611b558261198f565b604051611b628282611833565b83815260059390931b8501820192828101915089841115611b8257600080fd5b948201945b83861015611ba757611b98866117a2565b82529482019490820190611b87565b96505086013592505080821115611bbd57600080fd5b50611bca858286016119b3565b9150509250929050565b600081518084526020808501945080840160005b83811015611c0457815187529582019590820190600101611be8565b509495945050505050565b6020815260006118166020830184611bd4565b600080600060608486031215611c3757600080fd5b611c40846117a2565b95602085013595506040909401359392505050565b60008060408385031215611c6857600080fd5b611c71836117a2565b915060208301358015158114611c8657600080fd5b809150509250929050565b60008060408385031215611ca457600080fd5b611cad836117a2565b9150611cbb602084016117a2565b90509250929050565b600080600080600060a08688031215611cdc57600080fd5b611ce5866117a2565b9450611cf3602087016117a2565b93506040860135925060608601359150608086013567ffffffffffffffff811115611d1d57600080fd5b611ae188828901611a24565b6020808252818101527f4f776e61626c653a2063616c6c6572206973206e6f7420746865206f776e6572604082015260600190565b600181811c90821680611d7257607f821691505b60208210811415611d9357634e487b7160e01b600052602260045260246000fd5b50919050565b60008151611dab818560208601611907565b9290920192915050565b600080845481600182811c915080831680611dd157607f831692505b6020808410821415611df157634e487b7160e01b86526022600452602486fd5b818015611e055760018114611e1657611e43565b60ff19861689528489019650611e43565b60008b81526020902060005b86811015611e3b5781548b820152908501908301611e22565b505084890196505b505050505050611e67611e568286611d99565b64173539b7b760d91b815260050190565b95945050505050565b634e487b7160e01b600052603260045260246000fd5b634e487b7160e01b600052601160045260246000fd5b6000600019821415611eb057611eb0611e86565b5060010190565b6000816000190483118215151615611ed157611ed1611e86565b500290565b60008219821115611ee957611ee9611e86565b500190565b634e487b7160e01b600052601260045260246000fd5b600082611f1357611f13611eee565b500490565b600082821015611f2a57611f2a611e86565b500390565b600082611f3e57611f3e611eee565b500690565b60208082526025908201527f455243313135353a207472616e7366657220746f20746865207a65726f206164604082015264647265737360d81b606082015260800190565b6020808252602a908201527f455243313135353a20696e73756666696369656e742062616c616e636520666f60408201526939103a3930b739b332b960b11b606082015260800190565b604081526000611fe56040830185611bd4565b8281036020840152611e678185611bd4565b6001600160a01b0386811682528516602082015260a06040820181905260009061202390830186611bd4565b82810360608401526120358186611bd4565b905082810360808401526120498185611937565b98975050505050505050565b60006020828403121561206757600080fd5b8151611816816117e3565b600060033d111561208b5760046000803e5060005160e01c5b90565b600060443d101561209c5790565b6040516003193d81016004833e81513d67ffffffffffffffff81602484011181841117156120cc57505050505090565b82850191508151818111156120e45750505050505090565b843d87010160208285010111156120fe5750505050505090565b61210d60208286010187611833565b509095945050505050565b60208082526028908201527f455243313135353a204552433131353552656365697665722072656a656374656040820152676420746f6b656e7360c01b606082015260800190565b6001600160a01b03868116825285166020820152604081018490526060810183905260a06080820181905260009061219a90830184611937565b97965050505050505056fea26469706673582212208df40c6fdc990e79da586caecf72d528b0c263be2caa61fb888844c987fbb60d64736f6c6343000809003368747470733a2f2f676174657761792e70696e6174612e636c6f75642f697066732f",
  "linkReferences": {},
  "deployedLinkReferences": {}
}