{
  "_format": "hh-sol-artifact-1",
  "contractName": "ERC1155SmartContract",
  "sourceName": "contracts/ERC1155SmartContract.sol",
  "abi": [
    {
      "inputs": [
        {
          "internalType": "string",
          "name": "_name",
          "type": "string"
        },
        {
          "internalType": "string",
          "name": "_symbol",
          "type": "string"
        },
        {
          "internalType": "uint256",
          "name": "_maxSupply",
          "type": "uint256"
        },
        {
          "internalType": "string",
          "name": "_uri",
          "type": "string"
        },
        {
          "internalType": "uint256",
          "name": "_price",
          "type": "uint256"
        }
      ],
      "stateMutability": "nonpayable",
      "type": "constructor"
    },
    {
      "anonymous": false,
      "inputs": [
        {
          "indexed": true,
          "internalType": "address",
          "name": "account",
          "type": "address"
        },
        {
          "indexed": true,
          "internalType": "address",
          "name": "operator",
          "type": "address"
        },
        {
          "indexed": false,
          "internalType": "bool",
          "name": "approved",
          "type": "bool"
        }
      ],
      "name": "ApprovalForAll",
      "type": "event"
    },
    {
      "anonymous": false,
      "inputs": [
        {
          "indexed": true,
          "internalType": "address",
          "name": "previousOwner",
          "type": "address"
        },
        {
          "indexed": true,
          "internalType": "address",
          "name": "newOwner",
          "type": "address"
        }
      ],
      "name": "OwnershipTransferred",
      "type": "event"
    },
    {
      "anonymous": false,
      "inputs": [
        {
          "indexed": true,
          "internalType": "address",
          "name": "operator",
          "type": "address"
        },
        {
          "indexed": true,
          "internalType": "address",
          "name": "from",
          "type": "address"
        },
        {
          "indexed": true,
          "internalType": "address",
          "name": "to",
          "type": "address"
        },
        {
          "indexed": false,
          "internalType": "uint256[]",
          "name": "ids",
          "type": "uint256[]"
        },
        {
          "indexed": false,
          "internalType": "uint256[]",
          "name": "values",
          "type": "uint256[]"
        }
      ],
      "name": "TransferBatch",
      "type": "event"
    },
    {
      "anonymous": false,
      "inputs": [
        {
          "indexed": true,
          "internalType": "address",
          "name": "operator",
          "type": "address"
        },
        {
          "indexed": true,
          "internalType": "address",
          "name": "from",
          "type": "address"
        },
        {
          "indexed": true,
          "internalType": "address",
          "name": "to",
          "type": "address"
        },
        {
          "indexed": false,
          "internalType": "uint256",
          "name": "id",
          "type": "uint256"
        },
        {
          "indexed": false,
          "internalType": "uint256",
          "name": "value",
          "type": "uint256"
        }
      ],
      "name": "TransferSingle",
      "type": "event"
    },
    {
      "anonymous": false,
      "inputs": [
        {
          "indexed": false,
          "internalType": "string",
          "name": "value",
          "type": "string"
        },
        {
          "indexed": true,
          "internalType": "uint256",
          "name": "id",
          "type": "uint256"
        }
      ],
      "name": "URI",
      "type": "event"
    },
    {
      "inputs": [
        {
          "internalType": "address",
          "name": "_account",
          "type": "address"
        }
      ],
      "name": "addMinter",
      "outputs": [],
      "stateMutability": "nonpayable",
      "type": "function"
    },
    {
      "inputs": [
        {
          "internalType": "address",
          "name": "account",
          "type": "address"
        },
        {
          "internalType": "uint256",
          "name": "id",
          "type": "uint256"
        }
      ],
      "name": "balanceOf",
      "outputs": [
        {
          "internalType": "uint256",
          "name": "",
          "type": "uint256"
        }
      ],
      "stateMutability": "view",
      "type": "function"
    },
    {
      "inputs": [
        {
          "internalType": "address[]",
          "name": "accounts",
          "type": "address[]"
        },
        {
          "internalType": "uint256[]",
          "name": "ids",
          "type": "uint256[]"
        }
      ],
      "name": "balanceOfBatch",
      "outputs": [
        {
          "internalType": "uint256[]",
          "name": "",
          "type": "uint256[]"
        }
      ],
      "stateMutability": "view",
      "type": "function"
    },
    {
      "inputs": [
        {
          "internalType": "address",
          "name": "account",
          "type": "address"
        },
        {
          "internalType": "address",
          "name": "operator",
          "type": "address"
        }
      ],
      "name": "isApprovedForAll",
      "outputs": [
        {
          "internalType": "bool",
          "name": "",
          "type": "bool"
        }
      ],
      "stateMutability": "view",
      "type": "function"
    },
    {
      "inputs": [],
      "name": "maxSupply",
      "outputs": [
        {
          "internalType": "uint256",
          "name": "",
          "type": "uint256"
        }
      ],
      "stateMutability": "view",
      "type": "function"
    },
    {
      "inputs": [
        {
          "internalType": "address",
          "name": "tokenOwner",
          "type": "address"
        }
      ],
      "name": "mint",
      "outputs": [
        {
          "internalType": "uint256",
          "name": "",
          "type": "uint256"
        }
      ],
      "stateMutability": "payable",
      "type": "function"
    },
    {
      "inputs": [
        {
          "internalType": "address",
          "name": "tokenOwner",
          "type": "address"
        },
        {
          "internalType": "uint256",
          "name": "count",
          "type": "uint256"
        }
      ],
      "name": "mintWithClones",
      "outputs": [
        {
          "internalType": "uint256",
          "name": "",
          "type": "uint256"
        }
      ],
      "stateMutability": "payable",
      "type": "function"
    },
    {
      "inputs": [],
      "name": "name",
      "outputs": [
        {
          "internalType": "string",
          "name": "",
          "type": "string"
        }
      ],
      "stateMutability": "view",
      "type": "function"
    },
    {
      "inputs": [],
      "name": "owner",
      "outputs": [
        {
          "internalType": "address",
          "name": "",
          "type": "address"
        }
      ],
      "stateMutability": "view",
      "type": "function"
    },
    {
      "inputs": [
        {
          "internalType": "address",
          "name": "_account",
          "type": "address"
        }
      ],
      "name": "removeMinter",
      "outputs": [],
      "stateMutability": "nonpayable",
      "type": "function"
    },
    {
      "inputs": [],
      "name": "renounceOwnership",
      "outputs": [],
      "stateMutability": "nonpayable",
      "type": "function"
    },
    {
      "inputs": [
        {
          "internalType": "address",
          "name": "from",
          "type": "address"
        },
        {
          "internalType": "address",
          "name": "to",
          "type": "address"
        },
        {
          "internalType": "uint256[]",
          "name": "ids",
          "type": "uint256[]"
        },
        {
          "internalType": "uint256[]",
          "name": "amounts",
          "type": "uint256[]"
        },
        {
          "internalType": "bytes",
          "name": "data",
          "type": "bytes"
        }
      ],
      "name": "safeBatchTransferFrom",
      "outputs": [],
      "stateMutability": "nonpayable",
      "type": "function"
    },
    {
      "inputs": [
        {
          "internalType": "address",
          "name": "from",
          "type": "address"
        },
        {
          "internalType": "address",
          "name": "to",
          "type": "address"
        },
        {
          "internalType": "uint256",
          "name": "id",
          "type": "uint256"
        },
        {
          "internalType": "uint256",
          "name": "amount",
          "type": "uint256"
        },
        {
          "internalType": "bytes",
          "name": "data",
          "type": "bytes"
        }
      ],
      "name": "safeTransferFrom",
      "outputs": [],
      "stateMutability": "nonpayable",
      "type": "function"
    },
    {
      "inputs": [
        {
          "internalType": "address",
          "name": "operator",
          "type": "address"
        },
        {
          "internalType": "bool",
          "name": "approved",
          "type": "bool"
        }
      ],
      "name": "setApprovalForAll",
      "outputs": [],
      "stateMutability": "nonpayable",
      "type": "function"
    },
    {
      "inputs": [
        {
          "internalType": "uint256",
          "name": "_price",
          "type": "uint256"
        }
      ],
      "name": "setPrice",
      "outputs": [],
      "stateMutability": "nonpayable",
      "type": "function"
    },
    {
      "inputs": [
        {
          "internalType": "string",
          "name": "newuri",
          "type": "string"
        }
      ],
      "name": "setURI",
      "outputs": [],
      "stateMutability": "nonpayable",
      "type": "function"
    },
    {
      "inputs": [
        {
          "internalType": "bytes4",
          "name": "interfaceId",
          "type": "bytes4"
        }
      ],
      "name": "supportsInterface",
      "outputs": [
        {
          "internalType": "bool",
          "name": "",
          "type": "bool"
        }
      ],
      "stateMutability": "view",
      "type": "function"
    },
    {
      "inputs": [],
      "name": "symbol",
      "outputs": [
        {
          "internalType": "string",
          "name": "",
          "type": "string"
        }
      ],
      "stateMutability": "view",
      "type": "function"
    },
    {
      "inputs": [],
      "name": "totalSupply",
      "outputs": [
        {
          "internalType": "uint256",
          "name": "",
          "type": "uint256"
        }
      ],
      "stateMutability": "view",
      "type": "function"
    },
    {
      "inputs": [
        {
          "internalType": "address",
          "name": "newOwner",
          "type": "address"
        }
      ],
      "name": "transferOwnership",
      "outputs": [],
      "stateMutability": "nonpayable",
      "type": "function"
    },
    {
      "inputs": [
        {
          "internalType": "uint256",
          "name": "tokenId",
          "type": "uint256"
        }
      ],
      "name": "uri",
      "outputs": [
        {
          "internalType": "string",
          "name": "",
          "type": "string"
        }
      ],
      "stateMutability": "view",
      "type": "function"
    }
  ],
  "bytecode": "0x60e060405260226080818152906200245a60a03980516200002991600b91602090910190620001c7565b503480156200003757600080fd5b506040516200247c3803806200247c8339810160408190526200005a916200033a565b816200006681620000d9565b506200007233620000f2565b600160045584516200008c906005906020880190620001c7565b508351620000a2906006906020870190620001c7565b5060098390558151620000bd90600b906020850190620001c7565b506008819055620000ce3362000144565b50505050506200041c565b8051620000ee906002906020840190620001c7565b5050565b600380546001600160a01b038381166001600160a01b0319831681179093556040519116919082907f8be0079c531659141344cd1fd0a4f28419497f9722a3daafe3b4186f6b6457e090600090a35050565b6003546001600160a01b03163314620001a35760405162461bcd60e51b815260206004820181905260248201527f4f776e61626c653a2063616c6c6572206973206e6f7420746865206f776e6572604482015260640160405180910390fd5b6001600160a01b03166000908152600a60205260409020805460ff19166001179055565b828054620001d590620003df565b90600052602060002090601f016020900481019282620001f9576000855562000244565b82601f106200021457805160ff191683800117855562000244565b8280016001018555821562000244579182015b828111156200024457825182559160200191906001019062000227565b506200025292915062000256565b5090565b5b8082111562000252576000815560010162000257565b634e487b7160e01b600052604160045260246000fd5b600082601f8301126200029557600080fd5b81516001600160401b0380821115620002b257620002b26200026d565b604051601f8301601f19908116603f01168101908282118183101715620002dd57620002dd6200026d565b81604052838152602092508683858801011115620002fa57600080fd5b600091505b838210156200031e5785820183015181830184015290820190620002ff565b83821115620003305760008385830101525b9695505050505050565b600080600080600060a086880312156200035357600080fd5b85516001600160401b03808211156200036b57600080fd5b6200037989838a0162000283565b965060208801519150808211156200039057600080fd5b6200039e89838a0162000283565b9550604088015194506060880151915080821115620003bc57600080fd5b50620003cb8882890162000283565b925050608086015190509295509295909350565b600181811c90821680620003f457607f821691505b602082108114156200041657634e487b7160e01b600052602260045260246000fd5b50919050565b61202e806200042c6000396000f3fe6080604052600436106101295760003560e01c8063715018a6116100ab578063a22cb4651161006f578063a22cb4651461031c578063d5abeb011461033c578063e985e9c514610352578063ec0ea45f1461039b578063f242432a146103ae578063f2fde38b146103ce57600080fd5b8063715018a61461028a5780638da5cb5b1461029f57806391b7f5ed146102c757806395d89b41146102e7578063983b2d56146102fc57600080fd5b806318160ddd116100f257806318160ddd146101f55780632eb2c2d61461020a5780633092afd51461022a5780634e1273f41461024a5780636a6278421461027757600080fd5b8062fdd58e1461012e57806301ffc9a71461016157806302fe53051461019157806306fdde03146101b35780630e89341c146101d5575b600080fd5b34801561013a57600080fd5b5061014e61014936600461163f565b6103ee565b6040519081526020015b60405180910390f35b34801561016d57600080fd5b5061018161017c36600461167f565b610485565b6040519015158152602001610158565b34801561019d57600080fd5b506101b16101ac366004611744565b6104d7565b005b3480156101bf57600080fd5b506101c8610521565b60405161015891906117e9565b3480156101e157600080fd5b506101c86101f03660046117fc565b6105af565b34801561020157600080fd5b5061014e610626565b34801561021657600080fd5b506101b16102253660046118ca565b610636565b34801561023657600080fd5b506101b1610245366004611974565b6106cd565b34801561025657600080fd5b5061026a61026536600461198f565b610718565b6040516101589190611a95565b61014e610285366004611974565b610842565b34801561029657600080fd5b506101b1610984565b3480156102ab57600080fd5b506003546040516001600160a01b039091168152602001610158565b3480156102d357600080fd5b506101b16102e23660046117fc565b6109ba565b3480156102f357600080fd5b506101c86109e9565b34801561030857600080fd5b506101b1610317366004611974565b6109f6565b34801561032857600080fd5b506101b1610337366004611aa8565b610a44565b34801561034857600080fd5b5061014e60095481565b34801561035e57600080fd5b5061018161036d366004611ae4565b6001600160a01b03918216600090815260016020908152604080832093909416825291909152205460ff1690565b61014e6103a936600461163f565b610a53565b3480156103ba57600080fd5b506101b16103c9366004611b17565b610ba0565b3480156103da57600080fd5b506101b16103e9366004611974565b610c27565b60006001600160a01b03831661045f5760405162461bcd60e51b815260206004820152602b60248201527f455243313135353a2062616c616e636520717565727920666f7220746865207a60448201526a65726f206164647265737360a81b60648201526084015b60405180910390fd5b506000908152602081815260408083206001600160a01b03949094168352929052205490565b60006001600160e01b03198216636cdb3d1360e11b14806104b657506001600160e01b031982166303a24d0760e21b145b806104d157506301ffc9a760e01b6001600160e01b03198316145b92915050565b6003546001600160a01b031633146105015760405162461bcd60e51b815260040161045690611b7c565b805161051490600b90602084019061158f565b5061051e81610cbf565b50565b6005805461052e90611bb1565b80601f016020809104026020016040519081016040528092919081815260200182805461055a90611bb1565b80156105a75780601f1061057c576101008083540402835291602001916105a7565b820191906000526020600020905b81548152906001019060200180831161058a57829003601f168201915b505050505081565b60606105ba60075490565b82116105f257600b6105cb83610cd2565b6040516020016105dc929190611c08565b6040516020818303038152906040529050919050565b505060408051808201909152601381527211548e88125b9d985b1a59081d1bdad95b9259606a1b602082015290565b919050565b600061063160075490565b905090565b6001600160a01b0385163314806106525750610652853361036d565b6106b95760405162461bcd60e51b815260206004820152603260248201527f455243313135353a207472616e736665722063616c6c6572206973206e6f74206044820152711bdddb995c881b9bdc88185c1c1c9bdd995960721b6064820152608401610456565b6106c68585858585610dd8565b5050505050565b6003546001600160a01b031633146106f75760405162461bcd60e51b815260040161045690611b7c565b6001600160a01b03166000908152600a60205260409020805460ff19169055565b6060815183511461077d5760405162461bcd60e51b815260206004820152602960248201527f455243313135353a206163636f756e747320616e6420696473206c656e677468604482015268040dad2e6dac2e8c6d60bb1b6064820152608401610456565b6000835167ffffffffffffffff811115610799576107996116a3565b6040519080825280602002602001820160405280156107c2578160200160208202803683370190505b50905060005b845181101561083a5761080d8582815181106107e6576107e6611cc3565b602002602001015185838151811061080057610800611cc3565b60200260200101516103ee565b82828151811061081f5761081f611cc3565b602090810291909101015261083381611cef565b90506107c8565b509392505050565b6000600260045414156108975760405162461bcd60e51b815260206004820152601f60248201527f5265656e7472616e637947756172643a207265656e7472616e742063616c6c006044820152606401610456565b60026004556108aa600780546001019055565b6008543410156108fc5760405162461bcd60e51b815260206004820152601a60248201527f496e636f7272656374204e465420707269636520616d6f756e740000000000006044820152606401610456565b60095460075411156109505760405162461bcd60e51b815260206004820152601f60248201527f43616e2774206d696e74206d6f7265207468616e206d617820737570706c79006044820152606401610456565b600061095b60075490565b90506109798382600160405180602001604052806000815250610fb5565b600160045592915050565b6003546001600160a01b031633146109ae5760405162461bcd60e51b815260040161045690611b7c565b6109b860006110bf565b565b6003546001600160a01b031633146109e45760405162461bcd60e51b815260040161045690611b7c565b600855565b6006805461052e90611bb1565b6003546001600160a01b03163314610a205760405162461bcd60e51b815260040161045690611b7c565b6001600160a01b03166000908152600a60205260409020805460ff19166001179055565b610a4f338383611111565b5050565b600060026004541415610aa85760405162461bcd60e51b815260206004820152601f60248201527f5265656e7472616e637947756172643a207265656e7472616e742063616c6c006044820152606401610456565b6002600455610abb600780546001019055565b81600854610ac99190611d0a565b341015610b185760405162461bcd60e51b815260206004820152601a60248201527f496e636f7272656374204e465420707269636520616d6f756e740000000000006044820152606401610456565b6009546007541115610b6c5760405162461bcd60e51b815260206004820152601f60248201527f43616e2774206d696e74206d6f7265207468616e206d617820737570706c79006044820152606401610456565b6000610b7760075490565b9050610b9484828560405180602001604052806000815250610fb5565b60016004559392505050565b6001600160a01b038516331480610bbc5750610bbc853361036d565b610c1a5760405162461bcd60e51b815260206004820152602960248201527f455243313135353a2063616c6c6572206973206e6f74206f776e6572206e6f7260448201526808185c1c1c9bdd995960ba1b6064820152608401610456565b6106c685858585856111f2565b6003546001600160a01b03163314610c515760405162461bcd60e51b815260040161045690611b7c565b6001600160a01b038116610cb65760405162461bcd60e51b815260206004820152602660248201527f4f776e61626c653a206e6577206f776e657220697320746865207a65726f206160448201526564647265737360d01b6064820152608401610456565b61051e816110bf565b8051610a4f90600290602084019061158f565b606081610cf65750506040805180820190915260018152600360fc1b602082015290565b8160005b8115610d205780610d0a81611cef565b9150610d199050600a83611d3f565b9150610cfa565b60008167ffffffffffffffff811115610d3b57610d3b6116a3565b6040519080825280601f01601f191660200182016040528015610d65576020820181803683370190505b5090505b8415610dd057610d7a600183611d53565b9150610d87600a86611d6a565b610d92906030611d7e565b60f81b818381518110610da757610da7611cc3565b60200101906001600160f81b031916908160001a905350610dc9600a86611d3f565b9450610d69565b949350505050565b8151835114610e3a5760405162461bcd60e51b815260206004820152602860248201527f455243313135353a2069647320616e6420616d6f756e7473206c656e677468206044820152670dad2e6dac2e8c6d60c31b6064820152608401610456565b6001600160a01b038416610e605760405162461bcd60e51b815260040161045690611d96565b3360005b8451811015610f47576000858281518110610e8157610e81611cc3565b602002602001015190506000858381518110610e9f57610e9f611cc3565b602090810291909101810151600084815280835260408082206001600160a01b038e168352909352919091205490915081811015610eef5760405162461bcd60e51b815260040161045690611ddb565b6000838152602081815260408083206001600160a01b038e8116855292528083208585039055908b16825281208054849290610f2c908490611d7e565b9250508190555050505080610f4090611cef565b9050610e64565b50846001600160a01b0316866001600160a01b0316826001600160a01b03167f4a39dc06d4c0dbc64b70af90fd698a233a518aa5d07e595d983b8c0526c8f7fb8787604051610f97929190611e25565b60405180910390a4610fad81878787878761130f565b505050505050565b6001600160a01b0384166110155760405162461bcd60e51b815260206004820152602160248201527f455243313135353a206d696e7420746f20746865207a65726f206164647265736044820152607360f81b6064820152608401610456565b3361102f816000876110268861147a565b6106c68861147a565b6000848152602081815260408083206001600160a01b03891684529091528120805485929061105f908490611d7e565b909155505060408051858152602081018590526001600160a01b0380881692600092918516917fc3d58168c5ae7397731d063d5bbf3d657854427343f4c083240f7aacaa2d0f62910160405180910390a46106c6816000878787876114c5565b600380546001600160a01b038381166001600160a01b0319831681179093556040519116919082907f8be0079c531659141344cd1fd0a4f28419497f9722a3daafe3b4186f6b6457e090600090a35050565b816001600160a01b0316836001600160a01b031614156111855760405162461bcd60e51b815260206004820152602960248201527f455243313135353a2073657474696e6720617070726f76616c20737461747573604482015268103337b91039b2b63360b91b6064820152608401610456565b6001600160a01b03838116600081815260016020908152604080832094871680845294825291829020805460ff191686151590811790915591519182527f17307eab39ab6107e8899845ad3d59bd9653f200f220920489ca2b5937696c31910160405180910390a3505050565b6001600160a01b0384166112185760405162461bcd60e51b815260040161045690611d96565b336112288187876110268861147a565b6000848152602081815260408083206001600160a01b038a168452909152902054838110156112695760405162461bcd60e51b815260040161045690611ddb565b6000858152602081815260408083206001600160a01b038b81168552925280832087850390559088168252812080548692906112a6908490611d7e565b909155505060408051868152602081018690526001600160a01b03808916928a821692918616917fc3d58168c5ae7397731d063d5bbf3d657854427343f4c083240f7aacaa2d0f62910160405180910390a46113068288888888886114c5565b50505050505050565b6001600160a01b0384163b15610fad5760405163bc197c8160e01b81526001600160a01b0385169063bc197c81906113539089908990889088908890600401611e4a565b602060405180830381600087803b15801561136d57600080fd5b505af192505050801561139d575060408051601f3d908101601f1916820190925261139a91810190611ea8565b60015b61144a576113a9611ec5565b806308c379a014156113e357506113be611ee1565b806113c957506113e5565b8060405162461bcd60e51b815260040161045691906117e9565b505b60405162461bcd60e51b815260206004820152603460248201527f455243313135353a207472616e7366657220746f206e6f6e20455243313135356044820152732932b1b2b4bb32b91034b6b83632b6b2b73a32b960611b6064820152608401610456565b6001600160e01b0319811663bc197c8160e01b146113065760405162461bcd60e51b815260040161045690611f6b565b604080516001808252818301909252606091600091906020808301908036833701905050905082816000815181106114b4576114b4611cc3565b602090810291909101015292915050565b6001600160a01b0384163b15610fad5760405163f23a6e6160e01b81526001600160a01b0385169063f23a6e61906115099089908990889088908890600401611fb3565b602060405180830381600087803b15801561152357600080fd5b505af1925050508015611553575060408051601f3d908101601f1916820190925261155091810190611ea8565b60015b61155f576113a9611ec5565b6001600160e01b0319811663f23a6e6160e01b146113065760405162461bcd60e51b815260040161045690611f6b565b82805461159b90611bb1565b90600052602060002090601f0160209004810192826115bd5760008555611603565b82601f106115d657805160ff1916838001178555611603565b82800160010185558215611603579182015b828111156116035782518255916020019190600101906115e8565b5061160f929150611613565b5090565b5b8082111561160f5760008155600101611614565b80356001600160a01b038116811461062157600080fd5b6000806040838503121561165257600080fd5b61165b83611628565b946020939093013593505050565b6001600160e01b03198116811461051e57600080fd5b60006020828403121561169157600080fd5b813561169c81611669565b9392505050565b634e487b7160e01b600052604160045260246000fd5b601f8201601f1916810167ffffffffffffffff811182821017156116df576116df6116a3565b6040525050565b600067ffffffffffffffff831115611700576117006116a3565b604051611717601f8501601f1916602001826116b9565b80915083815284848401111561172c57600080fd5b83836020830137600060208583010152509392505050565b60006020828403121561175657600080fd5b813567ffffffffffffffff81111561176d57600080fd5b8201601f8101841361177e57600080fd5b610dd0848235602084016116e6565b60005b838110156117a8578181015183820152602001611790565b838111156117b7576000848401525b50505050565b600081518084526117d581602086016020860161178d565b601f01601f19169290920160200192915050565b60208152600061169c60208301846117bd565b60006020828403121561180e57600080fd5b5035919050565b600067ffffffffffffffff82111561182f5761182f6116a3565b5060051b60200190565b600082601f83011261184a57600080fd5b8135602061185782611815565b60405161186482826116b9565b83815260059390931b850182019282810191508684111561188457600080fd5b8286015b8481101561189f5780358352918301918301611888565b509695505050505050565b600082601f8301126118bb57600080fd5b61169c838335602085016116e6565b600080600080600060a086880312156118e257600080fd5b6118eb86611628565b94506118f960208701611628565b9350604086013567ffffffffffffffff8082111561191657600080fd5b61192289838a01611839565b9450606088013591508082111561193857600080fd5b61194489838a01611839565b9350608088013591508082111561195a57600080fd5b50611967888289016118aa565b9150509295509295909350565b60006020828403121561198657600080fd5b61169c82611628565b600080604083850312156119a257600080fd5b823567ffffffffffffffff808211156119ba57600080fd5b818501915085601f8301126119ce57600080fd5b813560206119db82611815565b6040516119e882826116b9565b83815260059390931b8501820192828101915089841115611a0857600080fd5b948201945b83861015611a2d57611a1e86611628565b82529482019490820190611a0d565b96505086013592505080821115611a4357600080fd5b50611a5085828601611839565b9150509250929050565b600081518084526020808501945080840160005b83811015611a8a57815187529582019590820190600101611a6e565b509495945050505050565b60208152600061169c6020830184611a5a565b60008060408385031215611abb57600080fd5b611ac483611628565b915060208301358015158114611ad957600080fd5b809150509250929050565b60008060408385031215611af757600080fd5b611b0083611628565b9150611b0e60208401611628565b90509250929050565b600080600080600060a08688031215611b2f57600080fd5b611b3886611628565b9450611b4660208701611628565b93506040860135925060608601359150608086013567ffffffffffffffff811115611b7057600080fd5b611967888289016118aa565b6020808252818101527f4f776e61626c653a2063616c6c6572206973206e6f7420746865206f776e6572604082015260600190565b600181811c90821680611bc557607f821691505b60208210811415611be657634e487b7160e01b600052602260045260246000fd5b50919050565b60008151611bfe81856020860161178d565b9290920192915050565b600080845481600182811c915080831680611c2457607f831692505b6020808410821415611c4457634e487b7160e01b86526022600452602486fd5b818015611c585760018114611c6957611c96565b60ff19861689528489019650611c96565b60008b81526020902060005b86811015611c8e5781548b820152908501908301611c75565b505084890196505b505050505050611cba611ca98286611bec565b64173539b7b760d91b815260050190565b95945050505050565b634e487b7160e01b600052603260045260246000fd5b634e487b7160e01b600052601160045260246000fd5b6000600019821415611d0357611d03611cd9565b5060010190565b6000816000190483118215151615611d2457611d24611cd9565b500290565b634e487b7160e01b600052601260045260246000fd5b600082611d4e57611d4e611d29565b500490565b600082821015611d6557611d65611cd9565b500390565b600082611d7957611d79611d29565b500690565b60008219821115611d9157611d91611cd9565b500190565b60208082526025908201527f455243313135353a207472616e7366657220746f20746865207a65726f206164604082015264647265737360d81b606082015260800190565b6020808252602a908201527f455243313135353a20696e73756666696369656e742062616c616e636520666f60408201526939103a3930b739b332b960b11b606082015260800190565b604081526000611e386040830185611a5a565b8281036020840152611cba8185611a5a565b6001600160a01b0386811682528516602082015260a060408201819052600090611e7690830186611a5a565b8281036060840152611e888186611a5a565b90508281036080840152611e9c81856117bd565b98975050505050505050565b600060208284031215611eba57600080fd5b815161169c81611669565b600060033d1115611ede5760046000803e5060005160e01c5b90565b600060443d1015611eef5790565b6040516003193d81016004833e81513d67ffffffffffffffff8160248401118184111715611f1f57505050505090565b8285019150815181811115611f375750505050505090565b843d8701016020828501011115611f515750505050505090565b611f60602082860101876116b9565b509095945050505050565b60208082526028908201527f455243313135353a204552433131353552656365697665722072656a656374656040820152676420746f6b656e7360c01b606082015260800190565b6001600160a01b03868116825285166020820152604081018490526060810183905260a060808201819052600090611fed908301846117bd565b97965050505050505056fea26469706673582212204698b7ef3c8d1b6569602720e603e121c445256d8bc23cbb5397fc8330b7d90964736f6c6343000809003368747470733a2f2f676174657761792e70696e6174612e636c6f75642f697066732f",
  "linkReferences": {},
  "deployedLinkReferences": {}
}