{
  "_format": "hh-sol-artifact-1",
  "contractName": "ERC1155GeneratedSmartContract",
  "sourceName": "contracts/ERC1155GeneratedSmartContract.sol",
  "abi": [
    {
      "inputs": [
        {
          "internalType": "string",
          "name": "_name",
          "type": "string"
        },
        {
          "internalType": "string",
          "name": "_symbol",
          "type": "string"
        },
        {
          "internalType": "uint256",
          "name": "_maxSupply",
          "type": "uint256"
        },
        {
          "internalType": "string",
          "name": "_uri",
          "type": "string"
        },
        {
          "internalType": "bool",
          "name": "_isRevealed",
          "type": "bool"
        },
        {
          "internalType": "string",
          "name": "_unRevealedUri",
          "type": "string"
        },
        {
          "internalType": "uint256",
          "name": "_price",
          "type": "uint256"
        },
        {
          "internalType": "address",
          "name": "_collectionOwner",
          "type": "address"
        }
      ],
      "stateMutability": "nonpayable",
      "type": "constructor"
    },
    {
      "anonymous": false,
      "inputs": [
        {
          "indexed": true,
          "internalType": "address",
          "name": "account",
          "type": "address"
        },
        {
          "indexed": true,
          "internalType": "address",
          "name": "operator",
          "type": "address"
        },
        {
          "indexed": false,
          "internalType": "bool",
          "name": "approved",
          "type": "bool"
        }
      ],
      "name": "ApprovalForAll",
      "type": "event"
    },
    {
      "anonymous": false,
      "inputs": [
        {
          "indexed": true,
          "internalType": "address",
          "name": "previousOwner",
          "type": "address"
        },
        {
          "indexed": true,
          "internalType": "address",
          "name": "newOwner",
          "type": "address"
        }
      ],
      "name": "OwnershipTransferred",
      "type": "event"
    },
    {
      "anonymous": false,
      "inputs": [
        {
          "indexed": true,
          "internalType": "address",
          "name": "operator",
          "type": "address"
        },
        {
          "indexed": true,
          "internalType": "address",
          "name": "from",
          "type": "address"
        },
        {
          "indexed": true,
          "internalType": "address",
          "name": "to",
          "type": "address"
        },
        {
          "indexed": false,
          "internalType": "uint256[]",
          "name": "ids",
          "type": "uint256[]"
        },
        {
          "indexed": false,
          "internalType": "uint256[]",
          "name": "values",
          "type": "uint256[]"
        }
      ],
      "name": "TransferBatch",
      "type": "event"
    },
    {
      "anonymous": false,
      "inputs": [
        {
          "indexed": true,
          "internalType": "address",
          "name": "operator",
          "type": "address"
        },
        {
          "indexed": true,
          "internalType": "address",
          "name": "from",
          "type": "address"
        },
        {
          "indexed": true,
          "internalType": "address",
          "name": "to",
          "type": "address"
        },
        {
          "indexed": false,
          "internalType": "uint256",
          "name": "id",
          "type": "uint256"
        },
        {
          "indexed": false,
          "internalType": "uint256",
          "name": "value",
          "type": "uint256"
        }
      ],
      "name": "TransferSingle",
      "type": "event"
    },
    {
      "anonymous": false,
      "inputs": [
        {
          "indexed": false,
          "internalType": "string",
          "name": "value",
          "type": "string"
        },
        {
          "indexed": true,
          "internalType": "uint256",
          "name": "id",
          "type": "uint256"
        }
      ],
      "name": "URI",
      "type": "event"
    },
    {
      "inputs": [
        {
          "internalType": "address",
          "name": "_account",
          "type": "address"
        }
      ],
      "name": "addMinter",
      "outputs": [],
      "stateMutability": "nonpayable",
      "type": "function"
    },
    {
      "inputs": [
        {
          "internalType": "address",
          "name": "account",
          "type": "address"
        },
        {
          "internalType": "uint256",
          "name": "id",
          "type": "uint256"
        }
      ],
      "name": "balanceOf",
      "outputs": [
        {
          "internalType": "uint256",
          "name": "",
          "type": "uint256"
        }
      ],
      "stateMutability": "view",
      "type": "function"
    },
    {
      "inputs": [
        {
          "internalType": "address[]",
          "name": "accounts",
          "type": "address[]"
        },
        {
          "internalType": "uint256[]",
          "name": "ids",
          "type": "uint256[]"
        }
      ],
      "name": "balanceOfBatch",
      "outputs": [
        {
          "internalType": "uint256[]",
          "name": "",
          "type": "uint256[]"
        }
      ],
      "stateMutability": "view",
      "type": "function"
    },
    {
      "inputs": [],
      "name": "collectionOwner",
      "outputs": [
        {
          "internalType": "address",
          "name": "",
          "type": "address"
        }
      ],
      "stateMutability": "view",
      "type": "function"
    },
    {
      "inputs": [
        {
          "internalType": "address",
          "name": "account",
          "type": "address"
        },
        {
          "internalType": "address",
          "name": "operator",
          "type": "address"
        }
      ],
      "name": "isApprovedForAll",
      "outputs": [
        {
          "internalType": "bool",
          "name": "",
          "type": "bool"
        }
      ],
      "stateMutability": "view",
      "type": "function"
    },
    {
      "inputs": [],
      "name": "isRevealed",
      "outputs": [
        {
          "internalType": "bool",
          "name": "",
          "type": "bool"
        }
      ],
      "stateMutability": "view",
      "type": "function"
    },
    {
      "inputs": [],
      "name": "maxSupply",
      "outputs": [
        {
          "internalType": "uint256",
          "name": "",
          "type": "uint256"
        }
      ],
      "stateMutability": "view",
      "type": "function"
    },
    {
      "inputs": [
        {
          "internalType": "address",
          "name": "tokenOwner",
          "type": "address"
        }
      ],
      "name": "mint",
      "outputs": [
        {
          "internalType": "uint256",
          "name": "",
          "type": "uint256"
        }
      ],
      "stateMutability": "payable",
      "type": "function"
    },
    {
      "inputs": [
        {
          "internalType": "address",
          "name": "tokenOwner",
          "type": "address"
        },
        {
          "internalType": "uint256",
          "name": "count",
          "type": "uint256"
        }
      ],
      "name": "mintWithClones",
      "outputs": [
        {
          "internalType": "uint256",
          "name": "",
          "type": "uint256"
        }
      ],
      "stateMutability": "payable",
      "type": "function"
    },
    {
      "inputs": [],
      "name": "name",
      "outputs": [
        {
          "internalType": "string",
          "name": "",
          "type": "string"
        }
      ],
      "stateMutability": "view",
      "type": "function"
    },
    {
      "inputs": [],
      "name": "owner",
      "outputs": [
        {
          "internalType": "address",
          "name": "",
          "type": "address"
        }
      ],
      "stateMutability": "view",
      "type": "function"
    },
    {
      "inputs": [],
      "name": "price",
      "outputs": [
        {
          "internalType": "uint256",
          "name": "",
          "type": "uint256"
        }
      ],
      "stateMutability": "view",
      "type": "function"
    },
    {
      "inputs": [
        {
          "internalType": "address",
          "name": "_account",
          "type": "address"
        }
      ],
      "name": "removeMinter",
      "outputs": [],
      "stateMutability": "nonpayable",
      "type": "function"
    },
    {
      "inputs": [],
      "name": "renounceOwnership",
      "outputs": [],
      "stateMutability": "nonpayable",
      "type": "function"
    },
    {
      "inputs": [
        {
          "internalType": "address",
          "name": "from",
          "type": "address"
        },
        {
          "internalType": "address",
          "name": "to",
          "type": "address"
        },
        {
          "internalType": "uint256[]",
          "name": "ids",
          "type": "uint256[]"
        },
        {
          "internalType": "uint256[]",
          "name": "amounts",
          "type": "uint256[]"
        },
        {
          "internalType": "bytes",
          "name": "data",
          "type": "bytes"
        }
      ],
      "name": "safeBatchTransferFrom",
      "outputs": [],
      "stateMutability": "nonpayable",
      "type": "function"
    },
    {
      "inputs": [
        {
          "internalType": "address",
          "name": "from",
          "type": "address"
        },
        {
          "internalType": "address",
          "name": "to",
          "type": "address"
        },
        {
          "internalType": "uint256",
          "name": "id",
          "type": "uint256"
        },
        {
          "internalType": "uint256",
          "name": "amount",
          "type": "uint256"
        },
        {
          "internalType": "bytes",
          "name": "data",
          "type": "bytes"
        }
      ],
      "name": "safeTransferFrom",
      "outputs": [],
      "stateMutability": "nonpayable",
      "type": "function"
    },
    {
      "inputs": [
        {
          "internalType": "address",
          "name": "operator",
          "type": "address"
        },
        {
          "internalType": "bool",
          "name": "approved",
          "type": "bool"
        }
      ],
      "name": "setApprovalForAll",
      "outputs": [],
      "stateMutability": "nonpayable",
      "type": "function"
    },
    {
      "inputs": [
        {
          "internalType": "address",
          "name": "_collectionOwner",
          "type": "address"
        }
      ],
      "name": "setCollectionOwner",
      "outputs": [],
      "stateMutability": "nonpayable",
      "type": "function"
    },
    {
      "inputs": [
        {
          "internalType": "uint256",
          "name": "_price",
          "type": "uint256"
        }
      ],
      "name": "setPrice",
      "outputs": [],
      "stateMutability": "nonpayable",
      "type": "function"
    },
    {
      "inputs": [],
      "name": "setRevealed",
      "outputs": [],
      "stateMutability": "nonpayable",
      "type": "function"
    },
    {
      "inputs": [
        {
          "internalType": "string",
          "name": "newuri",
          "type": "string"
        }
      ],
      "name": "setURI",
      "outputs": [],
      "stateMutability": "nonpayable",
      "type": "function"
    },
    {
      "inputs": [
        {
          "internalType": "bytes4",
          "name": "interfaceId",
          "type": "bytes4"
        }
      ],
      "name": "supportsInterface",
      "outputs": [
        {
          "internalType": "bool",
          "name": "",
          "type": "bool"
        }
      ],
      "stateMutability": "view",
      "type": "function"
    },
    {
      "inputs": [],
      "name": "symbol",
      "outputs": [
        {
          "internalType": "string",
          "name": "",
          "type": "string"
        }
      ],
      "stateMutability": "view",
      "type": "function"
    },
    {
      "inputs": [],
      "name": "totalSupply",
      "outputs": [
        {
          "internalType": "uint256",
          "name": "",
          "type": "uint256"
        }
      ],
      "stateMutability": "view",
      "type": "function"
    },
    {
      "inputs": [
        {
          "internalType": "address",
          "name": "newOwner",
          "type": "address"
        }
      ],
      "name": "transferOwnership",
      "outputs": [],
      "stateMutability": "nonpayable",
      "type": "function"
    },
    {
      "inputs": [],
      "name": "unRevealedUri",
      "outputs": [
        {
          "internalType": "string",
          "name": "",
          "type": "string"
        }
      ],
      "stateMutability": "view",
      "type": "function"
    },
    {
      "inputs": [
        {
          "internalType": "uint256",
          "name": "tokenId",
          "type": "uint256"
        }
      ],
      "name": "uri",
      "outputs": [
        {
          "internalType": "string",
          "name": "",
          "type": "string"
        }
      ],
      "stateMutability": "view",
      "type": "function"
    },
    {
      "inputs": [],
      "name": "withdrawFunds",
      "outputs": [],
      "stateMutability": "nonpayable",
      "type": "function"
    }
  ],
  "bytecode": "0x60e06040526022608081815290620028cf60a03980516200002991600b9160209091019062000209565b503480156200003757600080fd5b50604051620028f1380380620028f18339810160408190526200005a91620003aa565b8462000066816200011b565b50620000723362000134565b600160045587516200008c9060059060208b019062000209565b508651620000a29060069060208a019062000209565b5060098690558451620000bd90600b90602088019062000209565b50600c805460ff19168515151790558251620000e190600d90602086019062000209565b506008829055600e80546001600160a01b0319166001600160a01b0383161790556200010d3362000186565b5050505050505050620004d9565b80516200013090600290602084019062000209565b5050565b600380546001600160a01b038381166001600160a01b0319831681179093556040519116919082907f8be0079c531659141344cd1fd0a4f28419497f9722a3daafe3b4186f6b6457e090600090a35050565b6003546001600160a01b03163314620001e55760405162461bcd60e51b815260206004820181905260248201527f4f776e61626c653a2063616c6c6572206973206e6f7420746865206f776e6572604482015260640160405180910390fd5b6001600160a01b03166000908152600a60205260409020805460ff19166001179055565b82805462000217906200049c565b90600052602060002090601f0160209004810192826200023b576000855562000286565b82601f106200025657805160ff191683800117855562000286565b8280016001018555821562000286579182015b828111156200028657825182559160200191906001019062000269565b506200029492915062000298565b5090565b5b8082111562000294576000815560010162000299565b634e487b7160e01b600052604160045260246000fd5b600082601f830112620002d757600080fd5b81516001600160401b0380821115620002f457620002f4620002af565b604051601f8301601f19908116603f011681019082821181831017156200031f576200031f620002af565b816040528381526020925086838588010111156200033c57600080fd5b600091505b8382101562000360578582018301518183018401529082019062000341565b83821115620003725760008385830101525b9695505050505050565b805180151581146200038d57600080fd5b919050565b80516001600160a01b03811681146200038d57600080fd5b600080600080600080600080610100898b031215620003c857600080fd5b88516001600160401b0380821115620003e057600080fd5b620003ee8c838d01620002c5565b995060208b01519150808211156200040557600080fd5b620004138c838d01620002c5565b985060408b0151975060608b01519150808211156200043157600080fd5b6200043f8c838d01620002c5565b96506200044f60808c016200037c565b955060a08b01519150808211156200046657600080fd5b50620004758b828c01620002c5565b93505060c089015191506200048d60e08a0162000392565b90509295985092959890939650565b600181811c90821680620004b157607f821691505b60208210811415620004d357634e487b7160e01b600052602260045260246000fd5b50919050565b6123e680620004e96000396000f3fe6080604052600436106101b65760003560e01c8063715018a6116100ec578063a22cb4651161008a578063e985e9c511610064578063e985e9c514610498578063ec0ea45f146104e1578063f242432a146104f4578063f2fde38b1461051457600080fd5b8063a22cb46514610442578063d5abeb0114610462578063df727d3b1461047857600080fd5b806395d89b41116100c657806395d89b41146103e2578063983b2d56146103f75780639c107c1d14610417578063a035b1fe1461042c57600080fd5b8063715018a61461037b5780638da5cb5b1461039057806391b7f5ed146103c257600080fd5b806324600fc3116101595780633bd64968116101335780633bd649681461030c5780634e1273f41461032157806354214f691461034e5780636a6278421461036857600080fd5b806324600fc3146102b75780632eb2c2d6146102cc5780633092afd5146102ec57600080fd5b806306fdde031161019557806306fdde0314610240578063098f9cf3146102625780630e89341c1461028257806318160ddd146102a257600080fd5b8062fdd58e146101bb57806301ffc9a7146101ee57806302fe53051461021e575b600080fd5b3480156101c757600080fd5b506101db6101d6366004611955565b610534565b6040519081526020015b60405180910390f35b3480156101fa57600080fd5b5061020e610209366004611995565b6105cb565b60405190151581526020016101e5565b34801561022a57600080fd5b5061023e610239366004611a5a565b61061d565b005b34801561024c57600080fd5b50610255610667565b6040516101e59190611aff565b34801561026e57600080fd5b5061023e61027d366004611b12565b6106f5565b34801561028e57600080fd5b5061025561029d366004611b2d565b610741565b3480156102ae57600080fd5b506101db610832565b3480156102c357600080fd5b5061023e610842565b3480156102d857600080fd5b5061023e6102e7366004611bfb565b610927565b3480156102f857600080fd5b5061023e610307366004611b12565b6109be565b34801561031857600080fd5b5061023e610a09565b34801561032d57600080fd5b5061034161033c366004611ca5565b610a42565b6040516101e59190611dab565b34801561035a57600080fd5b50600c5461020e9060ff1681565b6101db610376366004611b12565b610b6c565b34801561038757600080fd5b5061023e610c7e565b34801561039c57600080fd5b506003546001600160a01b03165b6040516001600160a01b0390911681526020016101e5565b3480156103ce57600080fd5b5061023e6103dd366004611b2d565b610cb4565b3480156103ee57600080fd5b50610255610d22565b34801561040357600080fd5b5061023e610412366004611b12565b610d2f565b34801561042357600080fd5b50610255610d7d565b34801561043857600080fd5b506101db60085481565b34801561044e57600080fd5b5061023e61045d366004611dbe565b610d8a565b34801561046e57600080fd5b506101db60095481565b34801561048457600080fd5b50600e546103aa906001600160a01b031681565b3480156104a457600080fd5b5061020e6104b3366004611dfa565b6001600160a01b03918216600090815260016020908152604080832093909416825291909152205460ff1690565b6101db6104ef366004611955565b610d99565b34801561050057600080fd5b5061023e61050f366004611e2d565b610eb6565b34801561052057600080fd5b5061023e61052f366004611b12565b610f3d565b60006001600160a01b0383166105a55760405162461bcd60e51b815260206004820152602b60248201527f455243313135353a2062616c616e636520717565727920666f7220746865207a60448201526a65726f206164647265737360a81b60648201526084015b60405180910390fd5b506000908152602081815260408083206001600160a01b03949094168352929052205490565b60006001600160e01b03198216636cdb3d1360e11b14806105fc57506001600160e01b031982166303a24d0760e21b145b8061061757506301ffc9a760e01b6001600160e01b03198316145b92915050565b6003546001600160a01b031633146106475760405162461bcd60e51b815260040161059c90611e92565b805161065a90600b9060208401906118a5565b5061066481610fd5565b50565b6005805461067490611ec7565b80601f01602080910402602001604051908101604052809291908181526020018280546106a090611ec7565b80156106ed5780601f106106c2576101008083540402835291602001916106ed565b820191906000526020600020905b8154815290600101906020018083116106d057829003601f168201915b505050505081565b600e546001600160a01b0316331461071f5760405162461bcd60e51b815260040161059c90611f02565b600e80546001600160a01b0319166001600160a01b0392909216919091179055565b600c5460609060ff166107e057600d805461075b90611ec7565b80601f016020809104026020016040519081016040528092919081815260200182805461078790611ec7565b80156107d45780601f106107a9576101008083540402835291602001916107d4565b820191906000526020600020905b8154815290600101906020018083116107b757829003601f168201915b50505050509050919050565b600754821161081b57600b6107f483610fe8565b604051602001610805929190611fe3565b6040516020818303038152906040529050919050565b600b6040516020016108059190612018565b919050565b600061083d60075490565b905090565b600260045414156108655760405162461bcd60e51b815260040161059c9061203b565b6002600455600e546001600160a01b031633146108945760405162461bcd60e51b815260040161059c90611f02565b604051600090339047908381818185875af1925050503d80600081146108d6576040519150601f19603f3d011682016040523d82523d6000602084013e6108db565b606091505b505090508061091f5760405162461bcd60e51b815260206004820152601060248201526f2a3930b739b332b9103330b4b632b21760811b604482015260640161059c565b506001600455565b6001600160a01b038516331480610943575061094385336104b3565b6109aa5760405162461bcd60e51b815260206004820152603260248201527f455243313135353a207472616e736665722063616c6c6572206973206e6f74206044820152711bdddb995c881b9bdc88185c1c1c9bdd995960721b606482015260840161059c565b6109b785858585856110ee565b5050505050565b6003546001600160a01b031633146109e85760405162461bcd60e51b815260040161059c90611e92565b6001600160a01b03166000908152600a60205260409020805460ff19169055565b6003546001600160a01b03163314610a335760405162461bcd60e51b815260040161059c90611e92565b600c805460ff19166001179055565b60608151835114610aa75760405162461bcd60e51b815260206004820152602960248201527f455243313135353a206163636f756e747320616e6420696473206c656e677468604482015268040dad2e6dac2e8c6d60bb1b606482015260840161059c565b6000835167ffffffffffffffff811115610ac357610ac36119b9565b604051908082528060200260200182016040528015610aec578160200160208202803683370190505b50905060005b8451811015610b6457610b37858281518110610b1057610b10612072565b6020026020010151858381518110610b2a57610b2a612072565b6020026020010151610534565b828281518110610b4957610b49612072565b6020908102919091010152610b5d8161209e565b9050610af2565b509392505050565b600060026004541415610b915760405162461bcd60e51b815260040161059c9061203b565b6002600455610ba4600780546001019055565b600854341015610bf65760405162461bcd60e51b815260206004820152601a60248201527f496e636f7272656374204e465420707269636520616d6f756e74000000000000604482015260640161059c565b6009546007541115610c4a5760405162461bcd60e51b815260206004820152601f60248201527f43616e2774206d696e74206d6f7265207468616e206d617820737570706c7900604482015260640161059c565b6000610c5560075490565b9050610c7383826001604051806020016040528060008152506112cb565b600160045592915050565b6003546001600160a01b03163314610ca85760405162461bcd60e51b815260040161059c90611e92565b610cb260006113d5565b565b600e546001600160a01b03163314610d1d5760405162461bcd60e51b815260206004820152602660248201527f4f6e6c7920636f6c6c656374696f6e206f776e65722063616e206368616e676560448201526520707269636560d01b606482015260840161059c565b600855565b6006805461067490611ec7565b6003546001600160a01b03163314610d595760405162461bcd60e51b815260040161059c90611e92565b6001600160a01b03166000908152600a60205260409020805460ff19166001179055565b600d805461067490611ec7565b610d95338383611427565b5050565b600060026004541415610dbe5760405162461bcd60e51b815260040161059c9061203b565b6002600455610dd1600780546001019055565b81600854610ddf91906120b9565b341015610e2e5760405162461bcd60e51b815260206004820152601a60248201527f496e636f7272656374204e465420707269636520616d6f756e74000000000000604482015260640161059c565b6009546007541115610e825760405162461bcd60e51b815260206004820152601f60248201527f43616e2774206d696e74206d6f7265207468616e206d617820737570706c7900604482015260640161059c565b6000610e8d60075490565b9050610eaa848285604051806020016040528060008152506112cb565b60016004559392505050565b6001600160a01b038516331480610ed25750610ed285336104b3565b610f305760405162461bcd60e51b815260206004820152602960248201527f455243313135353a2063616c6c6572206973206e6f74206f776e6572206e6f7260448201526808185c1c1c9bdd995960ba1b606482015260840161059c565b6109b78585858585611508565b6003546001600160a01b03163314610f675760405162461bcd60e51b815260040161059c90611e92565b6001600160a01b038116610fcc5760405162461bcd60e51b815260206004820152602660248201527f4f776e61626c653a206e6577206f776e657220697320746865207a65726f206160448201526564647265737360d01b606482015260840161059c565b610664816113d5565b8051610d959060029060208401906118a5565b60608161100c5750506040805180820190915260018152600360fc1b602082015290565b8160005b811561103657806110208161209e565b915061102f9050600a836120ee565b9150611010565b60008167ffffffffffffffff811115611051576110516119b9565b6040519080825280601f01601f19166020018201604052801561107b576020820181803683370190505b5090505b84156110e657611090600183612102565b915061109d600a86612119565b6110a890603061212d565b60f81b8183815181106110bd576110bd612072565b60200101906001600160f81b031916908160001a9053506110df600a866120ee565b945061107f565b949350505050565b81518351146111505760405162461bcd60e51b815260206004820152602860248201527f455243313135353a2069647320616e6420616d6f756e7473206c656e677468206044820152670dad2e6dac2e8c6d60c31b606482015260840161059c565b6001600160a01b0384166111765760405162461bcd60e51b815260040161059c90612145565b3360005b845181101561125d57600085828151811061119757611197612072565b6020026020010151905060008583815181106111b5576111b5612072565b602090810291909101810151600084815280835260408082206001600160a01b038e1683529093529190912054909150818110156112055760405162461bcd60e51b815260040161059c9061218a565b6000838152602081815260408083206001600160a01b038e8116855292528083208585039055908b1682528120805484929061124290849061212d565b92505081905550505050806112569061209e565b905061117a565b50846001600160a01b0316866001600160a01b0316826001600160a01b03167f4a39dc06d4c0dbc64b70af90fd698a233a518aa5d07e595d983b8c0526c8f7fb87876040516112ad9291906121d4565b60405180910390a46112c3818787878787611625565b505050505050565b6001600160a01b03841661132b5760405162461bcd60e51b815260206004820152602160248201527f455243313135353a206d696e7420746f20746865207a65726f206164647265736044820152607360f81b606482015260840161059c565b336113458160008761133c88611790565b6109b788611790565b6000848152602081815260408083206001600160a01b03891684529091528120805485929061137590849061212d565b909155505060408051858152602081018590526001600160a01b0380881692600092918516917fc3d58168c5ae7397731d063d5bbf3d657854427343f4c083240f7aacaa2d0f62910160405180910390a46109b7816000878787876117db565b600380546001600160a01b038381166001600160a01b0319831681179093556040519116919082907f8be0079c531659141344cd1fd0a4f28419497f9722a3daafe3b4186f6b6457e090600090a35050565b816001600160a01b0316836001600160a01b0316141561149b5760405162461bcd60e51b815260206004820152602960248201527f455243313135353a2073657474696e6720617070726f76616c20737461747573604482015268103337b91039b2b63360b91b606482015260840161059c565b6001600160a01b03838116600081815260016020908152604080832094871680845294825291829020805460ff191686151590811790915591519182527f17307eab39ab6107e8899845ad3d59bd9653f200f220920489ca2b5937696c31910160405180910390a3505050565b6001600160a01b03841661152e5760405162461bcd60e51b815260040161059c90612145565b3361153e81878761133c88611790565b6000848152602081815260408083206001600160a01b038a1684529091529020548381101561157f5760405162461bcd60e51b815260040161059c9061218a565b6000858152602081815260408083206001600160a01b038b81168552925280832087850390559088168252812080548692906115bc90849061212d565b909155505060408051868152602081018690526001600160a01b03808916928a821692918616917fc3d58168c5ae7397731d063d5bbf3d657854427343f4c083240f7aacaa2d0f62910160405180910390a461161c8288888888886117db565b50505050505050565b6001600160a01b0384163b156112c35760405163bc197c8160e01b81526001600160a01b0385169063bc197c81906116699089908990889088908890600401612202565b602060405180830381600087803b15801561168357600080fd5b505af19250505080156116b3575060408051601f3d908101601f191682019092526116b091810190612260565b60015b611760576116bf61227d565b806308c379a014156116f957506116d4612299565b806116df57506116fb565b8060405162461bcd60e51b815260040161059c9190611aff565b505b60405162461bcd60e51b815260206004820152603460248201527f455243313135353a207472616e7366657220746f206e6f6e20455243313135356044820152732932b1b2b4bb32b91034b6b83632b6b2b73a32b960611b606482015260840161059c565b6001600160e01b0319811663bc197c8160e01b1461161c5760405162461bcd60e51b815260040161059c90612323565b604080516001808252818301909252606091600091906020808301908036833701905050905082816000815181106117ca576117ca612072565b602090810291909101015292915050565b6001600160a01b0384163b156112c35760405163f23a6e6160e01b81526001600160a01b0385169063f23a6e619061181f908990899088908890889060040161236b565b602060405180830381600087803b15801561183957600080fd5b505af1925050508015611869575060408051601f3d908101601f1916820190925261186691810190612260565b60015b611875576116bf61227d565b6001600160e01b0319811663f23a6e6160e01b1461161c5760405162461bcd60e51b815260040161059c90612323565b8280546118b190611ec7565b90600052602060002090601f0160209004810192826118d35760008555611919565b82601f106118ec57805160ff1916838001178555611919565b82800160010185558215611919579182015b828111156119195782518255916020019190600101906118fe565b50611925929150611929565b5090565b5b80821115611925576000815560010161192a565b80356001600160a01b038116811461082d57600080fd5b6000806040838503121561196857600080fd5b6119718361193e565b946020939093013593505050565b6001600160e01b03198116811461066457600080fd5b6000602082840312156119a757600080fd5b81356119b28161197f565b9392505050565b634e487b7160e01b600052604160045260246000fd5b601f8201601f1916810167ffffffffffffffff811182821017156119f5576119f56119b9565b6040525050565b600067ffffffffffffffff831115611a1657611a166119b9565b604051611a2d601f8501601f1916602001826119cf565b809150838152848484011115611a4257600080fd5b83836020830137600060208583010152509392505050565b600060208284031215611a6c57600080fd5b813567ffffffffffffffff811115611a8357600080fd5b8201601f81018413611a9457600080fd5b6110e6848235602084016119fc565b60005b83811015611abe578181015183820152602001611aa6565b83811115611acd576000848401525b50505050565b60008151808452611aeb816020860160208601611aa3565b601f01601f19169290920160200192915050565b6020815260006119b26020830184611ad3565b600060208284031215611b2457600080fd5b6119b28261193e565b600060208284031215611b3f57600080fd5b5035919050565b600067ffffffffffffffff821115611b6057611b606119b9565b5060051b60200190565b600082601f830112611b7b57600080fd5b81356020611b8882611b46565b604051611b9582826119cf565b83815260059390931b8501820192828101915086841115611bb557600080fd5b8286015b84811015611bd05780358352918301918301611bb9565b509695505050505050565b600082601f830112611bec57600080fd5b6119b2838335602085016119fc565b600080600080600060a08688031215611c1357600080fd5b611c1c8661193e565b9450611c2a6020870161193e565b9350604086013567ffffffffffffffff80821115611c4757600080fd5b611c5389838a01611b6a565b94506060880135915080821115611c6957600080fd5b611c7589838a01611b6a565b93506080880135915080821115611c8b57600080fd5b50611c9888828901611bdb565b9150509295509295909350565b60008060408385031215611cb857600080fd5b823567ffffffffffffffff80821115611cd057600080fd5b818501915085601f830112611ce457600080fd5b81356020611cf182611b46565b604051611cfe82826119cf565b83815260059390931b8501820192828101915089841115611d1e57600080fd5b948201945b83861015611d4357611d348661193e565b82529482019490820190611d23565b96505086013592505080821115611d5957600080fd5b50611d6685828601611b6a565b9150509250929050565b600081518084526020808501945080840160005b83811015611da057815187529582019590820190600101611d84565b509495945050505050565b6020815260006119b26020830184611d70565b60008060408385031215611dd157600080fd5b611dda8361193e565b915060208301358015158114611def57600080fd5b809150509250929050565b60008060408385031215611e0d57600080fd5b611e168361193e565b9150611e246020840161193e565b90509250929050565b600080600080600060a08688031215611e4557600080fd5b611e4e8661193e565b9450611e5c6020870161193e565b93506040860135925060608601359150608086013567ffffffffffffffff811115611e8657600080fd5b611c9888828901611bdb565b6020808252818101527f4f776e61626c653a2063616c6c6572206973206e6f7420746865206f776e6572604082015260600190565b600181811c90821680611edb57607f821691505b60208210811415611efc57634e487b7160e01b600052602260045260246000fd5b50919050565b60208082526027908201527f4f776e657220636f6c6c656374696f6e206f776e65722063616e206368616e67604082015266329037bbb732b960c91b606082015260800190565b8054600090600181811c9080831680611f6357607f831692505b6020808410821415611f8557634e487b7160e01b600052602260045260246000fd5b818015611f995760018114611faa57611fd7565b60ff19861689528489019650611fd7565b60008881526020902060005b86811015611fcf5781548b820152908501908301611fb6565b505084890196505b50505050505092915050565b6000611fef8285611f49565b8351611fff818360208801611aa3565b64173539b7b760d91b9101908152600501949350505050565b60006120248284611f49565b663737973539b7b760c91b81526007019392505050565b6020808252601f908201527f5265656e7472616e637947756172643a207265656e7472616e742063616c6c00604082015260600190565b634e487b7160e01b600052603260045260246000fd5b634e487b7160e01b600052601160045260246000fd5b60006000198214156120b2576120b2612088565b5060010190565b60008160001904831182151516156120d3576120d3612088565b500290565b634e487b7160e01b600052601260045260246000fd5b6000826120fd576120fd6120d8565b500490565b60008282101561211457612114612088565b500390565b600082612128576121286120d8565b500690565b6000821982111561214057612140612088565b500190565b60208082526025908201527f455243313135353a207472616e7366657220746f20746865207a65726f206164604082015264647265737360d81b606082015260800190565b6020808252602a908201527f455243313135353a20696e73756666696369656e742062616c616e636520666f60408201526939103a3930b739b332b960b11b606082015260800190565b6040815260006121e76040830185611d70565b82810360208401526121f98185611d70565b95945050505050565b6001600160a01b0386811682528516602082015260a06040820181905260009061222e90830186611d70565b82810360608401526122408186611d70565b905082810360808401526122548185611ad3565b98975050505050505050565b60006020828403121561227257600080fd5b81516119b28161197f565b600060033d11156122965760046000803e5060005160e01c5b90565b600060443d10156122a75790565b6040516003193d81016004833e81513d67ffffffffffffffff81602484011181841117156122d757505050505090565b82850191508151818111156122ef5750505050505090565b843d87010160208285010111156123095750505050505090565b612318602082860101876119cf565b509095945050505050565b60208082526028908201527f455243313135353a204552433131353552656365697665722072656a656374656040820152676420746f6b656e7360c01b606082015260800190565b6001600160a01b03868116825285166020820152604081018490526060810183905260a0608082018190526000906123a590830184611ad3565b97965050505050505056fea2646970667358221220d847b2654bcab0073239673a4d4b23e766887694180e0af0546730265128ad0164736f6c6343000809003368747470733a2f2f676174657761792e70696e6174612e636c6f75642f697066732f",
  "linkReferences": {},
  "deployedLinkReferences": {}
}