{
  "_format": "hh-sol-artifact-1",
  "contractName": "ERC1155SmartContract",
  "sourceName": "contracts/ERC1155SmartContract.sol",
  "abi": [
    {
      "inputs": [
        {
          "internalType": "string",
          "name": "_name",
          "type": "string"
        },
        {
          "internalType": "string",
          "name": "_symbol",
          "type": "string"
        },
        {
          "internalType": "uint256",
          "name": "_maxSupply",
          "type": "uint256"
        },
        {
          "internalType": "string",
          "name": "_uri",
          "type": "string"
        },
        {
          "internalType": "uint256",
          "name": "_price",
          "type": "uint256"
        },
        {
          "internalType": "address",
          "name": "_collectionOwner",
          "type": "address"
        }
      ],
      "stateMutability": "nonpayable",
      "type": "constructor"
    },
    {
      "anonymous": false,
      "inputs": [
        {
          "indexed": true,
          "internalType": "address",
          "name": "account",
          "type": "address"
        },
        {
          "indexed": true,
          "internalType": "address",
          "name": "operator",
          "type": "address"
        },
        {
          "indexed": false,
          "internalType": "bool",
          "name": "approved",
          "type": "bool"
        }
      ],
      "name": "ApprovalForAll",
      "type": "event"
    },
    {
      "anonymous": false,
      "inputs": [
        {
          "indexed": true,
          "internalType": "address",
          "name": "previousOwner",
          "type": "address"
        },
        {
          "indexed": true,
          "internalType": "address",
          "name": "newOwner",
          "type": "address"
        }
      ],
      "name": "OwnershipTransferred",
      "type": "event"
    },
    {
      "anonymous": false,
      "inputs": [
        {
          "indexed": true,
          "internalType": "address",
          "name": "operator",
          "type": "address"
        },
        {
          "indexed": true,
          "internalType": "address",
          "name": "from",
          "type": "address"
        },
        {
          "indexed": true,
          "internalType": "address",
          "name": "to",
          "type": "address"
        },
        {
          "indexed": false,
          "internalType": "uint256[]",
          "name": "ids",
          "type": "uint256[]"
        },
        {
          "indexed": false,
          "internalType": "uint256[]",
          "name": "values",
          "type": "uint256[]"
        }
      ],
      "name": "TransferBatch",
      "type": "event"
    },
    {
      "anonymous": false,
      "inputs": [
        {
          "indexed": true,
          "internalType": "address",
          "name": "operator",
          "type": "address"
        },
        {
          "indexed": true,
          "internalType": "address",
          "name": "from",
          "type": "address"
        },
        {
          "indexed": true,
          "internalType": "address",
          "name": "to",
          "type": "address"
        },
        {
          "indexed": false,
          "internalType": "uint256",
          "name": "id",
          "type": "uint256"
        },
        {
          "indexed": false,
          "internalType": "uint256",
          "name": "value",
          "type": "uint256"
        }
      ],
      "name": "TransferSingle",
      "type": "event"
    },
    {
      "anonymous": false,
      "inputs": [
        {
          "indexed": false,
          "internalType": "string",
          "name": "value",
          "type": "string"
        },
        {
          "indexed": true,
          "internalType": "uint256",
          "name": "id",
          "type": "uint256"
        }
      ],
      "name": "URI",
      "type": "event"
    },
    {
      "inputs": [
        {
          "internalType": "address",
          "name": "_account",
          "type": "address"
        }
      ],
      "name": "addMinter",
      "outputs": [],
      "stateMutability": "nonpayable",
      "type": "function"
    },
    {
      "inputs": [
        {
          "internalType": "address",
          "name": "account",
          "type": "address"
        },
        {
          "internalType": "uint256",
          "name": "id",
          "type": "uint256"
        }
      ],
      "name": "balanceOf",
      "outputs": [
        {
          "internalType": "uint256",
          "name": "",
          "type": "uint256"
        }
      ],
      "stateMutability": "view",
      "type": "function"
    },
    {
      "inputs": [
        {
          "internalType": "address[]",
          "name": "accounts",
          "type": "address[]"
        },
        {
          "internalType": "uint256[]",
          "name": "ids",
          "type": "uint256[]"
        }
      ],
      "name": "balanceOfBatch",
      "outputs": [
        {
          "internalType": "uint256[]",
          "name": "",
          "type": "uint256[]"
        }
      ],
      "stateMutability": "view",
      "type": "function"
    },
    {
      "inputs": [],
      "name": "collectionOwner",
      "outputs": [
        {
          "internalType": "address",
          "name": "",
          "type": "address"
        }
      ],
      "stateMutability": "view",
      "type": "function"
    },
    {
      "inputs": [
        {
          "internalType": "address",
          "name": "account",
          "type": "address"
        },
        {
          "internalType": "address",
          "name": "operator",
          "type": "address"
        }
      ],
      "name": "isApprovedForAll",
      "outputs": [
        {
          "internalType": "bool",
          "name": "",
          "type": "bool"
        }
      ],
      "stateMutability": "view",
      "type": "function"
    },
    {
      "inputs": [],
      "name": "maxSupply",
      "outputs": [
        {
          "internalType": "uint256",
          "name": "",
          "type": "uint256"
        }
      ],
      "stateMutability": "view",
      "type": "function"
    },
    {
      "inputs": [
        {
          "internalType": "address",
          "name": "tokenOwner",
          "type": "address"
        }
      ],
      "name": "mint",
      "outputs": [
        {
          "internalType": "uint256",
          "name": "",
          "type": "uint256"
        }
      ],
      "stateMutability": "payable",
      "type": "function"
    },
    {
      "inputs": [
        {
          "internalType": "address",
          "name": "tokenOwner",
          "type": "address"
        },
        {
          "internalType": "uint256",
          "name": "count",
          "type": "uint256"
        }
      ],
      "name": "mintWithClones",
      "outputs": [
        {
          "internalType": "uint256",
          "name": "",
          "type": "uint256"
        }
      ],
      "stateMutability": "payable",
      "type": "function"
    },
    {
      "inputs": [],
      "name": "name",
      "outputs": [
        {
          "internalType": "string",
          "name": "",
          "type": "string"
        }
      ],
      "stateMutability": "view",
      "type": "function"
    },
    {
      "inputs": [],
      "name": "owner",
      "outputs": [
        {
          "internalType": "address",
          "name": "",
          "type": "address"
        }
      ],
      "stateMutability": "view",
      "type": "function"
    },
    {
      "inputs": [],
      "name": "price",
      "outputs": [
        {
          "internalType": "uint256",
          "name": "",
          "type": "uint256"
        }
      ],
      "stateMutability": "view",
      "type": "function"
    },
    {
      "inputs": [
        {
          "internalType": "address",
          "name": "_account",
          "type": "address"
        }
      ],
      "name": "removeMinter",
      "outputs": [],
      "stateMutability": "nonpayable",
      "type": "function"
    },
    {
      "inputs": [],
      "name": "renounceOwnership",
      "outputs": [],
      "stateMutability": "nonpayable",
      "type": "function"
    },
    {
      "inputs": [
        {
          "internalType": "address",
          "name": "from",
          "type": "address"
        },
        {
          "internalType": "address",
          "name": "to",
          "type": "address"
        },
        {
          "internalType": "uint256[]",
          "name": "ids",
          "type": "uint256[]"
        },
        {
          "internalType": "uint256[]",
          "name": "amounts",
          "type": "uint256[]"
        },
        {
          "internalType": "bytes",
          "name": "data",
          "type": "bytes"
        }
      ],
      "name": "safeBatchTransferFrom",
      "outputs": [],
      "stateMutability": "nonpayable",
      "type": "function"
    },
    {
      "inputs": [
        {
          "internalType": "address",
          "name": "from",
          "type": "address"
        },
        {
          "internalType": "address",
          "name": "to",
          "type": "address"
        },
        {
          "internalType": "uint256",
          "name": "id",
          "type": "uint256"
        },
        {
          "internalType": "uint256",
          "name": "amount",
          "type": "uint256"
        },
        {
          "internalType": "bytes",
          "name": "data",
          "type": "bytes"
        }
      ],
      "name": "safeTransferFrom",
      "outputs": [],
      "stateMutability": "nonpayable",
      "type": "function"
    },
    {
      "inputs": [
        {
          "internalType": "address",
          "name": "operator",
          "type": "address"
        },
        {
          "internalType": "bool",
          "name": "approved",
          "type": "bool"
        }
      ],
      "name": "setApprovalForAll",
      "outputs": [],
      "stateMutability": "nonpayable",
      "type": "function"
    },
    {
      "inputs": [
        {
          "internalType": "address",
          "name": "_collectionOwner",
          "type": "address"
        }
      ],
      "name": "setCollectionOwner",
      "outputs": [],
      "stateMutability": "nonpayable",
      "type": "function"
    },
    {
      "inputs": [
        {
          "internalType": "uint256",
          "name": "_price",
          "type": "uint256"
        }
      ],
      "name": "setPrice",
      "outputs": [],
      "stateMutability": "nonpayable",
      "type": "function"
    },
    {
      "inputs": [
        {
          "internalType": "string",
          "name": "newuri",
          "type": "string"
        }
      ],
      "name": "setURI",
      "outputs": [],
      "stateMutability": "nonpayable",
      "type": "function"
    },
    {
      "inputs": [
        {
          "internalType": "bytes4",
          "name": "interfaceId",
          "type": "bytes4"
        }
      ],
      "name": "supportsInterface",
      "outputs": [
        {
          "internalType": "bool",
          "name": "",
          "type": "bool"
        }
      ],
      "stateMutability": "view",
      "type": "function"
    },
    {
      "inputs": [],
      "name": "symbol",
      "outputs": [
        {
          "internalType": "string",
          "name": "",
          "type": "string"
        }
      ],
      "stateMutability": "view",
      "type": "function"
    },
    {
      "inputs": [],
      "name": "totalSupply",
      "outputs": [
        {
          "internalType": "uint256",
          "name": "",
          "type": "uint256"
        }
      ],
      "stateMutability": "view",
      "type": "function"
    },
    {
      "inputs": [
        {
          "internalType": "address",
          "name": "newOwner",
          "type": "address"
        }
      ],
      "name": "transferOwnership",
      "outputs": [],
      "stateMutability": "nonpayable",
      "type": "function"
    },
    {
      "inputs": [
        {
          "internalType": "uint256",
          "name": "tokenId",
          "type": "uint256"
        }
      ],
      "name": "uri",
      "outputs": [
        {
          "internalType": "string",
          "name": "",
          "type": "string"
        }
      ],
      "stateMutability": "view",
      "type": "function"
    },
    {
      "inputs": [],
      "name": "withdrawFunds",
      "outputs": [],
      "stateMutability": "nonpayable",
      "type": "function"
    }
  ],
  "bytecode": "0x60e060405260226080818152906200269860a03980516200002991600b91602090910190620001e3565b503480156200003757600080fd5b50604051620026ba380380620026ba8339810160408190526200005a9162000356565b826200006681620000f5565b5062000072336200010e565b600160045585516200008c906005906020890190620001e3565b508451620000a2906006906020880190620001e3565b5060098490558251620000bd90600b906020860190620001e3565b506008829055600c80546001600160a01b0319166001600160a01b038316179055620000e93362000160565b5050505050506200045a565b80516200010a906002906020840190620001e3565b5050565b600380546001600160a01b038381166001600160a01b0319831681179093556040519116919082907f8be0079c531659141344cd1fd0a4f28419497f9722a3daafe3b4186f6b6457e090600090a35050565b6003546001600160a01b03163314620001bf5760405162461bcd60e51b815260206004820181905260248201527f4f776e61626c653a2063616c6c6572206973206e6f7420746865206f776e6572604482015260640160405180910390fd5b6001600160a01b03166000908152600a60205260409020805460ff19166001179055565b828054620001f1906200041d565b90600052602060002090601f01602090048101928262000215576000855562000260565b82601f106200023057805160ff191683800117855562000260565b8280016001018555821562000260579182015b828111156200026057825182559160200191906001019062000243565b506200026e92915062000272565b5090565b5b808211156200026e576000815560010162000273565b634e487b7160e01b600052604160045260246000fd5b600082601f830112620002b157600080fd5b81516001600160401b0380821115620002ce57620002ce62000289565b604051601f8301601f19908116603f01168101908282118183101715620002f957620002f962000289565b816040528381526020925086838588010111156200031657600080fd5b600091505b838210156200033a57858201830151818301840152908201906200031b565b838211156200034c5760008385830101525b9695505050505050565b60008060008060008060c087890312156200037057600080fd5b86516001600160401b03808211156200038857600080fd5b620003968a838b016200029f565b97506020890151915080821115620003ad57600080fd5b620003bb8a838b016200029f565b9650604089015195506060890151915080821115620003d957600080fd5b50620003e889828a016200029f565b608089015160a08a0151919550935090506001600160a01b03811681146200040f57600080fd5b809150509295509295509295565b600181811c908216806200043257607f821691505b602082108114156200045457634e487b7160e01b600052602260045260246000fd5b50919050565b61222e806200046a6000396000f3fe6080604052600436106101655760003560e01c8063715018a6116100d1578063a22cb4651161008a578063e985e9c511610064578063e985e9c514610403578063ec0ea45f1461044c578063f242432a1461045f578063f2fde38b1461047f57600080fd5b8063a22cb465146103ad578063d5abeb01146103cd578063df727d3b146103e357600080fd5b8063715018a6146102fb5780638da5cb5b1461031057806391b7f5ed1461034257806395d89b4114610362578063983b2d5614610377578063a035b1fe1461039757600080fd5b806318160ddd1161012357806318160ddd1461025157806324600fc3146102665780632eb2c2d61461027b5780633092afd51461029b5780634e1273f4146102bb5780636a627842146102e857600080fd5b8062fdd58e1461016a57806301ffc9a71461019d57806302fe5305146101cd57806306fdde03146101ef578063098f9cf3146102115780630e89341c14610231575b600080fd5b34801561017657600080fd5b5061018a6101853660046117c1565b61049f565b6040519081526020015b60405180910390f35b3480156101a957600080fd5b506101bd6101b8366004611801565b610536565b6040519015158152602001610194565b3480156101d957600080fd5b506101ed6101e83660046118c6565b610588565b005b3480156101fb57600080fd5b506102046105d2565b604051610194919061196b565b34801561021d57600080fd5b506101ed61022c36600461197e565b610660565b34801561023d57600080fd5b5061020461024c366004611999565b6106ac565b34801561025d57600080fd5b5061018a610723565b34801561027257600080fd5b506101ed610733565b34801561028757600080fd5b506101ed610296366004611a67565b610818565b3480156102a757600080fd5b506101ed6102b636600461197e565b6108af565b3480156102c757600080fd5b506102db6102d6366004611b11565b6108fa565b6040516101949190611c17565b61018a6102f636600461197e565b610a24565b34801561030757600080fd5b506101ed610b36565b34801561031c57600080fd5b506003546001600160a01b03165b6040516001600160a01b039091168152602001610194565b34801561034e57600080fd5b506101ed61035d366004611999565b610b6c565b34801561036e57600080fd5b50610204610b9b565b34801561038357600080fd5b506101ed61039236600461197e565b610ba8565b3480156103a357600080fd5b5061018a60085481565b3480156103b957600080fd5b506101ed6103c8366004611c2a565b610bf6565b3480156103d957600080fd5b5061018a60095481565b3480156103ef57600080fd5b50600c5461032a906001600160a01b031681565b34801561040f57600080fd5b506101bd61041e366004611c66565b6001600160a01b03918216600090815260016020908152604080832093909416825291909152205460ff1690565b61018a61045a3660046117c1565b610c05565b34801561046b57600080fd5b506101ed61047a366004611c99565b610d22565b34801561048b57600080fd5b506101ed61049a36600461197e565b610da9565b60006001600160a01b0383166105105760405162461bcd60e51b815260206004820152602b60248201527f455243313135353a2062616c616e636520717565727920666f7220746865207a60448201526a65726f206164647265737360a81b60648201526084015b60405180910390fd5b506000908152602081815260408083206001600160a01b03949094168352929052205490565b60006001600160e01b03198216636cdb3d1360e11b148061056757506001600160e01b031982166303a24d0760e21b145b8061058257506301ffc9a760e01b6001600160e01b03198316145b92915050565b6003546001600160a01b031633146105b25760405162461bcd60e51b815260040161050790611cfe565b80516105c590600b906020840190611711565b506105cf81610e41565b50565b600580546105df90611d33565b80601f016020809104026020016040519081016040528092919081815260200182805461060b90611d33565b80156106585780601f1061062d57610100808354040283529160200191610658565b820191906000526020600020905b81548152906001019060200180831161063b57829003601f168201915b505050505081565b600c546001600160a01b0316331461068a5760405162461bcd60e51b815260040161050790611d6e565b600c80546001600160a01b0319166001600160a01b0392909216919091179055565b60606106b760075490565b82116106ef57600b6106c883610e54565b6040516020016106d9929190611dd1565b6040516020818303038152906040529050919050565b505060408051808201909152601381527211548e88125b9d985b1a59081d1bdad95b9259606a1b602082015290565b919050565b600061072e60075490565b905090565b600260045414156107565760405162461bcd60e51b815260040161050790611e8c565b6002600455600c546001600160a01b031633146107855760405162461bcd60e51b815260040161050790611d6e565b604051600090339047908381818185875af1925050503d80600081146107c7576040519150601f19603f3d011682016040523d82523d6000602084013e6107cc565b606091505b50509050806108105760405162461bcd60e51b815260206004820152601060248201526f2a3930b739b332b9103330b4b632b21760811b6044820152606401610507565b506001600455565b6001600160a01b0385163314806108345750610834853361041e565b61089b5760405162461bcd60e51b815260206004820152603260248201527f455243313135353a207472616e736665722063616c6c6572206973206e6f74206044820152711bdddb995c881b9bdc88185c1c1c9bdd995960721b6064820152608401610507565b6108a88585858585610f5a565b5050505050565b6003546001600160a01b031633146108d95760405162461bcd60e51b815260040161050790611cfe565b6001600160a01b03166000908152600a60205260409020805460ff19169055565b6060815183511461095f5760405162461bcd60e51b815260206004820152602960248201527f455243313135353a206163636f756e747320616e6420696473206c656e677468604482015268040dad2e6dac2e8c6d60bb1b6064820152608401610507565b6000835167ffffffffffffffff81111561097b5761097b611825565b6040519080825280602002602001820160405280156109a4578160200160208202803683370190505b50905060005b8451811015610a1c576109ef8582815181106109c8576109c8611ec3565b60200260200101518583815181106109e2576109e2611ec3565b602002602001015161049f565b828281518110610a0157610a01611ec3565b6020908102919091010152610a1581611eef565b90506109aa565b509392505050565b600060026004541415610a495760405162461bcd60e51b815260040161050790611e8c565b6002600455610a5c600780546001019055565b600854341015610aae5760405162461bcd60e51b815260206004820152601a60248201527f496e636f7272656374204e465420707269636520616d6f756e740000000000006044820152606401610507565b6009546007541115610b025760405162461bcd60e51b815260206004820152601f60248201527f43616e2774206d696e74206d6f7265207468616e206d617820737570706c79006044820152606401610507565b6000610b0d60075490565b9050610b2b8382600160405180602001604052806000815250611137565b600160045592915050565b6003546001600160a01b03163314610b605760405162461bcd60e51b815260040161050790611cfe565b610b6a6000611241565b565b6003546001600160a01b03163314610b965760405162461bcd60e51b815260040161050790611cfe565b600855565b600680546105df90611d33565b6003546001600160a01b03163314610bd25760405162461bcd60e51b815260040161050790611cfe565b6001600160a01b03166000908152600a60205260409020805460ff19166001179055565b610c01338383611293565b5050565b600060026004541415610c2a5760405162461bcd60e51b815260040161050790611e8c565b6002600455610c3d600780546001019055565b81600854610c4b9190611f0a565b341015610c9a5760405162461bcd60e51b815260206004820152601a60248201527f496e636f7272656374204e465420707269636520616d6f756e740000000000006044820152606401610507565b6009546007541115610cee5760405162461bcd60e51b815260206004820152601f60248201527f43616e2774206d696e74206d6f7265207468616e206d617820737570706c79006044820152606401610507565b6000610cf960075490565b9050610d1684828560405180602001604052806000815250611137565b60016004559392505050565b6001600160a01b038516331480610d3e5750610d3e853361041e565b610d9c5760405162461bcd60e51b815260206004820152602960248201527f455243313135353a2063616c6c6572206973206e6f74206f776e6572206e6f7260448201526808185c1c1c9bdd995960ba1b6064820152608401610507565b6108a88585858585611374565b6003546001600160a01b03163314610dd35760405162461bcd60e51b815260040161050790611cfe565b6001600160a01b038116610e385760405162461bcd60e51b815260206004820152602660248201527f4f776e61626c653a206e6577206f776e657220697320746865207a65726f206160448201526564647265737360d01b6064820152608401610507565b6105cf81611241565b8051610c01906002906020840190611711565b606081610e785750506040805180820190915260018152600360fc1b602082015290565b8160005b8115610ea25780610e8c81611eef565b9150610e9b9050600a83611f3f565b9150610e7c565b60008167ffffffffffffffff811115610ebd57610ebd611825565b6040519080825280601f01601f191660200182016040528015610ee7576020820181803683370190505b5090505b8415610f5257610efc600183611f53565b9150610f09600a86611f6a565b610f14906030611f7e565b60f81b818381518110610f2957610f29611ec3565b60200101906001600160f81b031916908160001a905350610f4b600a86611f3f565b9450610eeb565b949350505050565b8151835114610fbc5760405162461bcd60e51b815260206004820152602860248201527f455243313135353a2069647320616e6420616d6f756e7473206c656e677468206044820152670dad2e6dac2e8c6d60c31b6064820152608401610507565b6001600160a01b038416610fe25760405162461bcd60e51b815260040161050790611f96565b3360005b84518110156110c957600085828151811061100357611003611ec3565b60200260200101519050600085838151811061102157611021611ec3565b602090810291909101810151600084815280835260408082206001600160a01b038e1683529093529190912054909150818110156110715760405162461bcd60e51b815260040161050790611fdb565b6000838152602081815260408083206001600160a01b038e8116855292528083208585039055908b168252812080548492906110ae908490611f7e565b92505081905550505050806110c290611eef565b9050610fe6565b50846001600160a01b0316866001600160a01b0316826001600160a01b03167f4a39dc06d4c0dbc64b70af90fd698a233a518aa5d07e595d983b8c0526c8f7fb8787604051611119929190612025565b60405180910390a461112f818787878787611491565b505050505050565b6001600160a01b0384166111975760405162461bcd60e51b815260206004820152602160248201527f455243313135353a206d696e7420746f20746865207a65726f206164647265736044820152607360f81b6064820152608401610507565b336111b1816000876111a8886115fc565b6108a8886115fc565b6000848152602081815260408083206001600160a01b0389168452909152812080548592906111e1908490611f7e565b909155505060408051858152602081018590526001600160a01b0380881692600092918516917fc3d58168c5ae7397731d063d5bbf3d657854427343f4c083240f7aacaa2d0f62910160405180910390a46108a881600087878787611647565b600380546001600160a01b038381166001600160a01b0319831681179093556040519116919082907f8be0079c531659141344cd1fd0a4f28419497f9722a3daafe3b4186f6b6457e090600090a35050565b816001600160a01b0316836001600160a01b031614156113075760405162461bcd60e51b815260206004820152602960248201527f455243313135353a2073657474696e6720617070726f76616c20737461747573604482015268103337b91039b2b63360b91b6064820152608401610507565b6001600160a01b03838116600081815260016020908152604080832094871680845294825291829020805460ff191686151590811790915591519182527f17307eab39ab6107e8899845ad3d59bd9653f200f220920489ca2b5937696c31910160405180910390a3505050565b6001600160a01b03841661139a5760405162461bcd60e51b815260040161050790611f96565b336113aa8187876111a8886115fc565b6000848152602081815260408083206001600160a01b038a168452909152902054838110156113eb5760405162461bcd60e51b815260040161050790611fdb565b6000858152602081815260408083206001600160a01b038b8116855292528083208785039055908816825281208054869290611428908490611f7e565b909155505060408051868152602081018690526001600160a01b03808916928a821692918616917fc3d58168c5ae7397731d063d5bbf3d657854427343f4c083240f7aacaa2d0f62910160405180910390a4611488828888888888611647565b50505050505050565b6001600160a01b0384163b1561112f5760405163bc197c8160e01b81526001600160a01b0385169063bc197c81906114d5908990899088908890889060040161204a565b602060405180830381600087803b1580156114ef57600080fd5b505af192505050801561151f575060408051601f3d908101601f1916820190925261151c918101906120a8565b60015b6115cc5761152b6120c5565b806308c379a0141561156557506115406120e1565b8061154b5750611567565b8060405162461bcd60e51b8152600401610507919061196b565b505b60405162461bcd60e51b815260206004820152603460248201527f455243313135353a207472616e7366657220746f206e6f6e20455243313135356044820152732932b1b2b4bb32b91034b6b83632b6b2b73a32b960611b6064820152608401610507565b6001600160e01b0319811663bc197c8160e01b146114885760405162461bcd60e51b81526004016105079061216b565b6040805160018082528183019092526060916000919060208083019080368337019050509050828160008151811061163657611636611ec3565b602090810291909101015292915050565b6001600160a01b0384163b1561112f5760405163f23a6e6160e01b81526001600160a01b0385169063f23a6e619061168b90899089908890889088906004016121b3565b602060405180830381600087803b1580156116a557600080fd5b505af19250505080156116d5575060408051601f3d908101601f191682019092526116d2918101906120a8565b60015b6116e15761152b6120c5565b6001600160e01b0319811663f23a6e6160e01b146114885760405162461bcd60e51b81526004016105079061216b565b82805461171d90611d33565b90600052602060002090601f01602090048101928261173f5760008555611785565b82601f1061175857805160ff1916838001178555611785565b82800160010185558215611785579182015b8281111561178557825182559160200191906001019061176a565b50611791929150611795565b5090565b5b808211156117915760008155600101611796565b80356001600160a01b038116811461071e57600080fd5b600080604083850312156117d457600080fd5b6117dd836117aa565b946020939093013593505050565b6001600160e01b0319811681146105cf57600080fd5b60006020828403121561181357600080fd5b813561181e816117eb565b9392505050565b634e487b7160e01b600052604160045260246000fd5b601f8201601f1916810167ffffffffffffffff8111828210171561186157611861611825565b6040525050565b600067ffffffffffffffff83111561188257611882611825565b604051611899601f8501601f19166020018261183b565b8091508381528484840111156118ae57600080fd5b83836020830137600060208583010152509392505050565b6000602082840312156118d857600080fd5b813567ffffffffffffffff8111156118ef57600080fd5b8201601f8101841361190057600080fd5b610f5284823560208401611868565b60005b8381101561192a578181015183820152602001611912565b83811115611939576000848401525b50505050565b6000815180845261195781602086016020860161190f565b601f01601f19169290920160200192915050565b60208152600061181e602083018461193f565b60006020828403121561199057600080fd5b61181e826117aa565b6000602082840312156119ab57600080fd5b5035919050565b600067ffffffffffffffff8211156119cc576119cc611825565b5060051b60200190565b600082601f8301126119e757600080fd5b813560206119f4826119b2565b604051611a01828261183b565b83815260059390931b8501820192828101915086841115611a2157600080fd5b8286015b84811015611a3c5780358352918301918301611a25565b509695505050505050565b600082601f830112611a5857600080fd5b61181e83833560208501611868565b600080600080600060a08688031215611a7f57600080fd5b611a88866117aa565b9450611a96602087016117aa565b9350604086013567ffffffffffffffff80821115611ab357600080fd5b611abf89838a016119d6565b94506060880135915080821115611ad557600080fd5b611ae189838a016119d6565b93506080880135915080821115611af757600080fd5b50611b0488828901611a47565b9150509295509295909350565b60008060408385031215611b2457600080fd5b823567ffffffffffffffff80821115611b3c57600080fd5b818501915085601f830112611b5057600080fd5b81356020611b5d826119b2565b604051611b6a828261183b565b83815260059390931b8501820192828101915089841115611b8a57600080fd5b948201945b83861015611baf57611ba0866117aa565b82529482019490820190611b8f565b96505086013592505080821115611bc557600080fd5b50611bd2858286016119d6565b9150509250929050565b600081518084526020808501945080840160005b83811015611c0c57815187529582019590820190600101611bf0565b509495945050505050565b60208152600061181e6020830184611bdc565b60008060408385031215611c3d57600080fd5b611c46836117aa565b915060208301358015158114611c5b57600080fd5b809150509250929050565b60008060408385031215611c7957600080fd5b611c82836117aa565b9150611c90602084016117aa565b90509250929050565b600080600080600060a08688031215611cb157600080fd5b611cba866117aa565b9450611cc8602087016117aa565b93506040860135925060608601359150608086013567ffffffffffffffff811115611cf257600080fd5b611b0488828901611a47565b6020808252818101527f4f776e61626c653a2063616c6c6572206973206e6f7420746865206f776e6572604082015260600190565b600181811c90821680611d4757607f821691505b60208210811415611d6857634e487b7160e01b600052602260045260246000fd5b50919050565b60208082526027908201527f4f776e657220636f6c6c656374696f6e206f776e65722063616e206368616e67604082015266329037bbb732b960c91b606082015260800190565b60008151611dc781856020860161190f565b9290920192915050565b600080845481600182811c915080831680611ded57607f831692505b6020808410821415611e0d57634e487b7160e01b86526022600452602486fd5b818015611e215760018114611e3257611e5f565b60ff19861689528489019650611e5f565b60008b81526020902060005b86811015611e575781548b820152908501908301611e3e565b505084890196505b505050505050611e83611e728286611db5565b64173539b7b760d91b815260050190565b95945050505050565b6020808252601f908201527f5265656e7472616e637947756172643a207265656e7472616e742063616c6c00604082015260600190565b634e487b7160e01b600052603260045260246000fd5b634e487b7160e01b600052601160045260246000fd5b6000600019821415611f0357611f03611ed9565b5060010190565b6000816000190483118215151615611f2457611f24611ed9565b500290565b634e487b7160e01b600052601260045260246000fd5b600082611f4e57611f4e611f29565b500490565b600082821015611f6557611f65611ed9565b500390565b600082611f7957611f79611f29565b500690565b60008219821115611f9157611f91611ed9565b500190565b60208082526025908201527f455243313135353a207472616e7366657220746f20746865207a65726f206164604082015264647265737360d81b606082015260800190565b6020808252602a908201527f455243313135353a20696e73756666696369656e742062616c616e636520666f60408201526939103a3930b739b332b960b11b606082015260800190565b6040815260006120386040830185611bdc565b8281036020840152611e838185611bdc565b6001600160a01b0386811682528516602082015260a06040820181905260009061207690830186611bdc565b82810360608401526120888186611bdc565b9050828103608084015261209c818561193f565b98975050505050505050565b6000602082840312156120ba57600080fd5b815161181e816117eb565b600060033d11156120de5760046000803e5060005160e01c5b90565b600060443d10156120ef5790565b6040516003193d81016004833e81513d67ffffffffffffffff816024840111818411171561211f57505050505090565b82850191508151818111156121375750505050505090565b843d87010160208285010111156121515750505050505090565b6121606020828601018761183b565b509095945050505050565b60208082526028908201527f455243313135353a204552433131353552656365697665722072656a656374656040820152676420746f6b656e7360c01b606082015260800190565b6001600160a01b03868116825285166020820152604081018490526060810183905260a0608082018190526000906121ed9083018461193f565b97965050505050505056fea26469706673582212207d62ac3a7615b141f908c47bf9803da312bb0672ee2596137bcc89172158e1dc64736f6c6343000809003368747470733a2f2f676174657761792e70696e6174612e636c6f75642f697066732f",
  "linkReferences": {},
  "deployedLinkReferences": {}
}