{
  "_format": "hh-sol-artifact-1",
  "contractName": "ERC1155TieredSmartContract",
  "sourceName": "contracts/ERC1155TieredSmartContract.sol",
  "abi": [
    {
      "inputs": [
        {
          "internalType": "string",
          "name": "_name",
          "type": "string"
        },
        {
          "internalType": "string",
          "name": "_symbol",
          "type": "string"
        },
        {
          "internalType": "uint256",
          "name": "_maxSupply",
          "type": "uint256"
        },
        {
          "internalType": "string",
          "name": "_uri",
          "type": "string"
        },
        {
          "internalType": "uint256[]",
          "name": "_maxTokensSupply",
          "type": "uint256[]"
        },
        {
          "internalType": "uint256",
          "name": "_price",
          "type": "uint256"
        },
        {
          "internalType": "address",
          "name": "_collectionOwner",
          "type": "address"
        }
      ],
      "stateMutability": "nonpayable",
      "type": "constructor"
    },
    {
      "anonymous": false,
      "inputs": [
        {
          "indexed": true,
          "internalType": "address",
          "name": "account",
          "type": "address"
        },
        {
          "indexed": true,
          "internalType": "address",
          "name": "operator",
          "type": "address"
        },
        {
          "indexed": false,
          "internalType": "bool",
          "name": "approved",
          "type": "bool"
        }
      ],
      "name": "ApprovalForAll",
      "type": "event"
    },
    {
      "anonymous": false,
      "inputs": [
        {
          "indexed": true,
          "internalType": "address",
          "name": "previousOwner",
          "type": "address"
        },
        {
          "indexed": true,
          "internalType": "address",
          "name": "newOwner",
          "type": "address"
        }
      ],
      "name": "OwnershipTransferred",
      "type": "event"
    },
    {
      "anonymous": false,
      "inputs": [
        {
          "indexed": true,
          "internalType": "address",
          "name": "operator",
          "type": "address"
        },
        {
          "indexed": true,
          "internalType": "address",
          "name": "from",
          "type": "address"
        },
        {
          "indexed": true,
          "internalType": "address",
          "name": "to",
          "type": "address"
        },
        {
          "indexed": false,
          "internalType": "uint256[]",
          "name": "ids",
          "type": "uint256[]"
        },
        {
          "indexed": false,
          "internalType": "uint256[]",
          "name": "values",
          "type": "uint256[]"
        }
      ],
      "name": "TransferBatch",
      "type": "event"
    },
    {
      "anonymous": false,
      "inputs": [
        {
          "indexed": true,
          "internalType": "address",
          "name": "operator",
          "type": "address"
        },
        {
          "indexed": true,
          "internalType": "address",
          "name": "from",
          "type": "address"
        },
        {
          "indexed": true,
          "internalType": "address",
          "name": "to",
          "type": "address"
        },
        {
          "indexed": false,
          "internalType": "uint256",
          "name": "id",
          "type": "uint256"
        },
        {
          "indexed": false,
          "internalType": "uint256",
          "name": "value",
          "type": "uint256"
        }
      ],
      "name": "TransferSingle",
      "type": "event"
    },
    {
      "anonymous": false,
      "inputs": [
        {
          "indexed": false,
          "internalType": "string",
          "name": "value",
          "type": "string"
        },
        {
          "indexed": true,
          "internalType": "uint256",
          "name": "id",
          "type": "uint256"
        }
      ],
      "name": "URI",
      "type": "event"
    },
    {
      "inputs": [
        {
          "internalType": "address",
          "name": "_account",
          "type": "address"
        }
      ],
      "name": "addMinter",
      "outputs": [],
      "stateMutability": "nonpayable",
      "type": "function"
    },
    {
      "inputs": [
        {
          "internalType": "address",
          "name": "account",
          "type": "address"
        },
        {
          "internalType": "uint256",
          "name": "id",
          "type": "uint256"
        }
      ],
      "name": "balanceOf",
      "outputs": [
        {
          "internalType": "uint256",
          "name": "",
          "type": "uint256"
        }
      ],
      "stateMutability": "view",
      "type": "function"
    },
    {
      "inputs": [
        {
          "internalType": "address[]",
          "name": "accounts",
          "type": "address[]"
        },
        {
          "internalType": "uint256[]",
          "name": "ids",
          "type": "uint256[]"
        }
      ],
      "name": "balanceOfBatch",
      "outputs": [
        {
          "internalType": "uint256[]",
          "name": "",
          "type": "uint256[]"
        }
      ],
      "stateMutability": "view",
      "type": "function"
    },
    {
      "inputs": [],
      "name": "collectionOwner",
      "outputs": [
        {
          "internalType": "address",
          "name": "",
          "type": "address"
        }
      ],
      "stateMutability": "view",
      "type": "function"
    },
    {
      "inputs": [
        {
          "internalType": "uint256",
          "name": "id",
          "type": "uint256"
        }
      ],
      "name": "exists",
      "outputs": [
        {
          "internalType": "bool",
          "name": "",
          "type": "bool"
        }
      ],
      "stateMutability": "view",
      "type": "function"
    },
    {
      "inputs": [],
      "name": "getBaseURI",
      "outputs": [
        {
          "internalType": "string",
          "name": "",
          "type": "string"
        }
      ],
      "stateMutability": "view",
      "type": "function"
    },
    {
      "inputs": [
        {
          "internalType": "address",
          "name": "account",
          "type": "address"
        },
        {
          "internalType": "address",
          "name": "operator",
          "type": "address"
        }
      ],
      "name": "isApprovedForAll",
      "outputs": [
        {
          "internalType": "bool",
          "name": "",
          "type": "bool"
        }
      ],
      "stateMutability": "view",
      "type": "function"
    },
    {
      "inputs": [],
      "name": "maxSupply",
      "outputs": [
        {
          "internalType": "uint256",
          "name": "",
          "type": "uint256"
        }
      ],
      "stateMutability": "view",
      "type": "function"
    },
    {
      "inputs": [],
      "name": "maxTokenId",
      "outputs": [
        {
          "internalType": "uint256",
          "name": "",
          "type": "uint256"
        }
      ],
      "stateMutability": "view",
      "type": "function"
    },
    {
      "inputs": [
        {
          "internalType": "address",
          "name": "tokenOwner",
          "type": "address"
        },
        {
          "internalType": "uint256",
          "name": "tierId",
          "type": "uint256"
        },
        {
          "internalType": "uint256",
          "name": "nftCount",
          "type": "uint256"
        }
      ],
      "name": "mintTierTokens",
      "outputs": [
        {
          "internalType": "uint256",
          "name": "",
          "type": "uint256"
        }
      ],
      "stateMutability": "payable",
      "type": "function"
    },
    {
      "inputs": [],
      "name": "name",
      "outputs": [
        {
          "internalType": "string",
          "name": "",
          "type": "string"
        }
      ],
      "stateMutability": "view",
      "type": "function"
    },
    {
      "inputs": [],
      "name": "owner",
      "outputs": [
        {
          "internalType": "address",
          "name": "",
          "type": "address"
        }
      ],
      "stateMutability": "view",
      "type": "function"
    },
    {
      "inputs": [
        {
          "internalType": "address",
          "name": "_account",
          "type": "address"
        }
      ],
      "name": "removeMinter",
      "outputs": [],
      "stateMutability": "nonpayable",
      "type": "function"
    },
    {
      "inputs": [],
      "name": "renounceOwnership",
      "outputs": [],
      "stateMutability": "nonpayable",
      "type": "function"
    },
    {
      "inputs": [
        {
          "internalType": "address",
          "name": "from",
          "type": "address"
        },
        {
          "internalType": "address",
          "name": "to",
          "type": "address"
        },
        {
          "internalType": "uint256[]",
          "name": "ids",
          "type": "uint256[]"
        },
        {
          "internalType": "uint256[]",
          "name": "amounts",
          "type": "uint256[]"
        },
        {
          "internalType": "bytes",
          "name": "data",
          "type": "bytes"
        }
      ],
      "name": "safeBatchTransferFrom",
      "outputs": [],
      "stateMutability": "nonpayable",
      "type": "function"
    },
    {
      "inputs": [
        {
          "internalType": "address",
          "name": "from",
          "type": "address"
        },
        {
          "internalType": "address",
          "name": "to",
          "type": "address"
        },
        {
          "internalType": "uint256",
          "name": "id",
          "type": "uint256"
        },
        {
          "internalType": "uint256",
          "name": "amount",
          "type": "uint256"
        },
        {
          "internalType": "bytes",
          "name": "data",
          "type": "bytes"
        }
      ],
      "name": "safeTransferFrom",
      "outputs": [],
      "stateMutability": "nonpayable",
      "type": "function"
    },
    {
      "inputs": [
        {
          "internalType": "address",
          "name": "operator",
          "type": "address"
        },
        {
          "internalType": "bool",
          "name": "approved",
          "type": "bool"
        }
      ],
      "name": "setApprovalForAll",
      "outputs": [],
      "stateMutability": "nonpayable",
      "type": "function"
    },
    {
      "inputs": [
        {
          "internalType": "address",
          "name": "_collectionOwner",
          "type": "address"
        }
      ],
      "name": "setCollectionOwner",
      "outputs": [],
      "stateMutability": "nonpayable",
      "type": "function"
    },
    {
      "inputs": [
        {
          "internalType": "uint256",
          "name": "_price",
          "type": "uint256"
        }
      ],
      "name": "setPrice",
      "outputs": [],
      "stateMutability": "nonpayable",
      "type": "function"
    },
    {
      "inputs": [
        {
          "internalType": "string",
          "name": "newuri",
          "type": "string"
        }
      ],
      "name": "setURI",
      "outputs": [],
      "stateMutability": "nonpayable",
      "type": "function"
    },
    {
      "inputs": [
        {
          "internalType": "bytes4",
          "name": "interfaceId",
          "type": "bytes4"
        }
      ],
      "name": "supportsInterface",
      "outputs": [
        {
          "internalType": "bool",
          "name": "",
          "type": "bool"
        }
      ],
      "stateMutability": "view",
      "type": "function"
    },
    {
      "inputs": [],
      "name": "symbol",
      "outputs": [
        {
          "internalType": "string",
          "name": "",
          "type": "string"
        }
      ],
      "stateMutability": "view",
      "type": "function"
    },
    {
      "inputs": [
        {
          "internalType": "uint256",
          "name": "",
          "type": "uint256"
        }
      ],
      "name": "tokensMaxSupply",
      "outputs": [
        {
          "internalType": "uint256",
          "name": "",
          "type": "uint256"
        }
      ],
      "stateMutability": "view",
      "type": "function"
    },
    {
      "inputs": [
        {
          "internalType": "uint256",
          "name": "id",
          "type": "uint256"
        }
      ],
      "name": "totalSupply",
      "outputs": [
        {
          "internalType": "uint256",
          "name": "",
          "type": "uint256"
        }
      ],
      "stateMutability": "view",
      "type": "function"
    },
    {
      "inputs": [
        {
          "internalType": "address",
          "name": "newOwner",
          "type": "address"
        }
      ],
      "name": "transferOwnership",
      "outputs": [],
      "stateMutability": "nonpayable",
      "type": "function"
    },
    {
      "inputs": [
        {
          "internalType": "uint256",
          "name": "tokenId",
          "type": "uint256"
        }
      ],
      "name": "uri",
      "outputs": [
        {
          "internalType": "string",
          "name": "",
          "type": "string"
        }
      ],
      "stateMutability": "view",
      "type": "function"
    },
    {
      "inputs": [],
      "name": "withdrawFunds",
      "outputs": [],
      "stateMutability": "nonpayable",
      "type": "function"
    }
  ],
  "bytecode": "0x60e0604052602260808181529062002b6960a03980516200002991600d9160209091019062000362565b503480156200003757600080fd5b5060405162002b8b38038062002b8b8339810160408190526200005a916200058b565b83620000668162000277565b50620000723362000290565b600160055586516200008c9060069060208a019062000362565b508551620000a290600790602089019062000362565b50600a8590558351620000bd90600d90602087019062000362565b506009829055600e80546001600160a01b0319166001600160a01b0383161790558251620001415760405162461bcd60e51b815260206004820152602660248201527f4552524f523a205f6d6178546f6b656e73537570706c7920697320656d70747960448201526520617272617960d01b60648201526084015b60405180910390fd5b6000805b8451811015620001c1578481815181106200016457620001646200066a565b60200260200101518262000179919062000696565b91508481815181106200019057620001906200066a565b6020908102919091018101516000838152600c90925260409091205580620001b881620006b1565b91505062000145565b508086146200024b5760405162461bcd60e51b815260206004820152604960248201527f4552524f523a2073756d6f66206d617820737570706c79206f6620616c6c207460448201527f6f6b656e732073686f756c6420626520657175616c20746f206d617820737570606482015268706c79206f6620534360b81b608482015260a40162000138565b600184516200025b9190620006cf565b6008556200026933620002e2565b505050505050505062000726565b80516200028c90600290602084019062000362565b5050565b600480546001600160a01b038381166001600160a01b0319831681179093556040519116919082907f8be0079c531659141344cd1fd0a4f28419497f9722a3daafe3b4186f6b6457e090600090a35050565b6004546001600160a01b031633146200033e5760405162461bcd60e51b815260206004820181905260248201527f4f776e61626c653a2063616c6c6572206973206e6f7420746865206f776e6572604482015260640162000138565b6001600160a01b03166000908152600b60205260409020805460ff19166001179055565b8280546200037090620006e9565b90600052602060002090601f016020900481019282620003945760008555620003df565b82601f10620003af57805160ff1916838001178555620003df565b82800160010185558215620003df579182015b82811115620003df578251825591602001919060010190620003c2565b50620003ed929150620003f1565b5090565b5b80821115620003ed5760008155600101620003f2565b634e487b7160e01b600052604160045260246000fd5b604051601f8201601f191681016001600160401b038111828210171562000449576200044962000408565b604052919050565b600082601f8301126200046357600080fd5b81516001600160401b038111156200047f576200047f62000408565b602062000495601f8301601f191682016200041e565b8281528582848701011115620004aa57600080fd5b60005b83811015620004ca578581018301518282018401528201620004ad565b83811115620004dc5760008385840101525b5095945050505050565b600082601f830112620004f857600080fd5b815160206001600160401b0382111562000516576200051662000408565b8160051b620005278282016200041e565b92835284810182019282810190878511156200054257600080fd5b83870192505b84831015620005635782518252918301919083019062000548565b979650505050505050565b80516001600160a01b03811681146200058657600080fd5b919050565b600080600080600080600060e0888a031215620005a757600080fd5b87516001600160401b0380821115620005bf57600080fd5b620005cd8b838c0162000451565b985060208a0151915080821115620005e457600080fd5b620005f28b838c0162000451565b975060408a0151965060608a01519150808211156200061057600080fd5b6200061e8b838c0162000451565b955060808a01519150808211156200063557600080fd5b50620006448a828b01620004e6565b93505060a088015191506200065c60c089016200056e565b905092959891949750929550565b634e487b7160e01b600052603260045260246000fd5b634e487b7160e01b600052601160045260246000fd5b60008219821115620006ac57620006ac62000680565b500190565b6000600019821415620006c857620006c862000680565b5060010190565b600082821015620006e457620006e462000680565b500390565b600181811c90821680620006fe57607f821691505b602082108114156200072057634e487b7160e01b600052602260045260246000fd5b50919050565b61243380620007366000396000f3fe60806040526004361061019b5760003560e01c8063715018a6116100ec578063a22cb4651161008a578063df727d3b11610064578063df727d3b146104a2578063e985e9c5146104c2578063f242432a1461050b578063f2fde38b1461052b57600080fd5b8063a22cb4651461043f578063bd85b0391461045f578063d5abeb011461048c57600080fd5b806391ba317a116100c657806391ba317a146103e157806395d89b41146103f7578063983b2d561461040c578063a0dfe9d61461042c57600080fd5b8063715018a61461037a5780638da5cb5b1461038f57806391b7f5ed146103c157600080fd5b80631008d269116101595780633092afd5116101335780633092afd5146102e95780634e1273f4146103095780634f558e7914610336578063714c53981461036557600080fd5b80631008d2691461028757806324600fc3146102b45780632eb2c2d6146102c957600080fd5b8062fdd58e146101a057806301ffc9a7146101d357806302fe53051461020357806306fdde0314610225578063098f9cf3146102475780630e89341c14610267575b600080fd5b3480156101ac57600080fd5b506101c06101bb3660046119ca565b61054b565b6040519081526020015b60405180910390f35b3480156101df57600080fd5b506101f36101ee366004611a0a565b6105e2565b60405190151581526020016101ca565b34801561020f57600080fd5b5061022361021e366004611acf565b610634565b005b34801561023157600080fd5b5061023a61067e565b6040516101ca9190611b74565b34801561025357600080fd5b50610223610262366004611b87565b61070c565b34801561027357600080fd5b5061023a610282366004611ba2565b610758565b34801561029357600080fd5b506101c06102a2366004611ba2565b600c6020526000908152604090205481565b3480156102c057600080fd5b506102236107c9565b3480156102d557600080fd5b506102236102e4366004611c70565b6108de565b3480156102f557600080fd5b50610223610304366004611b87565b610975565b34801561031557600080fd5b50610329610324366004611d1a565b6109c0565b6040516101ca9190611e20565b34801561034257600080fd5b506101f3610351366004611ba2565b600090815260036020526040902054151590565b34801561037157600080fd5b5061023a610aea565b34801561038657600080fd5b50610223610b7c565b34801561039b57600080fd5b506004546001600160a01b03165b6040516001600160a01b0390911681526020016101ca565b3480156103cd57600080fd5b506102236103dc366004611ba2565b610bb2565b3480156103ed57600080fd5b506101c060085481565b34801561040357600080fd5b5061023a610be1565b34801561041857600080fd5b50610223610427366004611b87565b610bee565b6101c061043a366004611e33565b610c3c565b34801561044b57600080fd5b5061022361045a366004611e66565b610dfc565b34801561046b57600080fd5b506101c061047a366004611ba2565b60009081526003602052604090205490565b34801561049857600080fd5b506101c0600a5481565b3480156104ae57600080fd5b50600e546103a9906001600160a01b031681565b3480156104ce57600080fd5b506101f36104dd366004611ea2565b6001600160a01b03918216600090815260016020908152604080832093909416825291909152205460ff1690565b34801561051757600080fd5b50610223610526366004611ed5565b610e0b565b34801561053757600080fd5b50610223610546366004611b87565b610e92565b60006001600160a01b0383166105bc5760405162461bcd60e51b815260206004820152602b60248201527f455243313135353a2062616c616e636520717565727920666f7220746865207a60448201526a65726f206164647265737360a81b60648201526084015b60405180910390fd5b506000908152602081815260408083206001600160a01b03949094168352929052205490565b60006001600160e01b03198216636cdb3d1360e11b148061061357506001600160e01b031982166303a24d0760e21b145b8061062e57506301ffc9a760e01b6001600160e01b03198316145b92915050565b6004546001600160a01b0316331461065e5760405162461bcd60e51b81526004016105b390611f3a565b805161067190600d90602084019061191a565b5061067b81610f2a565b50565b6006805461068b90611f6f565b80601f01602080910402602001604051908101604052809291908181526020018280546106b790611f6f565b80156107045780601f106106d957610100808354040283529160200191610704565b820191906000526020600020905b8154815290600101906020018083116106e757829003601f168201915b505050505081565b600e546001600160a01b031633146107365760405162461bcd60e51b81526004016105b390611faa565b600e80546001600160a01b0319166001600160a01b0392909216919091179055565b6060600854821161079557600d61076e83610f3d565b60405160200161077f92919061200d565b6040516020818303038152906040529050919050565b505060408051808201909152601381527211548e88125b9d985b1a59081d1bdad95b9259606a1b602082015290565b919050565b6002600554141561081c5760405162461bcd60e51b815260206004820152601f60248201527f5265656e7472616e637947756172643a207265656e7472616e742063616c6c0060448201526064016105b3565b6002600555600e546001600160a01b0316331461084b5760405162461bcd60e51b81526004016105b390611faa565b604051600090339047908381818185875af1925050503d806000811461088d576040519150601f19603f3d011682016040523d82523d6000602084013e610892565b606091505b50509050806108d65760405162461bcd60e51b815260206004820152601060248201526f2a3930b739b332b9103330b4b632b21760811b60448201526064016105b3565b506001600555565b6001600160a01b0385163314806108fa57506108fa85336104dd565b6109615760405162461bcd60e51b815260206004820152603260248201527f455243313135353a207472616e736665722063616c6c6572206973206e6f74206044820152711bdddb995c881b9bdc88185c1c1c9bdd995960721b60648201526084016105b3565b61096e8585858585611043565b5050505050565b6004546001600160a01b0316331461099f5760405162461bcd60e51b81526004016105b390611f3a565b6001600160a01b03166000908152600b60205260409020805460ff19169055565b60608151835114610a255760405162461bcd60e51b815260206004820152602960248201527f455243313135353a206163636f756e747320616e6420696473206c656e677468604482015268040dad2e6dac2e8c6d60bb1b60648201526084016105b3565b6000835167ffffffffffffffff811115610a4157610a41611a2e565b604051908082528060200260200182016040528015610a6a578160200160208202803683370190505b50905060005b8451811015610ae257610ab5858281518110610a8e57610a8e6120c8565b6020026020010151858381518110610aa857610aa86120c8565b602002602001015161054b565b828281518110610ac757610ac76120c8565b6020908102919091010152610adb816120f4565b9050610a70565b509392505050565b6060600d8054610af990611f6f565b80601f0160208091040260200160405190810160405280929190818152602001828054610b2590611f6f565b8015610b725780601f10610b4757610100808354040283529160200191610b72565b820191906000526020600020905b815481529060010190602001808311610b5557829003601f168201915b5050505050905090565b6004546001600160a01b03163314610ba65760405162461bcd60e51b81526004016105b390611f3a565b610bb0600061122e565b565b6004546001600160a01b03163314610bdc5760405162461bcd60e51b81526004016105b390611f3a565b600955565b6007805461068b90611f6f565b6004546001600160a01b03163314610c185760405162461bcd60e51b81526004016105b390611f3a565b6001600160a01b03166000908152600b60205260409020805460ff19166001179055565b600060026005541415610c915760405162461bcd60e51b815260206004820152601f60248201527f5265656e7472616e637947756172643a207265656e7472616e742063616c6c0060448201526064016105b3565b6002600555600954610ca490839061210f565b341015610cf35760405162461bcd60e51b815260206004820152601f60248201527f496e636f7272656374204e465420707269636520616d6f756e742073656e740060448201526064016105b3565b6000838152600c6020908152604080832054600390925290912054610d18908461212e565b1115610d7b5760405162461bcd60e51b815260206004820152602c60248201527f43616e2774206d696e74206d6f7265207468616e206d617820737570706c792060448201526b37b3103a3432903a37b5b2b760a11b60648201526084016105b3565b60008211610dd55760405162461bcd60e51b815260206004820152602160248201527f6e6674636f756e742073686f756c642062652067726561746572207468616e206044820152600360fc1b60648201526084016105b3565b610df084848460405180602001604052806000815250611280565b50506001600555919050565b610e07338383611390565b5050565b6001600160a01b038516331480610e275750610e2785336104dd565b610e855760405162461bcd60e51b815260206004820152602960248201527f455243313135353a2063616c6c6572206973206e6f74206f776e6572206e6f7260448201526808185c1c1c9bdd995960ba1b60648201526084016105b3565b61096e8585858585611471565b6004546001600160a01b03163314610ebc5760405162461bcd60e51b81526004016105b390611f3a565b6001600160a01b038116610f215760405162461bcd60e51b815260206004820152602660248201527f4f776e61626c653a206e6577206f776e657220697320746865207a65726f206160448201526564647265737360d01b60648201526084016105b3565b61067b8161122e565b8051610e0790600290602084019061191a565b606081610f615750506040805180820190915260018152600360fc1b602082015290565b8160005b8115610f8b5780610f75816120f4565b9150610f849050600a8361215c565b9150610f65565b60008167ffffffffffffffff811115610fa657610fa6611a2e565b6040519080825280601f01601f191660200182016040528015610fd0576020820181803683370190505b5090505b841561103b57610fe5600183612170565b9150610ff2600a86612187565b610ffd90603061212e565b60f81b818381518110611012576110126120c8565b60200101906001600160f81b031916908160001a905350611034600a8661215c565b9450610fd4565b949350505050565b81518351146110a55760405162461bcd60e51b815260206004820152602860248201527f455243313135353a2069647320616e6420616d6f756e7473206c656e677468206044820152670dad2e6dac2e8c6d60c31b60648201526084016105b3565b6001600160a01b0384166110cb5760405162461bcd60e51b81526004016105b39061219b565b336110da81878787878761158e565b60005b84518110156111c05760008582815181106110fa576110fa6120c8565b602002602001015190506000858381518110611118576111186120c8565b602090810291909101810151600084815280835260408082206001600160a01b038e1683529093529190912054909150818110156111685760405162461bcd60e51b81526004016105b3906121e0565b6000838152602081815260408083206001600160a01b038e8116855292528083208585039055908b168252812080548492906111a590849061212e565b92505081905550505050806111b9906120f4565b90506110dd565b50846001600160a01b0316866001600160a01b0316826001600160a01b03167f4a39dc06d4c0dbc64b70af90fd698a233a518aa5d07e595d983b8c0526c8f7fb878760405161121092919061222a565b60405180910390a461122681878787878761169a565b505050505050565b600480546001600160a01b038381166001600160a01b0319831681179093556040519116919082907f8be0079c531659141344cd1fd0a4f28419497f9722a3daafe3b4186f6b6457e090600090a35050565b6001600160a01b0384166112e05760405162461bcd60e51b815260206004820152602160248201527f455243313135353a206d696e7420746f20746865207a65726f206164647265736044820152607360f81b60648201526084016105b3565b33611300816000876112f188611805565b6112fa88611805565b8761158e565b6000848152602081815260408083206001600160a01b03891684529091528120805485929061133090849061212e565b909155505060408051858152602081018590526001600160a01b0380881692600092918516917fc3d58168c5ae7397731d063d5bbf3d657854427343f4c083240f7aacaa2d0f62910160405180910390a461096e81600087878787611850565b816001600160a01b0316836001600160a01b031614156114045760405162461bcd60e51b815260206004820152602960248201527f455243313135353a2073657474696e6720617070726f76616c20737461747573604482015268103337b91039b2b63360b91b60648201526084016105b3565b6001600160a01b03838116600081815260016020908152604080832094871680845294825291829020805460ff191686151590811790915591519182527f17307eab39ab6107e8899845ad3d59bd9653f200f220920489ca2b5937696c31910160405180910390a3505050565b6001600160a01b0384166114975760405162461bcd60e51b81526004016105b39061219b565b336114a78187876112f188611805565b6000848152602081815260408083206001600160a01b038a168452909152902054838110156114e85760405162461bcd60e51b81526004016105b3906121e0565b6000858152602081815260408083206001600160a01b038b811685529252808320878503905590881682528120805486929061152590849061212e565b909155505060408051868152602081018690526001600160a01b03808916928a821692918616917fc3d58168c5ae7397731d063d5bbf3d657854427343f4c083240f7aacaa2d0f62910160405180910390a4611585828888888888611850565b50505050505050565b6001600160a01b0385166116155760005b8351811015611613578281815181106115ba576115ba6120c8565b6020026020010151600360008684815181106115d8576115d86120c8565b6020026020010151815260200190815260200160002060008282546115fd919061212e565b9091555061160c9050816120f4565b905061159f565b505b6001600160a01b0384166112265760005b835181101561158557828181518110611641576116416120c8565b60200260200101516003600086848151811061165f5761165f6120c8565b6020026020010151815260200190815260200160002060008282546116849190612170565b909155506116939050816120f4565b9050611626565b6001600160a01b0384163b156112265760405163bc197c8160e01b81526001600160a01b0385169063bc197c81906116de908990899088908890889060040161224f565b602060405180830381600087803b1580156116f857600080fd5b505af1925050508015611728575060408051601f3d908101601f19168201909252611725918101906122ad565b60015b6117d5576117346122ca565b806308c379a0141561176e57506117496122e6565b806117545750611770565b8060405162461bcd60e51b81526004016105b39190611b74565b505b60405162461bcd60e51b815260206004820152603460248201527f455243313135353a207472616e7366657220746f206e6f6e20455243313135356044820152732932b1b2b4bb32b91034b6b83632b6b2b73a32b960611b60648201526084016105b3565b6001600160e01b0319811663bc197c8160e01b146115855760405162461bcd60e51b81526004016105b390612370565b6040805160018082528183019092526060916000919060208083019080368337019050509050828160008151811061183f5761183f6120c8565b602090810291909101015292915050565b6001600160a01b0384163b156112265760405163f23a6e6160e01b81526001600160a01b0385169063f23a6e619061189490899089908890889088906004016123b8565b602060405180830381600087803b1580156118ae57600080fd5b505af19250505080156118de575060408051601f3d908101601f191682019092526118db918101906122ad565b60015b6118ea576117346122ca565b6001600160e01b0319811663f23a6e6160e01b146115855760405162461bcd60e51b81526004016105b390612370565b82805461192690611f6f565b90600052602060002090601f016020900481019282611948576000855561198e565b82601f1061196157805160ff191683800117855561198e565b8280016001018555821561198e579182015b8281111561198e578251825591602001919060010190611973565b5061199a92915061199e565b5090565b5b8082111561199a576000815560010161199f565b80356001600160a01b03811681146107c457600080fd5b600080604083850312156119dd57600080fd5b6119e6836119b3565b946020939093013593505050565b6001600160e01b03198116811461067b57600080fd5b600060208284031215611a1c57600080fd5b8135611a27816119f4565b9392505050565b634e487b7160e01b600052604160045260246000fd5b601f8201601f1916810167ffffffffffffffff81118282101715611a6a57611a6a611a2e565b6040525050565b600067ffffffffffffffff831115611a8b57611a8b611a2e565b604051611aa2601f8501601f191660200182611a44565b809150838152848484011115611ab757600080fd5b83836020830137600060208583010152509392505050565b600060208284031215611ae157600080fd5b813567ffffffffffffffff811115611af857600080fd5b8201601f81018413611b0957600080fd5b61103b84823560208401611a71565b60005b83811015611b33578181015183820152602001611b1b565b83811115611b42576000848401525b50505050565b60008151808452611b60816020860160208601611b18565b601f01601f19169290920160200192915050565b602081526000611a276020830184611b48565b600060208284031215611b9957600080fd5b611a27826119b3565b600060208284031215611bb457600080fd5b5035919050565b600067ffffffffffffffff821115611bd557611bd5611a2e565b5060051b60200190565b600082601f830112611bf057600080fd5b81356020611bfd82611bbb565b604051611c0a8282611a44565b83815260059390931b8501820192828101915086841115611c2a57600080fd5b8286015b84811015611c455780358352918301918301611c2e565b509695505050505050565b600082601f830112611c6157600080fd5b611a2783833560208501611a71565b600080600080600060a08688031215611c8857600080fd5b611c91866119b3565b9450611c9f602087016119b3565b9350604086013567ffffffffffffffff80821115611cbc57600080fd5b611cc889838a01611bdf565b94506060880135915080821115611cde57600080fd5b611cea89838a01611bdf565b93506080880135915080821115611d0057600080fd5b50611d0d88828901611c50565b9150509295509295909350565b60008060408385031215611d2d57600080fd5b823567ffffffffffffffff80821115611d4557600080fd5b818501915085601f830112611d5957600080fd5b81356020611d6682611bbb565b604051611d738282611a44565b83815260059390931b8501820192828101915089841115611d9357600080fd5b948201945b83861015611db857611da9866119b3565b82529482019490820190611d98565b96505086013592505080821115611dce57600080fd5b50611ddb85828601611bdf565b9150509250929050565b600081518084526020808501945080840160005b83811015611e1557815187529582019590820190600101611df9565b509495945050505050565b602081526000611a276020830184611de5565b600080600060608486031215611e4857600080fd5b611e51846119b3565b95602085013595506040909401359392505050565b60008060408385031215611e7957600080fd5b611e82836119b3565b915060208301358015158114611e9757600080fd5b809150509250929050565b60008060408385031215611eb557600080fd5b611ebe836119b3565b9150611ecc602084016119b3565b90509250929050565b600080600080600060a08688031215611eed57600080fd5b611ef6866119b3565b9450611f04602087016119b3565b93506040860135925060608601359150608086013567ffffffffffffffff811115611f2e57600080fd5b611d0d88828901611c50565b6020808252818101527f4f776e61626c653a2063616c6c6572206973206e6f7420746865206f776e6572604082015260600190565b600181811c90821680611f8357607f821691505b60208210811415611fa457634e487b7160e01b600052602260045260246000fd5b50919050565b60208082526027908201527f4f776e657220636f6c6c656374696f6e206f776e65722063616e206368616e67604082015266329037bbb732b960c91b606082015260800190565b60008151612003818560208601611b18565b9290920192915050565b600080845481600182811c91508083168061202957607f831692505b602080841082141561204957634e487b7160e01b86526022600452602486fd5b81801561205d576001811461206e5761209b565b60ff1986168952848901965061209b565b60008b81526020902060005b868110156120935781548b82015290850190830161207a565b505084890196505b5050505050506120bf6120ae8286611ff1565b64173539b7b760d91b815260050190565b95945050505050565b634e487b7160e01b600052603260045260246000fd5b634e487b7160e01b600052601160045260246000fd5b6000600019821415612108576121086120de565b5060010190565b6000816000190483118215151615612129576121296120de565b500290565b60008219821115612141576121416120de565b500190565b634e487b7160e01b600052601260045260246000fd5b60008261216b5761216b612146565b500490565b600082821015612182576121826120de565b500390565b60008261219657612196612146565b500690565b60208082526025908201527f455243313135353a207472616e7366657220746f20746865207a65726f206164604082015264647265737360d81b606082015260800190565b6020808252602a908201527f455243313135353a20696e73756666696369656e742062616c616e636520666f60408201526939103a3930b739b332b960b11b606082015260800190565b60408152600061223d6040830185611de5565b82810360208401526120bf8185611de5565b6001600160a01b0386811682528516602082015260a06040820181905260009061227b90830186611de5565b828103606084015261228d8186611de5565b905082810360808401526122a18185611b48565b98975050505050505050565b6000602082840312156122bf57600080fd5b8151611a27816119f4565b600060033d11156122e35760046000803e5060005160e01c5b90565b600060443d10156122f45790565b6040516003193d81016004833e81513d67ffffffffffffffff816024840111818411171561232457505050505090565b828501915081518181111561233c5750505050505090565b843d87010160208285010111156123565750505050505090565b61236560208286010187611a44565b509095945050505050565b60208082526028908201527f455243313135353a204552433131353552656365697665722072656a656374656040820152676420746f6b656e7360c01b606082015260800190565b6001600160a01b03868116825285166020820152604081018490526060810183905260a0608082018190526000906123f290830184611b48565b97965050505050505056fea26469706673582212201219303d503e239c6afbd1eb2aef5fbd0025a6d7ab5c4f7a93ed9e476a20a56164736f6c6343000809003368747470733a2f2f676174657761792e70696e6174612e636c6f75642f697066732f",
  "linkReferences": {},
  "deployedLinkReferences": {}
}