{
  "_format": "hh-sol-artifact-1",
  "contractName": "ERC1155GeneratedSmartContract",
  "sourceName": "contracts/ERC1155GeneratedSmartContract.sol",
  "abi": [
    {
      "inputs": [
        {
          "internalType": "string",
          "name": "_name",
          "type": "string"
        },
        {
          "internalType": "string",
          "name": "_symbol",
          "type": "string"
        },
        {
          "internalType": "uint256",
          "name": "_maxSupply",
          "type": "uint256"
        },
        {
          "internalType": "string",
          "name": "_uri",
          "type": "string"
        },
        {
          "internalType": "bool",
          "name": "_isRevealed",
          "type": "bool"
        },
        {
          "internalType": "string",
          "name": "_unRevealedUri",
          "type": "string"
        },
        {
          "internalType": "uint256",
          "name": "_price",
          "type": "uint256"
        },
        {
          "internalType": "address",
          "name": "_collectionOwner",
          "type": "address"
        }
      ],
      "stateMutability": "nonpayable",
      "type": "constructor"
    },
    {
      "anonymous": false,
      "inputs": [
        {
          "indexed": true,
          "internalType": "address",
          "name": "account",
          "type": "address"
        },
        {
          "indexed": true,
          "internalType": "address",
          "name": "operator",
          "type": "address"
        },
        {
          "indexed": false,
          "internalType": "bool",
          "name": "approved",
          "type": "bool"
        }
      ],
      "name": "ApprovalForAll",
      "type": "event"
    },
    {
      "anonymous": false,
      "inputs": [
        {
          "indexed": true,
          "internalType": "address",
          "name": "previousOwner",
          "type": "address"
        },
        {
          "indexed": true,
          "internalType": "address",
          "name": "newOwner",
          "type": "address"
        }
      ],
      "name": "OwnershipTransferred",
      "type": "event"
    },
    {
      "anonymous": false,
      "inputs": [
        {
          "indexed": true,
          "internalType": "address",
          "name": "operator",
          "type": "address"
        },
        {
          "indexed": true,
          "internalType": "address",
          "name": "from",
          "type": "address"
        },
        {
          "indexed": true,
          "internalType": "address",
          "name": "to",
          "type": "address"
        },
        {
          "indexed": false,
          "internalType": "uint256[]",
          "name": "ids",
          "type": "uint256[]"
        },
        {
          "indexed": false,
          "internalType": "uint256[]",
          "name": "values",
          "type": "uint256[]"
        }
      ],
      "name": "TransferBatch",
      "type": "event"
    },
    {
      "anonymous": false,
      "inputs": [
        {
          "indexed": true,
          "internalType": "address",
          "name": "operator",
          "type": "address"
        },
        {
          "indexed": true,
          "internalType": "address",
          "name": "from",
          "type": "address"
        },
        {
          "indexed": true,
          "internalType": "address",
          "name": "to",
          "type": "address"
        },
        {
          "indexed": false,
          "internalType": "uint256",
          "name": "id",
          "type": "uint256"
        },
        {
          "indexed": false,
          "internalType": "uint256",
          "name": "value",
          "type": "uint256"
        }
      ],
      "name": "TransferSingle",
      "type": "event"
    },
    {
      "anonymous": false,
      "inputs": [
        {
          "indexed": false,
          "internalType": "string",
          "name": "value",
          "type": "string"
        },
        {
          "indexed": true,
          "internalType": "uint256",
          "name": "id",
          "type": "uint256"
        }
      ],
      "name": "URI",
      "type": "event"
    },
    {
      "inputs": [
        {
          "internalType": "address",
          "name": "_account",
          "type": "address"
        }
      ],
      "name": "addMinter",
      "outputs": [],
      "stateMutability": "nonpayable",
      "type": "function"
    },
    {
      "inputs": [
        {
          "internalType": "address",
          "name": "account",
          "type": "address"
        },
        {
          "internalType": "uint256",
          "name": "id",
          "type": "uint256"
        }
      ],
      "name": "balanceOf",
      "outputs": [
        {
          "internalType": "uint256",
          "name": "",
          "type": "uint256"
        }
      ],
      "stateMutability": "view",
      "type": "function"
    },
    {
      "inputs": [
        {
          "internalType": "address[]",
          "name": "accounts",
          "type": "address[]"
        },
        {
          "internalType": "uint256[]",
          "name": "ids",
          "type": "uint256[]"
        }
      ],
      "name": "balanceOfBatch",
      "outputs": [
        {
          "internalType": "uint256[]",
          "name": "",
          "type": "uint256[]"
        }
      ],
      "stateMutability": "view",
      "type": "function"
    },
    {
      "inputs": [],
      "name": "collectionOwner",
      "outputs": [
        {
          "internalType": "address",
          "name": "",
          "type": "address"
        }
      ],
      "stateMutability": "view",
      "type": "function"
    },
    {
      "inputs": [
        {
          "internalType": "address",
          "name": "account",
          "type": "address"
        },
        {
          "internalType": "address",
          "name": "operator",
          "type": "address"
        }
      ],
      "name": "isApprovedForAll",
      "outputs": [
        {
          "internalType": "bool",
          "name": "",
          "type": "bool"
        }
      ],
      "stateMutability": "view",
      "type": "function"
    },
    {
      "inputs": [],
      "name": "isRevealed",
      "outputs": [
        {
          "internalType": "bool",
          "name": "",
          "type": "bool"
        }
      ],
      "stateMutability": "view",
      "type": "function"
    },
    {
      "inputs": [],
      "name": "maxSupply",
      "outputs": [
        {
          "internalType": "uint256",
          "name": "",
          "type": "uint256"
        }
      ],
      "stateMutability": "view",
      "type": "function"
    },
    {
      "inputs": [
        {
          "internalType": "address",
          "name": "tokenOwner",
          "type": "address"
        }
      ],
      "name": "mint",
      "outputs": [
        {
          "internalType": "uint256",
          "name": "",
          "type": "uint256"
        }
      ],
      "stateMutability": "payable",
      "type": "function"
    },
    {
      "inputs": [
        {
          "internalType": "address",
          "name": "tokenOwner",
          "type": "address"
        },
        {
          "internalType": "uint256",
          "name": "count",
          "type": "uint256"
        }
      ],
      "name": "mintWithClones",
      "outputs": [
        {
          "internalType": "uint256",
          "name": "",
          "type": "uint256"
        }
      ],
      "stateMutability": "payable",
      "type": "function"
    },
    {
      "inputs": [],
      "name": "name",
      "outputs": [
        {
          "internalType": "string",
          "name": "",
          "type": "string"
        }
      ],
      "stateMutability": "view",
      "type": "function"
    },
    {
      "inputs": [],
      "name": "owner",
      "outputs": [
        {
          "internalType": "address",
          "name": "",
          "type": "address"
        }
      ],
      "stateMutability": "view",
      "type": "function"
    },
    {
      "inputs": [
        {
          "internalType": "address",
          "name": "_account",
          "type": "address"
        }
      ],
      "name": "removeMinter",
      "outputs": [],
      "stateMutability": "nonpayable",
      "type": "function"
    },
    {
      "inputs": [],
      "name": "renounceOwnership",
      "outputs": [],
      "stateMutability": "nonpayable",
      "type": "function"
    },
    {
      "inputs": [
        {
          "internalType": "address",
          "name": "from",
          "type": "address"
        },
        {
          "internalType": "address",
          "name": "to",
          "type": "address"
        },
        {
          "internalType": "uint256[]",
          "name": "ids",
          "type": "uint256[]"
        },
        {
          "internalType": "uint256[]",
          "name": "amounts",
          "type": "uint256[]"
        },
        {
          "internalType": "bytes",
          "name": "data",
          "type": "bytes"
        }
      ],
      "name": "safeBatchTransferFrom",
      "outputs": [],
      "stateMutability": "nonpayable",
      "type": "function"
    },
    {
      "inputs": [
        {
          "internalType": "address",
          "name": "from",
          "type": "address"
        },
        {
          "internalType": "address",
          "name": "to",
          "type": "address"
        },
        {
          "internalType": "uint256",
          "name": "id",
          "type": "uint256"
        },
        {
          "internalType": "uint256",
          "name": "amount",
          "type": "uint256"
        },
        {
          "internalType": "bytes",
          "name": "data",
          "type": "bytes"
        }
      ],
      "name": "safeTransferFrom",
      "outputs": [],
      "stateMutability": "nonpayable",
      "type": "function"
    },
    {
      "inputs": [
        {
          "internalType": "address",
          "name": "operator",
          "type": "address"
        },
        {
          "internalType": "bool",
          "name": "approved",
          "type": "bool"
        }
      ],
      "name": "setApprovalForAll",
      "outputs": [],
      "stateMutability": "nonpayable",
      "type": "function"
    },
    {
      "inputs": [
        {
          "internalType": "address",
          "name": "_collectionOwner",
          "type": "address"
        }
      ],
      "name": "setCollectionOwner",
      "outputs": [],
      "stateMutability": "nonpayable",
      "type": "function"
    },
    {
      "inputs": [
        {
          "internalType": "uint256",
          "name": "_price",
          "type": "uint256"
        }
      ],
      "name": "setPrice",
      "outputs": [],
      "stateMutability": "nonpayable",
      "type": "function"
    },
    {
      "inputs": [],
      "name": "setRevealed",
      "outputs": [],
      "stateMutability": "nonpayable",
      "type": "function"
    },
    {
      "inputs": [
        {
          "internalType": "string",
          "name": "newuri",
          "type": "string"
        }
      ],
      "name": "setURI",
      "outputs": [],
      "stateMutability": "nonpayable",
      "type": "function"
    },
    {
      "inputs": [
        {
          "internalType": "bytes4",
          "name": "interfaceId",
          "type": "bytes4"
        }
      ],
      "name": "supportsInterface",
      "outputs": [
        {
          "internalType": "bool",
          "name": "",
          "type": "bool"
        }
      ],
      "stateMutability": "view",
      "type": "function"
    },
    {
      "inputs": [],
      "name": "symbol",
      "outputs": [
        {
          "internalType": "string",
          "name": "",
          "type": "string"
        }
      ],
      "stateMutability": "view",
      "type": "function"
    },
    {
      "inputs": [],
      "name": "totalSupply",
      "outputs": [
        {
          "internalType": "uint256",
          "name": "",
          "type": "uint256"
        }
      ],
      "stateMutability": "view",
      "type": "function"
    },
    {
      "inputs": [
        {
          "internalType": "address",
          "name": "newOwner",
          "type": "address"
        }
      ],
      "name": "transferOwnership",
      "outputs": [],
      "stateMutability": "nonpayable",
      "type": "function"
    },
    {
      "inputs": [],
      "name": "unRevealedUri",
      "outputs": [
        {
          "internalType": "string",
          "name": "",
          "type": "string"
        }
      ],
      "stateMutability": "view",
      "type": "function"
    },
    {
      "inputs": [
        {
          "internalType": "uint256",
          "name": "tokenId",
          "type": "uint256"
        }
      ],
      "name": "uri",
      "outputs": [
        {
          "internalType": "string",
          "name": "",
          "type": "string"
        }
      ],
      "stateMutability": "view",
      "type": "function"
    },
    {
      "inputs": [],
      "name": "withdrawFunds",
      "outputs": [],
      "stateMutability": "nonpayable",
      "type": "function"
    }
  ],
  "bytecode": "0x60e060405260226080818152906200285f60a03980516200002991600b9160209091019062000209565b503480156200003757600080fd5b5060405162002881380380620028818339810160408190526200005a91620003aa565b8462000066816200011b565b50620000723362000134565b600160045587516200008c9060059060208b019062000209565b508651620000a29060069060208a019062000209565b5060098690558451620000bd90600b90602088019062000209565b50600c805460ff19168515151790558251620000e190600d90602086019062000209565b506008829055600e80546001600160a01b0319166001600160a01b0383161790556200010d3362000186565b5050505050505050620004d9565b80516200013090600290602084019062000209565b5050565b600380546001600160a01b038381166001600160a01b0319831681179093556040519116919082907f8be0079c531659141344cd1fd0a4f28419497f9722a3daafe3b4186f6b6457e090600090a35050565b6003546001600160a01b03163314620001e55760405162461bcd60e51b815260206004820181905260248201527f4f776e61626c653a2063616c6c6572206973206e6f7420746865206f776e6572604482015260640160405180910390fd5b6001600160a01b03166000908152600a60205260409020805460ff19166001179055565b82805462000217906200049c565b90600052602060002090601f0160209004810192826200023b576000855562000286565b82601f106200025657805160ff191683800117855562000286565b8280016001018555821562000286579182015b828111156200028657825182559160200191906001019062000269565b506200029492915062000298565b5090565b5b8082111562000294576000815560010162000299565b634e487b7160e01b600052604160045260246000fd5b600082601f830112620002d757600080fd5b81516001600160401b0380821115620002f457620002f4620002af565b604051601f8301601f19908116603f011681019082821181831017156200031f576200031f620002af565b816040528381526020925086838588010111156200033c57600080fd5b600091505b8382101562000360578582018301518183018401529082019062000341565b83821115620003725760008385830101525b9695505050505050565b805180151581146200038d57600080fd5b919050565b80516001600160a01b03811681146200038d57600080fd5b600080600080600080600080610100898b031215620003c857600080fd5b88516001600160401b0380821115620003e057600080fd5b620003ee8c838d01620002c5565b995060208b01519150808211156200040557600080fd5b620004138c838d01620002c5565b985060408b0151975060608b01519150808211156200043157600080fd5b6200043f8c838d01620002c5565b96506200044f60808c016200037c565b955060a08b01519150808211156200046657600080fd5b50620004758b828c01620002c5565b93505060c089015191506200048d60e08a0162000392565b90509295985092959890939650565b600181811c90821680620004b157607f821691505b60208210811415620004d357634e487b7160e01b600052602260045260246000fd5b50919050565b61237680620004e96000396000f3fe60806040526004361061019b5760003560e01c80636a627842116100ec578063a22cb4651161008a578063e985e9c511610064578063e985e9c514610467578063ec0ea45f146104b0578063f242432a146104c3578063f2fde38b146104e357600080fd5b8063a22cb46514610411578063d5abeb0114610431578063df727d3b1461044757600080fd5b806391b7f5ed116100c657806391b7f5ed146103a757806395d89b41146103c7578063983b2d56146103dc5780639c107c1d146103fc57600080fd5b80636a6278421461034d578063715018a6146103605780638da5cb5b1461037557600080fd5b806318160ddd116101595780633092afd5116101335780633092afd5146102d15780633bd64968146102f15780634e1273f41461030657806354214f691461033357600080fd5b806318160ddd1461028757806324600fc31461029c5780632eb2c2d6146102b157600080fd5b8062fdd58e146101a057806301ffc9a7146101d357806302fe53051461020357806306fdde0314610225578063098f9cf3146102475780630e89341c14610267575b600080fd5b3480156101ac57600080fd5b506101c06101bb3660046118e5565b610503565b6040519081526020015b60405180910390f35b3480156101df57600080fd5b506101f36101ee366004611925565b61059a565b60405190151581526020016101ca565b34801561020f57600080fd5b5061022361021e3660046119ea565b6105ec565b005b34801561023157600080fd5b5061023a610636565b6040516101ca9190611a8f565b34801561025357600080fd5b50610223610262366004611aa2565b6106c4565b34801561027357600080fd5b5061023a610282366004611abd565b610710565b34801561029357600080fd5b506101c0610801565b3480156102a857600080fd5b50610223610811565b3480156102bd57600080fd5b506102236102cc366004611b8b565b6108f6565b3480156102dd57600080fd5b506102236102ec366004611aa2565b61098d565b3480156102fd57600080fd5b506102236109d8565b34801561031257600080fd5b50610326610321366004611c35565b610a11565b6040516101ca9190611d3b565b34801561033f57600080fd5b50600c546101f39060ff1681565b6101c061035b366004611aa2565b610b3b565b34801561036c57600080fd5b50610223610c4d565b34801561038157600080fd5b506003546001600160a01b03165b6040516001600160a01b0390911681526020016101ca565b3480156103b357600080fd5b506102236103c2366004611abd565b610c83565b3480156103d357600080fd5b5061023a610cb2565b3480156103e857600080fd5b506102236103f7366004611aa2565b610cbf565b34801561040857600080fd5b5061023a610d0d565b34801561041d57600080fd5b5061022361042c366004611d4e565b610d1a565b34801561043d57600080fd5b506101c060095481565b34801561045357600080fd5b50600e5461038f906001600160a01b031681565b34801561047357600080fd5b506101f3610482366004611d8a565b6001600160a01b03918216600090815260016020908152604080832093909416825291909152205460ff1690565b6101c06104be3660046118e5565b610d29565b3480156104cf57600080fd5b506102236104de366004611dbd565b610e46565b3480156104ef57600080fd5b506102236104fe366004611aa2565b610ecd565b60006001600160a01b0383166105745760405162461bcd60e51b815260206004820152602b60248201527f455243313135353a2062616c616e636520717565727920666f7220746865207a60448201526a65726f206164647265737360a81b60648201526084015b60405180910390fd5b506000908152602081815260408083206001600160a01b03949094168352929052205490565b60006001600160e01b03198216636cdb3d1360e11b14806105cb57506001600160e01b031982166303a24d0760e21b145b806105e657506301ffc9a760e01b6001600160e01b03198316145b92915050565b6003546001600160a01b031633146106165760405162461bcd60e51b815260040161056b90611e22565b805161062990600b906020840190611835565b5061063381610f65565b50565b6005805461064390611e57565b80601f016020809104026020016040519081016040528092919081815260200182805461066f90611e57565b80156106bc5780601f10610691576101008083540402835291602001916106bc565b820191906000526020600020905b81548152906001019060200180831161069f57829003601f168201915b505050505081565b600e546001600160a01b031633146106ee5760405162461bcd60e51b815260040161056b90611e92565b600e80546001600160a01b0319166001600160a01b0392909216919091179055565b600c5460609060ff166107af57600d805461072a90611e57565b80601f016020809104026020016040519081016040528092919081815260200182805461075690611e57565b80156107a35780601f10610778576101008083540402835291602001916107a3565b820191906000526020600020905b81548152906001019060200180831161078657829003601f168201915b50505050509050919050565b60075482116107ea57600b6107c383610f78565b6040516020016107d4929190611f73565b6040516020818303038152906040529050919050565b600b6040516020016107d49190611fa8565b919050565b600061080c60075490565b905090565b600260045414156108345760405162461bcd60e51b815260040161056b90611fcb565b6002600455600e546001600160a01b031633146108635760405162461bcd60e51b815260040161056b90611e92565b604051600090339047908381818185875af1925050503d80600081146108a5576040519150601f19603f3d011682016040523d82523d6000602084013e6108aa565b606091505b50509050806108ee5760405162461bcd60e51b815260206004820152601060248201526f2a3930b739b332b9103330b4b632b21760811b604482015260640161056b565b506001600455565b6001600160a01b03851633148061091257506109128533610482565b6109795760405162461bcd60e51b815260206004820152603260248201527f455243313135353a207472616e736665722063616c6c6572206973206e6f74206044820152711bdddb995c881b9bdc88185c1c1c9bdd995960721b606482015260840161056b565b610986858585858561107e565b5050505050565b6003546001600160a01b031633146109b75760405162461bcd60e51b815260040161056b90611e22565b6001600160a01b03166000908152600a60205260409020805460ff19169055565b6003546001600160a01b03163314610a025760405162461bcd60e51b815260040161056b90611e22565b600c805460ff19166001179055565b60608151835114610a765760405162461bcd60e51b815260206004820152602960248201527f455243313135353a206163636f756e747320616e6420696473206c656e677468604482015268040dad2e6dac2e8c6d60bb1b606482015260840161056b565b6000835167ffffffffffffffff811115610a9257610a92611949565b604051908082528060200260200182016040528015610abb578160200160208202803683370190505b50905060005b8451811015610b3357610b06858281518110610adf57610adf612002565b6020026020010151858381518110610af957610af9612002565b6020026020010151610503565b828281518110610b1857610b18612002565b6020908102919091010152610b2c8161202e565b9050610ac1565b509392505050565b600060026004541415610b605760405162461bcd60e51b815260040161056b90611fcb565b6002600455610b73600780546001019055565b600854341015610bc55760405162461bcd60e51b815260206004820152601a60248201527f496e636f7272656374204e465420707269636520616d6f756e74000000000000604482015260640161056b565b6009546007541115610c195760405162461bcd60e51b815260206004820152601f60248201527f43616e2774206d696e74206d6f7265207468616e206d617820737570706c7900604482015260640161056b565b6000610c2460075490565b9050610c42838260016040518060200160405280600081525061125b565b600160045592915050565b6003546001600160a01b03163314610c775760405162461bcd60e51b815260040161056b90611e22565b610c816000611365565b565b6003546001600160a01b03163314610cad5760405162461bcd60e51b815260040161056b90611e22565b600855565b6006805461064390611e57565b6003546001600160a01b03163314610ce95760405162461bcd60e51b815260040161056b90611e22565b6001600160a01b03166000908152600a60205260409020805460ff19166001179055565b600d805461064390611e57565b610d253383836113b7565b5050565b600060026004541415610d4e5760405162461bcd60e51b815260040161056b90611fcb565b6002600455610d61600780546001019055565b81600854610d6f9190612049565b341015610dbe5760405162461bcd60e51b815260206004820152601a60248201527f496e636f7272656374204e465420707269636520616d6f756e74000000000000604482015260640161056b565b6009546007541115610e125760405162461bcd60e51b815260206004820152601f60248201527f43616e2774206d696e74206d6f7265207468616e206d617820737570706c7900604482015260640161056b565b6000610e1d60075490565b9050610e3a8482856040518060200160405280600081525061125b565b60016004559392505050565b6001600160a01b038516331480610e625750610e628533610482565b610ec05760405162461bcd60e51b815260206004820152602960248201527f455243313135353a2063616c6c6572206973206e6f74206f776e6572206e6f7260448201526808185c1c1c9bdd995960ba1b606482015260840161056b565b6109868585858585611498565b6003546001600160a01b03163314610ef75760405162461bcd60e51b815260040161056b90611e22565b6001600160a01b038116610f5c5760405162461bcd60e51b815260206004820152602660248201527f4f776e61626c653a206e6577206f776e657220697320746865207a65726f206160448201526564647265737360d01b606482015260840161056b565b61063381611365565b8051610d25906002906020840190611835565b606081610f9c5750506040805180820190915260018152600360fc1b602082015290565b8160005b8115610fc65780610fb08161202e565b9150610fbf9050600a8361207e565b9150610fa0565b60008167ffffffffffffffff811115610fe157610fe1611949565b6040519080825280601f01601f19166020018201604052801561100b576020820181803683370190505b5090505b841561107657611020600183612092565b915061102d600a866120a9565b6110389060306120bd565b60f81b81838151811061104d5761104d612002565b60200101906001600160f81b031916908160001a90535061106f600a8661207e565b945061100f565b949350505050565b81518351146110e05760405162461bcd60e51b815260206004820152602860248201527f455243313135353a2069647320616e6420616d6f756e7473206c656e677468206044820152670dad2e6dac2e8c6d60c31b606482015260840161056b565b6001600160a01b0384166111065760405162461bcd60e51b815260040161056b906120d5565b3360005b84518110156111ed57600085828151811061112757611127612002565b60200260200101519050600085838151811061114557611145612002565b602090810291909101810151600084815280835260408082206001600160a01b038e1683529093529190912054909150818110156111955760405162461bcd60e51b815260040161056b9061211a565b6000838152602081815260408083206001600160a01b038e8116855292528083208585039055908b168252812080548492906111d29084906120bd565b92505081905550505050806111e69061202e565b905061110a565b50846001600160a01b0316866001600160a01b0316826001600160a01b03167f4a39dc06d4c0dbc64b70af90fd698a233a518aa5d07e595d983b8c0526c8f7fb878760405161123d929190612164565b60405180910390a46112538187878787876115b5565b505050505050565b6001600160a01b0384166112bb5760405162461bcd60e51b815260206004820152602160248201527f455243313135353a206d696e7420746f20746865207a65726f206164647265736044820152607360f81b606482015260840161056b565b336112d5816000876112cc88611720565b61098688611720565b6000848152602081815260408083206001600160a01b0389168452909152812080548592906113059084906120bd565b909155505060408051858152602081018590526001600160a01b0380881692600092918516917fc3d58168c5ae7397731d063d5bbf3d657854427343f4c083240f7aacaa2d0f62910160405180910390a46109868160008787878761176b565b600380546001600160a01b038381166001600160a01b0319831681179093556040519116919082907f8be0079c531659141344cd1fd0a4f28419497f9722a3daafe3b4186f6b6457e090600090a35050565b816001600160a01b0316836001600160a01b0316141561142b5760405162461bcd60e51b815260206004820152602960248201527f455243313135353a2073657474696e6720617070726f76616c20737461747573604482015268103337b91039b2b63360b91b606482015260840161056b565b6001600160a01b03838116600081815260016020908152604080832094871680845294825291829020805460ff191686151590811790915591519182527f17307eab39ab6107e8899845ad3d59bd9653f200f220920489ca2b5937696c31910160405180910390a3505050565b6001600160a01b0384166114be5760405162461bcd60e51b815260040161056b906120d5565b336114ce8187876112cc88611720565b6000848152602081815260408083206001600160a01b038a1684529091529020548381101561150f5760405162461bcd60e51b815260040161056b9061211a565b6000858152602081815260408083206001600160a01b038b811685529252808320878503905590881682528120805486929061154c9084906120bd565b909155505060408051868152602081018690526001600160a01b03808916928a821692918616917fc3d58168c5ae7397731d063d5bbf3d657854427343f4c083240f7aacaa2d0f62910160405180910390a46115ac82888888888861176b565b50505050505050565b6001600160a01b0384163b156112535760405163bc197c8160e01b81526001600160a01b0385169063bc197c81906115f99089908990889088908890600401612192565b602060405180830381600087803b15801561161357600080fd5b505af1925050508015611643575060408051601f3d908101601f19168201909252611640918101906121f0565b60015b6116f05761164f61220d565b806308c379a014156116895750611664612229565b8061166f575061168b565b8060405162461bcd60e51b815260040161056b9190611a8f565b505b60405162461bcd60e51b815260206004820152603460248201527f455243313135353a207472616e7366657220746f206e6f6e20455243313135356044820152732932b1b2b4bb32b91034b6b83632b6b2b73a32b960611b606482015260840161056b565b6001600160e01b0319811663bc197c8160e01b146115ac5760405162461bcd60e51b815260040161056b906122b3565b6040805160018082528183019092526060916000919060208083019080368337019050509050828160008151811061175a5761175a612002565b602090810291909101015292915050565b6001600160a01b0384163b156112535760405163f23a6e6160e01b81526001600160a01b0385169063f23a6e61906117af90899089908890889088906004016122fb565b602060405180830381600087803b1580156117c957600080fd5b505af19250505080156117f9575060408051601f3d908101601f191682019092526117f6918101906121f0565b60015b6118055761164f61220d565b6001600160e01b0319811663f23a6e6160e01b146115ac5760405162461bcd60e51b815260040161056b906122b3565b82805461184190611e57565b90600052602060002090601f01602090048101928261186357600085556118a9565b82601f1061187c57805160ff19168380011785556118a9565b828001600101855582156118a9579182015b828111156118a957825182559160200191906001019061188e565b506118b59291506118b9565b5090565b5b808211156118b557600081556001016118ba565b80356001600160a01b03811681146107fc57600080fd5b600080604083850312156118f857600080fd5b611901836118ce565b946020939093013593505050565b6001600160e01b03198116811461063357600080fd5b60006020828403121561193757600080fd5b81356119428161190f565b9392505050565b634e487b7160e01b600052604160045260246000fd5b601f8201601f1916810167ffffffffffffffff8111828210171561198557611985611949565b6040525050565b600067ffffffffffffffff8311156119a6576119a6611949565b6040516119bd601f8501601f19166020018261195f565b8091508381528484840111156119d257600080fd5b83836020830137600060208583010152509392505050565b6000602082840312156119fc57600080fd5b813567ffffffffffffffff811115611a1357600080fd5b8201601f81018413611a2457600080fd5b6110768482356020840161198c565b60005b83811015611a4e578181015183820152602001611a36565b83811115611a5d576000848401525b50505050565b60008151808452611a7b816020860160208601611a33565b601f01601f19169290920160200192915050565b6020815260006119426020830184611a63565b600060208284031215611ab457600080fd5b611942826118ce565b600060208284031215611acf57600080fd5b5035919050565b600067ffffffffffffffff821115611af057611af0611949565b5060051b60200190565b600082601f830112611b0b57600080fd5b81356020611b1882611ad6565b604051611b25828261195f565b83815260059390931b8501820192828101915086841115611b4557600080fd5b8286015b84811015611b605780358352918301918301611b49565b509695505050505050565b600082601f830112611b7c57600080fd5b6119428383356020850161198c565b600080600080600060a08688031215611ba357600080fd5b611bac866118ce565b9450611bba602087016118ce565b9350604086013567ffffffffffffffff80821115611bd757600080fd5b611be389838a01611afa565b94506060880135915080821115611bf957600080fd5b611c0589838a01611afa565b93506080880135915080821115611c1b57600080fd5b50611c2888828901611b6b565b9150509295509295909350565b60008060408385031215611c4857600080fd5b823567ffffffffffffffff80821115611c6057600080fd5b818501915085601f830112611c7457600080fd5b81356020611c8182611ad6565b604051611c8e828261195f565b83815260059390931b8501820192828101915089841115611cae57600080fd5b948201945b83861015611cd357611cc4866118ce565b82529482019490820190611cb3565b96505086013592505080821115611ce957600080fd5b50611cf685828601611afa565b9150509250929050565b600081518084526020808501945080840160005b83811015611d3057815187529582019590820190600101611d14565b509495945050505050565b6020815260006119426020830184611d00565b60008060408385031215611d6157600080fd5b611d6a836118ce565b915060208301358015158114611d7f57600080fd5b809150509250929050565b60008060408385031215611d9d57600080fd5b611da6836118ce565b9150611db4602084016118ce565b90509250929050565b600080600080600060a08688031215611dd557600080fd5b611dde866118ce565b9450611dec602087016118ce565b93506040860135925060608601359150608086013567ffffffffffffffff811115611e1657600080fd5b611c2888828901611b6b565b6020808252818101527f4f776e61626c653a2063616c6c6572206973206e6f7420746865206f776e6572604082015260600190565b600181811c90821680611e6b57607f821691505b60208210811415611e8c57634e487b7160e01b600052602260045260246000fd5b50919050565b60208082526027908201527f4f776e657220636f6c6c656374696f6e206f776e65722063616e206368616e67604082015266329037bbb732b960c91b606082015260800190565b8054600090600181811c9080831680611ef357607f831692505b6020808410821415611f1557634e487b7160e01b600052602260045260246000fd5b818015611f295760018114611f3a57611f67565b60ff19861689528489019650611f67565b60008881526020902060005b86811015611f5f5781548b820152908501908301611f46565b505084890196505b50505050505092915050565b6000611f7f8285611ed9565b8351611f8f818360208801611a33565b64173539b7b760d91b9101908152600501949350505050565b6000611fb48284611ed9565b663737973539b7b760c91b81526007019392505050565b6020808252601f908201527f5265656e7472616e637947756172643a207265656e7472616e742063616c6c00604082015260600190565b634e487b7160e01b600052603260045260246000fd5b634e487b7160e01b600052601160045260246000fd5b600060001982141561204257612042612018565b5060010190565b600081600019048311821515161561206357612063612018565b500290565b634e487b7160e01b600052601260045260246000fd5b60008261208d5761208d612068565b500490565b6000828210156120a4576120a4612018565b500390565b6000826120b8576120b8612068565b500690565b600082198211156120d0576120d0612018565b500190565b60208082526025908201527f455243313135353a207472616e7366657220746f20746865207a65726f206164604082015264647265737360d81b606082015260800190565b6020808252602a908201527f455243313135353a20696e73756666696369656e742062616c616e636520666f60408201526939103a3930b739b332b960b11b606082015260800190565b6040815260006121776040830185611d00565b82810360208401526121898185611d00565b95945050505050565b6001600160a01b0386811682528516602082015260a0604082018190526000906121be90830186611d00565b82810360608401526121d08186611d00565b905082810360808401526121e48185611a63565b98975050505050505050565b60006020828403121561220257600080fd5b81516119428161190f565b600060033d11156122265760046000803e5060005160e01c5b90565b600060443d10156122375790565b6040516003193d81016004833e81513d67ffffffffffffffff816024840111818411171561226757505050505090565b828501915081518181111561227f5750505050505090565b843d87010160208285010111156122995750505050505090565b6122a86020828601018761195f565b509095945050505050565b60208082526028908201527f455243313135353a204552433131353552656365697665722072656a656374656040820152676420746f6b656e7360c01b606082015260800190565b6001600160a01b03868116825285166020820152604081018490526060810183905260a06080820181905260009061233590830184611a63565b97965050505050505056fea264697066735822122079ca7fb57e7786ecbd92eb10462744d9520d515689fe3dfa41fb8432fd6751e164736f6c6343000809003368747470733a2f2f676174657761792e70696e6174612e636c6f75642f697066732f",
  "linkReferences": {},
  "deployedLinkReferences": {}
}