{
  "_format": "hh-sol-artifact-1",
  "contractName": "ERC1155SmartContract",
  "sourceName": "contracts/ERC1155SmartContract.sol",
  "abi": [
    {
      "inputs": [
        {
          "internalType": "string",
          "name": "_name",
          "type": "string"
        },
        {
          "internalType": "string",
          "name": "_symbol",
          "type": "string"
        },
        {
          "internalType": "uint256",
          "name": "_maxSupply",
          "type": "uint256"
        },
        {
          "internalType": "string",
          "name": "_uri",
          "type": "string"
        },
        {
          "internalType": "uint256",
          "name": "_price",
          "type": "uint256"
        },
        {
          "internalType": "address",
          "name": "_collectionOwner",
          "type": "address"
        }
      ],
      "stateMutability": "nonpayable",
      "type": "constructor"
    },
    {
      "anonymous": false,
      "inputs": [
        {
          "indexed": true,
          "internalType": "address",
          "name": "account",
          "type": "address"
        },
        {
          "indexed": true,
          "internalType": "address",
          "name": "operator",
          "type": "address"
        },
        {
          "indexed": false,
          "internalType": "bool",
          "name": "approved",
          "type": "bool"
        }
      ],
      "name": "ApprovalForAll",
      "type": "event"
    },
    {
      "anonymous": false,
      "inputs": [
        {
          "indexed": true,
          "internalType": "address",
          "name": "previousOwner",
          "type": "address"
        },
        {
          "indexed": true,
          "internalType": "address",
          "name": "newOwner",
          "type": "address"
        }
      ],
      "name": "OwnershipTransferred",
      "type": "event"
    },
    {
      "anonymous": false,
      "inputs": [
        {
          "indexed": true,
          "internalType": "address",
          "name": "operator",
          "type": "address"
        },
        {
          "indexed": true,
          "internalType": "address",
          "name": "from",
          "type": "address"
        },
        {
          "indexed": true,
          "internalType": "address",
          "name": "to",
          "type": "address"
        },
        {
          "indexed": false,
          "internalType": "uint256[]",
          "name": "ids",
          "type": "uint256[]"
        },
        {
          "indexed": false,
          "internalType": "uint256[]",
          "name": "values",
          "type": "uint256[]"
        }
      ],
      "name": "TransferBatch",
      "type": "event"
    },
    {
      "anonymous": false,
      "inputs": [
        {
          "indexed": true,
          "internalType": "address",
          "name": "operator",
          "type": "address"
        },
        {
          "indexed": true,
          "internalType": "address",
          "name": "from",
          "type": "address"
        },
        {
          "indexed": true,
          "internalType": "address",
          "name": "to",
          "type": "address"
        },
        {
          "indexed": false,
          "internalType": "uint256",
          "name": "id",
          "type": "uint256"
        },
        {
          "indexed": false,
          "internalType": "uint256",
          "name": "value",
          "type": "uint256"
        }
      ],
      "name": "TransferSingle",
      "type": "event"
    },
    {
      "anonymous": false,
      "inputs": [
        {
          "indexed": false,
          "internalType": "string",
          "name": "value",
          "type": "string"
        },
        {
          "indexed": true,
          "internalType": "uint256",
          "name": "id",
          "type": "uint256"
        }
      ],
      "name": "URI",
      "type": "event"
    },
    {
      "inputs": [
        {
          "internalType": "address",
          "name": "_account",
          "type": "address"
        }
      ],
      "name": "addMinter",
      "outputs": [],
      "stateMutability": "nonpayable",
      "type": "function"
    },
    {
      "inputs": [
        {
          "internalType": "address",
          "name": "account",
          "type": "address"
        },
        {
          "internalType": "uint256",
          "name": "id",
          "type": "uint256"
        }
      ],
      "name": "balanceOf",
      "outputs": [
        {
          "internalType": "uint256",
          "name": "",
          "type": "uint256"
        }
      ],
      "stateMutability": "view",
      "type": "function"
    },
    {
      "inputs": [
        {
          "internalType": "address[]",
          "name": "accounts",
          "type": "address[]"
        },
        {
          "internalType": "uint256[]",
          "name": "ids",
          "type": "uint256[]"
        }
      ],
      "name": "balanceOfBatch",
      "outputs": [
        {
          "internalType": "uint256[]",
          "name": "",
          "type": "uint256[]"
        }
      ],
      "stateMutability": "view",
      "type": "function"
    },
    {
      "inputs": [],
      "name": "collectionOwner",
      "outputs": [
        {
          "internalType": "address",
          "name": "",
          "type": "address"
        }
      ],
      "stateMutability": "view",
      "type": "function"
    },
    {
      "inputs": [
        {
          "internalType": "address",
          "name": "account",
          "type": "address"
        },
        {
          "internalType": "address",
          "name": "operator",
          "type": "address"
        }
      ],
      "name": "isApprovedForAll",
      "outputs": [
        {
          "internalType": "bool",
          "name": "",
          "type": "bool"
        }
      ],
      "stateMutability": "view",
      "type": "function"
    },
    {
      "inputs": [],
      "name": "maxSupply",
      "outputs": [
        {
          "internalType": "uint256",
          "name": "",
          "type": "uint256"
        }
      ],
      "stateMutability": "view",
      "type": "function"
    },
    {
      "inputs": [
        {
          "internalType": "address",
          "name": "tokenOwner",
          "type": "address"
        }
      ],
      "name": "mint",
      "outputs": [
        {
          "internalType": "uint256",
          "name": "",
          "type": "uint256"
        }
      ],
      "stateMutability": "payable",
      "type": "function"
    },
    {
      "inputs": [
        {
          "internalType": "address",
          "name": "tokenOwner",
          "type": "address"
        },
        {
          "internalType": "uint256",
          "name": "count",
          "type": "uint256"
        }
      ],
      "name": "mintWithClones",
      "outputs": [
        {
          "internalType": "uint256",
          "name": "",
          "type": "uint256"
        }
      ],
      "stateMutability": "payable",
      "type": "function"
    },
    {
      "inputs": [],
      "name": "name",
      "outputs": [
        {
          "internalType": "string",
          "name": "",
          "type": "string"
        }
      ],
      "stateMutability": "view",
      "type": "function"
    },
    {
      "inputs": [],
      "name": "owner",
      "outputs": [
        {
          "internalType": "address",
          "name": "",
          "type": "address"
        }
      ],
      "stateMutability": "view",
      "type": "function"
    },
    {
      "inputs": [],
      "name": "price",
      "outputs": [
        {
          "internalType": "uint256",
          "name": "",
          "type": "uint256"
        }
      ],
      "stateMutability": "view",
      "type": "function"
    },
    {
      "inputs": [
        {
          "internalType": "address",
          "name": "_account",
          "type": "address"
        }
      ],
      "name": "removeMinter",
      "outputs": [],
      "stateMutability": "nonpayable",
      "type": "function"
    },
    {
      "inputs": [],
      "name": "renounceOwnership",
      "outputs": [],
      "stateMutability": "nonpayable",
      "type": "function"
    },
    {
      "inputs": [
        {
          "internalType": "address",
          "name": "from",
          "type": "address"
        },
        {
          "internalType": "address",
          "name": "to",
          "type": "address"
        },
        {
          "internalType": "uint256[]",
          "name": "ids",
          "type": "uint256[]"
        },
        {
          "internalType": "uint256[]",
          "name": "amounts",
          "type": "uint256[]"
        },
        {
          "internalType": "bytes",
          "name": "data",
          "type": "bytes"
        }
      ],
      "name": "safeBatchTransferFrom",
      "outputs": [],
      "stateMutability": "nonpayable",
      "type": "function"
    },
    {
      "inputs": [
        {
          "internalType": "address",
          "name": "from",
          "type": "address"
        },
        {
          "internalType": "address",
          "name": "to",
          "type": "address"
        },
        {
          "internalType": "uint256",
          "name": "id",
          "type": "uint256"
        },
        {
          "internalType": "uint256",
          "name": "amount",
          "type": "uint256"
        },
        {
          "internalType": "bytes",
          "name": "data",
          "type": "bytes"
        }
      ],
      "name": "safeTransferFrom",
      "outputs": [],
      "stateMutability": "nonpayable",
      "type": "function"
    },
    {
      "inputs": [
        {
          "internalType": "address",
          "name": "operator",
          "type": "address"
        },
        {
          "internalType": "bool",
          "name": "approved",
          "type": "bool"
        }
      ],
      "name": "setApprovalForAll",
      "outputs": [],
      "stateMutability": "nonpayable",
      "type": "function"
    },
    {
      "inputs": [
        {
          "internalType": "address",
          "name": "_collectionOwner",
          "type": "address"
        }
      ],
      "name": "setCollectionOwner",
      "outputs": [],
      "stateMutability": "nonpayable",
      "type": "function"
    },
    {
      "inputs": [
        {
          "internalType": "uint256",
          "name": "_price",
          "type": "uint256"
        }
      ],
      "name": "setPrice",
      "outputs": [],
      "stateMutability": "nonpayable",
      "type": "function"
    },
    {
      "inputs": [
        {
          "internalType": "string",
          "name": "newuri",
          "type": "string"
        }
      ],
      "name": "setURI",
      "outputs": [],
      "stateMutability": "nonpayable",
      "type": "function"
    },
    {
      "inputs": [
        {
          "internalType": "bytes4",
          "name": "interfaceId",
          "type": "bytes4"
        }
      ],
      "name": "supportsInterface",
      "outputs": [
        {
          "internalType": "bool",
          "name": "",
          "type": "bool"
        }
      ],
      "stateMutability": "view",
      "type": "function"
    },
    {
      "inputs": [],
      "name": "symbol",
      "outputs": [
        {
          "internalType": "string",
          "name": "",
          "type": "string"
        }
      ],
      "stateMutability": "view",
      "type": "function"
    },
    {
      "inputs": [],
      "name": "totalSupply",
      "outputs": [
        {
          "internalType": "uint256",
          "name": "",
          "type": "uint256"
        }
      ],
      "stateMutability": "view",
      "type": "function"
    },
    {
      "inputs": [
        {
          "internalType": "address",
          "name": "newOwner",
          "type": "address"
        }
      ],
      "name": "transferOwnership",
      "outputs": [],
      "stateMutability": "nonpayable",
      "type": "function"
    },
    {
      "inputs": [
        {
          "internalType": "uint256",
          "name": "tokenId",
          "type": "uint256"
        }
      ],
      "name": "uri",
      "outputs": [
        {
          "internalType": "string",
          "name": "",
          "type": "string"
        }
      ],
      "stateMutability": "view",
      "type": "function"
    },
    {
      "inputs": [],
      "name": "withdrawFunds",
      "outputs": [],
      "stateMutability": "nonpayable",
      "type": "function"
    }
  ],
  "bytecode": "0x60e06040526022608081815290620026da60a03980516200002991600b91602090910190620001e0565b503480156200003757600080fd5b50604051620026fc380380620026fc8339810160408190526200005a9162000353565b826200006633620000f4565b60018055620000758162000144565b5085516200008b906005906020890190620001e0565b508451620000a1906006906020880190620001e0565b5060098490558251620000bc90600b906020860190620001e0565b506008829055600c80546001600160a01b0319166001600160a01b038316179055620000e8336200015d565b50505050505062000457565b600080546001600160a01b038381166001600160a01b0319831681178455604051919092169283917f8be0079c531659141344cd1fd0a4f28419497f9722a3daafe3b4186f6b6457e09190a35050565b805162000159906004906020840190620001e0565b5050565b6000546001600160a01b03163314620001bc5760405162461bcd60e51b815260206004820181905260248201527f4f776e61626c653a2063616c6c6572206973206e6f7420746865206f776e6572604482015260640160405180910390fd5b6001600160a01b03166000908152600a60205260409020805460ff19166001179055565b828054620001ee906200041a565b90600052602060002090601f0160209004810192826200021257600085556200025d565b82601f106200022d57805160ff19168380011785556200025d565b828001600101855582156200025d579182015b828111156200025d57825182559160200191906001019062000240565b506200026b9291506200026f565b5090565b5b808211156200026b576000815560010162000270565b634e487b7160e01b600052604160045260246000fd5b600082601f830112620002ae57600080fd5b81516001600160401b0380821115620002cb57620002cb62000286565b604051601f8301601f19908116603f01168101908282118183101715620002f657620002f662000286565b816040528381526020925086838588010111156200031357600080fd5b600091505b8382101562000337578582018301518183018401529082019062000318565b83821115620003495760008385830101525b9695505050505050565b60008060008060008060c087890312156200036d57600080fd5b86516001600160401b03808211156200038557600080fd5b620003938a838b016200029c565b97506020890151915080821115620003aa57600080fd5b620003b88a838b016200029c565b9650604089015195506060890151915080821115620003d657600080fd5b50620003e589828a016200029c565b608089015160a08a0151919550935090506001600160a01b03811681146200040c57600080fd5b809150509295509295509295565b600181811c908216806200042f57607f821691505b602082108114156200045157634e487b7160e01b600052602260045260246000fd5b50919050565b61227380620004676000396000f3fe6080604052600436106101655760003560e01c8063715018a6116100d1578063a22cb4651161008a578063e985e9c511610064578063e985e9c514610403578063ec0ea45f1461044c578063f242432a1461045f578063f2fde38b1461047f57600080fd5b8063a22cb465146103ad578063d5abeb01146103cd578063df727d3b146103e357600080fd5b8063715018a6146102fb5780638da5cb5b1461031057806391b7f5ed1461034257806395d89b4114610362578063983b2d5614610377578063a035b1fe1461039757600080fd5b806318160ddd1161012357806318160ddd1461025157806324600fc3146102665780632eb2c2d61461027b5780633092afd51461029b5780634e1273f4146102bb5780636a627842146102e857600080fd5b8062fdd58e1461016a57806301ffc9a71461019d57806302fe5305146101cd57806306fdde03146101ef578063098f9cf3146102115780630e89341c14610231575b600080fd5b34801561017657600080fd5b5061018a610185366004611806565b61049f565b6040519081526020015b60405180910390f35b3480156101a957600080fd5b506101bd6101b8366004611846565b610538565b6040519015158152602001610194565b3480156101d957600080fd5b506101ed6101e836600461190b565b61058a565b005b3480156101fb57600080fd5b506102046105d4565b60405161019491906119b0565b34801561021d57600080fd5b506101ed61022c3660046119c3565b610662565b34801561023d57600080fd5b5061020461024c3660046119de565b6106ae565b34801561025d57600080fd5b5061018a610725565b34801561027257600080fd5b506101ed610735565b34801561028757600080fd5b506101ed610296366004611aac565b610819565b3480156102a757600080fd5b506101ed6102b63660046119c3565b6108b0565b3480156102c757600080fd5b506102db6102d6366004611b56565b6108fb565b6040516101949190611c5c565b61018a6102f63660046119c3565b610a25565b34801561030757600080fd5b506101ed610b36565b34801561031c57600080fd5b506000546001600160a01b03165b6040516001600160a01b039091168152602001610194565b34801561034e57600080fd5b506101ed61035d3660046119de565b610b6c565b34801561036e57600080fd5b50610204610bda565b34801561038357600080fd5b506101ed6103923660046119c3565b610be7565b3480156103a357600080fd5b5061018a60085481565b3480156103b957600080fd5b506101ed6103c8366004611c6f565b610c35565b3480156103d957600080fd5b5061018a60095481565b3480156103ef57600080fd5b50600c5461032a906001600160a01b031681565b34801561040f57600080fd5b506101bd61041e366004611cab565b6001600160a01b03918216600090815260036020908152604080832093909416825291909152205460ff1690565b61018a61045a366004611806565b610c44565b34801561046b57600080fd5b506101ed61047a366004611cde565b610d60565b34801561048b57600080fd5b506101ed61049a3660046119c3565b610de7565b60006001600160a01b0383166105105760405162461bcd60e51b815260206004820152602b60248201527f455243313135353a2062616c616e636520717565727920666f7220746865207a60448201526a65726f206164647265737360a81b60648201526084015b60405180910390fd5b5060009081526002602090815260408083206001600160a01b03949094168352929052205490565b60006001600160e01b03198216636cdb3d1360e11b148061056957506001600160e01b031982166303a24d0760e21b145b8061058457506301ffc9a760e01b6001600160e01b03198316145b92915050565b6000546001600160a01b031633146105b45760405162461bcd60e51b815260040161050790611d43565b80516105c790600b906020840190611756565b506105d181610e7f565b50565b600580546105e190611d78565b80601f016020809104026020016040519081016040528092919081815260200182805461060d90611d78565b801561065a5780601f1061062f5761010080835404028352916020019161065a565b820191906000526020600020905b81548152906001019060200180831161063d57829003601f168201915b505050505081565b600c546001600160a01b0316331461068c5760405162461bcd60e51b815260040161050790611db3565b600c80546001600160a01b0319166001600160a01b0392909216919091179055565b60606106b960075490565b82116106f157600b6106ca83610e92565b6040516020016106db929190611e16565b6040516020818303038152906040529050919050565b505060408051808201909152601381527211548e88125b9d985b1a59081d1bdad95b9259606a1b602082015290565b919050565b600061073060075490565b905090565b600260015414156107585760405162461bcd60e51b815260040161050790611ed1565b6002600155600c546001600160a01b031633146107875760405162461bcd60e51b815260040161050790611db3565b604051600090339047908381818185875af1925050503d80600081146107c9576040519150601f19603f3d011682016040523d82523d6000602084013e6107ce565b606091505b50509050806108125760405162461bcd60e51b815260206004820152601060248201526f2a3930b739b332b9103330b4b632b21760811b6044820152606401610507565b5060018055565b6001600160a01b0385163314806108355750610835853361041e565b61089c5760405162461bcd60e51b815260206004820152603260248201527f455243313135353a207472616e736665722063616c6c6572206973206e6f74206044820152711bdddb995c881b9bdc88185c1c1c9bdd995960721b6064820152608401610507565b6108a98585858585610f98565b5050505050565b6000546001600160a01b031633146108da5760405162461bcd60e51b815260040161050790611d43565b6001600160a01b03166000908152600a60205260409020805460ff19169055565b606081518351146109605760405162461bcd60e51b815260206004820152602960248201527f455243313135353a206163636f756e747320616e6420696473206c656e677468604482015268040dad2e6dac2e8c6d60bb1b6064820152608401610507565b6000835167ffffffffffffffff81111561097c5761097c61186a565b6040519080825280602002602001820160405280156109a5578160200160208202803683370190505b50905060005b8451811015610a1d576109f08582815181106109c9576109c9611f08565b60200260200101518583815181106109e3576109e3611f08565b602002602001015161049f565b828281518110610a0257610a02611f08565b6020908102919091010152610a1681611f34565b90506109ab565b509392505050565b600060026001541415610a4a5760405162461bcd60e51b815260040161050790611ed1565b6002600155610a5d600780546001019055565b600854341015610aaf5760405162461bcd60e51b815260206004820152601a60248201527f496e636f7272656374204e465420707269636520616d6f756e740000000000006044820152606401610507565b6009546007541115610b035760405162461bcd60e51b815260206004820152601f60248201527f43616e2774206d696e74206d6f7265207468616e206d617820737570706c79006044820152606401610507565b6000610b0e60075490565b9050610b2c8382600160405180602001604052806000815250611178565b6001805592915050565b6000546001600160a01b03163314610b605760405162461bcd60e51b815260040161050790611d43565b610b6a6000611284565b565b600c546001600160a01b03163314610bd55760405162461bcd60e51b815260206004820152602660248201527f4f6e6c7920636f6c6c656374696f6e206f776e65722063616e206368616e676560448201526520707269636560d01b6064820152608401610507565b600855565b600680546105e190611d78565b6000546001600160a01b03163314610c115760405162461bcd60e51b815260040161050790611d43565b6001600160a01b03166000908152600a60205260409020805460ff19166001179055565b610c403383836112d4565b5050565b600060026001541415610c695760405162461bcd60e51b815260040161050790611ed1565b6002600155610c7c600780546001019055565b81600854610c8a9190611f4f565b341015610cd95760405162461bcd60e51b815260206004820152601a60248201527f496e636f7272656374204e465420707269636520616d6f756e740000000000006044820152606401610507565b6009546007541115610d2d5760405162461bcd60e51b815260206004820152601f60248201527f43616e2774206d696e74206d6f7265207468616e206d617820737570706c79006044820152606401610507565b6000610d3860075490565b9050610d5584828560405180602001604052806000815250611178565b600180559392505050565b6001600160a01b038516331480610d7c5750610d7c853361041e565b610dda5760405162461bcd60e51b815260206004820152602960248201527f455243313135353a2063616c6c6572206973206e6f74206f776e6572206e6f7260448201526808185c1c1c9bdd995960ba1b6064820152608401610507565b6108a985858585856113b5565b6000546001600160a01b03163314610e115760405162461bcd60e51b815260040161050790611d43565b6001600160a01b038116610e765760405162461bcd60e51b815260206004820152602660248201527f4f776e61626c653a206e6577206f776e657220697320746865207a65726f206160448201526564647265737360d01b6064820152608401610507565b6105d181611284565b8051610c40906004906020840190611756565b606081610eb65750506040805180820190915260018152600360fc1b602082015290565b8160005b8115610ee05780610eca81611f34565b9150610ed99050600a83611f84565b9150610eba565b60008167ffffffffffffffff811115610efb57610efb61186a565b6040519080825280601f01601f191660200182016040528015610f25576020820181803683370190505b5090505b8415610f9057610f3a600183611f98565b9150610f47600a86611faf565b610f52906030611fc3565b60f81b818381518110610f6757610f67611f08565b60200101906001600160f81b031916908160001a905350610f89600a86611f84565b9450610f29565b949350505050565b8151835114610ffa5760405162461bcd60e51b815260206004820152602860248201527f455243313135353a2069647320616e6420616d6f756e7473206c656e677468206044820152670dad2e6dac2e8c6d60c31b6064820152608401610507565b6001600160a01b0384166110205760405162461bcd60e51b815260040161050790611fdb565b3360005b845181101561110a57600085828151811061104157611041611f08565b60200260200101519050600085838151811061105f5761105f611f08565b60209081029190910181015160008481526002835260408082206001600160a01b038e1683529093529190912054909150818110156110b05760405162461bcd60e51b815260040161050790612020565b60008381526002602090815260408083206001600160a01b038e8116855292528083208585039055908b168252812080548492906110ef908490611fc3565b925050819055505050508061110390611f34565b9050611024565b50846001600160a01b0316866001600160a01b0316826001600160a01b03167f4a39dc06d4c0dbc64b70af90fd698a233a518aa5d07e595d983b8c0526c8f7fb878760405161115a92919061206a565b60405180910390a46111708187878787876114d6565b505050505050565b6001600160a01b0384166111d85760405162461bcd60e51b815260206004820152602160248201527f455243313135353a206d696e7420746f20746865207a65726f206164647265736044820152607360f81b6064820152608401610507565b336111f2816000876111e988611641565b6108a988611641565b60008481526002602090815260408083206001600160a01b038916845290915281208054859290611224908490611fc3565b909155505060408051858152602081018590526001600160a01b0380881692600092918516917fc3d58168c5ae7397731d063d5bbf3d657854427343f4c083240f7aacaa2d0f62910160405180910390a46108a98160008787878761168c565b600080546001600160a01b038381166001600160a01b0319831681178455604051919092169283917f8be0079c531659141344cd1fd0a4f28419497f9722a3daafe3b4186f6b6457e09190a35050565b816001600160a01b0316836001600160a01b031614156113485760405162461bcd60e51b815260206004820152602960248201527f455243313135353a2073657474696e6720617070726f76616c20737461747573604482015268103337b91039b2b63360b91b6064820152608401610507565b6001600160a01b03838116600081815260036020908152604080832094871680845294825291829020805460ff191686151590811790915591519182527f17307eab39ab6107e8899845ad3d59bd9653f200f220920489ca2b5937696c31910160405180910390a3505050565b6001600160a01b0384166113db5760405162461bcd60e51b815260040161050790611fdb565b336113eb8187876111e988611641565b60008481526002602090815260408083206001600160a01b038a1684529091529020548381101561142e5760405162461bcd60e51b815260040161050790612020565b60008581526002602090815260408083206001600160a01b038b811685529252808320878503905590881682528120805486929061146d908490611fc3565b909155505060408051868152602081018690526001600160a01b03808916928a821692918616917fc3d58168c5ae7397731d063d5bbf3d657854427343f4c083240f7aacaa2d0f62910160405180910390a46114cd82888888888861168c565b50505050505050565b6001600160a01b0384163b156111705760405163bc197c8160e01b81526001600160a01b0385169063bc197c819061151a908990899088908890889060040161208f565b602060405180830381600087803b15801561153457600080fd5b505af1925050508015611564575060408051601f3d908101601f19168201909252611561918101906120ed565b60015b6116115761157061210a565b806308c379a014156115aa5750611585612126565b8061159057506115ac565b8060405162461bcd60e51b815260040161050791906119b0565b505b60405162461bcd60e51b815260206004820152603460248201527f455243313135353a207472616e7366657220746f206e6f6e20455243313135356044820152732932b1b2b4bb32b91034b6b83632b6b2b73a32b960611b6064820152608401610507565b6001600160e01b0319811663bc197c8160e01b146114cd5760405162461bcd60e51b8152600401610507906121b0565b6040805160018082528183019092526060916000919060208083019080368337019050509050828160008151811061167b5761167b611f08565b602090810291909101015292915050565b6001600160a01b0384163b156111705760405163f23a6e6160e01b81526001600160a01b0385169063f23a6e61906116d090899089908890889088906004016121f8565b602060405180830381600087803b1580156116ea57600080fd5b505af192505050801561171a575060408051601f3d908101601f19168201909252611717918101906120ed565b60015b6117265761157061210a565b6001600160e01b0319811663f23a6e6160e01b146114cd5760405162461bcd60e51b8152600401610507906121b0565b82805461176290611d78565b90600052602060002090601f01602090048101928261178457600085556117ca565b82601f1061179d57805160ff19168380011785556117ca565b828001600101855582156117ca579182015b828111156117ca5782518255916020019190600101906117af565b506117d69291506117da565b5090565b5b808211156117d657600081556001016117db565b80356001600160a01b038116811461072057600080fd5b6000806040838503121561181957600080fd5b611822836117ef565b946020939093013593505050565b6001600160e01b0319811681146105d157600080fd5b60006020828403121561185857600080fd5b813561186381611830565b9392505050565b634e487b7160e01b600052604160045260246000fd5b601f8201601f1916810167ffffffffffffffff811182821017156118a6576118a661186a565b6040525050565b600067ffffffffffffffff8311156118c7576118c761186a565b6040516118de601f8501601f191660200182611880565b8091508381528484840111156118f357600080fd5b83836020830137600060208583010152509392505050565b60006020828403121561191d57600080fd5b813567ffffffffffffffff81111561193457600080fd5b8201601f8101841361194557600080fd5b610f90848235602084016118ad565b60005b8381101561196f578181015183820152602001611957565b8381111561197e576000848401525b50505050565b6000815180845261199c816020860160208601611954565b601f01601f19169290920160200192915050565b6020815260006118636020830184611984565b6000602082840312156119d557600080fd5b611863826117ef565b6000602082840312156119f057600080fd5b5035919050565b600067ffffffffffffffff821115611a1157611a1161186a565b5060051b60200190565b600082601f830112611a2c57600080fd5b81356020611a39826119f7565b604051611a468282611880565b83815260059390931b8501820192828101915086841115611a6657600080fd5b8286015b84811015611a815780358352918301918301611a6a565b509695505050505050565b600082601f830112611a9d57600080fd5b611863838335602085016118ad565b600080600080600060a08688031215611ac457600080fd5b611acd866117ef565b9450611adb602087016117ef565b9350604086013567ffffffffffffffff80821115611af857600080fd5b611b0489838a01611a1b565b94506060880135915080821115611b1a57600080fd5b611b2689838a01611a1b565b93506080880135915080821115611b3c57600080fd5b50611b4988828901611a8c565b9150509295509295909350565b60008060408385031215611b6957600080fd5b823567ffffffffffffffff80821115611b8157600080fd5b818501915085601f830112611b9557600080fd5b81356020611ba2826119f7565b604051611baf8282611880565b83815260059390931b8501820192828101915089841115611bcf57600080fd5b948201945b83861015611bf457611be5866117ef565b82529482019490820190611bd4565b96505086013592505080821115611c0a57600080fd5b50611c1785828601611a1b565b9150509250929050565b600081518084526020808501945080840160005b83811015611c5157815187529582019590820190600101611c35565b509495945050505050565b6020815260006118636020830184611c21565b60008060408385031215611c8257600080fd5b611c8b836117ef565b915060208301358015158114611ca057600080fd5b809150509250929050565b60008060408385031215611cbe57600080fd5b611cc7836117ef565b9150611cd5602084016117ef565b90509250929050565b600080600080600060a08688031215611cf657600080fd5b611cff866117ef565b9450611d0d602087016117ef565b93506040860135925060608601359150608086013567ffffffffffffffff811115611d3757600080fd5b611b4988828901611a8c565b6020808252818101527f4f776e61626c653a2063616c6c6572206973206e6f7420746865206f776e6572604082015260600190565b600181811c90821680611d8c57607f821691505b60208210811415611dad57634e487b7160e01b600052602260045260246000fd5b50919050565b60208082526027908201527f4f776e657220636f6c6c656374696f6e206f776e65722063616e206368616e67604082015266329037bbb732b960c91b606082015260800190565b60008151611e0c818560208601611954565b9290920192915050565b600080845481600182811c915080831680611e3257607f831692505b6020808410821415611e5257634e487b7160e01b86526022600452602486fd5b818015611e665760018114611e7757611ea4565b60ff19861689528489019650611ea4565b60008b81526020902060005b86811015611e9c5781548b820152908501908301611e83565b505084890196505b505050505050611ec8611eb78286611dfa565b64173539b7b760d91b815260050190565b95945050505050565b6020808252601f908201527f5265656e7472616e637947756172643a207265656e7472616e742063616c6c00604082015260600190565b634e487b7160e01b600052603260045260246000fd5b634e487b7160e01b600052601160045260246000fd5b6000600019821415611f4857611f48611f1e565b5060010190565b6000816000190483118215151615611f6957611f69611f1e565b500290565b634e487b7160e01b600052601260045260246000fd5b600082611f9357611f93611f6e565b500490565b600082821015611faa57611faa611f1e565b500390565b600082611fbe57611fbe611f6e565b500690565b60008219821115611fd657611fd6611f1e565b500190565b60208082526025908201527f455243313135353a207472616e7366657220746f20746865207a65726f206164604082015264647265737360d81b606082015260800190565b6020808252602a908201527f455243313135353a20696e73756666696369656e742062616c616e636520666f60408201526939103a3930b739b332b960b11b606082015260800190565b60408152600061207d6040830185611c21565b8281036020840152611ec88185611c21565b6001600160a01b0386811682528516602082015260a0604082018190526000906120bb90830186611c21565b82810360608401526120cd8186611c21565b905082810360808401526120e18185611984565b98975050505050505050565b6000602082840312156120ff57600080fd5b815161186381611830565b600060033d11156121235760046000803e5060005160e01c5b90565b600060443d10156121345790565b6040516003193d81016004833e81513d67ffffffffffffffff816024840111818411171561216457505050505090565b828501915081518181111561217c5750505050505090565b843d87010160208285010111156121965750505050505090565b6121a560208286010187611880565b509095945050505050565b60208082526028908201527f455243313135353a204552433131353552656365697665722072656a656374656040820152676420746f6b656e7360c01b606082015260800190565b6001600160a01b03868116825285166020820152604081018490526060810183905260a06080820181905260009061223290830184611984565b97965050505050505056fea2646970667358221220036d372a7ac9b40655a4abf7ad2fafc58d7a02aefcba96c5c32abfb00e22110564736f6c6343000809003368747470733a2f2f676174657761792e70696e6174612e636c6f75642f697066732f",
  "linkReferences": {},
  "deployedLinkReferences": {}
}