{
  "_format": "hh-sol-artifact-1",
  "contractName": "ERC1155TieredSmartContract",
  "sourceName": "contracts/ERC1155TieredSmartContract.sol",
  "abi": [
    {
      "inputs": [
        {
          "internalType": "string",
          "name": "_name",
          "type": "string"
        },
        {
          "internalType": "string",
          "name": "_symbol",
          "type": "string"
        },
        {
          "internalType": "uint256",
          "name": "_maxSupply",
          "type": "uint256"
        },
        {
          "internalType": "string",
          "name": "_uri",
          "type": "string"
        },
        {
          "internalType": "uint256[]",
          "name": "_maxTokensSupply",
          "type": "uint256[]"
        },
        {
          "internalType": "uint256",
          "name": "_price",
          "type": "uint256"
        },
        {
          "internalType": "address",
          "name": "_collectionOwner",
          "type": "address"
        }
      ],
      "stateMutability": "nonpayable",
      "type": "constructor"
    },
    {
      "anonymous": false,
      "inputs": [
        {
          "indexed": true,
          "internalType": "address",
          "name": "account",
          "type": "address"
        },
        {
          "indexed": true,
          "internalType": "address",
          "name": "operator",
          "type": "address"
        },
        {
          "indexed": false,
          "internalType": "bool",
          "name": "approved",
          "type": "bool"
        }
      ],
      "name": "ApprovalForAll",
      "type": "event"
    },
    {
      "anonymous": false,
      "inputs": [
        {
          "indexed": true,
          "internalType": "address",
          "name": "previousOwner",
          "type": "address"
        },
        {
          "indexed": true,
          "internalType": "address",
          "name": "newOwner",
          "type": "address"
        }
      ],
      "name": "OwnershipTransferred",
      "type": "event"
    },
    {
      "anonymous": false,
      "inputs": [
        {
          "indexed": true,
          "internalType": "address",
          "name": "operator",
          "type": "address"
        },
        {
          "indexed": true,
          "internalType": "address",
          "name": "from",
          "type": "address"
        },
        {
          "indexed": true,
          "internalType": "address",
          "name": "to",
          "type": "address"
        },
        {
          "indexed": false,
          "internalType": "uint256[]",
          "name": "ids",
          "type": "uint256[]"
        },
        {
          "indexed": false,
          "internalType": "uint256[]",
          "name": "values",
          "type": "uint256[]"
        }
      ],
      "name": "TransferBatch",
      "type": "event"
    },
    {
      "anonymous": false,
      "inputs": [
        {
          "indexed": true,
          "internalType": "address",
          "name": "operator",
          "type": "address"
        },
        {
          "indexed": true,
          "internalType": "address",
          "name": "from",
          "type": "address"
        },
        {
          "indexed": true,
          "internalType": "address",
          "name": "to",
          "type": "address"
        },
        {
          "indexed": false,
          "internalType": "uint256",
          "name": "id",
          "type": "uint256"
        },
        {
          "indexed": false,
          "internalType": "uint256",
          "name": "value",
          "type": "uint256"
        }
      ],
      "name": "TransferSingle",
      "type": "event"
    },
    {
      "anonymous": false,
      "inputs": [
        {
          "indexed": false,
          "internalType": "string",
          "name": "value",
          "type": "string"
        },
        {
          "indexed": true,
          "internalType": "uint256",
          "name": "id",
          "type": "uint256"
        }
      ],
      "name": "URI",
      "type": "event"
    },
    {
      "inputs": [
        {
          "internalType": "address",
          "name": "_account",
          "type": "address"
        }
      ],
      "name": "addMinter",
      "outputs": [],
      "stateMutability": "nonpayable",
      "type": "function"
    },
    {
      "inputs": [
        {
          "internalType": "address",
          "name": "account",
          "type": "address"
        },
        {
          "internalType": "uint256",
          "name": "id",
          "type": "uint256"
        }
      ],
      "name": "balanceOf",
      "outputs": [
        {
          "internalType": "uint256",
          "name": "",
          "type": "uint256"
        }
      ],
      "stateMutability": "view",
      "type": "function"
    },
    {
      "inputs": [
        {
          "internalType": "address[]",
          "name": "accounts",
          "type": "address[]"
        },
        {
          "internalType": "uint256[]",
          "name": "ids",
          "type": "uint256[]"
        }
      ],
      "name": "balanceOfBatch",
      "outputs": [
        {
          "internalType": "uint256[]",
          "name": "",
          "type": "uint256[]"
        }
      ],
      "stateMutability": "view",
      "type": "function"
    },
    {
      "inputs": [],
      "name": "collectionOwner",
      "outputs": [
        {
          "internalType": "address",
          "name": "",
          "type": "address"
        }
      ],
      "stateMutability": "view",
      "type": "function"
    },
    {
      "inputs": [
        {
          "internalType": "uint256",
          "name": "id",
          "type": "uint256"
        }
      ],
      "name": "exists",
      "outputs": [
        {
          "internalType": "bool",
          "name": "",
          "type": "bool"
        }
      ],
      "stateMutability": "view",
      "type": "function"
    },
    {
      "inputs": [],
      "name": "getBaseURI",
      "outputs": [
        {
          "internalType": "string",
          "name": "",
          "type": "string"
        }
      ],
      "stateMutability": "view",
      "type": "function"
    },
    {
      "inputs": [
        {
          "internalType": "address",
          "name": "account",
          "type": "address"
        },
        {
          "internalType": "address",
          "name": "operator",
          "type": "address"
        }
      ],
      "name": "isApprovedForAll",
      "outputs": [
        {
          "internalType": "bool",
          "name": "",
          "type": "bool"
        }
      ],
      "stateMutability": "view",
      "type": "function"
    },
    {
      "inputs": [],
      "name": "maxSupply",
      "outputs": [
        {
          "internalType": "uint256",
          "name": "",
          "type": "uint256"
        }
      ],
      "stateMutability": "view",
      "type": "function"
    },
    {
      "inputs": [],
      "name": "maxTokenId",
      "outputs": [
        {
          "internalType": "uint256",
          "name": "",
          "type": "uint256"
        }
      ],
      "stateMutability": "view",
      "type": "function"
    },
    {
      "inputs": [
        {
          "internalType": "address",
          "name": "tokenOwner",
          "type": "address"
        },
        {
          "internalType": "uint256",
          "name": "tierId",
          "type": "uint256"
        },
        {
          "internalType": "uint256",
          "name": "nftCount",
          "type": "uint256"
        }
      ],
      "name": "mintTierTokens",
      "outputs": [
        {
          "internalType": "uint256",
          "name": "",
          "type": "uint256"
        }
      ],
      "stateMutability": "payable",
      "type": "function"
    },
    {
      "inputs": [],
      "name": "name",
      "outputs": [
        {
          "internalType": "string",
          "name": "",
          "type": "string"
        }
      ],
      "stateMutability": "view",
      "type": "function"
    },
    {
      "inputs": [],
      "name": "owner",
      "outputs": [
        {
          "internalType": "address",
          "name": "",
          "type": "address"
        }
      ],
      "stateMutability": "view",
      "type": "function"
    },
    {
      "inputs": [],
      "name": "price",
      "outputs": [
        {
          "internalType": "uint256",
          "name": "",
          "type": "uint256"
        }
      ],
      "stateMutability": "view",
      "type": "function"
    },
    {
      "inputs": [
        {
          "internalType": "address",
          "name": "_account",
          "type": "address"
        }
      ],
      "name": "removeMinter",
      "outputs": [],
      "stateMutability": "nonpayable",
      "type": "function"
    },
    {
      "inputs": [],
      "name": "renounceOwnership",
      "outputs": [],
      "stateMutability": "nonpayable",
      "type": "function"
    },
    {
      "inputs": [
        {
          "internalType": "address",
          "name": "from",
          "type": "address"
        },
        {
          "internalType": "address",
          "name": "to",
          "type": "address"
        },
        {
          "internalType": "uint256[]",
          "name": "ids",
          "type": "uint256[]"
        },
        {
          "internalType": "uint256[]",
          "name": "amounts",
          "type": "uint256[]"
        },
        {
          "internalType": "bytes",
          "name": "data",
          "type": "bytes"
        }
      ],
      "name": "safeBatchTransferFrom",
      "outputs": [],
      "stateMutability": "nonpayable",
      "type": "function"
    },
    {
      "inputs": [
        {
          "internalType": "address",
          "name": "from",
          "type": "address"
        },
        {
          "internalType": "address",
          "name": "to",
          "type": "address"
        },
        {
          "internalType": "uint256",
          "name": "id",
          "type": "uint256"
        },
        {
          "internalType": "uint256",
          "name": "amount",
          "type": "uint256"
        },
        {
          "internalType": "bytes",
          "name": "data",
          "type": "bytes"
        }
      ],
      "name": "safeTransferFrom",
      "outputs": [],
      "stateMutability": "nonpayable",
      "type": "function"
    },
    {
      "inputs": [
        {
          "internalType": "address",
          "name": "operator",
          "type": "address"
        },
        {
          "internalType": "bool",
          "name": "approved",
          "type": "bool"
        }
      ],
      "name": "setApprovalForAll",
      "outputs": [],
      "stateMutability": "nonpayable",
      "type": "function"
    },
    {
      "inputs": [
        {
          "internalType": "address",
          "name": "_collectionOwner",
          "type": "address"
        }
      ],
      "name": "setCollectionOwner",
      "outputs": [],
      "stateMutability": "nonpayable",
      "type": "function"
    },
    {
      "inputs": [
        {
          "internalType": "uint256",
          "name": "_price",
          "type": "uint256"
        }
      ],
      "name": "setPrice",
      "outputs": [],
      "stateMutability": "nonpayable",
      "type": "function"
    },
    {
      "inputs": [
        {
          "internalType": "string",
          "name": "newuri",
          "type": "string"
        }
      ],
      "name": "setURI",
      "outputs": [],
      "stateMutability": "nonpayable",
      "type": "function"
    },
    {
      "inputs": [
        {
          "internalType": "bytes4",
          "name": "interfaceId",
          "type": "bytes4"
        }
      ],
      "name": "supportsInterface",
      "outputs": [
        {
          "internalType": "bool",
          "name": "",
          "type": "bool"
        }
      ],
      "stateMutability": "view",
      "type": "function"
    },
    {
      "inputs": [],
      "name": "symbol",
      "outputs": [
        {
          "internalType": "string",
          "name": "",
          "type": "string"
        }
      ],
      "stateMutability": "view",
      "type": "function"
    },
    {
      "inputs": [
        {
          "internalType": "uint256",
          "name": "",
          "type": "uint256"
        }
      ],
      "name": "tokensMaxSupply",
      "outputs": [
        {
          "internalType": "uint256",
          "name": "",
          "type": "uint256"
        }
      ],
      "stateMutability": "view",
      "type": "function"
    },
    {
      "inputs": [
        {
          "internalType": "uint256",
          "name": "id",
          "type": "uint256"
        }
      ],
      "name": "totalSupply",
      "outputs": [
        {
          "internalType": "uint256",
          "name": "",
          "type": "uint256"
        }
      ],
      "stateMutability": "view",
      "type": "function"
    },
    {
      "inputs": [
        {
          "internalType": "address",
          "name": "newOwner",
          "type": "address"
        }
      ],
      "name": "transferOwnership",
      "outputs": [],
      "stateMutability": "nonpayable",
      "type": "function"
    },
    {
      "inputs": [
        {
          "internalType": "uint256",
          "name": "tokenId",
          "type": "uint256"
        }
      ],
      "name": "uri",
      "outputs": [
        {
          "internalType": "string",
          "name": "",
          "type": "string"
        }
      ],
      "stateMutability": "view",
      "type": "function"
    },
    {
      "inputs": [],
      "name": "withdrawFunds",
      "outputs": [],
      "stateMutability": "nonpayable",
      "type": "function"
    }
  ],
  "bytecode": "0x60e0604052602260808181529062002b9a60a03980516200002991600d9160209091019062000362565b503480156200003757600080fd5b5060405162002bbc38038062002bbc8339810160408190526200005a916200058b565b83620000668162000277565b50620000723362000290565b600160055586516200008c9060069060208a019062000362565b508551620000a290600790602089019062000362565b50600a8590558351620000bd90600d90602087019062000362565b506009829055600e80546001600160a01b0319166001600160a01b0383161790558251620001415760405162461bcd60e51b815260206004820152602660248201527f4552524f523a205f6d6178546f6b656e73537570706c7920697320656d70747960448201526520617272617960d01b60648201526084015b60405180910390fd5b6000805b8451811015620001c1578481815181106200016457620001646200066a565b60200260200101518262000179919062000696565b91508481815181106200019057620001906200066a565b6020908102919091018101516000838152600c90925260409091205580620001b881620006b1565b91505062000145565b508086146200024b5760405162461bcd60e51b815260206004820152604960248201527f4552524f523a2073756d6f66206d617820737570706c79206f6620616c6c207460448201527f6f6b656e732073686f756c6420626520657175616c20746f206d617820737570606482015268706c79206f6620534360b81b608482015260a40162000138565b600184516200025b9190620006cf565b6008556200026933620002e2565b505050505050505062000726565b80516200028c90600290602084019062000362565b5050565b600480546001600160a01b038381166001600160a01b0319831681179093556040519116919082907f8be0079c531659141344cd1fd0a4f28419497f9722a3daafe3b4186f6b6457e090600090a35050565b6004546001600160a01b031633146200033e5760405162461bcd60e51b815260206004820181905260248201527f4f776e61626c653a2063616c6c6572206973206e6f7420746865206f776e6572604482015260640162000138565b6001600160a01b03166000908152600b60205260409020805460ff19166001179055565b8280546200037090620006e9565b90600052602060002090601f016020900481019282620003945760008555620003df565b82601f10620003af57805160ff1916838001178555620003df565b82800160010185558215620003df579182015b82811115620003df578251825591602001919060010190620003c2565b50620003ed929150620003f1565b5090565b5b80821115620003ed5760008155600101620003f2565b634e487b7160e01b600052604160045260246000fd5b604051601f8201601f191681016001600160401b038111828210171562000449576200044962000408565b604052919050565b600082601f8301126200046357600080fd5b81516001600160401b038111156200047f576200047f62000408565b602062000495601f8301601f191682016200041e565b8281528582848701011115620004aa57600080fd5b60005b83811015620004ca578581018301518282018401528201620004ad565b83811115620004dc5760008385840101525b5095945050505050565b600082601f830112620004f857600080fd5b815160206001600160401b0382111562000516576200051662000408565b8160051b620005278282016200041e565b92835284810182019282810190878511156200054257600080fd5b83870192505b84831015620005635782518252918301919083019062000548565b979650505050505050565b80516001600160a01b03811681146200058657600080fd5b919050565b600080600080600080600060e0888a031215620005a757600080fd5b87516001600160401b0380821115620005bf57600080fd5b620005cd8b838c0162000451565b985060208a0151915080821115620005e457600080fd5b620005f28b838c0162000451565b975060408a0151965060608a01519150808211156200061057600080fd5b6200061e8b838c0162000451565b955060808a01519150808211156200063557600080fd5b50620006448a828b01620004e6565b93505060a088015191506200065c60c089016200056e565b905092959891949750929550565b634e487b7160e01b600052603260045260246000fd5b634e487b7160e01b600052601160045260246000fd5b60008219821115620006ac57620006ac62000680565b500190565b6000600019821415620006c857620006c862000680565b5060010190565b600082821015620006e457620006e462000680565b500390565b600181811c90821680620006fe57607f821691505b602082108114156200072057634e487b7160e01b600052602260045260246000fd5b50919050565b61246480620007366000396000f3fe6080604052600436106101b65760003560e01c80638da5cb5b116100ec578063a22cb4651161008a578063df727d3b11610064578063df727d3b146104d3578063e985e9c5146104f3578063f242432a1461053c578063f2fde38b1461055c57600080fd5b8063a22cb46514610470578063bd85b03914610490578063d5abeb01146104bd57600080fd5b806395d89b41116100c657806395d89b4114610412578063983b2d5614610427578063a035b1fe14610447578063a0dfe9d61461045d57600080fd5b80638da5cb5b146103aa57806391b7f5ed146103dc57806391ba317a146103fc57600080fd5b806324600fc3116101595780634e1273f4116101335780634e1273f4146103245780634f558e7914610351578063714c539814610380578063715018a61461039557600080fd5b806324600fc3146102cf5780632eb2c2d6146102e45780633092afd51461030457600080fd5b806306fdde031161019557806306fdde0314610240578063098f9cf3146102625780630e89341c146102825780631008d269146102a257600080fd5b8062fdd58e146101bb57806301ffc9a7146101ee57806302fe53051461021e575b600080fd5b3480156101c757600080fd5b506101db6101d63660046119fb565b61057c565b6040519081526020015b60405180910390f35b3480156101fa57600080fd5b5061020e610209366004611a3b565b610613565b60405190151581526020016101e5565b34801561022a57600080fd5b5061023e610239366004611b00565b610665565b005b34801561024c57600080fd5b506102556106af565b6040516101e59190611ba5565b34801561026e57600080fd5b5061023e61027d366004611bb8565b61073d565b34801561028e57600080fd5b5061025561029d366004611bd3565b610789565b3480156102ae57600080fd5b506101db6102bd366004611bd3565b600c6020526000908152604090205481565b3480156102db57600080fd5b5061023e6107fa565b3480156102f057600080fd5b5061023e6102ff366004611ca1565b61090f565b34801561031057600080fd5b5061023e61031f366004611bb8565b6109a6565b34801561033057600080fd5b5061034461033f366004611d4b565b6109f1565b6040516101e59190611e51565b34801561035d57600080fd5b5061020e61036c366004611bd3565b600090815260036020526040902054151590565b34801561038c57600080fd5b50610255610b1b565b3480156103a157600080fd5b5061023e610bad565b3480156103b657600080fd5b506004546001600160a01b03165b6040516001600160a01b0390911681526020016101e5565b3480156103e857600080fd5b5061023e6103f7366004611bd3565b610be3565b34801561040857600080fd5b506101db60085481565b34801561041e57600080fd5b50610255610c12565b34801561043357600080fd5b5061023e610442366004611bb8565b610c1f565b34801561045357600080fd5b506101db60095481565b6101db61046b366004611e64565b610c6d565b34801561047c57600080fd5b5061023e61048b366004611e97565b610e2d565b34801561049c57600080fd5b506101db6104ab366004611bd3565b60009081526003602052604090205490565b3480156104c957600080fd5b506101db600a5481565b3480156104df57600080fd5b50600e546103c4906001600160a01b031681565b3480156104ff57600080fd5b5061020e61050e366004611ed3565b6001600160a01b03918216600090815260016020908152604080832093909416825291909152205460ff1690565b34801561054857600080fd5b5061023e610557366004611f06565b610e3c565b34801561056857600080fd5b5061023e610577366004611bb8565b610ec3565b60006001600160a01b0383166105ed5760405162461bcd60e51b815260206004820152602b60248201527f455243313135353a2062616c616e636520717565727920666f7220746865207a60448201526a65726f206164647265737360a81b60648201526084015b60405180910390fd5b506000908152602081815260408083206001600160a01b03949094168352929052205490565b60006001600160e01b03198216636cdb3d1360e11b148061064457506001600160e01b031982166303a24d0760e21b145b8061065f57506301ffc9a760e01b6001600160e01b03198316145b92915050565b6004546001600160a01b0316331461068f5760405162461bcd60e51b81526004016105e490611f6b565b80516106a290600d90602084019061194b565b506106ac81610f5b565b50565b600680546106bc90611fa0565b80601f01602080910402602001604051908101604052809291908181526020018280546106e890611fa0565b80156107355780601f1061070a57610100808354040283529160200191610735565b820191906000526020600020905b81548152906001019060200180831161071857829003601f168201915b505050505081565b600e546001600160a01b031633146107675760405162461bcd60e51b81526004016105e490611fdb565b600e80546001600160a01b0319166001600160a01b0392909216919091179055565b606060085482116107c657600d61079f83610f6e565b6040516020016107b092919061203e565b6040516020818303038152906040529050919050565b505060408051808201909152601381527211548e88125b9d985b1a59081d1bdad95b9259606a1b602082015290565b919050565b6002600554141561084d5760405162461bcd60e51b815260206004820152601f60248201527f5265656e7472616e637947756172643a207265656e7472616e742063616c6c0060448201526064016105e4565b6002600555600e546001600160a01b0316331461087c5760405162461bcd60e51b81526004016105e490611fdb565b604051600090339047908381818185875af1925050503d80600081146108be576040519150601f19603f3d011682016040523d82523d6000602084013e6108c3565b606091505b50509050806109075760405162461bcd60e51b815260206004820152601060248201526f2a3930b739b332b9103330b4b632b21760811b60448201526064016105e4565b506001600555565b6001600160a01b03851633148061092b575061092b853361050e565b6109925760405162461bcd60e51b815260206004820152603260248201527f455243313135353a207472616e736665722063616c6c6572206973206e6f74206044820152711bdddb995c881b9bdc88185c1c1c9bdd995960721b60648201526084016105e4565b61099f8585858585611074565b5050505050565b6004546001600160a01b031633146109d05760405162461bcd60e51b81526004016105e490611f6b565b6001600160a01b03166000908152600b60205260409020805460ff19169055565b60608151835114610a565760405162461bcd60e51b815260206004820152602960248201527f455243313135353a206163636f756e747320616e6420696473206c656e677468604482015268040dad2e6dac2e8c6d60bb1b60648201526084016105e4565b6000835167ffffffffffffffff811115610a7257610a72611a5f565b604051908082528060200260200182016040528015610a9b578160200160208202803683370190505b50905060005b8451811015610b1357610ae6858281518110610abf57610abf6120f9565b6020026020010151858381518110610ad957610ad96120f9565b602002602001015161057c565b828281518110610af857610af86120f9565b6020908102919091010152610b0c81612125565b9050610aa1565b509392505050565b6060600d8054610b2a90611fa0565b80601f0160208091040260200160405190810160405280929190818152602001828054610b5690611fa0565b8015610ba35780601f10610b7857610100808354040283529160200191610ba3565b820191906000526020600020905b815481529060010190602001808311610b8657829003601f168201915b5050505050905090565b6004546001600160a01b03163314610bd75760405162461bcd60e51b81526004016105e490611f6b565b610be1600061125f565b565b6004546001600160a01b03163314610c0d5760405162461bcd60e51b81526004016105e490611f6b565b600955565b600780546106bc90611fa0565b6004546001600160a01b03163314610c495760405162461bcd60e51b81526004016105e490611f6b565b6001600160a01b03166000908152600b60205260409020805460ff19166001179055565b600060026005541415610cc25760405162461bcd60e51b815260206004820152601f60248201527f5265656e7472616e637947756172643a207265656e7472616e742063616c6c0060448201526064016105e4565b6002600555600954610cd5908390612140565b341015610d245760405162461bcd60e51b815260206004820152601f60248201527f496e636f7272656374204e465420707269636520616d6f756e742073656e740060448201526064016105e4565b6000838152600c6020908152604080832054600390925290912054610d49908461215f565b1115610dac5760405162461bcd60e51b815260206004820152602c60248201527f43616e2774206d696e74206d6f7265207468616e206d617820737570706c792060448201526b37b3103a3432903a37b5b2b760a11b60648201526084016105e4565b60008211610e065760405162461bcd60e51b815260206004820152602160248201527f6e6674636f756e742073686f756c642062652067726561746572207468616e206044820152600360fc1b60648201526084016105e4565b610e21848484604051806020016040528060008152506112b1565b50506001600555919050565b610e383383836113c1565b5050565b6001600160a01b038516331480610e585750610e58853361050e565b610eb65760405162461bcd60e51b815260206004820152602960248201527f455243313135353a2063616c6c6572206973206e6f74206f776e6572206e6f7260448201526808185c1c1c9bdd995960ba1b60648201526084016105e4565b61099f85858585856114a2565b6004546001600160a01b03163314610eed5760405162461bcd60e51b81526004016105e490611f6b565b6001600160a01b038116610f525760405162461bcd60e51b815260206004820152602660248201527f4f776e61626c653a206e6577206f776e657220697320746865207a65726f206160448201526564647265737360d01b60648201526084016105e4565b6106ac8161125f565b8051610e3890600290602084019061194b565b606081610f925750506040805180820190915260018152600360fc1b602082015290565b8160005b8115610fbc5780610fa681612125565b9150610fb59050600a8361218d565b9150610f96565b60008167ffffffffffffffff811115610fd757610fd7611a5f565b6040519080825280601f01601f191660200182016040528015611001576020820181803683370190505b5090505b841561106c576110166001836121a1565b9150611023600a866121b8565b61102e90603061215f565b60f81b818381518110611043576110436120f9565b60200101906001600160f81b031916908160001a905350611065600a8661218d565b9450611005565b949350505050565b81518351146110d65760405162461bcd60e51b815260206004820152602860248201527f455243313135353a2069647320616e6420616d6f756e7473206c656e677468206044820152670dad2e6dac2e8c6d60c31b60648201526084016105e4565b6001600160a01b0384166110fc5760405162461bcd60e51b81526004016105e4906121cc565b3361110b8187878787876115bf565b60005b84518110156111f157600085828151811061112b5761112b6120f9565b602002602001015190506000858381518110611149576111496120f9565b602090810291909101810151600084815280835260408082206001600160a01b038e1683529093529190912054909150818110156111995760405162461bcd60e51b81526004016105e490612211565b6000838152602081815260408083206001600160a01b038e8116855292528083208585039055908b168252812080548492906111d690849061215f565b92505081905550505050806111ea90612125565b905061110e565b50846001600160a01b0316866001600160a01b0316826001600160a01b03167f4a39dc06d4c0dbc64b70af90fd698a233a518aa5d07e595d983b8c0526c8f7fb878760405161124192919061225b565b60405180910390a46112578187878787876116cb565b505050505050565b600480546001600160a01b038381166001600160a01b0319831681179093556040519116919082907f8be0079c531659141344cd1fd0a4f28419497f9722a3daafe3b4186f6b6457e090600090a35050565b6001600160a01b0384166113115760405162461bcd60e51b815260206004820152602160248201527f455243313135353a206d696e7420746f20746865207a65726f206164647265736044820152607360f81b60648201526084016105e4565b336113318160008761132288611836565b61132b88611836565b876115bf565b6000848152602081815260408083206001600160a01b03891684529091528120805485929061136190849061215f565b909155505060408051858152602081018590526001600160a01b0380881692600092918516917fc3d58168c5ae7397731d063d5bbf3d657854427343f4c083240f7aacaa2d0f62910160405180910390a461099f81600087878787611881565b816001600160a01b0316836001600160a01b031614156114355760405162461bcd60e51b815260206004820152602960248201527f455243313135353a2073657474696e6720617070726f76616c20737461747573604482015268103337b91039b2b63360b91b60648201526084016105e4565b6001600160a01b03838116600081815260016020908152604080832094871680845294825291829020805460ff191686151590811790915591519182527f17307eab39ab6107e8899845ad3d59bd9653f200f220920489ca2b5937696c31910160405180910390a3505050565b6001600160a01b0384166114c85760405162461bcd60e51b81526004016105e4906121cc565b336114d881878761132288611836565b6000848152602081815260408083206001600160a01b038a168452909152902054838110156115195760405162461bcd60e51b81526004016105e490612211565b6000858152602081815260408083206001600160a01b038b811685529252808320878503905590881682528120805486929061155690849061215f565b909155505060408051868152602081018690526001600160a01b03808916928a821692918616917fc3d58168c5ae7397731d063d5bbf3d657854427343f4c083240f7aacaa2d0f62910160405180910390a46115b6828888888888611881565b50505050505050565b6001600160a01b0385166116465760005b8351811015611644578281815181106115eb576115eb6120f9565b602002602001015160036000868481518110611609576116096120f9565b60200260200101518152602001908152602001600020600082825461162e919061215f565b9091555061163d905081612125565b90506115d0565b505b6001600160a01b0384166112575760005b83518110156115b657828181518110611672576116726120f9565b602002602001015160036000868481518110611690576116906120f9565b6020026020010151815260200190815260200160002060008282546116b591906121a1565b909155506116c4905081612125565b9050611657565b6001600160a01b0384163b156112575760405163bc197c8160e01b81526001600160a01b0385169063bc197c819061170f9089908990889088908890600401612280565b602060405180830381600087803b15801561172957600080fd5b505af1925050508015611759575060408051601f3d908101601f19168201909252611756918101906122de565b60015b611806576117656122fb565b806308c379a0141561179f575061177a612317565b8061178557506117a1565b8060405162461bcd60e51b81526004016105e49190611ba5565b505b60405162461bcd60e51b815260206004820152603460248201527f455243313135353a207472616e7366657220746f206e6f6e20455243313135356044820152732932b1b2b4bb32b91034b6b83632b6b2b73a32b960611b60648201526084016105e4565b6001600160e01b0319811663bc197c8160e01b146115b65760405162461bcd60e51b81526004016105e4906123a1565b60408051600180825281830190925260609160009190602080830190803683370190505090508281600081518110611870576118706120f9565b602090810291909101015292915050565b6001600160a01b0384163b156112575760405163f23a6e6160e01b81526001600160a01b0385169063f23a6e61906118c590899089908890889088906004016123e9565b602060405180830381600087803b1580156118df57600080fd5b505af192505050801561190f575060408051601f3d908101601f1916820190925261190c918101906122de565b60015b61191b576117656122fb565b6001600160e01b0319811663f23a6e6160e01b146115b65760405162461bcd60e51b81526004016105e4906123a1565b82805461195790611fa0565b90600052602060002090601f01602090048101928261197957600085556119bf565b82601f1061199257805160ff19168380011785556119bf565b828001600101855582156119bf579182015b828111156119bf5782518255916020019190600101906119a4565b506119cb9291506119cf565b5090565b5b808211156119cb57600081556001016119d0565b80356001600160a01b03811681146107f557600080fd5b60008060408385031215611a0e57600080fd5b611a17836119e4565b946020939093013593505050565b6001600160e01b0319811681146106ac57600080fd5b600060208284031215611a4d57600080fd5b8135611a5881611a25565b9392505050565b634e487b7160e01b600052604160045260246000fd5b601f8201601f1916810167ffffffffffffffff81118282101715611a9b57611a9b611a5f565b6040525050565b600067ffffffffffffffff831115611abc57611abc611a5f565b604051611ad3601f8501601f191660200182611a75565b809150838152848484011115611ae857600080fd5b83836020830137600060208583010152509392505050565b600060208284031215611b1257600080fd5b813567ffffffffffffffff811115611b2957600080fd5b8201601f81018413611b3a57600080fd5b61106c84823560208401611aa2565b60005b83811015611b64578181015183820152602001611b4c565b83811115611b73576000848401525b50505050565b60008151808452611b91816020860160208601611b49565b601f01601f19169290920160200192915050565b602081526000611a586020830184611b79565b600060208284031215611bca57600080fd5b611a58826119e4565b600060208284031215611be557600080fd5b5035919050565b600067ffffffffffffffff821115611c0657611c06611a5f565b5060051b60200190565b600082601f830112611c2157600080fd5b81356020611c2e82611bec565b604051611c3b8282611a75565b83815260059390931b8501820192828101915086841115611c5b57600080fd5b8286015b84811015611c765780358352918301918301611c5f565b509695505050505050565b600082601f830112611c9257600080fd5b611a5883833560208501611aa2565b600080600080600060a08688031215611cb957600080fd5b611cc2866119e4565b9450611cd0602087016119e4565b9350604086013567ffffffffffffffff80821115611ced57600080fd5b611cf989838a01611c10565b94506060880135915080821115611d0f57600080fd5b611d1b89838a01611c10565b93506080880135915080821115611d3157600080fd5b50611d3e88828901611c81565b9150509295509295909350565b60008060408385031215611d5e57600080fd5b823567ffffffffffffffff80821115611d7657600080fd5b818501915085601f830112611d8a57600080fd5b81356020611d9782611bec565b604051611da48282611a75565b83815260059390931b8501820192828101915089841115611dc457600080fd5b948201945b83861015611de957611dda866119e4565b82529482019490820190611dc9565b96505086013592505080821115611dff57600080fd5b50611e0c85828601611c10565b9150509250929050565b600081518084526020808501945080840160005b83811015611e4657815187529582019590820190600101611e2a565b509495945050505050565b602081526000611a586020830184611e16565b600080600060608486031215611e7957600080fd5b611e82846119e4565b95602085013595506040909401359392505050565b60008060408385031215611eaa57600080fd5b611eb3836119e4565b915060208301358015158114611ec857600080fd5b809150509250929050565b60008060408385031215611ee657600080fd5b611eef836119e4565b9150611efd602084016119e4565b90509250929050565b600080600080600060a08688031215611f1e57600080fd5b611f27866119e4565b9450611f35602087016119e4565b93506040860135925060608601359150608086013567ffffffffffffffff811115611f5f57600080fd5b611d3e88828901611c81565b6020808252818101527f4f776e61626c653a2063616c6c6572206973206e6f7420746865206f776e6572604082015260600190565b600181811c90821680611fb457607f821691505b60208210811415611fd557634e487b7160e01b600052602260045260246000fd5b50919050565b60208082526027908201527f4f776e657220636f6c6c656374696f6e206f776e65722063616e206368616e67604082015266329037bbb732b960c91b606082015260800190565b60008151612034818560208601611b49565b9290920192915050565b600080845481600182811c91508083168061205a57607f831692505b602080841082141561207a57634e487b7160e01b86526022600452602486fd5b81801561208e576001811461209f576120cc565b60ff198616895284890196506120cc565b60008b81526020902060005b868110156120c45781548b8201529085019083016120ab565b505084890196505b5050505050506120f06120df8286612022565b64173539b7b760d91b815260050190565b95945050505050565b634e487b7160e01b600052603260045260246000fd5b634e487b7160e01b600052601160045260246000fd5b60006000198214156121395761213961210f565b5060010190565b600081600019048311821515161561215a5761215a61210f565b500290565b600082198211156121725761217261210f565b500190565b634e487b7160e01b600052601260045260246000fd5b60008261219c5761219c612177565b500490565b6000828210156121b3576121b361210f565b500390565b6000826121c7576121c7612177565b500690565b60208082526025908201527f455243313135353a207472616e7366657220746f20746865207a65726f206164604082015264647265737360d81b606082015260800190565b6020808252602a908201527f455243313135353a20696e73756666696369656e742062616c616e636520666f60408201526939103a3930b739b332b960b11b606082015260800190565b60408152600061226e6040830185611e16565b82810360208401526120f08185611e16565b6001600160a01b0386811682528516602082015260a0604082018190526000906122ac90830186611e16565b82810360608401526122be8186611e16565b905082810360808401526122d28185611b79565b98975050505050505050565b6000602082840312156122f057600080fd5b8151611a5881611a25565b600060033d11156123145760046000803e5060005160e01c5b90565b600060443d10156123255790565b6040516003193d81016004833e81513d67ffffffffffffffff816024840111818411171561235557505050505090565b828501915081518181111561236d5750505050505090565b843d87010160208285010111156123875750505050505090565b61239660208286010187611a75565b509095945050505050565b60208082526028908201527f455243313135353a204552433131353552656365697665722072656a656374656040820152676420746f6b656e7360c01b606082015260800190565b6001600160a01b03868116825285166020820152604081018490526060810183905260a06080820181905260009061242390830184611b79565b97965050505050505056fea26469706673582212200b95c84e7e3e766a7e8e52a478d7c6e371e6db49f95b32e2402b481103e237f464736f6c6343000809003368747470733a2f2f676174657761792e70696e6174612e636c6f75642f697066732f",
  "linkReferences": {},
  "deployedLinkReferences": {}
}