{
  "_format": "hh-sol-artifact-1",
  "contractName": "ERC721SmartContract",
  "sourceName": "contracts/ERC721SmartContract.sol",
  "abi": [
    {
      "inputs": [
        {
          "internalType": "string",
          "name": "name",
          "type": "string"
        },
        {
          "internalType": "string",
          "name": "symbol",
          "type": "string"
        },
        {
          "internalType": "uint256",
          "name": "_maxSupply",
          "type": "uint256"
        },
        {
          "internalType": "string",
          "name": "_uri",
          "type": "string"
        }
      ],
      "stateMutability": "nonpayable",
      "type": "constructor"
    },
    {
      "anonymous": false,
      "inputs": [
        {
          "indexed": true,
          "internalType": "address",
          "name": "owner",
          "type": "address"
        },
        {
          "indexed": true,
          "internalType": "address",
          "name": "approved",
          "type": "address"
        },
        {
          "indexed": true,
          "internalType": "uint256",
          "name": "tokenId",
          "type": "uint256"
        }
      ],
      "name": "Approval",
      "type": "event"
    },
    {
      "anonymous": false,
      "inputs": [
        {
          "indexed": true,
          "internalType": "address",
          "name": "owner",
          "type": "address"
        },
        {
          "indexed": true,
          "internalType": "address",
          "name": "operator",
          "type": "address"
        },
        {
          "indexed": false,
          "internalType": "bool",
          "name": "approved",
          "type": "bool"
        }
      ],
      "name": "ApprovalForAll",
      "type": "event"
    },
    {
      "anonymous": false,
      "inputs": [
        {
          "indexed": true,
          "internalType": "address",
          "name": "previousOwner",
          "type": "address"
        },
        {
          "indexed": true,
          "internalType": "address",
          "name": "newOwner",
          "type": "address"
        }
      ],
      "name": "OwnershipTransferred",
      "type": "event"
    },
    {
      "anonymous": false,
      "inputs": [
        {
          "indexed": true,
          "internalType": "address",
          "name": "from",
          "type": "address"
        },
        {
          "indexed": true,
          "internalType": "address",
          "name": "to",
          "type": "address"
        },
        {
          "indexed": true,
          "internalType": "uint256",
          "name": "tokenId",
          "type": "uint256"
        }
      ],
      "name": "Transfer",
      "type": "event"
    },
    {
      "inputs": [
        {
          "internalType": "address",
          "name": "to",
          "type": "address"
        },
        {
          "internalType": "uint256",
          "name": "tokenId",
          "type": "uint256"
        }
      ],
      "name": "approve",
      "outputs": [],
      "stateMutability": "nonpayable",
      "type": "function"
    },
    {
      "inputs": [
        {
          "internalType": "address",
          "name": "owner",
          "type": "address"
        }
      ],
      "name": "balanceOf",
      "outputs": [
        {
          "internalType": "uint256",
          "name": "",
          "type": "uint256"
        }
      ],
      "stateMutability": "view",
      "type": "function"
    },
    {
      "inputs": [
        {
          "internalType": "uint256",
          "name": "tokenId",
          "type": "uint256"
        }
      ],
      "name": "getApproved",
      "outputs": [
        {
          "internalType": "address",
          "name": "",
          "type": "address"
        }
      ],
      "stateMutability": "view",
      "type": "function"
    },
    {
      "inputs": [],
      "name": "getBaseURI",
      "outputs": [
        {
          "internalType": "string",
          "name": "",
          "type": "string"
        }
      ],
      "stateMutability": "view",
      "type": "function"
    },
    {
      "inputs": [
        {
          "internalType": "address",
          "name": "owner",
          "type": "address"
        },
        {
          "internalType": "address",
          "name": "operator",
          "type": "address"
        }
      ],
      "name": "isApprovedForAll",
      "outputs": [
        {
          "internalType": "bool",
          "name": "",
          "type": "bool"
        }
      ],
      "stateMutability": "view",
      "type": "function"
    },
    {
      "inputs": [],
      "name": "maxSupply",
      "outputs": [
        {
          "internalType": "uint256",
          "name": "",
          "type": "uint256"
        }
      ],
      "stateMutability": "view",
      "type": "function"
    },
    {
      "inputs": [
        {
          "internalType": "address",
          "name": "tokenOwner",
          "type": "address"
        }
      ],
      "name": "mint",
      "outputs": [
        {
          "internalType": "uint256",
          "name": "",
          "type": "uint256"
        }
      ],
      "stateMutability": "nonpayable",
      "type": "function"
    },
    {
      "inputs": [],
      "name": "name",
      "outputs": [
        {
          "internalType": "string",
          "name": "",
          "type": "string"
        }
      ],
      "stateMutability": "view",
      "type": "function"
    },
    {
      "inputs": [],
      "name": "owner",
      "outputs": [
        {
          "internalType": "address",
          "name": "",
          "type": "address"
        }
      ],
      "stateMutability": "view",
      "type": "function"
    },
    {
      "inputs": [
        {
          "internalType": "uint256",
          "name": "tokenId",
          "type": "uint256"
        }
      ],
      "name": "ownerOf",
      "outputs": [
        {
          "internalType": "address",
          "name": "",
          "type": "address"
        }
      ],
      "stateMutability": "view",
      "type": "function"
    },
    {
      "inputs": [],
      "name": "renounceOwnership",
      "outputs": [],
      "stateMutability": "nonpayable",
      "type": "function"
    },
    {
      "inputs": [
        {
          "internalType": "address",
          "name": "from",
          "type": "address"
        },
        {
          "internalType": "address",
          "name": "to",
          "type": "address"
        },
        {
          "internalType": "uint256",
          "name": "tokenId",
          "type": "uint256"
        }
      ],
      "name": "safeTransferFrom",
      "outputs": [],
      "stateMutability": "nonpayable",
      "type": "function"
    },
    {
      "inputs": [
        {
          "internalType": "address",
          "name": "from",
          "type": "address"
        },
        {
          "internalType": "address",
          "name": "to",
          "type": "address"
        },
        {
          "internalType": "uint256",
          "name": "tokenId",
          "type": "uint256"
        },
        {
          "internalType": "bytes",
          "name": "_data",
          "type": "bytes"
        }
      ],
      "name": "safeTransferFrom",
      "outputs": [],
      "stateMutability": "nonpayable",
      "type": "function"
    },
    {
      "inputs": [
        {
          "internalType": "address",
          "name": "operator",
          "type": "address"
        },
        {
          "internalType": "bool",
          "name": "approved",
          "type": "bool"
        }
      ],
      "name": "setApprovalForAll",
      "outputs": [],
      "stateMutability": "nonpayable",
      "type": "function"
    },
    {
      "inputs": [
        {
          "internalType": "string",
          "name": "_newBaseURI",
          "type": "string"
        }
      ],
      "name": "setBaseURI",
      "outputs": [],
      "stateMutability": "nonpayable",
      "type": "function"
    },
    {
      "inputs": [
        {
          "internalType": "bytes4",
          "name": "interfaceId",
          "type": "bytes4"
        }
      ],
      "name": "supportsInterface",
      "outputs": [
        {
          "internalType": "bool",
          "name": "",
          "type": "bool"
        }
      ],
      "stateMutability": "view",
      "type": "function"
    },
    {
      "inputs": [],
      "name": "symbol",
      "outputs": [
        {
          "internalType": "string",
          "name": "",
          "type": "string"
        }
      ],
      "stateMutability": "view",
      "type": "function"
    },
    {
      "inputs": [
        {
          "internalType": "uint256",
          "name": "tokenId",
          "type": "uint256"
        }
      ],
      "name": "tokenURI",
      "outputs": [
        {
          "internalType": "string",
          "name": "",
          "type": "string"
        }
      ],
      "stateMutability": "view",
      "type": "function"
    },
    {
      "inputs": [
        {
          "internalType": "address",
          "name": "from",
          "type": "address"
        },
        {
          "internalType": "address",
          "name": "to",
          "type": "address"
        },
        {
          "internalType": "uint256",
          "name": "tokenId",
          "type": "uint256"
        }
      ],
      "name": "transferFrom",
      "outputs": [],
      "stateMutability": "nonpayable",
      "type": "function"
    },
    {
      "inputs": [
        {
          "internalType": "address",
          "name": "newOwner",
          "type": "address"
        }
      ],
      "name": "transferOwnership",
      "outputs": [],
      "stateMutability": "nonpayable",
      "type": "function"
    }
  ],
  "bytecode": "0x60806040523480156200001157600080fd5b5060405162001b3638038062001b36833981016040819052620000349162000273565b8351849084906200004d90600090602085019062000100565b5080516200006390600190602084019062000100565b505050620000806200007a620000aa60201b60201c565b620000ae565b6001600755600982905580516200009f90600a90602084019062000100565b50505050506200034b565b3390565b600680546001600160a01b038381166001600160a01b0319831681179093556040519116919082907f8be0079c531659141344cd1fd0a4f28419497f9722a3daafe3b4186f6b6457e090600090a35050565b8280546200010e906200030e565b90600052602060002090601f0160209004810192826200013257600085556200017d565b82601f106200014d57805160ff19168380011785556200017d565b828001600101855582156200017d579182015b828111156200017d57825182559160200191906001019062000160565b506200018b9291506200018f565b5090565b5b808211156200018b576000815560010162000190565b634e487b7160e01b600052604160045260246000fd5b600082601f830112620001ce57600080fd5b81516001600160401b0380821115620001eb57620001eb620001a6565b604051601f8301601f19908116603f01168101908282118183101715620002165762000216620001a6565b816040528381526020925086838588010111156200023357600080fd5b600091505b8382101562000257578582018301518183018401529082019062000238565b83821115620002695760008385830101525b9695505050505050565b600080600080608085870312156200028a57600080fd5b84516001600160401b0380821115620002a257600080fd5b620002b088838901620001bc565b95506020870151915080821115620002c757600080fd5b620002d588838901620001bc565b9450604087015193506060870151915080821115620002f357600080fd5b506200030287828801620001bc565b91505092959194509250565b600181811c908216806200032357607f821691505b602082108114156200034557634e487b7160e01b600052602260045260246000fd5b50919050565b6117db806200035b6000396000f3fe608060405234801561001057600080fd5b506004361061012c5760003560e01c8063714c5398116100ad578063b88d4fde11610071578063b88d4fde1461026a578063c87b56dd1461027d578063d5abeb0114610290578063e985e9c514610299578063f2fde38b146102d557600080fd5b8063714c53981461022e578063715018a6146102365780638da5cb5b1461023e57806395d89b411461024f578063a22cb4651461025757600080fd5b806342842e0e116100f457806342842e0e146101c157806355f804b3146101d45780636352211e146101e75780636a627842146101fa57806370a082311461021b57600080fd5b806301ffc9a71461013157806306fdde0314610159578063081812fc1461016e578063095ea7b31461019957806323b872dd146101ae575b600080fd5b61014461013f366004611257565b6102e8565b60405190151581526020015b60405180910390f35b61016161033a565b60405161015091906112cc565b61018161017c3660046112df565b6103cc565b6040516001600160a01b039091168152602001610150565b6101ac6101a7366004611314565b610466565b005b6101ac6101bc36600461133e565b61057c565b6101ac6101cf36600461133e565b6105ad565b6101ac6101e2366004611406565b6105c8565b6101816101f53660046112df565b610609565b61020d61020836600461144f565b610680565b604051908152602001610150565b61020d61022936600461144f565b61075e565b6101616107e5565b6101ac6107f4565b6006546001600160a01b0316610181565b61016161082a565b6101ac61026536600461146a565b610839565b6101ac6102783660046114a6565b610844565b61016161028b3660046112df565b61087c565b61020d60095481565b6101446102a7366004611522565b6001600160a01b03918216600090815260056020908152604080832093909416825291909152205460ff1690565b6101ac6102e336600461144f565b61095c565b60006001600160e01b031982166380ac58cd60e01b148061031957506001600160e01b03198216635b5e139f60e01b145b8061033457506301ffc9a760e01b6001600160e01b03198316145b92915050565b60606000805461034990611555565b80601f016020809104026020016040519081016040528092919081815260200182805461037590611555565b80156103c25780601f10610397576101008083540402835291602001916103c2565b820191906000526020600020905b8154815290600101906020018083116103a557829003601f168201915b5050505050905090565b6000818152600260205260408120546001600160a01b031661044a5760405162461bcd60e51b815260206004820152602c60248201527f4552433732313a20617070726f76656420717565727920666f72206e6f6e657860448201526b34b9ba32b73a103a37b5b2b760a11b60648201526084015b60405180910390fd5b506000908152600460205260409020546001600160a01b031690565b600061047182610609565b9050806001600160a01b0316836001600160a01b031614156104df5760405162461bcd60e51b815260206004820152602160248201527f4552433732313a20617070726f76616c20746f2063757272656e74206f776e656044820152603960f91b6064820152608401610441565b336001600160a01b03821614806104fb57506104fb81336102a7565b61056d5760405162461bcd60e51b815260206004820152603860248201527f4552433732313a20617070726f76652063616c6c6572206973206e6f74206f7760448201527f6e6572206e6f7220617070726f76656420666f7220616c6c00000000000000006064820152608401610441565b61057783836109f7565b505050565b6105863382610a65565b6105a25760405162461bcd60e51b815260040161044190611590565b610577838383610b5c565b61057783838360405180602001604052806000815250610844565b6006546001600160a01b031633146105f25760405162461bcd60e51b8152600401610441906115e1565b805161060590600a9060208401906111a8565b5050565b6000818152600260205260408120546001600160a01b0316806103345760405162461bcd60e51b815260206004820152602960248201527f4552433732313a206f776e657220717565727920666f72206e6f6e657869737460448201526832b73a103a37b5b2b760b91b6064820152608401610441565b6000600260075414156106d55760405162461bcd60e51b815260206004820152601f60248201527f5265656e7472616e637947756172643a207265656e7472616e742063616c6c006044820152606401610441565b60026007556106e8600880546001019055565b600954600854111561073c5760405162461bcd60e51b815260206004820152601f60248201527f43616e2774206d696e74206d6f7265207468616e206d617820737570706c79006044820152606401610441565b600061074760085490565b90506107538382610cf8565b600160075592915050565b60006001600160a01b0382166107c95760405162461bcd60e51b815260206004820152602a60248201527f4552433732313a2062616c616e636520717565727920666f7220746865207a65604482015269726f206164647265737360b01b6064820152608401610441565b506001600160a01b031660009081526003602052604090205490565b60606107ef610e3a565b905090565b6006546001600160a01b0316331461081e5760405162461bcd60e51b8152600401610441906115e1565b6108286000610e49565b565b60606001805461034990611555565b610605338383610e9b565b61084e3383610a65565b61086a5760405162461bcd60e51b815260040161044190611590565b61087684848484610f6a565b50505050565b6000818152600260205260409020546060906001600160a01b03166109005760405162461bcd60e51b815260206004820152603460248201527f455243373231536d617274436f6e74726163743a20555249207175657279206660448201527337b9103737b732bc34b9ba32b73a103a37b5b2b760611b6064820152608401610441565b600061090a610e3a565b9050600081511161092a5760405180602001604052806000815250610955565b8061093484610f9d565b604051602001610945929190611616565b6040516020818303038152906040525b9392505050565b6006546001600160a01b031633146109865760405162461bcd60e51b8152600401610441906115e1565b6001600160a01b0381166109eb5760405162461bcd60e51b815260206004820152602660248201527f4f776e61626c653a206e6577206f776e657220697320746865207a65726f206160448201526564647265737360d01b6064820152608401610441565b6109f481610e49565b50565b600081815260046020526040902080546001600160a01b0319166001600160a01b0384169081179091558190610a2c82610609565b6001600160a01b03167f8c5be1e5ebec7d5bd14f71427d1e84f3dd0314c0f7b2291e5b200ac8c7c3b92560405160405180910390a45050565b6000818152600260205260408120546001600160a01b0316610ade5760405162461bcd60e51b815260206004820152602c60248201527f4552433732313a206f70657261746f7220717565727920666f72206e6f6e657860448201526b34b9ba32b73a103a37b5b2b760a11b6064820152608401610441565b6000610ae983610609565b9050806001600160a01b0316846001600160a01b03161480610b245750836001600160a01b0316610b19846103cc565b6001600160a01b0316145b80610b5457506001600160a01b0380821660009081526005602090815260408083209388168352929052205460ff165b949350505050565b826001600160a01b0316610b6f82610609565b6001600160a01b031614610bd35760405162461bcd60e51b815260206004820152602560248201527f4552433732313a207472616e736665722066726f6d20696e636f72726563742060448201526437bbb732b960d91b6064820152608401610441565b6001600160a01b038216610c355760405162461bcd60e51b8152602060048201526024808201527f4552433732313a207472616e7366657220746f20746865207a65726f206164646044820152637265737360e01b6064820152608401610441565b610c406000826109f7565b6001600160a01b0383166000908152600360205260408120805460019290610c6990849061165b565b90915550506001600160a01b0382166000908152600360205260408120805460019290610c97908490611672565b909155505060008181526002602052604080822080546001600160a01b0319166001600160a01b0386811691821790925591518493918716917fddf252ad1be2c89b69c2b068fc378daa952ba7f163c4a11628f55a4df523b3ef91a4505050565b6001600160a01b038216610d4e5760405162461bcd60e51b815260206004820181905260248201527f4552433732313a206d696e7420746f20746865207a65726f20616464726573736044820152606401610441565b6000818152600260205260409020546001600160a01b031615610db35760405162461bcd60e51b815260206004820152601c60248201527f4552433732313a20746f6b656e20616c7265616479206d696e746564000000006044820152606401610441565b6001600160a01b0382166000908152600360205260408120805460019290610ddc908490611672565b909155505060008181526002602052604080822080546001600160a01b0319166001600160a01b03861690811790915590518392907fddf252ad1be2c89b69c2b068fc378daa952ba7f163c4a11628f55a4df523b3ef908290a45050565b6060600a805461034990611555565b600680546001600160a01b038381166001600160a01b0319831681179093556040519116919082907f8be0079c531659141344cd1fd0a4f28419497f9722a3daafe3b4186f6b6457e090600090a35050565b816001600160a01b0316836001600160a01b03161415610efd5760405162461bcd60e51b815260206004820152601960248201527f4552433732313a20617070726f766520746f2063616c6c6572000000000000006044820152606401610441565b6001600160a01b03838116600081815260056020908152604080832094871680845294825291829020805460ff191686151590811790915591519182527f17307eab39ab6107e8899845ad3d59bd9653f200f220920489ca2b5937696c31910160405180910390a3505050565b610f75848484610b5c565b610f818484848461109b565b6108765760405162461bcd60e51b81526004016104419061168a565b606081610fc15750506040805180820190915260018152600360fc1b602082015290565b8160005b8115610feb5780610fd5816116dc565b9150610fe49050600a8361170d565b9150610fc5565b60008167ffffffffffffffff8111156110065761100661137a565b6040519080825280601f01601f191660200182016040528015611030576020820181803683370190505b5090505b8415610b545761104560018361165b565b9150611052600a86611721565b61105d906030611672565b60f81b81838151811061107257611072611735565b60200101906001600160f81b031916908160001a905350611094600a8661170d565b9450611034565b60006001600160a01b0384163b1561119d57604051630a85bd0160e11b81526001600160a01b0385169063150b7a02906110df90339089908890889060040161174b565b602060405180830381600087803b1580156110f957600080fd5b505af1925050508015611129575060408051601f3d908101601f1916820190925261112691810190611788565b60015b611183573d808015611157576040519150601f19603f3d011682016040523d82523d6000602084013e61115c565b606091505b50805161117b5760405162461bcd60e51b81526004016104419061168a565b805181602001fd5b6001600160e01b031916630a85bd0160e11b149050610b54565b506001949350505050565b8280546111b490611555565b90600052602060002090601f0160209004810192826111d6576000855561121c565b82601f106111ef57805160ff191683800117855561121c565b8280016001018555821561121c579182015b8281111561121c578251825591602001919060010190611201565b5061122892915061122c565b5090565b5b80821115611228576000815560010161122d565b6001600160e01b0319811681146109f457600080fd5b60006020828403121561126957600080fd5b813561095581611241565b60005b8381101561128f578181015183820152602001611277565b838111156108765750506000910152565b600081518084526112b8816020860160208601611274565b601f01601f19169290920160200192915050565b60208152600061095560208301846112a0565b6000602082840312156112f157600080fd5b5035919050565b80356001600160a01b038116811461130f57600080fd5b919050565b6000806040838503121561132757600080fd5b611330836112f8565b946020939093013593505050565b60008060006060848603121561135357600080fd5b61135c846112f8565b925061136a602085016112f8565b9150604084013590509250925092565b634e487b7160e01b600052604160045260246000fd5b600067ffffffffffffffff808411156113ab576113ab61137a565b604051601f8501601f19908116603f011681019082821181831017156113d3576113d361137a565b816040528093508581528686860111156113ec57600080fd5b858560208301376000602087830101525050509392505050565b60006020828403121561141857600080fd5b813567ffffffffffffffff81111561142f57600080fd5b8201601f8101841361144057600080fd5b610b5484823560208401611390565b60006020828403121561146157600080fd5b610955826112f8565b6000806040838503121561147d57600080fd5b611486836112f8565b91506020830135801515811461149b57600080fd5b809150509250929050565b600080600080608085870312156114bc57600080fd5b6114c5856112f8565b93506114d3602086016112f8565b925060408501359150606085013567ffffffffffffffff8111156114f657600080fd5b8501601f8101871361150757600080fd5b61151687823560208401611390565b91505092959194509250565b6000806040838503121561153557600080fd5b61153e836112f8565b915061154c602084016112f8565b90509250929050565b600181811c9082168061156957607f821691505b6020821081141561158a57634e487b7160e01b600052602260045260246000fd5b50919050565b60208082526031908201527f4552433732313a207472616e736665722063616c6c6572206973206e6f74206f6040820152701ddb995c881b9bdc88185c1c1c9bdd9959607a1b606082015260800190565b6020808252818101527f4f776e61626c653a2063616c6c6572206973206e6f7420746865206f776e6572604082015260600190565b60008351611628818460208801611274565b83519083019061163c818360208801611274565b01949350505050565b634e487b7160e01b600052601160045260246000fd5b60008282101561166d5761166d611645565b500390565b6000821982111561168557611685611645565b500190565b60208082526032908201527f4552433732313a207472616e7366657220746f206e6f6e20455243373231526560408201527131b2b4bb32b91034b6b83632b6b2b73a32b960711b606082015260800190565b60006000198214156116f0576116f0611645565b5060010190565b634e487b7160e01b600052601260045260246000fd5b60008261171c5761171c6116f7565b500490565b600082611730576117306116f7565b500690565b634e487b7160e01b600052603260045260246000fd5b6001600160a01b038581168252841660208201526040810183905260806060820181905260009061177e908301846112a0565b9695505050505050565b60006020828403121561179a57600080fd5b81516109558161124156fea26469706673582212208034cc4c198a3bfd1fa513870af015f83247d9c14569b0fe80d48331e234449064736f6c63430008090033",
  "linkReferences": {},
  "deployedLinkReferences": {}
}